:101441009002D57403F0E49002D4F07B017A027922
:06145100D47F030206E94E
:10134D009002D47440F0A37401F0A3120AD90001E5
:10135D00C2009002DB7401F0E4A3F07B017A027904
:10136D00D47F011200967D017F01120FC753A23F5A
:01137D00224D
:0D15100043BA8012144112134DD2AF80FE79
:0E150200E4F5C7F5C5F5C675C3FF75C4FF2235
:07000300ECF5C3AF058FC44B
:10000A00A2AF92D5C2AF75C65A75C6A50000A2D5D1
:03001A0092AF2280
:10131B00AD07AC0675C78075F51875C501120003CE
:10132B00E5C21209830DBD00010C740129F9E43AE1
:10133B00FA9002EC74FFF5F012099545F070DE029D
:02134B00150289
:10145700AD07AC0675C78075F51875C5031200038F
:0314670002150269
:10104200AD07AC0675C78075F51875C502ECF5C31A
:10105200AF058FC412093DF5C212000A0DBD000191
:101062000C740129F9E43AFA9002F374FFF5F012D4
:09107200099545F070D702150242
:0F14B6007D607C09ED1D70011C144C70F7DFF197
:0114C5002204
:1006E900EFD3940740037FFF2212093DFED3940301
:1006F90040037FFF22EF7041EE700B900001120959
:1007090056F45293529412093DB4010B9000011210
:1007190009564293F4529412093DFEB4020A90001C
:100729000112095642934294EEB4030D900001124E
:100739000956FEF45293EE4294EF64017043120994
:100749003DFE700B900001120956F452915292EE3F
:10075900B4010B9000011209564291F45292120908
:100769003DB4020A900001120956429142921209BF
:100779003DB4030D900001120956FEF45291EE4268
:1007890092EF6402704312093DFE700B9000011252
:100799000956F452955296EEB4010B9000011209D4
:1007A900564295F4529612093DB4020A900001127C
:1007B90009564295429612093DB4030D9000011263
:1007C9000956FEF45295EE4296EF640370431209FE
:1007D9003DFE700B900001120956F452B152B2EE6F
:1007E900B4010B90000112095642B1F452B2120938
:1007F9003DB4020A90000112095642B142B21209EF
:100809003DB4030D900001120956FEF452B1EE42B7
:10081900B2EF6404704312093DFE700B900001129F
:100829000956F452B352B4EEB4010B900001120907
:100839005642B3F452B412093DB4020A90000112AF
:10084900095642B342B412093DB4030D9000011296
:100859000956FEF452B3EE42B4EF6405704312092F
:100869003DFE700B900001120956F452C952CAEEAE
:10087900B4010B90000112095642C9F452CA120977
:100889003DB4020A90000112095642C942CA12092E
:100899003DB4030D900001120956FEF452C9EE420F
:1008A900CAEF6406704312093DFE700B90000112F5
:1008B9000956F452CB52CCEEB4010B900001120947
:1008C9005642CBF452CC12093DB4020A90000112EF
:1008D900095642CB42CC12093DB4030D90000112D6
:1008E9000956FEF452CBEE42CCEF6407704312096D
:1008F9003DFF700B900001120956F452E152E2EFEC
:10090900B4010B90000112095642E1F452E21209B6
:100919003DB4020A90000112095642E142E212096D
:100929003DB4030D900001120956FFF452E1EF4264
:04093900E27F002237
:100E8200EFD3940140037FFF22EDD3940340037F0D
:100E9200FF22EF7004C2A98002D2A9ED700553B7F8
:100EA200FDC2B9EDB4010553B7FDD2B9EDB40205E7
:100EB20043B702C2B9EDB4030543B702D2B97F000A
:010EC200220D
:100EC300EFD3940140037FFF22EDD3940340037FCC
:100ED300FF22EF7004C2AB8002D2ABED700553B7B3
:100EE300F7C2BBEDB4010553B7F7D2BBEDB40205AE
:100EF30043B708C2BBEDB4030543B708D2BB7F00B9
:010F030022CB
:1013CC00EFD3940140037FFF22EDD3940340037FBE
:1013DC00FF22EF25E025E0FFE5AF54FB4FF5AFE42E
:0213EC00FF22DE
:1013EE00EFD3940140037FFF22EDD3940340037F9C
:1013FE00FF22EFC43354E0FFE5AF54DF4FF5AFE407
:02140E00FF22BB
:1013A900EFD3940140037FFF22EDD3940340037FE1
:1013B900FF22EFC4333354C0FFE5AF54BF4FF5AF3D
:0313C900E4FF221C
:100F0400EFD3940140037FFF22EDD3940340037F8A
:100F1400FF22EF7004C2A88002D2A8ED700553B777
:100F2400FEC2B8EDB4010553B7FED2B8EDB4020564
:100F340043B701C2B8EDB4030543B701D2B87F008B
:010F4400228A
:100F4500EFD3940140037FFF22EDD3940340037F49
:100F5500FF22EF7004C2AA8002D2AAED700553B732
:100F6500FBC2BAEDB4010553B7FBD2BAEDB4020525
:100F750043B704C2BAEDB4030543B704D2BA7F0040
:010F85002249
:10142900EFD3940140037FFF22EFC454F0FFE58F0F
:0814390054EF4FF58FE4FF2290
:10141000EFD3940140037FFF22EFC43354E0FFE594
:091420008F54DF4FF58FE4FF2229
:10002600EFD3940140037FFF22EFC4333354C0FF64
:0A003600E58F54BF4FF58FE4FF2261
:100F8600EFD3940140037FFF22EDD3940340037F08
:100F9600FF22EF7004C2AD8002D2ADED700553B7EB
:100FA600DFC2BDEDB4010553B7DFD2BDEDB4020516
:100FB60043B720C2BDEDB4030543B720D2BD7F00C1
:010FC6002208
:100D5E00EDD3940340037FFF22EF30E10543E620FD
:100D6E00800353E6DFEF30E00543E610800353E6E1
:100D7E00EFED700653B6DF53B5DFEDB4010653B693
:100D8E00DF43B520EDB4020643B62053B5DFEDB414
:0B0D9E00030643B62043B5207F00226F
:100BBF00EFD3940140037FFF22EBD3940340037FD5
:100BCF00FF22EFB40112ED90FE817006E0547FF02A
:100BDF008011E04480F0800BEF700890FE83E054AA
:100BEF00874DF0EB700653B6DF53B5DFEBB401065C
:100BFF0053B6DF43B520EBB4020643B62053B5DF3F
:0D0C0F00EBB4030643B62043B5207F00225E
:100FC700EFD3940140037FFF22EDD3940340037FC7
:100FD700FF22EF7004C2AC8002D2ACED700553B7AC
:100FE700EFC2BCEDB4010553B7EFD2BCEDB40205B7
:100FF70043B710C2BCEDB4030543B710D2BC7F00A2
:0110070022C6
:10004600EFD3940140037FFF22EDD3940340037F57
:10005600FF22E5AF54FE4FF5AFED700653B6FE53E3
:10006600B5FEEDB4010653B6FE43B501EDB4020686
:1000760043B60153B5FEEDB4030643B60143B501DD
:030086007F0022D6
:100DA900EFD3940140037FFF22EDD3940340037FE7
:100DB900FF22EF33333354F8FFE5AF54F74FF5AF64
:100DC900ED700653EEFE53DFFEEDB4010653EEFE61
:100DD90043DF01EDB4020643EE0153DFFEEDB40338
:0A0DE9000643EE0143DF017F002204
:100DF300EFD3940140037FFF22EDD3940340037F9D
:100E0300FF22EFC454F0FFE5AF54EF4FF5AFED70A1
:100E13000653EEFD53DFFDEDB4010653EEFD43DF54
:100E230002EDB4020643EE0253DFFDEDB4030643C5
:080E3300EE0243DF027F002202
:100E3B00EFD3940140037FFF22EDD3940340037F54
:100E4B00FF22EF25E0FFE5AF54FD4FF5AFED700648
:100E5B0053B6FD53B5FDEDB4010653B6FD43B502D4
:100E6B00EDB4020643B60253B5FDEDB4030643B62B
:070E7B000243B5027F0022D3
:100B4000EFD3948140037FFF22EBD3940340037FD4
:100B5000FF22EF247F603204705D90FEC4EDF0EB65
:100B6000700653B6FB53B5FBEBB4010653B6FB431B
:100B7000B504EBB4020643B60453B5FBEB64037053
:100B80003B43B60443B504803390FEE4EDF0EB70D4
:100B90000653B6F753B5F7EBB4010653B6F743B5B2
:100BA00008EBB4020643B60853B5F7EBB4030D43A4
:0F0BB000B60843B508800590FEE4EDF07F002203
:10100800EDD394035029ED700653EEFB53DFFBED4F
:10101800B4010653EEFB43DF04EDB4020643EE04CD
:1010280053DFFBEDB4030B43EE0443DF0480037F7F
:0A103800FF2290FE62EFF07F00221D
:10107B0090FA10E054F0F0EDD39403500BE0FEED3A
:10108B0025E025E0FDEE4DF0EBD39403500690FAEE
:10109B0010E04BF0EF90FA10B40106E04480F080C2
:0810AB0004E0547FF07F0022F5
:1010B30090FA00E054F0F0EDD39403500BE0FEED12
:1010C30025E025E0FDEE4DF0EBD39403500690FAB6
:1010D30000E04BF0EF90FA00B40106E04480F080AA
:0810E30004E0547FF07F0022BD
:1010EB0090FA20E054F0F0EDD39403500BE0FEEDBA
:1010FB0025E025E0FDEE4DF0EBD39403500690FA7E
:10110B0020E04BF0EF90FA20B40106E04480F08031
:08111B0004E0547FF07F002284
:1011230090FA30E054F0F0EDD39403500BE0FEED71
:1011330025E025E0FDEE4DF0EBD39403500690FA45
:1011430030E04BF0EF90FA30B40106E04480F080D9
:0811530004E0547FF07F00224C
:10115B0090FA38E054F0F0EDD39403500BE0FEED31
:10116B0025E025E0FDEE4DF0EBD39403500690FA0D
:10117B0038E04BF0EF90FA38B40106E04480F08091
:08118B0004E0547FF07F002214
:1011930090FA40E054F0F0EDD39403500BE0FEEDF1
:1011A30025E025E0FDEE4DF0EBD39403500690FAD5
:1011B30040E04BF0EF90FA40B40106E04480F08049
:0811C30004E0547FF07F0022DC
:1011CB0090FA48E054F0F0EDD39403500BE0FEEDB1
:1011DB0025E025E0FDEE4DF0EBD39403500690FA9D
:1011EB0048E04BF0EF90FA48B40106E04480F08001
:0811FB0004E0547FF07F0022A4
:1012030090FA50E054F0F0EDD39403500BE0FEED70
:1012130025E025E0FDEE4DF0EBD39403500690FA64
:1012230050E04BF0EF90FA50B40106E04480F080B8
:0812330004E0547FF07F00226B
:10123B0090FA58E054F0F0EDD39403500BE0FEED30
:10124B0025E025E0FDEE4DF0EBD39403500690FA2C
:10125B0058E04BF0EF90FA58B40106E04480F08070
:08126B0004E0547FF07F002233
:1012730090FA60E054F0F0EDD39403500BE0FEEDF0
:1012830025E025E0FDEE4DF0EBD39403500690FAF4
:1012930060E04BF0EF90FA60B40106E04480F08028
:0812A30004E0547FF07F0022FB
:1012AB0090FA68E054F0F0EDD39403500BE0FEEDB0
:1012BB0025E025E0FDEE4DF0EBD39403500690FABC
:1012CB0068E04BF0EF90FA68B40106E04480F080E0
:0812DB0004E0547FF07F0022C3
:1012E30090FA70E054F0F0EDD39403500BE0FEED70
:1012F30025E025E0FDEE4DF0EBD39403500690FA84
:1013030070E04BF0EF90FA70B40106E04480F08097
:0813130004E0547FF07F00228A
:10137E0090FE50E054CFF0EDD39403500AE0FEED12
:10138E00C454F0FDEE4DF0EF90FE50B40106E04473
:0B139E0080F08004E0547FF07F00220C
:03002300020D12B9
:100D1200C0E0C083C082C0D075D000C00730982721
:100D2200C298900003E0C394804002E4F090000374
:100D3200E0FF04F074142FF582E43400F583E599A2
:100D4200F09000047405F0309907C299900002E413
:0C0D5200F0D007D0D0D082D083D0E032A7
:03004300020C1C90
:100C1C00C0E0C083C082C0D075D000C007E59A3058
:100C2C00E028539AFE900008E0C394804002E4F060
:100C3C00900008E0FF04F074942FF582E43400F582
:100C4C0083E59BF09000097405F0E59A30E10853B8
:100C5C009AFD900007E4F0D007D0D0D082D083D09A
:020C6C00E03274
:03008B00020C6EF6
:100C6E00C0E0C083C082C0D075D000C007E5AC30F4
:100C7E00E02853ACFE90000DE0C394404002E4F037
:100C8E0090000DE0FF04F074142FF582E43401F5AA
:100C9E0083E5ADF090000E7405F0E5AC30E108533D
:100CAE00ACFD90000CE4F0D007D0D0D082D083D031
:020CBE00E03222
:03009300020CC09C
:100CC000C0E0C083C082C0D075D000C007E58430CA
:100CD000E0285384FE900012E0C394204002E4F028
:100CE000900012E0FF04F074D42FF582E43401F593
:100CF00083E585F09000137405F0E58430E1085336
:100D000084FD900011E4F0D007D0D0D082D083D001
:020D1000E032CF
:100096009002DEEBF0A3EAF0A3E9F09002DDEFF0C8
:1000A60064016003020274900000F0A3F0A3F0A3C1
:1000B600F0A3F09002E1F0A3F09002E1E0FEA3E0ED
:1000C600FFC39480EE9400501C74542FF582740183
:1000D6003EF583E4F09002E2E004F070DC9002E189
:1000E600E004F080D4E49002E1F0A3F09002E1E0B5
:1000F600FEA3E0FFC39480EE9400501C74142FF509
:100106008274003EF583E4F09002E2E004F070DCD5
:100116009002E1E004F080D49002DEE0FBA3E0FA76
:10012600A3E0F912093DFFE598543F4FF598EF64B7
:10013600C06008EF6440600302021F900002120ACA
:100146009D7F807E8D7D5B7C001209E79002E31225
:100156000ACDE4FFFE7D01FC9002E3E0F8A3E0F99E
:10016600A3E0FAA3E0FBC3120A7940037FFF2290C3
:1001760002E3E0F8A3E0F9A3E0FAA3E0FBC3E49B03
:10018600FFE49AFE740199FDE498FC9002E3120ADA
:10019600CD9002DEE0FBA3E0FAA3E0F990000112A5
:1001A6000956FB64017038C28E538EFE5389BF53C5
:1001B60089CF438E409002E3E0FCA3E0FDA3E0FE7E
:1001C600A3E0FF7808120A8A8F8D9002E3A3A3A307
:1001D600E0F58BC2AB5389BF538FFDD28E8073EB94
:1001E60064027032538EEF438E01538EF7438E04B2
:1001F6009002E3E0FCA3E0FDA3E0FEA3E0FF7808A5
:10020600120A8A8FD69002E3A3A3A3E0F5D753AFD1
:10021600FB438E10803C7FFF229002DEE0FBA3E0D2
:10022600FAA3E0F912093DFF70139000081209566F
:10023600B40105438E20801A538EDF8015EFB480FB
:1002460011900008120956B40105438780800353B4
:10025600877F9002DEE0FBA3E0FAA3E0F9900007B7
:100266001209567004C29C8002D29C7F0022900222
:10027600DDE0640260030203BE900005F0A3F0A374
:10028600F0A3F0A3F09002E1F0A3F09002E1E0FE0B
:10029600A3E0FFC39480EE9400501C74F42FF58203
:1002A60074013EF583E4F09002E2E004F070DC9025
:1002B60002E1E004F080D4E49002E1F0A3F09002C1
:1002C600E1E0FEA3E0FFC39480EE9400501C74941A
:1002D6002FF58274003EF583E4F09002E2E004F02C
:1002E60070DC9002E1E004F080D49002DEE0FBA333
:1002F600E0FAA3E0F912093DFF64C06008EF64402C
:10030600600302039CEFB4C005439A808003539AAE
:100316007F900002120A9D7F807E8D7D5B7C00129D
:1003260009E79002E3120ACDE4FFFE7D01FC90028C
:10033600E3E0F8A3E0F9A3E0FAA3E0FBC3120A792D
:1003460040037FFF229002E3E0F8A3E0F9A3E0FA7E
:10035600A3E0FBC3E49BFFE49AFE740199FDE498D5
:10036600FC9002E3120ACD538EEF538EF7438E04B0
:100376009002E3E0FCA3E0FDA3E0FEA3E0FF780823
:10038600120A8A8FD69002E3A3A3A3E0F5D753AF50
:10039600FB438E1080037FFF229002DEE0FBA3E08A
:1003A600FAA3E0F9900007120956C454F0FFE59A43
:1003B60054EF4FF59A7F00229002DDE0640360035C
:1003C60002055290000AF0A3F0A3F0A3F0A3F09068
:1003D60002E1F0A3F09002E1E0FEA3E0FFC3944047
:1003E600EE9400501C74742FF58274023EF583E47B
:1003F600F09002E2E004F070DC9002E1E004F080AC
:10040600D4E49002E1F0A3F09002E1E0FEA3E0FF65
:10041600C39440EE9400501C74142FF58274013E70
:10042600F583E4F09002E2E004F070DC9002E1E093
:1004360004F080D49002DEE0FBA3E0FAA3E0F91218
:10044600093DFF64C06008EF64406003020530EFB9
:10045600B4C00543AC80800353AC7F900002120AFF
:100466009D7F807E8D7D5B7C001209E79002E31202
:100476000ACDE4FFFE7D01FC9002E3E0F8A3E0F97B
:10048600A3E0FAA3E0FBC3120A7940037FFF2290A0
:1004960002E3E0F8A3E0F9A3E0FAA3E0FBC3E49BE0
:1004A600FFE49AFE740199FDE498FC9002E3120AB7
:1004B600CD9002DEE0FBA3E0FAA3E0F99000011282
:1004C6000956FB6403702943AC409002E3E0FCA3A9
:1004D600E0FDA3E0FEA3E0FF7808120A8A8FD4901D
:1004E60002E3A3A3A3E0F5D553D1F043D10A803D9F
:1004F600EB64027032538EEF53ACBF538EF7438ECC
:10050600049002E3E0FCA3E0FDA3E0FEA3E0FF7895
:1005160008120A8A8FD69002E3A3A3A3E0F5D75365
:10052600AFFB438E1080067FFF227FFF229002DE04
:10053600E0FBA3E0FAA3E0F9900007120956C454C1
:10054600F0FFE5AC54EF4FF5AC7F00229002DDE002
:10055600640460030206E690000FF0A3F0A3F0A384
:10056600F0A3F09002E1F0A3F09002E1E0FEA3E038
:10057600FFC39420EE9400501C74B42FF5827402CD
:100586003EF583E4F09002E2E004F070DC9002E1D4
:10059600E004F080D4E49002E1F0A3F09002E1E000
:1005A600FEA3E0FFC39420EE9400501C74D42FF5F4
:1005B6008274013EF583E4F09002E2E004F070DC20
:1005C6009002E1E004F080D49002DEE0FBA3E0FAC2
:1005D600A3E0F912093DFF64C06008EF64406003C0
:1005E6000206C4EFB4C005438480800353847F9021
:1005F6000002120A9D7F807E8D7D5B7C001209E7DA
:100606009002E3120ACDE4FFFE7D01FC9002E3E0D6
:10061600F8A3E0F9A3E0FAA3E0FBC3120A794003CA
:100626007FFF229002E3E0F8A3E0F9A3E0FAA3E05B
:10063600FBC3E49BFFE49AFE740199FDE498FC90E9
:1006460002E3120ACD9002DEE0FBA3E0FAA3E0F992
:10065600900001120956FB640470294384409002FD
:10066600E3E0FCA3E0FDA3E0FEA3E0FF7808120AA6
:100676008A8FD29002E3A3A3A3E0F5D353D10F430D
:10068600D1A0803DEB64027032538EEF5384BF538A
:100696008EF7438E049002E3E0FCA3E0FDA3E0FEA8
:1006A600A3E0FF7808120A8A8FD69002E3A3A3A3D9
:1006B600E0F5D753AFFB438E1080067FFF227FFF06
:1006C600229002DEE0FBA3E0FAA3E0F99000071215
:1006D6000956C454F0FFE58454EF4FF5847F002299
:0206E6007FFF94
:0106E80022EF
:0F14C6008F999000027401F0900002E070FA22FA
:10146A0012093DFF600C1214C6740129F9E43AFA14
:03147A0080EE22DF
:0F14D5008F9B9000077401F0900007E070FA22DF
:10147D0012093DFF600C1214D5740129F9E43AFAF2
:03148D0080EE22CC
:0F14E4008FAD90000C7401F090000CE070FA22B4
:1014900012093DFF600C1214E4740129F9E43AFAD0
:0314A00080EE22B9
:0F14F3008F859000117401F0900011E070FA22C3
:1014A30012093DFF600C1214F3740129F9E43AFAAE
:0314B30080EE22A6
:05001D00AE070214C64D
:0300000002151DC9
:0C151D00787FE4F6D8FD758107021510F8
:10093D00BB010689828A83E0225002E722BBFE02B8
:09094D00E32289828A83E49322EB
:10095600BB010CE58229F582E5833AF583E0225056
:1009660006E92582F8E622BBFE06E92582F8E222A0
:0D097600E58229F582E5833AF583E49322BA
:10098300BB010689828A83F0225002F722BBFE0153
:02099300F3224D
:10099500C5F0F8A3E028F0C5F0F8E58215827002ED
:0609A5001583E038F0228A
:1009AB0075F008758200EF2FFFEE33FECD33CDCC03
:1009BB0033CCC58233C5829BED9AEC99E582984086
:1009CB000CF582EE9BFEED9AFDEC99FC0FD5F0D663
:1009DB00E4CEFBE4CDFAE4CCF9A88222B800C1B98D
:1009EB000059BA002DEC8BF084CFCECDFCE5F0CBCB
:1009FB00F97818EF2FFFEE33FEED33FDEC33FCEB04
:100A0B0033FB10D703994004EB99FB0FD8E5E4F9BE
:100A1B00FA227818EF2FFFEE33FEED33FDEC33FCAB
:100A2B00C933C910D7059BE99A4007EC9BFCE99A9F
:100A3B00F90FD8E0E4C9FAE4CCFB2275F010EF2FE4
:100A4B00FFEE33FEED33FDCC33CCC833C810D707E4
:100A5B009BEC9AE899400AED9BFDEC9AFCE899F81F
:0E0A6B000FD5F0DAE4CDFBE4CCFAE4C8F922B2
:100A7900EB9FF5F0EA9E42F0E99D42F0E89C45F0D3
:010A8900224A
:100A8A00E8600FECC313FCED13FDEE13FEEF13FF4A
:030A9A00D8F1226E
:100A9D00BB010DE58229F582E5833AF583020B173B
:100AAD005007E92582F8020B0ABBFE07E92582F8FB
:100ABD00020B23E58229F582E5833AF583020B309B
:0C0ACD00ECF0A3EDF0A3EEF0A3EFF0229C
:100AD900A8828583F0D083D082120AF0120AF0121C
:100AE9000AF0120AF0E473E493A3C583C5F0C58341
:100AF900C8C582C8F0A3C583C5F0C583C8C582C867
:010B090022C9
:0D0B0A00E6FB08E6F908E6FA08E6CBF8225B
:0C0B1700E0F8A3E0F9A3E0FAA3E0FB2261
:0D0B2300E2FB08E2F908E2FA08E2CBF82252
:100B3000E493F8740193F9740293FA740393FB221B
:00000001FF
