:10004600CAAAB6C8A3BA252E326625252020CEC256
:0C005600B6C8A3BA252E3266A1E60A0047
:102C3200752303E4F522FB7A0079227F03021B8AC3
:102B02007522407523017527007526C2752501754A
:102B12002400752901E4F52AFB7A0079227F01124B
:0C2B2200096D7D017F0112279A53A23F2C
:012B2E002284
:1022DC00E4F522F523C3E523950B7480F865229869
:1022EC00501B74002523F58274003522F583E0FF22
:1022FC00122CDB0523E52370DC052280D8752F001A
:10230C007530007531287B007A00792412202FEF6C
:10231C0070217BFF7A0079468527458526448525E3
:10232C0043852442852B49852A488529478528469B
:03233C00120EA9D5
:01233F00227B
:102B2F0043BA80122C32122B02122D15D2AFE50CA4
:102B3F00D394004010D50C0DE50BD3940040031235
:0C2B4F0022DCE4F50B7F01122C4280E236
:1023990090000112069DFFE5DE54F04FF5DE900036
:1023A9000212069DC43354E0FFE5DE54DF4FF5DE2B
:1023B900120684FFD3941F502B90000312069DFE32
:1023C900D39401501F90000412069DFDD39403502D
:1023D90013EDC43354E0FDEEC433333354804D4F11
:0523E90090FEA8F022A7
:0B2CD000BF010443BC802253BC7F22E4
:10226F00EFD3940F40028060E4F5BDF5BEE5BC549A
:10227F00F044404FF5BC00000000000000000000DB
:10228F00E4FDE5BC30E53D53BCDFE5DEAFBD30E539
:10229F000EEFFEACBEECFBEEF567EBF5688020753C
:1022AF0067008F68E5BEC4540FFBE568C4F8540F90
:1022BF00C868FFE567C454F048F567EF4BF568AEA3
:0C22CF0067AF68220DBDFABA7E107F00D8
:0122DB0022E0
:03002B00020026AA
:0400260053BCDF32B6
:0F2C42007D607C09ED1D70011C144C70F7DFF1F3
:012C51002260
:101B8A00EFD3940740037FFF22120684FED3940307
:101B9A0040037FFF22EF7041EE700B9000011206A6
:101BAA009DF452935294120684B4010B90000112D0
:101BBA00069D4293F45294120684FEB4020A9000DF
:101BCA000112069D42934294EEB4030D9000011255
:101BDA00069DFEF45293EE4294EF6401704312069E
:101BEA0084FE700B90000112069DF452915292EEFF
:101BFA00B4010B90000112069D4291F45292120612
:101C0A0084B4020A90000112069D42914292120681
:101C1A0084B4030D90000112069DFEF45291EE4227
:101C2A0092EF64027043120684FE700B9000011258
:101C3A00069DF452955296EEB4010B9000011206DD
:101C4A009D4295F45296120684B4020A900001123B
:101C5A00069D42954296120684B4030D9000011225
:101C6A00069DFEF45295EE4296EF64037043120607
:101C7A0084FE700B90000112069DF452B152B2EE2E
:101C8A00B4010B90000112069D42B1F452B2120641
:101C9A0084B4020A90000112069D42B142B21206B1
:101CAA0084B4030D90000112069DFEF452B1EE4277
:101CBA00B2EF64047043120684FE700B90000112A6
:101CCA00069DF452B352B4EEB4010B900001120611
:101CDA009D42B3F452B4120684B4020A900001126F
:101CEA00069D42B342B4120684B4030D9000011259
:101CFA00069DFEF452B3EE42B4EF64057043120639
:101D0A0084FE700B90000112069DF452C952CAEE6D
:101D1A00B4010B90000112069D42C9F452CA120680
:101D2A0084B4020A90000112069D42C942CA1206F0
:101D3A0084B4030D90000112069DFEF452C9EE42CE
:101D4A00CAEF64067043120684FE700B90000112FB
:101D5A00069DF452CB52CCEEB4010B900001120650
:101D6A009D42CBF452CC120684B4020A90000112AE
:101D7A00069D42CB42CC120684B4030D9000011298
:101D8A00069DFEF452CBEE42CCEF64077043120676
:101D9A0084FF700B90000112069DF452E152E2EFAB
:101DAA00B4010B90000112069D42E1F452E21206C0
:101DBA0084B4020A90000112069D42E142E2120630
:101DCA0084B4030D90000112069DFFF452E1EF4224
:041DDA00E27F002282
:1021790090000212069D6401702A90FE80E044409E
:10218900F090FE82E4F0120684543FFF90FE80E056
:1021990054C04FF090000312069D90FE88B40102CE
:1021A9008031802990FE80E054BFF090FE84E4F0F5
:1021B90090000412069D25E0FF90FE85E054014F32
:1021C900F090000512069D90FE85B40106E054FECC
:1021D900F08004E04401F090000112069D90FE8019
:0C21E9007005E0547FF022E04480F022FA
:0800030090FE82E05480FF2210
:0C2CB80090FE82E030E6F9E054BFF0220C
:092D030090FE817401F0022CB86D
:0E2C8F0090FE86EFF090FE817402F0022CB8E9
:062C6200122D03122C8F5D
:092C680090FE817403F0022CB807
:0F2C710090FE817404F0122CB890FE87E0FF22D1
:0E2C9D0090FE82E4F090FE817405F0022CB8E7
:0F2C800090FE827401F090FE817405F0022CB872
:092D0C0090FE817406F0022CB85F
:0D000E0090FE86EDF090FE81EFF0022CB820
:102AD1008B5D8A5E895FAE05122C62AF06122C8F68
:102AE100122C68AB5D055FE55FAA5E7002055E149E
:102AF100F9120684FF122C8F122C68D560E5022D85
:012B01000CC7
:1027D800AE07122C62AF05122C8F122C68122D0333
:1027E800EE4401FF122C8F122C68122C71EF120686
:1027F800CA740129F9E43AFAE56664016003122C07
:0A2808009DD566E6122C80022D0C0F
:0300C3000220D642
:1020D600C0E0C083C082C0D075D000C006C00790E3
:1020E600FE84E030E606E054BFF0807A90FE84E09D
:1020F60030E535E054DFF0E51D6005751D008066AE
:10210600E51C600D751C0090FE87E0F51E24C0805E
:102116003490FE87E0FFAE1E051E74C02EF582E4E5
:102126003402F583EFF0803E90FE84E030E424E054
:1021360054EFF0E030E10890FE8674FFF08027054A
:102146001E74C0251EF582E43402F583E090FE86F7
:10215600F0801390FE84E030E30CE054F7F0751D38
:1021660001751C01D209D007D006D0D0D082D08309
:03217600D0E03284
:10266400EFD3940140037FFF22EDD3940340037F13
:10267400FF22EF7004C2A98002D2A9ED700553B7FE
:10268400FDC2B9BD010553B7FDD2B9BD020543B7BB
:0E26940002C2B9BD030543B702D2B97F0022CE
:1026A200EFD3940140037FFF22EDD3940340037FD5
:1026B200FF22EF7004C2AB8002D2ABED700553B7BC
:1026C200F7C2BBBD010553B7F7D2BBBD020543B785
:0E26D20008C2BBBD030543B708D2BB7F002280
:102B8400EFD3940140037FFF22EDD3940340037FEE
:102B9400FF22EF25E025E0FFE5AF54FB4FF5AFE45E
:022BA400FF220E
:102BA600EFD3940140037FFF22EDD3940340037FCC
:102BB600FF22EFC43354E0FFE5AF54DF4FF5AFE437
:022BC600FF22EC
:10006600EFD3940140037FFF22EDD3940340037F37
:10007600FF22EFC4333354C0FFE5AF54BF4FF5AF93
:03008600E4FF2272
:1026E000EFD3940140037FFF22EDD3940340037F97
:1026F000FF22EF7004C2A88002D2A8ED700553B784
:10270000FEC2B8BD010553B7FED2B8BD020543B73E
:0E27100001C2B8BD030543B701D2B87F002255
:10271E00EFD3940140037FFF22EDD3940340037F58
:10272E00FF22EF7004C2AA8002D2AAED700553B741
:10273E00FBC2BABD010553B7FBD2BABD020543B702
:0E274E0004C2BABD030543B704D2BA7F00220D
:102BE100EFD3940140037FFF22EFC454F0FFE58F40
:082BF10054EF4FF58FE4FF22C1
:102BC800EFD3940140037FFF22EFC43354E0FFE5C5
:092BD8008F54DF4FF58FE4FF225A
:1000A600EFD3940140037FFF22EFC4333354C0FFE4
:0A00B600E58F54BF4FF58FE4FF22E1
:10275C00EFD3940140037FFF22EDD3940340037F1A
:10276C00FF22EF7004C2AD8002D2ADED700553B7FD
:10277C00DFC2BDBD010553B7DFD2BDBD020543B7F6
:0E278C0020C2BDBD030543B720D2BD7F002291
:1024C900EDD3940340037FFF22EF30E10543E6207B
:1024D900800353E6DFEF30E00543E610800353E65F
:1024E900EFED700653B6DF53B5DFBD010653B6DF16
:1024F90043B520BD020643B62053B5DFBD030643ED
:08250900B62043B5207F00223B
:10234000EFD3940140037FFF22EBD3940340037F3C
:10235000FF22BF0112ED90FE817006E0547FF080F5
:1023600011E04480F0800BEF700890FE83E054870A
:102370004DF0EB700653B6DF53B5DFBB010653B625
:10238000DF43B520BB020643B62053B5DFBB0306CF
:0923900043B62043B5207F002272
:10279A00EFD3940140037FFF22EDD3940340037FDC
:1027AA00FF22EF7004C2AC8002D2ACED700553B7C1
:1027BA00EFC2BCBD010553B7EFD2BCBD020543B79A
:0E27CA0010C2BCBD030543B710D2BC7F002275
:10262400EFD3940140037FFF22EDD3940340037F53
:10263400FF22E5AF54FE4FF5AFED700653B6FE53DF
:10264400B5FEBD010653B6FE43B501BD020643B651
:102654000153B5FEBD030643B60143B5017F002215
:10251100EFD3940140037FFF22EDD3940340037F67
:10252100FF22EF33333354F8FFE5AF54F74FF5AFE4
:10253100ED700653EEFE53DFFEBD010653EEFE4382
:10254100DF01BD020643EE0153DFFEBD030643EE8C
:072551000143DF017F0022BE
:10255800EFD3940140037FFF22EDD3940340037F20
:10256800FF22EFC454F0FFE5AF54EF4FF5AFED7025
:102578000653EEFD53DFFDBD010653EEFD43DF02BA
:10258800BD020643EE0253DFFDBD030643EE0243E0
:05259800DF027F0022BC
:10259D00EFD3940140037FFF22EDD3940340037FDB
:1025AD00FF22EF25E0FFE5AF54FD4FF5AFED7006CF
:1025BD0053B6FD53B5FDBD010653B6FD43B502BD82
:1025CD00020643B60253B5FDBD030643B60243B53D
:0425DD00027F002257
:1021F500EFD3948140037FFF22EBD3940340037F09
:10220500FF22EF247F603004705890FEC4EDF0EBA0
:10221500700653B6FB53B5FBBB010653B6FB43B57E
:1022250004BB020643B60453B5FBEB6403703843A5
:10223500B60443B504803090FEE4EDF0EB70065330
:10224500B6F753B5F7BB010653B6F743B508BB025E
:102255000643B60853B5F7BB030D43B60843B508A7
:0A226500800590FEE4EDF07F0022FA
:10281200EDD394035026ED700653EEFB53DFFBBD60
:10282200010653EEFB43DF04BD020643EE0453DF11
:10283200FBBD030B43EE0443DF0480037FFF2290C2
:07284200FE62EFF07F0022AF
:1028490090FA10E054F0F0EDD39403500BE0FEED54
:1028590025E025E0FDEE4DF0EBD39403500690FA08
:1028690010E04BF090FA10E0BF01054480F08003BE
:06287900547FF07F0022F5
:10287F0090FA00E054F0F0EDD39403500BE0FEED2E
:10288F0025E025E0FDEE4DF0EBD39403500690FAD2
:10289F0000E04BF090FA00E0BF01054480F08003A8
:0628AF00547FF07F0022BF
:1028B50090FA20E054F0F0EDD39403500BE0FEEDD8
:1028C50025E025E0FDEE4DF0EBD39403500690FA9C
:1028D50020E04BF090FA20E0BF01054480F0800332
:0628E500547FF07F002289
:1028EB0090FA30E054F0F0EDD39403500BE0FEED92
:1028FB0025E025E0FDEE4DF0EBD39403500690FA66
:10290B0030E04BF090FA30E0BF01054480F08003DB
:06291B00547FF07F002252
:1029210090FA38E054F0F0EDD39403500BE0FEED53
:1029310025E025E0FDEE4DF0EBD39403500690FA2F
:1029410038E04BF090FA38E0BF01054480F0800395
:06295100547FF07F00221C
:1029570090FA40E054F0F0EDD39403500BE0FEED15
:1029670025E025E0FDEE4DF0EBD39403500690FAF9
:1029770040E04BF090FA40E0BF01054480F080034F
:06298700547FF07F0022E6
:10298D0090FA48E054F0F0EDD39403500BE0FEEDD7
:10299D0025E025E0FDEE4DF0EBD39403500690FAC3
:1029AD0048E04BF090FA48E0BF01054480F0800309
:0629BD00547FF07F0022B0
:1029C30090FA50E054F0F0EDD39403500BE0FEED99
:1029D30025E025E0FDEE4DF0EBD39403500690FA8D
:1029E30050E04BF090FA50E0BF01054480F08003C3
:0629F300547FF07F00227A
:1029F90090FA58E054F0F0EDD39403500BE0FEED5B
:102A090025E025E0FDEE4DF0EBD39403500690FA56
:102A190058E04BF090FA58E0BF01054480F080037C
:062A2900547FF07F002243
:102A2F0090FA60E054F0F0EDD39403500BE0FEED1C
:102A3F0025E025E0FDEE4DF0EBD39403500690FA20
:102A4F0060E04BF090FA60E0BF01054480F0800336
:062A5F00547FF07F00220D
:102A650090FA68E054F0F0EDD39403500BE0FEEDDE
:102A750025E025E0FDEE4DF0EBD39403500690FAEA
:102A850068E04BF090FA68E0BF01054480F08003F0
:062A9500547FF07F0022D7
:102A9B0090FA70E054F0F0EDD39403500BE0FEEDA0
:102AAB0025E025E0FDEE4DF0EBD39403500690FAB4
:102ABB0070E04BF090FA70E0BF01054480F08003AA
:062ACB00547FF07F0022A1
:102B5B0090FE50E054CFF0EDD39403500AE0FEED1D
:102B6B00C454F0FDEE4DF090FE50E0BF01054480E3
:092B7B00F08003547FF07F00227A
:1012B600AD07ED6401707A90FECCE054FEF0E05488
:1012C600FBF090FEC8E054FCF0120684FF90FEC8C6
:1012D600E0548F4FF090000612069DFF90FECC3032
:1012E600E00DE04401F090FEB1E04401F0800BE037
:1012F60054FEF090FEB1E054FEF0EF90FECC30E1EB
:101306000DE04404F090FEB1E04402F0800BE0549E
:10131600FBF090FEB1E054FDF0900003120707E5E4
:10132600F090FED5F090000312070790FED6021645
:1013360070ED6402707A90FECCE054EFF0E054BF9A
:10134600F090FEC9E054FCF0120684FF90FEC9E05E
:10135600548F4FF090000612069DFF90FECC30E2AF
:101366000DE04410F090FEB1E04404F0800BE05430
:10137600EFF090FEB1E054FBF0EF90FECC30E30DC1
:10138600E04440F090FEB1E04408F0800BE054BF2A
:10139600F090FEB1E054F7F0900003120707E5F075
:1013A60090FED7F090000312070790FED802167041
:1013B600ED6403707A90FECDE054FEF0E054FBF04D
:1013C60090FECAE054FCF0120684FF90FECAE05478
:1013D6008F4FF090000612069DFF90FECD30E40D73
:1013E600E04401F090FEB1E04410F0800BE054FEC2
:1013F600F090FEB1E054EFF0EF90FECD30E50DE059
:101406004404F090FEB1E04420F0800BE054FBF081
:1014160090FEB1E054DFF0900003120707E5F0906C
:10142600FED9F090000312070790FEDA021670ED5F
:101436006404707A90FECDE054EFF0E054BFF09073
:10144600FECBE054FCF0120684FF90FECBE0548FF6
:101456004FF090000612069DFF90FECD30E60DE09F
:101466004410F090FEB1E04440F0800BE054EFF001
:1014760090FEB1E054BFF0EF90FECD30E70DE044B2
:1014860040F090FEB1E04480F0800BE054BFF09055
:10149600FEB1E0547FF0900003120707E5F090FEDE
:1014A600DBF090000312070790FEDC021670ED6475
:1014B60080704F90000512069D90FEDEF0900001B0
:1014C600120707E5F090FED2F09000011207079090
:1014D600FED3F090000812069D90FEDDB40106E0F2
:1014E6004480F08004E0547FF090000712069D903F
:1014F600FEC0B40106E04401F08004E054FEF07F33
:101506000022ED6405705690FEECE054FEF090FE6D
:10151600E8E054FCF0120684FF90FEE8E0548F4F9A
:10152600F090000612069D90FEEC30E00DE04401BE
:10153600F090FEB5E04401F0800BE054FEF090FE22
:10154600B5E054FEF0900003120707E5F090FEF5B3
:10155600F090000312070790FEF6021670ED64067F
:10156600705690FEECE054EFF090FEE9E054FCF08B
:10157600120684FF90FEE9E0548F4FF090000612A9
:10158600069D90FEEC30E20DE04410F090FEB5E0D2
:101596004404F0800BE054EFF090FEB5E054FBF00D
:1015A600900003120707E5F090FEF7F09000031293
:1015B600070790FEF8021670ED6407705590FEED71
:1015C600E054FEF090FEEAE054FCF0120684FF9030
:1015D600FEEAE0548F4FF090000612069D90FEED55
:1015E60030E40DE04401F090FEB5E04410F0800BCD
:1015F600E054FEF090FEB5E054EFF09000031207C1
:1016060007E5F090FEF9F090000312070790FEFA46
:101616008058ED6408705790FEEDE054EFF090FEB0
:10162600EBE054FCF0120684FF90FEEBE0548F4F83
:10163600F090000612069D90FEED30E60DE0441097
:10164600F090FEB5E04440F0800BE054EFF090FEE1
:10165600B5E054BFF0900003120707E5F090FEFBDB
:10166600F090000312070790FEFCF07F0022ED6465
:1016760081704C90000512069D90FEFEF0900001D0
:10168600120707FDACF0EC90FEF2F0AF05A3EFF009
:1016960090000812069D90FEFDB40106E04480F01D
:1016A6008004E0547FF090000712069D90FEE0B49F
:1016B6000106E04401F08004E054FEF07F00227F42
:0216C600FF2201
:101DDE00EF24807003021E99147003021EDE24800D
:101DEE00B408004003021F2A901E0475F003A4C518
:101DFE008325F0C58373021E1C021E29021E3902A2
:101E0E001E49021E59021E69021E79021E89120601
:101E1E00DCFDACF0EC90FED5021F24900002120700
:101E2E0007FDACF0EC90FED7021F249000041207C1
:101E3E0007FDACF0EC90FED9021F249000061207AD
:101E4E0007FDACF0EC90FEDB021F24900008120799
:101E5E0007FDACF0EC90FEF5021F2490000A12076D
:101E6E0007FDACF0EC90FEF7021F2490000C120759
:101E7E0007FDACF0EC90FEF9021F2490000E120745
:101E8E0007FDACF0EC90FEFB021F241206DCFDAC4D
:101E9E00F0EC90FED5F0AF05A3EFF0900002120724
:101EAE0007FDACF0EC90FED7F0AF05A3EFF090007D
:101EBE0004120707FDACF0EC90FED9F0AF05A3EFCE
:101ECE00F0900006120707FDACF0EC90FEDB8046AA
:101EDE00900008120707FDACF0EC90FEF5F0AF0590
:101EEE00A3EFF090000A120707FDACF0EC90FEF79E
:101EFE00F0AF05A3EFF090000C120707FDACF0EC6D
:101F0E0090FEF9F0AF05A3EFF090000E120707FD5B
:0D1F1E00ACF0EC90FEFBF0AF05A3EFF0225D
:1016C800AD07ED7079C28C120684FED394034003F3
:1016D8007FFF22E58954FC4EF58990000112069D92
:1016E800FED3940240037FFF22EE7006538E7F5391
:1016F80089FB90000112069DB40106438E80538930
:10170800FB90000112069DB4020343890490000275
:1017180012069DFFE58F54FE4FF58F9000031207C8
:1017280007E5F0F58C900003120707F58A9000068C
:1017380012069D7004C28C8002D28C7F0022ED6458
:101748000160030217CEC28E120684FED3940340B2
:10175800037FFF22EEC454F0FFE58954CF4FF5898B
:1017680090000112069DFED3940240037FFF22EEF3
:101778007006538EBF5389BF90000112069DB401B5
:1017880006438E405389BF90000112069DB40203A0
:1017980043894090000212069D25E0FFE58F54FD25
:1017A8004FF58F900003120707E5F0F58D900003C1
:1017B800120707F58B90000612069D7004C28E80F2
:1017C80002D28E7F0022ED64027065538EEF900086
:1017D8000112069DFF7006538EFB538EF7EFB4017E
:1017E80006438E04538EF7EFB40203438E0890002D
:1017F8000212069D25E025E0FFE58F54FB4FF58F8B
:10180800900003120707E5F0F5D6900003120707CA
:10181800F5D790000512069D90FEA2F090000612E2
:10182800069DC454F0FFE58E54EF4FF58E7F0022DD
:10183800ED6403707253D1F790000112069DFED338
:10184800940240037FFF22EE700653D1FD53D1FB73
:1018580090000112069DB4010643D10253D1FB90BA
:10186800000112069DB4020343D10490000212063F
:101878009DFFE5D154FE4FF5D1900003120707E50F
:10188800F0F5D4900003120707F5D590000512066D
:101898009D90FEA3F090000612069D33333354F852
:1018A800FFE5D154F78077ED6404707853D17F90C9
:1018B800000112069DFED3940240037FFF22EE70C2
:1018C8000653D1DF53D1BF90000112069DB4010623
:1018D80043D12053D1BF90000112069DB4020343A7
:1018E800D14090000212069DC454F0FFE5D154EF98
:1018F8004FF5D1900003120707FDACF0ECF5D2AF1D
:10190800058FD390000512069D90FEA4F090000666
:1019180012069DC43333335480FFE5D1547F4FF50D
:07192800D17F00227FFF22A6
:03000B0002008E62
:03008E00B2EF329C
:03001B000200964A
:03009600B2EE3295
:0300630002009EFA
:03009E00B2ED328E
:03009B000200C0A0
:0300C000B2EC326D
:0300A300022D1B10
:032D1B00B2EB32E6
:08096D008F2B8B2C8A2D892EA3
:10097500E52B64016003020AE3F508F509F50AF5BC
:100985000BF50CF52FF53074402530F582740135E3
:100995002FF583E4F00530E5307002052F648045BE
:1009A5002F70E4E4F52FF53074002530F5827400DE
:1009B500352FF583E4F00530E5307002052F6480AE
:1009C500452F70E4AB2CAA2DA92E120684FFE598BD
:1009D500543F4FF598EF64C06008EF644060030230
:1009E5000A989000021208797F807E8D7D5B7C00DD
:1009F50012077B8F348E338D328C31E4FFFE7D01FF
:100A0500FCAB34AA33A932A831C312081B40037FBB
:100A1500FF22C3E49534F534E49533F53374019539
:100A250032F532E49531F531AB2CAA2DA92E900083
:100A35000112069DFB6401702CC28E538EFE5389F4
:100A4500BF5389CF438E40AF34AE33AD32AC31782E
:100A55000812082C8F8D85348BC2AB5389BF538FF9
:100A6500FDD28E8062EB64027026538EEF438E01B9
:100A7500538EF7438E04AF34AE33AD32AC317808C4
:100A850012082C8FD68534D753AFFB438E10803791
:100A95007FFF22AB2CAA2DA92E120684FF7013907E
:100AA500000812069DB40105438E20801A538EDF7F
:100AB5008015EFB4801190000812069DB40105431E
:100AC5008780800353877FAB2CAA2DA92E90000722
:100AD50012069D7004C29C8002D29C7F0022E52BE9
:100AE50064026003020BDCF50DF50EF50FF510F54C
:100AF50011F52FF53074E02530F5827401352FF5A9
:100B050083E4F00530E5307002052F6480452F70D1
:100B1500E4E4F52FF53074802530F5827400352F27
:100B2500F583E4F00530E5307002052F6480452F2C
:100B350070E4AB2CAA2DA92E120684FF64C06005B3
:100B4500EF64407075EFB4C005439A808003539AF3
:100B55007F9000021208797F807E8D7D5B7C00127C
:100B6500077B8F348E338D328C31E4FFFE7D01FCA3
:100B7500AB34AA33A932A831C312081B40037FFF47
:100B850022C3E49534F534E49533F5337401953295
:100B9500F532E49531F531538EEF538EF7438E04DC
:100BA500AF34AE33AD32AC31780812082C8FD68510
:100BB50034D753AFFB438E1080037FFF22AB2CAAA3
:100BC5002DA92E90000712069DC454F0FFE59A54F6
:100BD500EF4FF59A7F0022E52B64036003020D10A9
:100BE500F512F513F514F515F516F52FF5307460B6
:100BF5002530F5827402352FF583E4F00530E530B4
:100C05007002052F6440452F70E4E4F52FF530742C
:100C1500002530F5827401352FF583E4F00530E5C4
:100C2500307002052F6440452F70E4AB2CAA2DA926
:100C35002E120684FF64C06008EF64406003020C56
:100C4500F3EFB4C00543AC80800353AC7F90000242
:100C55001208797F807E8D7D5B7C0012077B8F3447
:100C65008E338D328C31E4FFFE7D01FCAB34AA332B
:100C7500A932A831C312081B40037FFF22C3E495A4
:100C850034F534E49533F53374019532F532E49552
:100C950031F531AB2CAA2DA92E90000112069DFB32
:100CA500B4031D43AC40AF34AE33AD32AC3178083C
:100CB50012082C8FD48534D553D1F043D10A803115
:100CC500EB64027026538EEF53ACBF538EF7438E01
:100CD50004AF34AE33AD32AC31780812082C8FD660
:100CE5008534D753AFFB438E1080067FFF227FFFED
:100CF50022AB2CAA2DA92E90000712069DC454F0F4
:100D0500FFE5AC54EF4FF5AC7F0022E52B640460A2
:100D150003020E44F517F518F519F51AF51BF52F0D
:100D2500F53074A02530F5827402352FF583E4F093
:100D35000530E5307002052F6420452F70E4E4F599
:100D45002FF53074C02530F5827401352FF583E415
:100D5500F00530E5307002052F6420452F70E4ABB7
:100D65002CAA2DA92E120684FF64C06008EF6440EA
:100D75006003020E27EFB4C00543848080035384CB
:100D85007F9000021208797F807E8D7D5B7C00124A
:100D9500077B8F348E338D328C31E4FFFE7D01FC71
:100DA500AB34AA33A932A831C312081B40037FFF15
:100DB50022C3E49534F534E49533F5337401953263
:100DC500F532E49531F531AB2CAA2DA92E90000111
:100DD50012069DFBB4041D438440AF34AE33AD32DF
:100DE500AC31780812082C8FD28534D353D10F43F8
:100DF500D1A08031EB64027026538EEF5384BF532C
:100E05008EF7438E04AF34AE33AD32AC3178081271
:100E1500082C8FD68534D753AFFB438E1080067FC1
:100E2500FF227FFF22AB2CAA2DA92E9000071206C8
:100E35009DC454F0FFE58454EF4FF5847F00227F75
:010E4500FFAD
:010E46002289
:0A2CDB008F99750A01E50A70FC22CA
:10002E00120684FF600C122CDB740129F9E43AFAF3
:03003E0080EE222F
:0A2CE5008F9B750F01E50F70FC22B4
:102BF900120684FF600C122CE5740129F9E43AFAF3
:032C090080EE2238
:0A2CEF008FAD751401E51470FC228E
:102C0C00120684FF600C122CEF740129F9E43AFAD5
:032C1C0080EE2225
:0A2CF9008F85751901E51970FC22A2
:102C1F00120684FF600C122CF9740129F9E43AFAB8
:032C2F0080EE2212
:05001E00AE07022CDB1F
:030023000225E1D2
:1025E100C0E0C083C082C0D075D000C00730982041
:1025F100C298E50BC394804003750B00AF0B050B2C
:1026010074002FF582E43400F583E599F0750C052B
:10261100309905C299750A00D007D0D0D082D083F5
:03262100D0E032D4
:030043000223EEA7
:1023EE00C0E0C083C082C0D075D000C007E59A306F
:1023FE00E021539AFEE510C394804003751000AFA0
:10240E0010051074802FF582E43400F583E59BF0FF
:10241E00751105E59A30E106539AFD750F00D00748
:09242E00D0D0D082D083D0E0327E
:03008B0002243715
:10243700C0E0C083C082C0D075D000C007E5AC3013
:10244700E02153ACFEE515C394404003751500AF7A
:1024570015051574002FF582E43401F583E5ADF019
:10246700751605E5AC30E10653ACFD751400D007D1
:09247700D0D0D082D083D0E03235
:03009300022480C4
:10248000C0E0C083C082C0D075D000C007E58430F2
:10249000E0215384FEE51AC394204003751A00AF6F
:1024A0001A051A74C02FF582E43401F583E585F02E
:1024B000751B05E58430E1065384FD751900D007CE
:0924C000D0D0D082D083D0E032EC
:101F2B004572726F723ACAB1BCE45B256475735D1E
:101F3B002CB2BBC2FAD7E3D6F7BBFACACDB7C5D71B
:101F4B00DCCFDFCAB1BCE45B256475732C20256440
:101F5B0075735D206C696E653A25640A0045727273
:101F6B006F72203A20CAB1BCE45B256475735D2C9B
:101F7B00B2BBC2FAD7E325735B256475732C20259E
:101F8B006475735D206C696E653A2025640A00B533
:101F9B00CDB5E7C6BDCFECD3A6CAB1BCE400B8DF64
:101FAB00B5E7C6BDCFECD3A6CAB1BCE4004461749F
:101FBB0061D0C5BAC5B5CDB5E7C6BDCFECD3A6CA02
:101FCB00B1BCE40044617461D0C5BAC5B8DFB5E7F4
:101FDB00C6BDCFECD3A6CAB1BCE400636E742D3E74
:101FEB00256475730A00D0A3D1E9CAA7B0DC3A25E2
:101FFB0064A3A10A00D0A3D1E9CDA8B9FD3A256409
:10200B00A3A10A00B6C1C8A1CEC2CAAAB6C8CAA7A4
:10201B00B0DCA3ACB4EDCEF3C2EBA3BA25640000E5
:04202B0000000000B1
:102C5200752340E4F522FB7A0079227F04021B8A65
:062D150043BA80022C52BB
:0D2CAB0000000000000000000000000022FA
:06192F008B388A39893A69
:10193500E4F53BF53CC2C67F14122C42D2C6E4F551
:101945003BF53C30C618C3E53C942DE53B9400506F
:101955000D122CAB053CE53C70E9053B80E5C3E584
:101965003C9406E53B9400400BD3E53C9423E53BD2
:10197500940040247BFF7A1F792B853B42853C43AD
:10198500754400754506754600754723754800750D
:101995004946120EA97FFF22E4F53BF53C20C60D12
:1019A500122CAB053CE53C70F4053B80F0C3E53CEF
:1019B5009449E53B9400400BD3E53C945DE53B94AD
:1019C500004024853B42853C437544FF75451F75A2
:1019D500469A754700754849754900754A5D754BC6
:1019E50000754C4E021ADBE4F53BF53C30C60D1292
:1019F5002CAB053CE53C70F4053B80F0C3E53C941D
:101A05004BE53B9400400BD3E53C9461E53B9400EA
:101A15004024853B42853C437544FF75451F75460B
:101A2500A975470075484B754900754A61754B00A6
:101A3500754C50021ADBE4F53D753E07E4F53BF5C0
:101A45003C20C60D122CAB053CE53C70F4053B80F3
:101A5500F0C3E53C942DE53B9400400BD3E53C9465
:101A65003FE53B94004023853B42853C437544FF5D
:101A750075451F7546B875470075482D754900753C
:101A85004A3F754B00754C5A804CE4F53BF53C30AC
:101A9500C60D122CAB053CE53C70F4053B80F0C34C
:101AA500E53C9417E53B9400400BD3E53C944AE5AF
:101AB5003B9400402D853B42853C437544FF75456D
:101AC5001F7546CF754700754817754900754A4A11
:101AD500754B00754C5C7BFF7A1F7968120EA97FE8
:101AE500FE22D3E53C942FE53B94004020AB38E53E
:101AF5003A253DF9E43539FA120684FFAE3EA806CB
:101B05007401088002C333D8FC4F1206CA153EC3C0
:101B1500E53E648094804003021A41053DE53DC3DE
:101B250094055003021A3ED2C67BFF7A1F79E685DB
:101B35003B42853C43120EA9AB38AA39A93A90001D
:101B45000112069DFF1206842FFF90000212069DCA
:101B55002FFF90000312069D2FFF90000412069D93
:101B65006F7BFF60107A1F79F175420075436C1227
:101B75000EA97FFD227A2079007542007543701207
:041B85000EA97F0026
:011B89002239
:06202F008B2C8A2D892E86
:1020350078337C007D007BFF7A20792A7E007F053E
:1020450012065E7B007A00793312192F8F32E53242
:1020550060107BFF7A20790F3395E0F5428F4312AC
:102065000EA9AC33E41202CEAB2CAA2DA92E120870
:102075005FE536547FFCE41202CE7BCD7ACC79CC79
:10208500783D1201BEC004C005C006C007AC35E4EA
:102095001202CED003D002D001D0001200CDAB2F5A
:1020A500AA30A93112085FE53630E722AB2FAA30F6
:1020B500A931C003C002C00112083FE4FBFA7980D0
:1020C50078BF1201BED001D002D00312085FAF3233
:0120D50022E8
:1000C600020337E86480F8E933E83360110460F02E
:1000D600ED33EC337009E8FCE9FDEAFEEBFF2204A0
:1000E60060DED3EB9FEA9EE99DE8C2E78CF0C2F79B
:1000F60095F0400CE8CCF8E9CDF9EACEFAEBCFFB67
:1001060012030285D0F05804700320D5B3E80470BA
:10011600075002B2D502034192D5EC0460F7E4CC55
:10012600C0E0C398F8603B94186008400DD0E0FB2F
:10013600020319E4FBFAC9FC8028E830E406E4C9A6
:10014600FBE4CAFCE830E305E4C9CACBFCE8540783
:100156006010F8C3E913F9EA13FAEB13FBEC13FC8E
:10016600D8F130F52FC3E49CFCEF9BFFEE9AFEED31
:1001760099FDD0E0FBEF4E4D4C701222DB030203DB
:100186003EEC2CFCEF33FFEE33FEED33FDED30E7B6
:10019600EB020319EF2BFFEE3AFEED39FDD0E0FB43
:1001A60050130BBB0003020341ED13FDEE13FEEFEC
:0801B60013FFEC13FC02031916
:1001BE00EC4D6011E8497017ED33EC3304600DE43B
:1001CE00FCFFFEFD22E933E8330470F80203371218
:1001DE00030258046009E4CC248150062850090219
:1001EE00034128400302033EC0E0EB4A7044B9804D
:1001FE0006D0E0FB02032DEF4E701CBD8008EBFF16
:10020E00EAFEE9FD80EBE98DF0A4FEE5F00202A71F
:10021E00E9CDF9EAFEEBFFEF89F0A4FCE5F0CE891B
:10022E00F0A42EFFE435F0CD89F0A42DFEE435F0D8
:10023E008067EF4E7005BD80D780C3EF8BF0A4AC06
:10024E00F0EE8BF0A42CFCE435F0F8EF8AF0A42C41
:10025E00E5F038FCE433CB8DF0A42CFCE5F03BF854
:10026E00EE8AF0A42CFCE5F038F8E433CF89F0A444
:10027E002CFCE5F038CF3400CE89F0A42FFFE5F04A
:10028E003EFEE433C98DF0A42EFEE5F039CD8AF0A2
:10029E00A42FFFE5F03EFEE43DFD33D0E0FB50071A
:1002AE000BBB000F020341EC2CFCEF33FFEE33FED1
:0602BE00ED33FD020319FF
:1002C40075F020800E75F010800575F0087D007EB5
:1002D400007F003392D530D50312080DEC33401063
:1002E400EF33FFEE33FEED33FDEC33FCD5F0ED22BE
:0E02F400E5F0247EA2D513CC92E7CDCEFF22FA
:100E4700E5562442F8E6055622783F3007027842F5
:100E5700E475F0011208A90206842000EB7F2ED268
:100E6700008018EF540F2490D43440D4FF30040B83
:100E7700EF24BFB41A0050032461FFE55760021541
:100E870057055AE55A7002055930070D783FE47542
:100E9700F0011208A9EF0206CA02001E7403D20766
:100EA7008003E4C207F5568B3F8A408941E4F55732
:100EB700F559F55AE55760077F20120E8280F575C0
:100EC70058FFC201C200C202C203C205C206C2085D
:100ED700120E50FF700D3007057F00120E93AF5AA8
:100EE700AE5922B4255FC2D5C204120E50FF24D0DA
:100EF700B40A00501A75F00A785730D50508B6FFBE
:100F07000106C6A426F620D5047002D20380D92490
:100F1700CFB41A00EF5004C2E5D204021180D20107
:100F270080C6D20080C0D20280BCD2D580BAD2059A
:100F370080B47F20120E822002077401B55700404B
:100F4700F1120E47FF120E82020EBBD208D20680A4
:100F570095120E47FB120E47FA120E47F94A4B70CD
:100F67000679777A127BFF20022EE557602A7E00EA
:100F77008E8275830012069D60060EEE655870F02E
:100F8700C2D5EBC0E0EAC0E0E9C0E0EE1211E0D064
:100F9700E0F9D0E0FAD0E0FB120684FF60AAEBC0CC
:100FA700E0EAC0E0E9C0E0120E82D0E02401F9D007
:100FB700E03400FAD0E0FBE5580460DCD558D9806E
:100FC70087D20280A21211C360F7E558700104129C
:100FD700034CA958600DE558600914F55812126AB8
:100FE700EF60F3EA30E702F404C3995077EAF42597
:100FF700580430E701E404F558800D1211C360C1AD
:10100700EA0558255812034CEA7855F630E701E40B
:10101700255804D55804200501141211E0E4C0E056
:1010270012126A7855E6601320E70714F6120E6A63
:10103700802204F6D0E014C0E07F00120E6AE55863
:101047006007120E611558800B300503120E61D030
:10105700E0020EBBD0E00480C51211C360A0E558C2
:101067000412034C7855EAF6E5582005026001049E
:0510770024041211E049
:10107C0074FF04C0E012126A120E6AE558200502D1
:10108C006003120E61D0E0B558E87F45120E7478FB
:10109C0055E67F2B30E7047F2DF404C0E0120E825E
:1010AC00D0E075F00A84C0F0120E6BD0E0120E6B1B
:1010BC00020EBB791080027908C206C2088008D2E1
:1010CC00D5790A8004790AC2D5E558047002F5581E
:1010DC00E4FAFDFEFF120E47FC7B08200113120EF2
:1010EC0047FD7B1030000A120E47FE120E47FF7BA5
:1010FC0020EC3382D592D55013C3E43000069FFF09
:10110C00E49EFEE42001039DFDE49CFCE4CBF8C2CC
:10111C0001EC700CCFCECDCCE824F8F870F380172E
:10112C00C3EF33FFEE33FEED33FDEC33FCEB33FB5F
:10113C00994002FB0FD8E9EB300105F8D0E0C44828
:10114C00B201C0E00AEC4D4E4F78207B0070C2EA31
:10115C00B5580040BCC0E01211E2D0F0D0E0200144
:10116C0004C4C0E0C4B201C0F0120E6BD0F0D5F0D4
:10117C00EB020EBB1208B90F585310BF580F294C75
:10118C000F254210C34F10CB4410CB490F3E4310D8
:10119C00D1551002461060450FCC471297500F2DB9
:1011AC002D0F312E0F542B0F35230F522012802A66
:1011BC000EED4800000F4CE558B4FF0375580612AD
:1011CC000E47FC120E47FD120E47FE120E47FF781B
:1011DC004E02037B790AA2D5200314300509B910FD
:1011EC00020404B9080104A2D5200602500104200F
:1011FC0002689202B557005034C0E07F20300319CA
:10120C007F30A20272067205500F121239C202C24E
:10121C0006C205C2087F30800F300503E9C0E0121A
:10122C000E82300503D0E0F9D0E0B557CC3005176D
:10123C007F30B9100C120E827F583004077F7880F3
:10124C0003B90803120E823002057F2D020E827F35
:10125C00202008F87F2B2006F322920280CF7F00FB
:10126C00B407005005244EF8E6FF22286E756C6C0E
:10127C002900D201120E473001F8C201785730D53F
:10128C000108F6020EED2D50434958120E47240367
:10129C00B405004001E490129293120E73743A124A
:0A12AC000E73D2037557040210BF41
:10030200E9D2E7C933E833F892D5EDD2E7CD33EC41
:0703120033FC5002B2D522BA
:10031900EC30E7100FBF000C0EBE00080DBD000445
:100329000BEB6014A2D5EB13FCED92E7FD2274FFF1
:10033900FCFDFEFF22E480F8A2D574FF13FC7D804A
:03034900E480EF5E
:10034C00F920E72824F950037907E4F42402FB1878
:10035C00DBFDE624FB5014E9600DE4F618E604F628
:0F036C00B40A08E4F6D9F57401F60A22C2D522C4
:10037B00ED33EC3392D5FA602AB4FF33EDC2E77B51
:10038B00FF60067A0379A0E4227A0379A920D504C9
:10039B007A0379A4224E614E002B494E46002D491B
:1003AB004E4600E47A08F608DAFC7B00740722E874
:1003BB00C0E0ECC0E0EDC0E0EEC0E0EFC0E0EA75FD
:1003CB00F010A4CAABF075F04DA42BFBE435F0FC98
:1003DB00EA2410FAEB34C5FBEC34D9FCEDC2E7FF91
:1003EB0075F056A4F42411C5F0F434C58FF0A42A8B
:1003FB00E5F03BE43CF620E71412054ED0E0FFD0CD
:10040B00E0FED0E0FDD0E0FC1204818014F4041275
:10041B00054ED0E0FFD0E0FED0E0FDD0E0FC1201B5
:10042B00BED0E0F8E6FAEDD2E7CD33EC332482FB15
:10043B00E4C3CF33CFCE33CECD33CD33DBF37B071A
:10044B0075F00A846004F6081B0AE5F0F6088FF0D5
:10045B00740AA4FFACF08EF0740AA42CFEACF0501E
:10046B00010C8DF0740AA42CFDE435F0F608DBDEEC
:03047B00740722E1
:10047E00020341EC5D046005E85904700302033782
:10048E00120302580460F6EC4860F2EC7004FDFEB4
:10049E00FF22C860DB2481C85009C3986002500651
:1004AE0002033E9850CAF582E9294B4A7005AB8289
:1004BE0002032D75F0007C1A7880C3EF9BEE9AED47
:1004CE0099400DC3EF9BFFEE9AFEED99FDE842F0C9
:1004DE00DC23ACF0D0E0FFD0E0FED0E0FDAB82201C
:1004EE00E7101BEB60BAEC2CFCEF33FFEE33FEEDA6
:1004FE0033FD020319E803F830E705C0F075F0008C
:10050E00EF2FFFEE33FEED33FD40B830E7C280AA89
:10051E003F8000004120000042C80000447A0000E5
:10052E00461C400047C35000497424004B18968067
:10053E004CBEBC205A0E1BCA6753C21C749DC5AE5E
:10054E00FB60065407601C232312057CEB543860B5
:10055E00091205681205771201BEECF8EDF9EEFAF4
:10056E00EFCB22EB12057780F1543803241C900553
:10057E001EFE93FC0EEE93FD0EEE930ECE93FF2217
:03000000022CC40B
:0C2CC400787FE4F6D8FD758168022B2FA4
:10058E00E709F608DFFA8046E709F208DFFA803E4F
:10059E0088828C83E709F0A3DFFA8032E309F6083C
:1005AE00DFFA8078E309F208DFFA807088828C83A4
:1005BE00E309F0A3DFFA806489828A83E0A3F60858
:1005CE00DFFA805889828A83E0A3F208DFFA804C32
:1005DE0080D280FA80C680D4806980F28033801009
:1005EE0080A680EA809A80A880DA80E280CA803372
:1005FE0089828A83ECFAE493A3C8C582C8CCC583EA
:10060E00CCF0A3C8C582C8CCC583CCDFE9DEE780B9
:10061E000D89828A83E493A3F608DFF9ECFAA9F038
:10062E00EDFB2289828A83ECFAE0A3C8C582C8CC8E
:10063E00C583CCF0A3C8C582C8CCC583CCDFEADEA7
:10064E00E880DB89828A83E493A3F208DFF980CC09
:10065E0088F0EF60010E4E60C388F0ED2402B40402
:10066E000050B9F582EB2402B4040050AF232345A9
:06067E0082239005DE73EB
:10068400BB010689828A83E0225002E722BBFE0274
:09069400E32289828A83E49322A7
:10069D00BB010CE58229F582E5833AF583E0225012
:1006AD0006E92582F8E622BBFE06E92582F8E2225C
:0D06BD00E58229F582E5833AF583E4932276
:1006CA00BB010689828A83F0225002F722BBFE010F
:0206DA00F32209
:1006DC00BB010A89828A83E0F5F0A3E022500687E9
:1006EC00F009E71922BBFE07E3F5F009E3192289AB
:0B06FC00828A83E493F5F074019322DE
:10070700BB0110E58229F582E5833AF583E0F5F030
:10071700A3E0225009E92582F886F008E622BBFE0D
:100727000AE92582F8E2F5F008E222E5832AF58353
:08073700E993F5F0A3E9932218
:10073F0075F008758200EF2FFFEE33FECD33CDCC71
:10074F0033CCC58233C5829BED9AEC99E5829840F4
:10075F000CF582EE9BFEED9AFDEC99FC0FD5F0D6D1
:10076F00E4CEFBE4CDFAE4CCF9A88222B800C1B9FB
:10077F000059BA002DEC8BF084CFCECDFCE5F0CB39
:10078F00F97818EF2FFFEE33FEED33FDEC33FCEB72
:10079F0033FB10D703994004EB99FB0FD8E5E4F92D
:1007AF00FA227818EF2FFFEE33FEED33FDEC33FC1A
:1007BF00C933C910D7059BE99A4007EC9BFCE99A0E
:1007CF00F90FD8E0E4C9FAE4CCFB2275F010EF2F53
:1007DF00FFEE33FEED33FDCC33CCC833C810D70753
:1007EF009BEC9AE899400AED9BFDEC9AFCE899F88E
:0E07FF000FD5F0DAE4CDFBE4CCFAE4C8F92221
:0E080D00C3E49FFFE49EFEE49DFDE49CFC22FC
:10081B00EB9FF5F0EA9E42F0E99D42F0E89C45F033
:01082B0022AA
:10082C00E8600FECC313FCED13FDEE13FEEF13FFAA
:03083C00D8F122CE
:10083F00BB010789828A830208EB5005E9F8020899
:10084F00DFBBFE05E9F80208F789828A83020903F4
:10085F00BB010789828A830209555005E9F802090D
:0A086F0049BBFE05E9F80209612209
:10087900BB010DE58229F582E5833AF5830209205A
:100889005007E92582F8020913BBFE07E92582F81A
:1008990002092CE58229F582E5833AF583020939B3
:1008A900FAE6FB0808E6F925F0F618E6CA3AF62250
:1008B900D083D082F8E4937012740193700DA3A3CE
:1008C90093F8740193F5828883E4737402936860E2
:0608D900EFA3A3A380DFE2
:0C08DF00E6FC08E6FD08E6FE08E6FF2245
:0C08EB00E0FCA3E0FDA3E0FEA3E0FF2280
:0C08F700E2FC08E2FD08E2FE08E2FF223D
:10090300E493FC740193FD740293FE740393FF223A
:0D091300E6FB08E6F908E6FA08E6CBF82254
:0C092000E0F8A3E0F9A3E0FAA3E0FB225A
:0D092C00E2FB08E2F908E2FA08E2CBF8224B
:10093900E493F8740193F9740293FA740393FB2214
:0C094900ECF608EDF608EEF608EFF622DA
:0C095500ECF0A3EDF0A3EEF0A3EFF02215
:0C096100ECF208EDF208EEF208EFF222D2
:00000001FF
