:023086002FCD4C
:02308800256AB7
:02308A002ECD49
:1027EE00444F574E0A00766F6C203A20252E3266E3
:1027FE000A00BEE0C0EBA3BA252E32660A00B4ED85
:10280E00CEF3C2EBA3BA25640A002D2D2D2DB7BD34
:10281E00CFF2310A002D2D2D2DB7BDCFF2320A0089
:03282E0055500002
:0630330001750001741498
:102FDF00752303E4F522FB7A0079227F03021A316D
:102D62007522407523017527007526C275250175E8
:102D72002400752901E4F52AFB7A0079227F0112E9
:0C2D820009F37D017F01122A2853A23FB3
:012D8E002222
:102EB20043BA80122FDF122D6212307F12306E124F
:0B2EC200301B122FFF122E95D2AF2202
:102FCD00122EB27F011218C07F021218C0E4FF0248
:022FDD00194990
:10256A00E4FF12000E7DC87F021219D2E4FF1200A6
:10257A002E7DC87F021219D27F0112000E7DC87FFC
:10258A00021219D27F0112002E7DC87F021219D2BF
:10259A007F0212000E7DC87F021219D27F0212003A
:0A25AA002E7DC87F021219D280B600
:10208E007BFF7A2779EE120F2F122A667BFF7A27B3
:10209E0079F48F408E3F8D3E8C3D120F2F7B007A50
:1020AE00007935121F528F39E5397BFF70127A286D
:1020BE00790085384085373F85363E85353D800E23
:1020CE007A28790CAF39EF3395E0F53D8F3E120F3C
:1020DE002FE57514601004701D7BFF7A2879181295
:1020EE000F2FE4FD800B7BFF7A287923120F2F7DB3
:1020FE0002AF741224720575E575D394024003E4A1
:02210E00F57565
:0121100022AC
:093065007BFF7A28792E020F2F5F
:102ECD00753800753900753A007BFF7A20798E12BE
:0B2EDD002D8F7D027F021219D280E5CC
:0D300E0053937F43948053C9FB43CA0422AF
:10000E00EF7003D28722BF0103D2CA22BF0204D2ED
:04001E0087D2CA2299
:10002E00EF7003C28722BF0103C2CA22BF0204C2FD
:04003E0087C2CA2289
:03303900017A0118
:07307F005393DF5394DF229D
:102EE800A285E433657A6012A285E433F57A2085F9
:0B2EF8000302208E308503123065229B
:102D8F00A285E433657A6022A285E433F57A208543
:102D9F0007EA494B6014800F30850FE539453A45F6
:0B2DAF00386007AA39A93A12095F2218
:102E2F0075221FE4F525752601752307752401FB0F
:102E3F007A0079221223C97F01123028E4FDFF02A4
:022E4F0029EA6E
:09306E004391085392F7022E2F42
:102A66007F0312218BAD07AC06E41202BAE4FBFA2F
:102A7600792078401200967B007AF0797F784512AB
:102A8600019F8F3D8E3C8D3B8C3A7F337E337DC3D9
:0D2A96007C40AB3DAA3CA93BA83A0200964B
:10225E00020B024B029302BA0310037003DC041745
:10226E000417049705270575062006E007B8082D04
:10227E00010203010102030103040503040505061F
:10228E00050403010506050403010105010105010D
:10229E0004040404040404040404080404080301EC
:1022AE0003010404030103010404040408040408E4
:102FEF00752310E4F522FB7A0079227F03021A3150
:1022BE00AB07AA06E4F9F8FF7E367D6E7C01122785
:1022CE00AA8E2B8F2C752260E4F525F526752840F5
:1022DE00FB7A0079227F0812133CE52C24FFF524AB
:1022EE00E52B34FFF523E4F527752A01752901FB4B
:1022FE007A0079227F8112133C90FEB6E0543F445F
:0A230E0040F0E4FBFD7F8102211185
:0D301B0043BA80122FEF7FE87E030222BE31
:10251A00AB07AA06E4F9F8FF7E367D6E7C01122726
:10252A00AA8E768F77AC76AD77E41202BA7B0A7AF6
:10253A00D779A3783C1200961202F3AD07AC06E5F0
:10254A007724FFE57634FF90FEF2F0E57714A3F0E6
:0F255A0090FEFBECF0A3EDF090FEEDE04410F0EE
:01256900224F
:102F0300EF25E0FFEE33FE746C2FF58274223EF55D
:0B2F130083E493FE740193FF02251A73
:0800030090FEEDE054EFF02245
:1028B400E4F578F579757820F579E579C39578505C
:1028C4002AE57990227E93FF7E00122F03E579900A
:1028D400229E9375F00AA4FD7F021219D2120003FE
:0E28E4007D0A7F021219D2057980CF0200030F
:10268F007FC87E0012251A7D1E7F021219D21200FA
:10269F00037D0A7F021219D27F907E0112251A7DC7
:1026AF001E7F021219D21200037D0A7F021219D265
:1026BF007F207E0312251A7D1E7F021219D212006F
:0826CF00037D0A7F020219D20B
:0F2FFF0053B37F43B480C2C743B10853B2F72224
:040026007F4EDFFE2C
:01002A0022B3
:061F52008B3A8A3B893C3A
:101F5800D2C7120026120026C2C7E4FDFCC3ED94C6
:101F6800F4EC9401500D20B30A0DBD00010C1200D1
:101F78002680EAC3ED94F4EC940140037FFF22E449
:101F8800FCFDC3ED94B8EC940B500D30B30A0DBDB5
:101F980000010C12002680EAC3ED94B8EC940B40C3
:101FA800037FFE22AE04AF05E41202BA7B7B7A14EB
:101FB80079AE783E120096E4FBFAF9784012019F58
:101FC800AB3AAA3BA93C1208DFAB3AAA3BA93C12A0
:101FD80008BFE4FBFAF9784012023C60025015ABE6
:101FE8003AAA3BA93C1208BFE4FBFA79C878431225
:091FF800023C50037FFD227F0032
:0120010022BC
:102F51000000000000000000000000000000000070
:082F6100000000000000000068
:102E950053910F4392F05395F043960FC2A1C2A0F0
:0D2EA500C2A3C2A2C295C294C297C29622D7
:08307700EFA2E7132432FF224F
:101C8500754460AF43123077AC07EC1202BFE4FB3A
:101C9500FA79C8784212019F7B007A8079BB784631
:101CA5001200961202F38E478F48D3E5436480F8FD
:101CB50074F6648098500CE5436480948A50047FE0
:101CC5000080027F038F4A7B007A0079447F0112EE
:101CD500133C754460AF42123077AC07EC1202BF7B
:101CE500E4FBFA79C8784212019F7B007A8079BBC0
:101CF50078461200961202F38E478F48D3E5426468
:101D050080F874F6648098500CE5426480948A509B
:101D1500047F0080027F0C8F4A7B007A0079447F24
:101D25000212133C754460AF41123077AC07EC12D8
:101D350002BFE4FBFA79C8784212019F7B007A80E2
:101D450079BB78461200961202F38E478F48D3E589
:101D5500416480F874F6648098500CE54164809481
:101D65008A50047F0080027F308F4A7B007A007999
:101D7500447F0312133C754460AF40123077AC07C3
:101D8500EC1202BFE4FBFA79C8784212019F7B008E
:101D95007A8079BB78461200961202F38E478F48F7
:101DA500D3E5406480F874F6648098500CE540648F
:101DB50080948A50047F0080027FC08F4A7B007A1E
:101DC5000079447F0412133C75455D7546BFE4F503
:101DD50049754C01754B01FB7A0079447F801213DC
:101DE5003C90FEB2E054FC4401F0E054F34404F0AE
:101DF500E054CFF0E0543FF0E4FBFD7F8002211179
:042371008F0E8D0F2F
:1023750078107C007D007BFF7A2F79517E007F04E9
:102385001206DEE50F700CF510850E11850E12F59F
:1023950013801BE50FB4020A850E10E4F511F51242
:1023A5008009850E10850E11850E12850E13784055
:1023B5007C007D007B007A0079107E007F04120688
:0423C500DE021C8593
:0421F8008F148D159E
:1021FC0078167C007D007BFF7A2F79557E007F045A
:10220C001206DEE5157010E514F404FFF516E4F57E
:10221C0017F5188F198025E515B40210E4F516E5AD
:10222C0014F404F517F518E4F5198010E514F4040A
:10223C00F516F517E514F404F518F51978407C003B
:10224C007D007B007A0079167E007F041206DE0288
:02225C001C85DF
:04241E008F1A8D1B69
:10242200781C7C007D007BFF7A2F79597E007F0427
:102432001206DEE51B7010E51AF404F51C851A1D60
:10244200851A1EF51F8013E51BB4020E851A1CE5C2
:102452001AF404F51DF51E851A1F78407C007D00D4
:102462007B007A00791C7E007F041206DE021C8546
:042472008F3A8D3BD5
:10247600783C7C007D007BFF7A2F795D7E007F04AF
:102486001206DEE53B7010853A3CE53AF404F53D6C
:10249600853A3EF53F8013E53BB4020EE53AF40477
:1024A600F53C853A3DF53E853A3F78407C007D0017
:1024B6007B007A00793C7E007F041206DE021C85D2
:0424C6008F6A8D6B21
:1024CA00786C7C007D007BFF7A2F79617E007F0427
:1024DA001206DEE56B7010856A6CE56A25E0F56D1B
:1024EA00856A6EF56F8013E56BB4020EE56A25E026
:1024FA00F56C856A6DF56E856A6F78407C007D00A3
:10250A007B007A00796C7E007F041206DE021C854D
:102DBA0078707C007D007BFF7A2F79657E007F0426
:102DCA001206DE78407C007D007B007A0079707EF6
:092DDA00007F041206DE021C85D4
:101A3100EFD3940740037FFF22120704FED39403E0
:101A410040037FFF22EF7041EE700B9000011207FF
:101A51001DF452935294120704B4010B9000011229
:101A6100071D4293F45294120704FEB4020A900037
:101A71000112071D42934294EEB4030D900001122E
:101A8100071DFEF45293EE4294EF64017043120776
:101A910004FE700B90000112071DF452915292EE58
:101AA100B4010B90000112071D4291F452921207EA
:101AB10004B4020A90000112071D429142921207DA
:101AC10004B4030D90000112071DFEF45291EE4281
:101AD10092EF64027043120704FE700B9000011232
:101AE100071DF452955296EEB4010B9000011207B6
:101AF1001D4295F45296120704B4020A9000011295
:101B0100071D42954296120704B4030D900001127D
:101B1100071DFEF45295EE4296EF640370431207DF
:101B210004FE700B90000112071DF452B152B2EE87
:101B3100B4010B90000112071D42B1F452B2120719
:101B410004B4020A90000112071D42B142B2120709
:101B510004B4030D90000112071DFEF452B1EE42D0
:101B6100B2EF64047043120704FE700B900001127F
:101B7100071DF452B352B4EEB4010B9000011207E9
:101B81001D42B3F452B4120704B4020A90000112C8
:101B9100071D42B342B4120704B4030D90000112B1
:101BA100071DFEF452B3EE42B4EF64057043120711
:101BB10004FE700B90000112071DF452C952CAEEC7
:101BC100B4010B90000112071D42C9F452CA120759
:101BD10004B4020A90000112071D42C942CA120749
:101BE10004B4030D90000112071DFEF452C9EE4228
:101BF100CAEF64067043120704FE700B90000112D5
:101C0100071DF452CB52CCEEB4010B900001120728
:101C11001D42CBF452CC120704B4020A9000011207
:101C2100071D42CB42CC120704B4030D90000112F0
:101C3100071DFEF452CBEE42CCEF6407704312074E
:101C410004FF700B90000112071DF452E152E2EF04
:101C5100B4010B90000112071D42E1F452E2120798
:101C610004B4020A90000112071D42E142E2120788
:101C710004B4030D90000112071DFFF452E1EF427D
:041C8100E27F0022DC
:1028F200EFD3940140037FFF22EDD3940340037F83
:10290200FF22EF7004C2A98002D2A9ED700553B76D
:10291200FDC2B9BD010553B7FDD2B9BD020543B72A
:0E29220002C2B9BD030543B702D2B97F00223D
:10293000EFD3940140037FFF22EDD3940340037F44
:10294000FF22EF7004C2AB8002D2ABED700553B72B
:10295000F7C2BBBD010553B7F7D2BBBD020543B7F4
:0E29600008C2BBBD030543B708D2BB7F0022EF
:102E5100EFD3940140037FFF22EDD3940340037F1E
:102E6100FF22EF25E025E0FFE5AF54FB4FF5AFE48E
:022E7100FF223E
:102E7300EFD3940140037FFF22EDD3940340037FFC
:102E8300FF22EFC43354E0FFE5AF54DF4FF5AFE467
:022E9300FF221C
:102E0C00EFD3940140037FFF22EDD3940340037F63
:102E1C00FF22EFC4333354C0FFE5AF54BF4FF5AFBF
:032E2C00E4FF229E
:10296E00EFD3940140037FFF22EDD3940340037F06
:10297E00FF22EF7004C2A88002D2A8ED700553B7F3
:10298E00FEC2B8BD010553B7FED2B8BD020543B7AE
:0E299E0001C2B8BD030543B701D2B87F0022C5
:1029AC00EFD3940140037FFF22EDD3940340037FC8
:1029BC00FF22EF7004C2AA8002D2AAED700553B7B1
:1029CC00FBC2BABD010553B7FBD2BABD020543B772
:0E29DC0004C2BABD030543B704D2BA7F00227D
:102F6900EFD3940140037FFF22EFC454F0FFE58FB4
:082F790054EF4FF58FE4FF2235
:102F3800EFD3940140037FFF22EFC43354E0FFE551
:092F48008F54DF4FF58FE4FF22E6
:102F1E00EFD3940140037FFF22EFC4333354C0FF3D
:0A2F2E00E58F54BF4FF58FE4FF223A
:1029EA00EFD3940140037FFF22EDD3940340037F8A
:1029FA00FF22EF7004C2AD8002D2ADED700553B76D
:102A0A00DFC2BDBD010553B7DFD2BDBD020543B765
:0E2A1A0020C2BDBD030543B720D2BD7F002200
:1026D700EDD3940340037FFF22EF30E10543E6206B
:1026E700800353E6DFEF30E00543E610800353E64F
:1026F700EFED700653B6DF53B5DFBD010653B6DF06
:1027070043B520BD020643B62053B5DFBD030643DC
:08271700B62043B5207F00222B
:10231800EFD3940140037FFF22EBD3940340037F64
:10232800FF22BF0112ED90FE817006E0547FF0801D
:1023380011E04480F0800BEF700890FE83E0548732
:102348004DF0EB700653B6DF53B5DFBB010653B64D
:10235800DF43B520BB020643B62053B5DFBB0306F7
:0923680043B62043B5207F00229A
:102A2800EFD3940140037FFF22EDD3940340037F4B
:102A3800FF22EF7004C2AC8002D2ACED700553B730
:102A4800EFC2BCBD010553B7EFD2BCBD020543B709
:0E2A580010C2BCBD030543B710D2BC7F0022E4
:10287400EFD3940140037FFF22EDD3940340037F01
:10288400FF22E5AF54FE4FF5AFED700653B6FE538D
:10289400B5FEBD010653B6FE43B501BD020643B6FF
:1028A4000153B5FEBD030643B60143B5017F0022C3
:10271F00EFD3940140037FFF22EDD3940340037F57
:10272F00FF22EF33333354F8FFE5AF54F74FF5AFD4
:10273F00ED700653EEFE53DFFEBD010653EEFE4372
:10274F00DF01BD020643EE0153DFFEBD030643EE7C
:07275F000143DF017F0022AE
:10004600EFD3940140037FFF22EDD3940340037F57
:10005600FF22EFC454F0FFE5AF54EF4FF5AFED705C
:100066000653EEFD53DFFDBD010653EEFD43DF02F1
:10007600BD020643EE0253DFFDBD030643EE024317
:05008600DF027F0022F3
:10276600EFD3940140037FFF22EDD3940340037F10
:10277600FF22EF25E0FFE5AF54FD4FF5AFED700604
:1027860053B6FD53B5FDBD010653B6FD43B502BDB7
:10279600020643B60253B5FDBD030643B60243B572
:0427A600027F00228C
:10211100EFD3948140037FFF22EBD3940340037FED
:10212100FF22EF247F603004705890FEC4EDF0EB85
:10213100700653B6FB53B5FBBB010653B6FB43B563
:1021410004BB020643B60453B5FBEB64037038438A
:10215100B60443B504803090FEE4EDF0EB70065315
:10216100B6F753B5F7BB010653B6F743B508BB0243
:102171000643B60853B5F7BB030D43B60843B5088C
:0A218100800590FEE4EDF07F0022DF
:102AA300EDD394035026ED700653EEFB53DFFBBDCD
:102AB300010653EEFB43DF04BD020643EE0453DF7E
:102AC300FBBD030B43EE0443DF0480037FFF22902F
:072AD300FE62EFF07F00221C
:102ADA0090FA10E054F0F0EDD39403500BE0FEEDC1
:102AEA0025E025E0FDEE4DF0EBD39403500690FA75
:102AFA0010E04BF090FA10E0BF01054480F080032B
:062B0A00547FF07F002261
:102B100090FA00E054F0F0EDD39403500BE0FEED9A
:102B200025E025E0FDEE4DF0EBD39403500690FA3E
:102B300000E04BF090FA00E0BF01054480F0800314
:062B4000547FF07F00222B
:102B460090FA20E054F0F0EDD39403500BE0FEED44
:102B560025E025E0FDEE4DF0EBD39403500690FA08
:102B660020E04BF090FA20E0BF01054480F080039E
:062B7600547FF07F0022F5
:102B7C0090FA30E054F0F0EDD39403500BE0FEEDFE
:102B8C0025E025E0FDEE4DF0EBD39403500690FAD2
:102B9C0030E04BF090FA30E0BF01054480F0800348
:062BAC00547FF07F0022BF
:102BB20090FA38E054F0F0EDD39403500BE0FEEDC0
:102BC20025E025E0FDEE4DF0EBD39403500690FA9C
:102BD20038E04BF090FA38E0BF01054480F0800302
:062BE200547FF07F002289
:102BE80090FA40E054F0F0EDD39403500BE0FEED82
:102BF80025E025E0FDEE4DF0EBD39403500690FA66
:102C080040E04BF090FA40E0BF01054480F08003BB
:062C1800547FF07F002252
:102C1E0090FA48E054F0F0EDD39403500BE0FEED43
:102C2E0025E025E0FDEE4DF0EBD39403500690FA2F
:102C3E0048E04BF090FA48E0BF01054480F0800375
:062C4E00547FF07F00221C
:102C540090FA50E054F0F0EDD39403500BE0FEED05
:102C640025E025E0FDEE4DF0EBD39403500690FAF9
:102C740050E04BF090FA50E0BF01054480F080032F
:062C8400547FF07F0022E6
:102C8A0090FA58E054F0F0EDD39403500BE0FEEDC7
:102C9A0025E025E0FDEE4DF0EBD39403500690FAC3
:102CAA0058E04BF090FA58E0BF01054480F08003E9
:062CBA00547FF07F0022B0
:102CC00090FA60E054F0F0EDD39403500BE0FEED89
:102CD00025E025E0FDEE4DF0EBD39403500690FA8D
:102CE00060E04BF090FA60E0BF01054480F08003A3
:062CF000547FF07F00227A
:102CF60090FA68E054F0F0EDD39403500BE0FEED4B
:102D060025E025E0FDEE4DF0EBD39403500690FA56
:102D160068E04BF090FA68E0BF01054480F080035C
:062D2600547FF07F002243
:102D2C0090FA70E054F0F0EDD39403500BE0FEED0C
:102D3C0025E025E0FDEE4DF0EBD39403500690FA20
:102D4C0070E04BF090FA70E0BF01054480F0800316
:062D5C00547FF07F00220D
:102DE30090FE50E054CFF0EDD39403500AE0FEED93
:102DF300C454F0FDEE4DF090FE50E0BF0105448059
:092E0300F08003547FF07F0022EF
:0809F3008F2B8B2C8A2D892E1D
:1009FB00E52B64016003020B69F556F557F558F5C5
:100A0B0059F55AF52FF53074402530F582740135C0
:100A1B002FF583E4F00530E5307002052F64804537
:100A2B002F70E4E4F52FF53074002530F582740057
:100A3B00352FF583E4F00530E5307002052F648027
:100A4B00452F70E4AB2CAA2DA92E120704FFE598B5
:100A5B00543F4FF598EF64C06008EF6440600302A9
:100A6B000B1E9000021208F97F807E8D7D5B7C004F
:100A7B001207FB8F348E338D328C31E4FFFE7D01F8
:100A8B00FCAB34AA33A932A831C312089B40037FB5
:100A9B00FF22C3E49534F534E49533F533740195B3
:100AAB0032F532E49531F531AB2CAA2DA92E9000FD
:100ABB000112071DFB6401702CC28E538EFE5389ED
:100ACB00BF5389CF438E40AF34AE33AD32AC3178A8
:100ADB00081208AC8F8D85348BC2AB5389BF538FF3
:100AEB00FDD28E8062EB64027026538EEF438E0133
:100AFB00538EF7438E04AF34AE33AD32AC3178083E
:100B0B001208AC8FD68534D753AFFB438E1080378A
:100B1B007FFF22AB2CAA2DA92E120704FF70139076
:100B2B00000812071DB40105438E20801A538EDF77
:100B3B008015EFB4801190000812071DB401054316
:100B4B008780800353877FAB2CAA2DA92E9000079B
:100B5B0012071D7004C29C8002D29C7F0022E52BE1
:100B6B0064026003020C62F55BF55CF55DF55EF506
:100B7B005FF52FF53074E02530F5827401352FF5D4
:100B8B0083E4F00530E5307002052F6480452F704B
:100B9B00E4E4F52FF53074802530F5827400352FA1
:100BAB00F583E4F00530E5307002052F6480452FA6
:100BBB0070E4AB2CAA2DA92E120704FF64C06005AC
:100BCB00EF64407075EFB4C005439A808003539A6D
:100BDB007F9000021208F97F807E8D7D5B7C001276
:100BEB0007FB8F348E338D328C31E4FFFE7D01FC9D
:100BFB00AB34AA33A932A831C312089B40037FFF41
:100C0B0022C3E49534F534E49533F533740195320E
:100C1B00F532E49531F531538EEF538EF7438E0455
:100C2B00AF34AE33AD32AC3178081208AC8FD68509
:100C3B0034D753AFFB438E1080037FFF22AB2CAA1C
:100C4B002DA92E90000712071DC454F0FFE59A54EE
:100C5B00EF4FF59A7F0022E52B64036003020D969C
:100C6B00F560F561F562F563F564F52FF5307460A9
:100C7B002530F5827402352FF583E4F00530E5302D
:100C8B007002052F6440452F70E4E4F52FF53074A6
:100C9B00002530F5827401352FF583E4F00530E53E
:100CAB00307002052F6440452F70E4AB2CAA2DA9A0
:100CBB002E120704FF64C06008EF64406003020D4E
:100CCB0079EFB4C00543AC80800353AC7F90000236
:100CDB001208F97F807E8D7D5B7C001207FB8F34C1
:100CEB008E338D328C31E4FFFE7D01FCAB34AA33A5
:100CFB00A932A831C312089B40037FFF22C3E4959E
:100D0B0034F534E49533F53374019532F532E495CB
:100D1B0031F531AB2CAA2DA92E90000112071DFB2A
:100D2B00B4031D43AC40AF34AE33AD32AC317808B5
:100D3B001208AC8FD48534D553D1F043D10A80310E
:100D4B00EB64027026538EEF53ACBF538EF7438E7A
:100D5B0004AF34AE33AD32AC3178081208AC8FD659
:100D6B008534D753AFFB438E1080067FFF227FFF66
:100D7B0022AB2CAA2DA92E90000712071DC454F0EC
:100D8B00FFE5AC54EF4FF5AC7F0022E52B6404601C
:100D9B0003020ECAF565F566F567F568F569F52F7B
:100DAB00F53074A02530F5827402352FF583E4F00D
:100DBB000530E5307002052F6420452F70E4E4F513
:100DCB002FF53074C02530F5827401352FF583E48F
:100DDB00F00530E5307002052F6420452F70E4AB31
:100DEB002CAA2DA92E120704FF64C06008EF6440E3
:100DFB006003020EADEFB4C00543848080035384BF
:100E0B007F9000021208F97F807E8D7D5B7C001243
:100E1B0007FB8F348E338D328C31E4FFFE7D01FC6A
:100E2B00AB34AA33A932A831C312089B40037FFF0E
:100E3B0022C3E49534F534E49533F53374019532DC
:100E4B00F532E49531F531AB2CAA2DA92E9000018A
:100E5B0012071DFBB4041D438440AF34AE33AD32D7
:100E6B00AC3178081208AC8FD28534D353D10F43F1
:100E7B00D1A08031EB64027026538EEF5384BF53A5
:100E8B008EF7438E04AF34AE33AD32AC31780812EB
:100E9B0008AC8FD68534D753AFFB438E1080067FBB
:100EAB00FF227FFF22AB2CAA2DA92E900007120741
:100EBB001DC454F0FFE58454EF4FF5847F00227F6F
:010ECB00FF27
:010ECC002203
:0A303D008F99755801E55870FC22C8
:102F8100120704FF600C12303D740129F9E43AFA8A
:032F910080EE22AD
:0A3047008F9B755D01E55D70FC22B2
:102F9400120704FF600C123047740129F9E43AFA6D
:032FA40080EE229A
:0A3051008FAD756201E56270FC228C
:102FA700120704FF600C123051740129F9E43AFA50
:032FB70080EE2287
:0A305B008F85756701E56770FC22A0
:102FBA00120704FF600C12305B740129F9E43AFA33
:032FCA0080EE2274
:05008E00AE0702303D49
:030023000228317F
:10283100C0E0C083C082C0D075D000C007309820EE
:10284100C298E559C394804003755900AF590559A1
:1028510074002FF582E43400F583E599F0755A058B
:10286100309905C299755800D007D0D0D082D08355
:03287100D0E03282
:030043000225B4DF
:1025B400C0E0C083C082C0D075D000C007E59A30A7
:1025C400E021539AFEE55EC394804003755E00AF3C
:1025D4005E055E74802FF582E43400F583E59BF09C
:1025E400755F05E59A30E106539AFD755D00D007E5
:0925F400D0D0D082D083D0E032B7
:03008B000225FD4E
:1025FD00C0E0C083C082C0D075D000C007E5AC304C
:10260D00E02153ACFEE563C394404003756300AF16
:10261D0063056374002FF582E43401F583E5ADF0B5
:10262D00756405E5AC30E10653ACFD756200D0076D
:09263D00D0D0D082D083D0E0326D
:03009300022646FC
:10264600C0E0C083C082C0D075D000C007E584302A
:10265600E0215384FEE568C394204003756800AF0B
:1026660068056874C02FF582E43401F583E585F0CA
:10267600756905E58430E1065384FD756700D0076A
:09268600D0D0D082D083D0E03224
:1023C90090000112071DFFE5DE54F04FF5DE900085
:1023D9000212071DC43354E0FFE5DE54DF4FF5DE7A
:1023E900120704FFD3941F502B90000312071DFE00
:1023F900D39401501F90000412071DFDD39403507C
:1024090013EDC43354E0FDEEC433333354804D4FE0
:0524190090FEA8F02276
:0B302800BF010443BC802253BC7F2288
:10218B00EFD3940F40028060E4F5BDF5BEE5BC547F
:10219B00F044404FF5BC00000000000000000000C0
:1021AB00E4FDE5BC30E53D53BCDFE5DEAFBD30E51E
:1021BB000EEFFEACBEECFBEEF53EEBF53F80207573
:1021CB003E008F3FE5BEC4540FFBE53FC4F8540FF0
:1021DB00C868FFE53EC454F048F53EEF4BF53FAE03
:0C21EB003EAF3F220DBDFABA7E107F000F
:0121F70022C5
:03002B0002308C14
:04308C0053BCDF3220
:10133C00AD07ED6401707A90FECCE054FEF0E05401
:10134C00FBF090FEC8E054FCF0120704FF90FEC8BE
:10135C00E0548F4FF090000612071DFF90FECC302A
:10136C00E00DE04401F090FEB1E04401F0800BE0B0
:10137C0054FEF090FEB1E054FEF0EF90FECC30E164
:10138C000DE04404F090FEB1E04402F0800BE05418
:10139C00FBF090FEB1E054FDF0900003120787E5DE
:1013AC00F090FED5F090000312078790FED602163F
:1013BC00F6ED6402707A90FECCE054EFF0E054BF8E
:1013CC00F090FEC9E054FCF0120704FF90FEC9E057
:1013DC00548F4FF090000612071DFF90FECC30E2A8
:1013EC000DE04410F090FEB1E04404F0800BE054AA
:1013FC00EFF090FEB1E054FBF0EF90FECC30E30D3B
:10140C00E04440F090FEB1E04408F0800BE054BFA3
:10141C00F090FEB1E054F7F0900003120787E5F06E
:10142C0090FED7F090000312078790FED80216F6B4
:10143C00ED6403707A90FECDE054FEF0E054FBF0C6
:10144C0090FECAE054FCF0120704FF90FECAE05470
:10145C008F4FF090000612071DFF90FECD30E40D6B
:10146C00E04401F090FEB1E04410F0800BE054FE3B
:10147C00F090FEB1E054EFF0EF90FECD30E50DE0D2
:10148C004404F090FEB1E04420F0800BE054FBF0FB
:10149C0090FEB1E054DFF0900003120787E5F09066
:1014AC00FED9F090000312078790FEDA0216F6EDD3
:1014BC006404707A90FECDE054EFF0E054BFF090ED
:1014CC00FECBE054FCF0120704FF90FECBE0548FEF
:1014DC004FF090000612071DFF90FECD30E60DE098
:1014EC004410F090FEB1E04440F0800BE054EFF07B
:1014FC0090FEB1E054BFF0EF90FECD30E70DE0442C
:10150C0040F090FEB1E04480F0800BE054BFF090CE
:10151C00FEB1E0547FF0900003120787E5F090FED7
:10152C00DBF090000312078790FEDC0216F6ED64E8
:10153C0080704F90000512071D90FEDEF0900001A8
:10154C00120787E5F090FED2F09000011207879009
:10155C00FED3F090000812071D90FEDDB40106E0EA
:10156C004480F08004E0547FF090000712071D9037
:10157C00FEC0B40106E04401F08004E054FEF07FAC
:10158C000022ED6405705690FEECE054FEF090FEE7
:10159C00E8E054FCF0120704FF90FEE8E0548F4F93
:1015AC00F090000612071D90FEEC30E00DE04401B7
:1015BC00F090FEB5E04401F0800BE054FEF090FE9C
:1015CC00B5E054FEF0900003120787E5F090FEF5AD
:1015DC00F090000312078790FEF60216F6ED6406F3
:1015EC00705690FEECE054EFF090FEE9E054FCF005
:1015FC00120704FF90FEE9E0548F4FF090000612A2
:10160C00071D90FEEC30E20DE04410F090FEB5E0CA
:10161C004404F0800BE054EFF090FEB5E054FBF086
:10162C00900003120787E5F090FEF7F0900003128C
:10163C00078790FEF80216F6ED6407705590FEEDE4
:10164C00E054FEF090FEEAE054FCF0120704FF9028
:10165C00FEEAE0548F4FF090000612071D90FEED4D
:10166C0030E40DE04401F090FEB5E04410F0800B46
:10167C00E054FEF090FEB5E054EFF090000312073A
:10168C0087E5F090FEF9F090000312078790FEFAC0
:10169C008058ED6408705790FEEDE054EFF090FE2A
:1016AC00EBE054FCF0120704FF90FEEBE0548F4F7C
:1016BC00F090000612071D90FEED30E60DE0441090
:1016CC00F090FEB5E04440F0800BE054EFF090FE5B
:1016DC00B5E054BFF0900003120787E5F090FEFBD5
:1016EC00F090000312078790FEFCF07F0022ED645F
:1016FC0081704C90000512071D90FEFEF0900001C9
:10170C00120787FDACF0EC90FEF2F0AF05A3EFF002
:10171C0090000812071D90FEFDB40106E04480F015
:10172C008004E0547FF090000712071D90FEE0B497
:10173C000106E04401F08004E054FEF07F00227FBB
:02174C00FF227A
:101E0500EF24807003021EC0147003021F05248096
:101E1500B408004003021F51901E2B75F003A4C5A2
:101E25008325F0C58373021E43021E50021E600205
:101E35001E70021E80021E90021EA0021EB0120716
:101E45005CFDACF0EC90FED5021F4B900002120732
:101E550087FDACF0EC90FED7021F4B9000041207F3
:101E650087FDACF0EC90FED9021F4B9000061207DF
:101E750087FDACF0EC90FEDB021F4B9000081207CB
:101E850087FDACF0EC90FEF5021F4B90000A12079F
:101E950087FDACF0EC90FEF7021F4B90000C12078B
:101EA50087FDACF0EC90FEF9021F4B90000E120777
:101EB50087FDACF0EC90FEFB021F4B12075CFDACFE
:101EC500F0EC90FED5F0AF05A3EFF09000021207FD
:101ED50087FDACF0EC90FED7F0AF05A3EFF09000D6
:101EE50004120787FDACF0EC90FED9F0AF05A3EF27
:101EF500F0900006120787FDACF0EC90FEDB804603
:101F0500900008120787FDACF0EC90FEF5F0AF05E8
:101F1500A3EFF090000A120787FDACF0EC90FEF7F6
:101F2500F0AF05A3EFF090000C120787FDACF0ECC5
:101F350090FEF9F0AF05A3EFF090000E120787FDB4
:0D1F4500ACF0EC90FEFBF0AF05A3EFF02236
:03000B0002175386
:10174E00C2AF80FE3212175285D00B75D008AAE0B8
:10175E00C28CE58A24F7F58AE58C34D8F58CD28CC8
:10176E00EC2482F8E6BC020274FFC39581B4140027
:10177E0040CE7903787B16E608700BC2AFE630E1F7
:10178E00034418F6D2AF08D9EDEA8BD03009012206
:10179E00D50DFCC0E0C0D0C0F0C083C082C000C078
:1017AE0001C002C003C004C005C006C007E50C237B
:1017BE00247CF87440C2AF46F6D2AFD209E50CFFD6
:1017CE0023247CF80F0808BF03047F00787CE630E2
:1017DE00E4F200E50CC39F5020050C7481250CF833
:1017EE00E6FDA68108E6AE0CBE020274FFCDF8E857
:1017FE006D60E008E6C0E080F6E50CD39F4027E57B
:10180E000C2482F8E6AE0CBE020274FFFD18E6CD83
:10181E00F8E5816D6006D0E0F61880F5E50C2481C0
:10182E00C8F6150C80D3750D05E50C23247CF87FC6
:10183E0004C2AFE610E61E30E00310E20C7F00306B
:05184E00E10730E30496
:101853007F0854F4547CC6D2AF54804207C2092295
:10186300F6D2AFD007D006D005D004D003D002D033
:1018730001D000D082D083D0F0D0D0D0E0C20922F2
:101883007881A68174026006FF0876FFDFFB7F0381
:10189300E4787BF608F608DFFA787C7630903086B9
:1018A300740193C0E0E493C0E0750D0543890175AD
:0D18B3008AF0758CD8D28CD2AFD2A9220257
:1018C000EFD3940240037FFF22747C2F2FF8E62091
:1018D000E5F4C2AFE64430F6D2AFAE0CEEC39F5093
:1018E000210E74812EF8E6F908E618BE020274FF94
:1018F000FDED69600909E71919F7090980F3161662
:1019000080DAEED39F400405810581EED39F40220B
:1019100074812EF808E6F9EEB50C02A981180606C6
:10192000E6FDED6960091919E70909F71980F31E49
:1019300080D9EF2481F8E604F8EF2F0490308693E5
:09194000F608EF2F93F67F002258
:10194900EFD3940240037FFF22EF23247CF8E63093
:10195900E5F4C2AFE6548CF6D2AFE50CB5070A74CC
:10196900812FF8E6F5810217C9502E74822FF8E607
:10197900BF020274FFFD18E6F974812FF8FBE6FC3B
:10198900E96C6008A805E7F61D1980F4A803A60507
:101999001FE50CB507E37F002274822FF8E6FD18D6
:1019A90086010F74812FF8A601088604E50CB50796
:1019B90002AC81ED6C60080D09A805E6F780F4E535
:0919C9000CB507DE89817F0022C4
:1019D2008FF0E4FFFEE50C23247BF8C2A930F70D5B
:1019E2007F08E6600B2DF660325030800730F1063A
:1019F200EDF660277E020830F010C2AFE610E72550
:101A02000E30E20CD2AF7F048014C2AFE610E715AD
:101A120054EC4EF6D2AFD2A90217C97F0808EF44A0
:0F1A220083F4C2AF56C6D2AFD2A954804FFF2271
:10009600EC4D6011E8497017ED33EC3304600DE464
:1000A600FCFFFEFD22E933E8330470F802035F1219
:1000B600032A58046009E4CC24815006285009021A
:1000C6000369284003020366C0E0EB4A7044B98026
:1000D60006D0E0FB020355EF4E701CBD8008EBFF17
:1000E600EAFEE9FD80EBE98DF0A4FEE5F002017F72
:1000F600E9CDF9EAFEEBFFEF89F0A4FCE5F0CE8945
:10010600F0A42EFFE435F0CD89F0A42DFEE435F001
:100116008067EF4E7005BD80D780C3EF8BF0A4AC2F
:10012600F0EE8BF0A42CFCE435F0F8EF8AF0A42C6A
:10013600E5F038FCE433CB8DF0A42CFCE5F03BF87D
:10014600EE8AF0A42CFCE5F038F8E433CF89F0A46D
:100156002CFCE5F038CF3400CE89F0A42FFFE5F073
:100166003EFEE433C98DF0A42EFEE5F039CD8AF0CB
:10017600A42FFFE5F03EFEE43DFD33D0E0FB500743
:100186000BBB000F020369EC2CFCEF33FFEE33FED2
:06019600ED33FD02034100
:10019C00020369EC5D046005E85904700302035F17
:1001AC0012032A580460F6EC4860F2EC7004FDFE71
:1001BC00FF22C860DB2481C85009C3986002500636
:1001CC000203669850CAF582E9294B4A7005AB8246
:1001DC0002035575F0007C1A7880C3EF9BEE9AED04
:1001EC0099400DC3EF9BFFEE9AFEED99FDE842F0AE
:1001FC00DC23ACF0D0E0FFD0E0FED0E0FDAB822001
:10020C00E7101BEB60BAEC2CFCEF33FFEE33FEED8A
:10021C0033FD020341E803F830E705C0F075F00048
:10022C00EF2FFFEE33FEED33FD40B830E7C280AA6E
:10023C0074F8CC6480CCC86480C8F58204604FC369
:10024C00EB9FF5F0EA9E42F0E99D42F0E89C45F008
:10025C00603C501DE5825FFFE582D313CB5BCBF492
:10026C002B5582FB50280ABA002409B900200880BB
:10027C001DE5825BFBE582D313CF5FCFF4C3132F55
:10028C005582FF50090EBE00050DBD00010CC3EBDD
:10029C009FF5F0EA9E42F0E99D42F0E89C45F06043
:0902AC0007CC4820E701B3EC2265
:1002B50075F020800E75F010800575F0087D007EC4
:1002C500007F003392D530D50312088DEC334010F2
:1002D500EF33FFEE33FEED33FDEC33FCD5F0ED22CD
:0E02E500E5F0247EA2D513CC92E7CDCEFF2209
:1002F300EDD2E7CD33EC3392D524814006E4FFFE03
:10030300FDFC22FCE4CFCECDCC24E0501174FF8061
:10031300EDC3CC13CCCD13CDCE13CECF13CF0470FE
:07032300F030D5DE02088D69
:100ECD00E551243DF8E6055122783A300702783D88
:100EDD00E475F0011209290207042000EB7F2ED2E0
:100EED00008018EF540F2490D43440D4FF30040BFD
:100EFD00EF24BFB41A0050032461FFE552600215C0
:100F0D00520555E5557002055430070D783AE475D4
:100F1D00F001120929EF02074A02008E7403D2076D
:100F2D008003E4C207F5518B3A8A3B893CE4F552C4
:100F3D00F554F555E55260077F20120F0880F575C1
:100F4D0053FFC201C200C202C203C205C206C208DB
:100F5D00120ED6FF700D3007057F00120F19AF5519
:100F6D00AE5422B4255FC2D5C204120ED6FF24D0D2
:100F7D00B40A00501A75F00A785230D50508B6FF3C
:100F8D000106C6A426F620D5047002D20380D9240A
:100F9D00CFB41A00EF5004C2E5D204021206D201FA
:100FAD0080C6D20080C0D20280BCD2D580BAD20514
:100FBD0080B47F20120F082002077401B552004043
:100FCD00F1120ECDFF120F08020F41D208D206808A
:100FDD0095120ECDFB120ECDFA120ECDF94A4B70B5
:100FED000679FD7A127BFF20022EE552602A7E00E3
:100FFD008E8275830012071D60060EEE655370F02C
:10100D00C2D5EBC0E0EAC0E0E9C0E0EE121266D056
:10101D00E0F9D0E0FAD0E0FB120704FF60AAEBC0C4
:10102D00E0EAC0E0E9C0E0120F08D0E02401F9D0F9
:10103D00E03400FAD0E0FBE5530460DCD553D980F1
:10104D0087D20280A212124960F7E5537001041293
:10105D000374A953600DE553600914F5531212F092
:10106D00EF60F3EA30E702F404C3995077EAF42510
:10107D00530430E701E404F553800D12124960C1A9
:10108D00EA05532553120374EA7850F630E701E46C
:10109D00255304D5530420050114121266E4C0E053
:1010AD001212F07850E6601320E70714F6120EF0D6
:1010BD00802204F6D0E014C0E07F00120EF0E5535C
:1010CD006007120EE71553800B300503120EE7D0A3
:1010DD00E0020F41D0E00480C512124960A0E55333
:1010ED00041203747850EAF6E553200502600104FA
:0510FD0024041212663C
:1011020074FF04C0E01212F0120EF0E55320050243
:101112006003120EE7D0E0B553E87F45120EFA786D
:1011220050E67F2B30E7047F2DF404C0E0120F0855
:10113200D0E075F00A84C0F0120EF1D0E0120EF188
:10114200020F41791080027908C206C2088008D2D3
:10115200D5790A8004790AC2D5E553047002F553A1
:10116200E4FAFDFEFF120ECDFC7B08200113120EE5
:10117200CDFD7B1030000A120ECDFE120ECDFF7B8C
:1011820020EC3382D592D55013C3E43000069FFF82
:10119200E49EFEE42001039DFDE49CFCE4CBF8C246
:1011A20001EC700CCFCECDCCE824F8F870F38017A8
:1011B200C3EF33FFEE33FEED33FDEC33FCEB33FBD9
:1011C200994002FB0FD8E9EB300105F8D0E0C448A2
:1011D200B201C0E00AEC4D4E4F78207B0070C2EAAB
:1011E200B5530040BCC0E0121268D0F0D0E020013C
:1011F20004C4C0E0C4B201C0F0120EF1D0F0D5F0C8
:10120200EB020F411209390FDE531145580FAF4C53
:101212000FAB4211494F1151441151490FC44311AF
:10122200575510884610E645105247131D500FB30C
:101232002D0FB72E0FDA2B0FBB230FD82013062A40
:101242000F734800000FD2E553B4FF037553061223
:101252000ECDFC120ECDFD120ECDFE120ECDFF787C
:10126200490203A3790AA2D5200314300509B91053
:10127200020404B9080104A2D52006025001042088
:1012820002689202B552005034C0E07F2030031948
:101292007F30A20272067205500F1212BFC202C242
:1012A20006C205C2087F30800F300503E9C0E01294
:1012B2000F08300503D0E0F9D0E0B552CC30051765
:1012C2007F30B9100C120F087F583004077F7880E6
:1012D20003B90803120F083002057F2D020F087FA1
:1012E200202008F87F2B2006F322920280CF7F0075
:1012F200B4070050052449F8E6FF22286E756C6C8D
:101302002900D201120ECD3001F8C201785230D537
:101312000108F6020F732D50434958120ECD2403D3
:10132200B405004001E490131893120EF9743A12B6
:0A1332000EF9D203755204021145B2
:10032A00E9D2E7C933E833F892D5EDD2E7CD33EC19
:07033A0033FC5002B2D52292
:10034100EC30E7100FBF000C0EBE00080DBD00041D
:100351000BEB6014A2D5EB13FCED92E7FD2274FFC9
:10036100FCFDFEFF22E480F8A2D574FF13FC7D8022
:03037100E480EF36
:10037400F920E72824F950037907E4F42402FB1850
:10038400DBFDE624FB5014E9600DE4F618E604F600
:0F039400B40A08E4F6D9F57401F60A22C2D5229C
:1003A300ED33EC3392D5FA602AB4FF33EDC2E77B29
:1003B300FF60067A0379C8E4227A0379D120D50451
:1003C3007A0379CC224E614E002B494E46002D49CB
:1003D3004E4600E47A08F608DAFC7B00740722E84C
:1003E300C0E0ECC0E0EDC0E0EEC0E0EFC0E0EA75D5
:1003F300F010A4CAABF075F04DA42BFBE435F0FC70
:10040300EA2410FAEB34C5FBEC34D9FCEDC2E7FF68
:1004130075F056A4F42411C5F0F434C58FF0A42A62
:10042300E5F03BE43CF620E7141205CED0E0FFD024
:10043300E0FED0E0FDD0E0FC12019F8014F4041232
:1004430005CED0E0FFD0E0FED0E0FDD0E0FC12000E
:1004530096D0E0F8E6FAEDD2E7CD33EC332482FB15
:10046300E4C3CF33CFCE33CECD33CD33DBF37B07F2
:1004730075F00A846004F6081B0AE5F0F6088FF0AD
:10048300740AA4FFACF08EF0740AA42CFEACF050F6
:10049300010C8DF0740AA42CFDE435F0F608DBDEC4
:0304A300740722B9
:1004A60002035FE86480F8E933E83360110460F022
:1004B600ED33EC337009E8FCE9FDEAFEEBFF2204BC
:1004C60060DED3EB9FEA9EE99DE8C2E78CF0C2F7B7
:1004D60095F0400CE8CCF8E9CDF9EACEFAEBCFFB83
:1004E60012032A85D0F05804700320D5B3E80470AF
:1004F600075002B2D502036992D5EC0460F7E4CC4A
:10050600C0E0C398F8603B94186008400DD0E0FB4B
:10051600020341E4FBFAC9FC8028E830E406E4C99A
:10052600FBE4CAFCE830E305E4C9CACBFCE854079F
:100536006010F8C3E913F9EA13FAEB13FBEC13FCAA
:10054600D8F130F52FC3E49CFCEF9BFFEE9AFEED4D
:1005560099FDD0E0FBEF4E4D4C701222DB030203F7
:1005660066EC2CFCEF33FFEE33FEED33FDED30E7AA
:10057600EB020341EF2BFFEE3AFEED39FDD0E0FB37
:1005860050130BBB0003020369ED13FDEE13FEEFE0
:0805960013FFEC13FC0203410A
:10059E003F8000004120000042C80000447A000065
:1005AE00461C400047C35000497424004B189680E7
:1005BE004CBEBC205A0E1BCA6753C21C749DC5AEDE
:1005CE00FB60065407601C23231205FCEB543860B5
:1005DE00091205E81205F7120096ECF8EDF9EEFA9D
:1005EE00EFCB22EB1205F780F1543803241C900553
:1005FE009EFE93FC0EEE93FD0EEE930ECE93FF2217
:03000000022002D9
:0C200200787FE4F6D8FD75818302204948
:10060E00E709F608DFFA8046E709F208DFFA803ECE
:10061E0088828C83E709F0A3DFFA8032E309F608BB
:10062E00DFFA8078E309F208DFFA807088828C8323
:10063E00E309F0A3DFFA806489828A83E0A3F608D7
:10064E00DFFA805889828A83E0A3F208DFFA804CB1
:10065E0080D280FA80C680D4806980F28033801088
:10066E0080A680EA809A80A880DA80E280CA8033F1
:10067E0089828A83ECFAE493A3C8C582C8CCC58369
:10068E00CCF0A3C8C582C8CCC583CCDFE9DEE78039
:10069E000D89828A83E493A3F608DFF9ECFAA9F0B8
:1006AE00EDFB2289828A83ECFAE0A3C8C582C8CC0E
:1006BE00C583CCF0A3C8C582C8CCC583CCDFEADE27
:1006CE00E880DB89828A83E493A3F208DFF980CC89
:1006DE0088F0EF60010E4E60C388F0ED2402B40482
:1006EE000050B9F582EB2402B4040050AF23234529
:0606FE00822390065E73EA
:10070400BB010689828A83E0225002E722BBFE02F3
:09071400E32289828A83E4932226
:10071D00BB010CE58229F582E5833AF583E0225091
:10072D0006E92582F8E622BBFE06E92582F8E222DB
:0D073D00E58229F582E5833AF583E49322F5
:10074A00BB010689828A83F0225002F722BBFE018E
:02075A00F32288
:10075C00BB010A89828A83E0F5F0A3E02250068768
:10076C00F009E71922BBFE07E3F5F009E31922892A
:0B077C00828A83E493F5F0740193225D
:10078700BB0110E58229F582E5833AF583E0F5F0B0
:10079700A3E0225009E92582F886F008E622BBFE8D
:1007A7000AE92582F8E2F5F008E222E5832AF583D3
:0807B700E993F5F0A3E9932298
:1007BF0075F008758200EF2FFFEE33FECD33CDCCF1
:1007CF0033CCC58233C5829BED9AEC99E582984074
:1007DF000CF582EE9BFEED9AFDEC99FC0FD5F0D651
:1007EF00E4CEFBE4CDFAE4CCF9A88222B800C1B97B
:1007FF000059BA002DEC8BF084CFCECDFCE5F0CBB9
:10080F00F97818EF2FFFEE33FEED33FDEC33FCEBF1
:10081F0033FB10D703994004EB99FB0FD8E5E4F9AC
:10082F00FA227818EF2FFFEE33FEED33FDEC33FC99
:10083F00C933C910D7059BE99A4007EC9BFCE99A8D
:10084F00F90FD8E0E4C9FAE4CCFB2275F010EF2FD2
:10085F00FFEE33FEED33FDCC33CCC833C810D707D2
:10086F009BEC9AE899400AED9BFDEC9AFCE899F80D
:0E087F000FD5F0DAE4CDFBE4CCFAE4C8F922A0
:1027AA00C2D5E830E70FB2D5E4C39BFBE49AFAE45A
:1027BA0099F9E498F8EC30E717B2D51227E0120736
:1027CA00FBE4C39BFBE49AFAE499F9E498F88003E2
:1027DA001207FB30D50DE4C39FFFE49EFEE49DFD86
:0427EA00E49CFC224D
:0E088D00C3E49FFFE49EFEE49DFDE49CFC227C
:10089B00EB9FF5F0EA9E42F0E99D42F0E89C45F0B3
:0108AB00222A
:1008AC00E8600FECC313FCED13FDEE13FEEF13FF2A
:0308BC00D8F1224E
:1008BF00BB010789828A830209715005E9F8020991
:1008CF0065BBFE05E9F802097D89828A83020989E1
:1008DF00BB010789828A830209DB5005E9F8020907
:0A08EF00CFBBFE05E9F80209E7227D
:1008F900BB010DE58229F582E5833AF5830209A654
:100909005007E92582F8020999BBFE07E92582F813
:100919000209B2E58229F582E5833AF5830209BF26
:10092900FAE6FB0808E6F925F0F618E6CA3AF622CF
:10093900D083D082F8E4937012740193700DA3A34D
:1009490093F8740193F5828883E473740293686061
:06095900EFA3A3A380DF61
:06095F008A838982E47323
:10200E00021883E493A3F8E493A34003F68001F24D
:10201E0008DFF48029E493A3F85407240CC8C333D3
:10202E00C4540F4420C8834004F456800146F6DFA2
:10203E00E4800B0102040810204080903033E47ECF
:10204E00019360BCA3FF543F30E509541FFEE49397
:10205E00A360010ECF54C025E060A840B8E493A35E
:10206E00FAE493A3F8E493A3C8C582C8CAC583CA89
:10207E00F0A3C8C582C8CAC583CADFE9DEE780BE41
:01303C000093
:0C096500E6FC08E6FD08E6FE08E6FF22BE
:0C097100E0FCA3E0FDA3E0FEA3E0FF22F9
:0C097D00E2FC08E2FD08E2FE08E2FF22B6
:10098900E493FC740193FD740293FE740393FF22B4
:0D099900E6FB08E6F908E6FA08E6CBF822CE
:0C09A600E0F8A3E0F9A3E0FAA3E0FB22D4
:0D09B200E2FB08E2F908E2FA08E2CBF822C5
:1009BF00E493F8740193F9740293FA740393FB228E
:0C09CF00ECF608EDF608EEF608EFF62254
:0C09DB00ECF0A3EDF0A3EEF0A3EFF0228F
:0C09E700ECF208EDF208EEF208EFF2224C
:00000001FF
