:1012AA0048656C6C6F2057726F6C642100496E69D7
:1012BA007420436F6D706C6574650A00D0B4C8EB16
:1012CA00C7B0203A20737472427566662D3E257344
:1012DA000A00D0B4C8EBBAF3203A2073747242758C
:1012EA0066662D3E25730A00D0B4C8EBBAF3203ADD
:1012FA00207374722D3E25730A00B6D4B1C8B3C9DF
:0C130A00B9A600B6D4B1C8CAA7B0DC0078
:101B9A0054030200000000000000000000000000E2
:071BAA000000000000000034
:101BCA009002DB7403F0E49002DAF07B017A027986
:061BDA00DA7F03020E3267
:101AA4009002DA7440F0A37401F0A31208850001D7
:101AB400C2009002E17401F0E4A3F07B017A0279A0
:101AC400DA7F011200967D017F0112171E53A23F97
:011AD40022EF
:101086009002D4E4F0A304F07BFF7A1279AAA3EBD2
:10109600F0A3EAF0A3E9F0121BE09002D9EFF043C7
:1010A600BA80121BCA121AA4D2AF7FD07E071200D2
:1010B600267BFF7A1279B7120B389002D4E0FEA392
:1010C600E0FFA3E0FBA3E0FAA3E0F9A3E0FD9002B2
:1010D600DFE4F0A3EDF0121A729002DD7401F0A3C2
:1010E6007403F0A37402F07BFF7A1279C6120B38F0
:1010F6009002D4E0FEA3E0FF121BF59002D4E0FEBE
:10110600A3E0FFA3E0FBA3E0FAA3E0F9A3E0FD90D0
:1011160002DFE4F0A3EDF01217999002D4E0FEA3EB
:10112600E0FF7B017A0379029002D9E0FD9002DFAD
:10113600E4F0A3EDF0121A729002DD7401F0A374CC
:1011460003F0A37402F07BFF7A1279DC120B38905D
:1011560002D6E0F9A3E0FAA3E09002DDC9F0A3EA23
:10116600F0A3E9F07BFF7A1279F2120B389002D6DF
:10117600E0FBA3E0FAA3E0F8AC02AD037B017A033F
:101186007902120A34EF7BFF70067A137904800421
:091196007A13790D120B3880FE6A
:0E1CA000E4F5C7F5C5F5C675C3FF75C4FF2290
:07000300ECF5C3AF058FC44B
:10000A00A2AF92D5C2AF75C65A75C6A50000A2D5D1
:03001A0092AF2280
:101A7200AD07AC0675C78075F51875C50112000370
:101A8200E5C212072F0DBD00010C740129F9E43AD9
:101A9200FA9002DF74FFF5F012074145F070DE02A2
:021AA2001CA086
:101BF500AD07AC0675C78075F51875C503120003EA
:031C0500021CA01E
:10179900AD07AC0675C78075F51875C502ECF5C3BC
:1017A900AF058FC41206E9F5C212000A0DBD00018A
:1017B9000C740129F9E43AFA9002DF74FFF5F0128A
:0917C900074145F070D7021CA095
:0F1C54007D607C09ED1D70011C144C70F7DFF1F1
:011C6300225E
:10002600AB07AA06EB1B70011A14D39400EA9400DE
:0A00360040077F01121C5480EB22EA
:100E3200EFD3940740037FFF221206E9FED3940307
:100E420040037FFF22EF7041EE700B90000112070A
:100E520002F4529352941206E9B4010B900001126B
:100E620007024293F452941206E9FEB4020A900079
:100E72000112070242934294EEB4030D9000011254
:100E82000702FEF45293EE4294EF6401704312069D
:100E9200E9FE700B900001120702F452915292EE99
:100EA200B4010B9000011207024291F45292120611
:100EB200E9B4020A9000011207024291429212061C
:100EC200E9B4030D900001120702FEF45291EE42C2
:100ED20092EF640270431206E9FE700B9000011259
:100EE2000702F452955296EEB4010B9000011207DC
:100EF200024295F452961206E9B4020A90000112D7
:100F02000702429542961206E9B4030D90000112BF
:100F12000702FEF45295EE4296EF64037043120606
:100F2200E9FE700B900001120702F452B152B2EEC8
:100F3200B4010B90000112070242B1F452B2120640
:100F4200E9B4020A90000112070242B142B212064B
:100F5200E9B4030D900001120702FEF452B1EE4211
:100F6200B2EF640470431206E9FE700B90000112A6
:100F72000702F452B352B4EEB4010B90000112070F
:100F82000242B3F452B41206E9B4020A900001120A
:100F9200070242B342B41206E9B4030D90000112F3
:100FA2000702FEF452B3EE42B4EF64057043120638
:100FB200E9FE700B900001120702F452C952CAEE08
:100FC200B4010B90000112070242C9F452CA120680
:100FD200E9B4020A90000112070242C942CA12068B
:100FE200E9B4030D900001120702FEF452C9EE4269
:100FF200CAEF640670431206E9FE700B90000112FC
:101002000702F452CB52CCEEB4010B90000112074E
:101012000242CBF452CC1206E9B4020A9000011249
:10102200070242CB42CC1206E9B4030D9000011232
:101032000702FEF452CBEE42CCEF64077043120675
:10104200E9FF700B900001120702F452E152E2EF45
:10105200B4010B90000112070242E1F452E21206BF
:10106200E9B4020A90000112070242E142E21206CA
:10107200E9B4030D900001120702FFF452E1EF42BE
:04108200E27F0022E7
:1015D900EFD3940140037FFF22EDD3940340037FAF
:1015E900FF22EF7004C2A98002D2A9ED700553B79A
:1015F900FDC2B9EDB4010553B7FDD2B9EDB4020589
:1016090043B702C2B9EDB4030543B702D2B97F00AB
:0116190022AE
:10161A00EFD3940140037FFF22EDD3940340037F6D
:10162A00FF22EF7004C2AB8002D2ABED700553B754
:10163A00F7C2BBEDB4010553B7F7D2BBEDB402054F
:10164A0043B708C2BBEDB4030543B708D2BB7F005A
:01165A00226D
:101B2300EFD3940140037FFF22EDD3940340037F5F
:101B3300FF22EF25E025E0FFE5AF54FB4FF5AFE4CF
:021B4300FF227F
:101B4500EFD3940140037FFF22EDD3940340037F3D
:101B5500FF22EFC43354E0FFE5AF54DF4FF5AFE4A8
:021B6500FF225D
:101B0000EFD3940140037FFF22EDD3940340037F82
:101B1000FF22EFC4333354C0FFE5AF54BF4FF5AFDE
:031B2000E4FF22BD
:10165B00EFD3940140037FFF22EDD3940340037F2C
:10166B00FF22EF7004C2A88002D2A8ED700553B719
:10167B00FEC2B8EDB4010553B7FED2B8EDB4020506
:10168B0043B701C2B8EDB4030543B701D2B87F002D
:01169B00222C
:10169C00EFD3940140037FFF22EDD3940340037FEB
:1016AC00FF22EF7004C2AA8002D2AAED700553B7D4
:1016BC00FBC2BAEDB4010553B7FBD2BAEDB40205C7
:1016CC0043B704C2BAEDB4030543B704D2BA7F00E2
:0116DC0022EB
:101BB200EFD3940140037FFF22EFC454F0FFE58F7F
:081BC20054EF4FF58FE4FF2200
:101B8100EFD3940140037FFF22EFC43354E0FFE51C
:091B91008F54DF4FF58FE4FF22B1
:101B6700EFD3940140037FFF22EFC4333354C0FF08
:0A1B7700E58F54BF4FF58FE4FF2205
:1016DD00EFD3940140037FFF22EDD3940340037FAA
:1016ED00FF22EF7004C2AD8002D2ADED700553B78D
:1016FD00DFC2BDEDB4010553B7DFD2BDEDB40205B8
:10170D0043B720C2BDEDB4030543B720D2BD7F0062
:01171D0022A9
:1014B500EDD3940340037FFF22EF30E10543E6209F
:1014C500800353E6DFEF30E00543E610800353E683
:1014D500EFED700653B6DF53B5DFEDB4010653B635
:1014E500DF43B520EDB4020643B62053B5DFEDB4B6
:0B14F500030643B62043B5207F002211
:10131600EFD3940140037FFF22EBD3940340037F76
:10132600FF22EFB40112ED90FE817006E0547FF0CB
:101336008011E04480F0800BEF700890FE83E0544B
:10134600874DF0EB700653B6DF53B5DFEBB40106FD
:1013560053B6DF43B520EBB4020643B62053B5DFE0
:0D136600EBB4030643B62043B5207F002200
:10171E00EFD3940140037FFF22EDD3940340037F68
:10172E00FF22EF7004C2AC8002D2ACED700553B74D
:10173E00EFC2BCEDB4010553B7EFD2BCEDB4020558
:10174E0043B710C2BCEDB4030543B710D2BC7F0043
:01175E002268
:10004600EFD3940140037FFF22EDD3940340037F57
:10005600FF22E5AF54FE4FF5AFED700653B6FE53E3
:10006600B5FEEDB4010653B6FE43B501EDB4020686
:1000760043B60153B5FEEDB4030643B60143B501DD
:030086007F0022D6
:10150000EFD3940140037FFF22EDD3940340037F88
:10151000FF22EF33333354F8FFE5AF54F74FF5AF05
:10152000ED700653EEFE53DFFEEDB4010653EEFE02
:1015300043DF01EDB4020643EE0153DFFEEDB403D9
:0A1540000643EE0143DF017F0022A5
:10154A00EFD3940140037FFF22EDD3940340037F3E
:10155A00FF22EFC454F0FFE5AF54EF4FF5AFED7043
:10156A000653EEFD53DFFDEDB4010653EEFD43DFF6
:10157A0002EDB4020643EE0253DFFDEDB403064367
:08158A00EE0243DF027F0022A4
:10159200EFD3940140037FFF22EDD3940340037FF6
:1015A200FF22EF25E0FFE5AF54FD4FF5AFED7006EA
:1015B20053B6FD53B5FDEDB4010653B6FD43B50276
:1015C200EDB4020643B60253B5FDEDB4030643B6CD
:0715D2000243B5027F002275
:10122B00EFD3948140037FFF22EBD3940340037FE2
:10123B00FF22EF247F603204705D90FEC4EDF0EB73
:10124B00700653B6FB53B5FBEBB4010653B6FB4329
:10125B00B504EBB4020643B60453B5FBEB64037061
:10126B003B43B60443B504803390FEE4EDF0EB70E2
:10127B000653B6F753B5F7EBB4010653B6F743B5C0
:10128B0008EBB4020643B60853B5F7EBB4030D43B2
:0F129B00B60843B508800590FEE4EDF07F002211
:10175F00EDD394035029ED700653EEFB53DFFBEDF1
:10176F00B4010653EEFB43DF04EDB4020643EE046F
:10177F0053DFFBEDB4030B43EE0443DF0480037F21
:0A178F00FF2290FE62EFF07F0022BF
:1017D20090FA10E054F0F0EDD39403500BE0FEEDDC
:1017E20025E025E0FDEE4DF0EBD39403500690FA90
:1017F20010E04BF0EF90FA10B40106E04480F08064
:0818020004E0547FF07F002296
:10180A0090FA00E054F0F0EDD39403500BE0FEEDB3
:10181A0025E025E0FDEE4DF0EBD39403500690FA57
:10182A0000E04BF0EF90FA00B40106E04480F0804B
:08183A0004E0547FF07F00225E
:1018420090FA20E054F0F0EDD39403500BE0FEED5B
:1018520025E025E0FDEE4DF0EBD39403500690FA1F
:1018620020E04BF0EF90FA20B40106E04480F080D3
:0818720004E0547FF07F002226
:10187A0090FA30E054F0F0EDD39403500BE0FEED13
:10188A0025E025E0FDEE4DF0EBD39403500690FAE7
:10189A0030E04BF0EF90FA30B40106E04480F0807B
:0818AA0004E0547FF07F0022EE
:1018B20090FA38E054F0F0EDD39403500BE0FEEDD3
:1018C20025E025E0FDEE4DF0EBD39403500690FAAF
:1018D20038E04BF0EF90FA38B40106E04480F08033
:0818E20004E0547FF07F0022B6
:1018EA0090FA40E054F0F0EDD39403500BE0FEED93
:1018FA0025E025E0FDEE4DF0EBD39403500690FA77
:10190A0040E04BF0EF90FA40B40106E04480F080EA
:08191A0004E0547FF07F00227D
:1019220090FA48E054F0F0EDD39403500BE0FEED52
:1019320025E025E0FDEE4DF0EBD39403500690FA3E
:1019420048E04BF0EF90FA48B40106E04480F080A2
:0819520004E0547FF07F002245
:10195A0090FA50E054F0F0EDD39403500BE0FEED12
:10196A0025E025E0FDEE4DF0EBD39403500690FA06
:10197A0050E04BF0EF90FA50B40106E04480F0805A
:08198A0004E0547FF07F00220D
:1019920090FA58E054F0F0EDD39403500BE0FEEDD2
:1019A20025E025E0FDEE4DF0EBD39403500690FACE
:1019B20058E04BF0EF90FA58B40106E04480F08012
:0819C20004E0547FF07F0022D5
:1019CA0090FA60E054F0F0EDD39403500BE0FEED92
:1019DA0025E025E0FDEE4DF0EBD39403500690FA96
:1019EA0060E04BF0EF90FA60B40106E04480F080CA
:0819FA0004E0547FF07F00229D
:101A020090FA68E054F0F0EDD39403500BE0FEED51
:101A120025E025E0FDEE4DF0EBD39403500690FA5D
:101A220068E04BF0EF90FA68B40106E04480F08081
:081A320004E0547FF07F002264
:101A3A0090FA70E054F0F0EDD39403500BE0FEED11
:101A4A0025E025E0FDEE4DF0EBD39403500690FA25
:101A5A0070E04BF0EF90FA70B40106E04480F08039
:081A6A0004E0547FF07F00222C
:101AD50090FE50E054CFF0EDD39403500AE0FEEDB4
:101AE500C454F0FDEE4DF0EF90FE50B40106E04415
:0B1AF50080F08004E0547FF07F0022AE
:030023000214695B
:10146900C0E0C083C082C0D075D000C007309827C3
:10147900C298900003E0C394804002E4F090000316
:10148900E0FF04F074142FF582E43400F583E59944
:10149900F09000047405F0309907C299900002E4B5
:0C14A900F0D007D0D0D082D083D0E03249
:0300430002137332
:10137300C0E0C083C082C0D075D000C007E59A30FA
:10138300E028539AFE900008E0C394804002E4F002
:10139300900008E0FF04F074942FF582E43400F524
:1013A30083E59BF09000097405F0E59A30E108535A
:1013B3009AFD900007E4F0D007D0D0D082D083D03C
:0213C300E03216
:03008B000213C598
:1013C500C0E0C083C082C0D075D000C007E5AC3096
:1013D500E02853ACFE90000DE0C394404002E4F0D9
:1013E50090000DE0FF04F074142FF582E43401F54C
:1013F50083E5ADF090000E7405F0E5AC30E10853DF
:10140500ACFD90000CE4F0D007D0D0D082D083D0D2
:02141500E032C3
:030093000214173D
:10141700C0E0C083C082C0D075D000C007E584306B
:10142700E0285384FE900012E0C394204002E4F0C9
:10143700900012E0FF04F074D42FF582E43401F534
:1014470083E585F09000137405F0E58430E10853D7
:1014570084FD900011E4F0D007D0D0D082D083D0A3
:02146700E03271
:100096009002E4EBF0A3EAF0A3E9F09002E3EFF0BC
:1000A60064016003020274900000F0A3F0A3F0A3C1
:1000B600F0A3F09002E7F0A3F09002E7E0FEA3E0E1
:1000C600FFC39480EE9400501C74542FF582740183
:1000D6003EF583E4F09002E8E004F070DC9002E77D
:1000E600E004F080D4E49002E7F0A3F09002E7E0A9
:1000F600FEA3E0FFC39480EE9400501C74142FF509
:100106008274003EF583E4F09002E8E004F070DCCF
:100116009002E7E004F080D49002E4E0FBA3E0FA6A
:10012600A3E0F91206E9FFE598543F4FF598EF640E
:10013600C06008EF6440600302021F9000021208CC
:10014600497F807E8D7D5B7C001207939002E912C9
:100156000879E4FFFE7D01FC9002E9E0F8A3E0F9EE
:10016600A3E0FAA3E0FBC312082540037FFF229019
:1001760002E9E0F8A3E0F9A3E0FAA3E0FBC3E49BFD
:10018600FFE49AFE740199FDE498FC9002E91208D6
:10019600799002E4E0FBA3E0FAA3E0F990000112F3
:1001A6000702FB64017038C28E538EFE5389BF531B
:1001B60089CF438E409002E9E0FCA3E0FDA3E0FE78
:1001C600A3E0FF78081208368F8D9002E9A3A3A357
:1001D600E0F58BC2AB5389BF538FFDD28E8073EB94
:1001E60064027032538EEF438E01538EF7438E04B2
:1001F6009002E9E0FCA3E0FDA3E0FEA3E0FF78089F
:100206001208368FD69002E9A3A3A3E0F5D753AF21
:10021600FB438E10803C7FFF229002E4E0FBA3E0CC
:10022600FAA3E0F91206E9FF70139000081207021C
:10023600B40105438E20801A538EDF8015EFB480FB
:1002460011900008120702B401054387808003530A
:10025600877F9002E4E0FBA3E0FAA3E0F9900007B1
:100266001207027004C29C8002D29C7F0022900278
:10027600E3E0640260030203BE900005F0A3F0A36E
:10028600F0A3F0A3F09002E7F0A3F09002E7E0FEFF
:10029600A3E0FFC39480EE9400501C74F42FF58203
:1002A60074013EF583E4F09002E8E004F070DC901F
:1002B60002E7E004F080D4E49002E7F0A3F09002B5
:1002C600E7E0FEA3E0FFC39480EE9400501C749414
:1002D6002FF58274003EF583E4F09002E8E004F026
:1002E60070DC9002E7E004F080D49002E4E0FBA327
:1002F600E0FAA3E0F91206E9FF64C06008EF644083
:10030600600302039CEFB4C005439A808003539AAE
:100316007F9000021208497F807E8D7D5B7C0012F3
:1003260007939002E9120879E4FFFE7D01FC900232
:10033600E9E0F8A3E0F9A3E0FAA3E0FBC31208257D
:1003460040037FFF229002E9E0F8A3E0F9A3E0FA78
:10035600A3E0FBC3E49BFFE49AFE740199FDE498D5
:10036600FC9002E9120879538EEF538EF7438E0400
:100376009002E9E0FCA3E0FDA3E0FEA3E0FF78081D
:100386001208368FD69002E9A3A3A3E0F5D753AFA0
:10039600FB438E1080037FFF229002E4E0FBA3E084
:1003A600FAA3E0F9900007120702C454F0FFE59A99
:1003B60054EF4FF59A7F00229002E3E06403600356
:1003C60002055290000AF0A3F0A3F0A3F0A3F09068
:1003D60002E7F0A3F09002E7E0FEA3E0FFC394403B
:1003E600EE9400501C74742FF58274023EF583E47B
:1003F600F09002E8E004F070DC9002E7E004F080A0
:10040600D4E49002E7F0A3F09002E7E0FEA3E0FF59
:10041600C39440EE9400501C74142FF58274013E70
:10042600F583E4F09002E8E004F070DC9002E7E087
:1004360004F080D49002E4E0FBA3E0FAA3E0F91212
:1004460006E9FF64C06008EF64406003020530EF10
:10045600B4C00543AC80800353AC7F900002120801
:10046600497F807E8D7D5B7C001207939002E912A6
:100476000879E4FFFE7D01FC9002E9E0F8A3E0F9CB
:10048600A3E0FAA3E0FBC312082540037FFF2290F6
:1004960002E9E0F8A3E0F9A3E0FAA3E0FBC3E49BDA
:1004A600FFE49AFE740199FDE498FC9002E91208B3
:1004B600799002E4E0FBA3E0FAA3E0F990000112D0
:1004C6000702FB6403702943AC409002E9E0FCA3F9
:1004D600E0FDA3E0FEA3E0FF78081208368FD49073
:1004E60002E9A3A3A3E0F5D553D1F043D10A803D99
:1004F600EB64027032538EEF53ACBF538EF7438ECC
:10050600049002E9E0FCA3E0FDA3E0FEA3E0FF788F
:10051600081208368FD69002E9A3A3A3E0F5D753B5
:10052600AFFB438E1080067FFF227FFF229002E4FE
:10053600E0FBA3E0FAA3E0F9900007120702C45417
:10054600F0FFE5AC54EF4FF5AC7F00229002E3E0FC
:10055600640460030206E690000FF0A3F0A3F0A384
:10056600F0A3F09002E7F0A3F09002E7E0FEA3E02C
:10057600FFC39420EE9400501C74B42FF5827402CD
:100586003EF583E4F09002E8E004F070DC9002E7C8
:10059600E004F080D4E49002E7F0A3F09002E7E0F4
:1005A600FEA3E0FFC39420EE9400501C74D42FF5F4
:1005B6008274013EF583E4F09002E8E004F070DC1A
:1005C6009002E7E004F080D49002E4E0FBA3E0FAB6
:1005D600A3E0F91206E9FF64C06008EF6440600317
:1005E6000206C4EFB4C005438480800353847F9021
:1005F60000021208497F807E8D7D5B7C0012079386
:100606009002E9120879E4FFFE7D01FC9002E9E020
:10061600F8A3E0F9A3E0FAA3E0FBC3120825400320
:100626007FFF229002E9E0F8A3E0F9A3E0FAA3E055
:10063600FBC3E49BFFE49AFE740199FDE498FC90E9
:1006460002E91208799002E4E0FBA3E0FAA3E0F9DC
:10065600900001120702FB64047029438440900253
:10066600E9E0FCA3E0FDA3E0FEA3E0FF78081208A2
:10067600368FD29002E9A3A3A3E0F5D353D10F435B
:10068600D1A0803DEB64027032538EEF5384BF538A
:100696008EF7438E049002E9E0FCA3E0FDA3E0FEA2
:1006A600A3E0FF78081208368FD69002E9A3A3A329
:1006B600E0F5D753AFFB438E1080067FFF227FFF06
:1006C600229002E4E0FBA3E0FAA3E0F9900007120F
:1006D6000702C454F0FFE58454EF4FF5847F0022EF
:0206E6007FFF94
:0106E80022EF
:0F1C64008F999000027401F0900002E070FA2254
:101C08001206E9FF600C121C64740129F9E43AFA1F
:031C180080EE2239
:0F1C73008F9B9000077401F0900007E070FA2239
:101C1B001206E9FF600C121C73740129F9E43AFAFD
:031C2B0080EE2226
:0F1C82008FAD90000C7401F090000CE070FA220E
:101C2E001206E9FF600C121C82740129F9E43AFADB
:031C3E0080EE2213
:0F1C91008F859000117401F0900011E070FA221D
:101C41001206E9FF600C121C91740129F9E43AFAB9
:031C510080EE2200
:05001D00AE07021C64A7
:0300000002119F4B
:0C119F00787FE4F6D8FD7581210211E68E
:1006E900BB010689828A83E0225002E722BBFE020F
:0906F900E32289828A83E4932242
:10070200BB010CE58229F582E5833AF583E02250AC
:1007120006E92582F8E622BBFE06E92582F8E222F6
:0D072200E58229F582E5833AF583E4932210
:10072F00BB010689828A83F0225002F722BBFE01A9
:02073F00F322A3
:10074100C5F0F8A3E028F0C5F0F8E5821582700243
:060751001583E038F022E0
:1007570075F008758200EF2FFFEE33FECD33CDCC59
:1007670033CCC58233C5829BED9AEC99E5829840DC
:100777000CF582EE9BFEED9AFDEC99FC0FD5F0D6B9
:10078700E4CEFBE4CDFAE4CCF9A88222B800C1B9E3
:100797000059BA002DEC8BF084CFCECDFCE5F0CB21
:1007A700F97818EF2FFFEE33FEED33FDEC33FCEB5A
:1007B70033FB10D703994004EB99FB0FD8E5E4F915
:1007C700FA227818EF2FFFEE33FEED33FDEC33FC02
:1007D700C933C910D7059BE99A4007EC9BFCE99AF6
:1007E700F90FD8E0E4C9FAE4CCFB2275F010EF2F3B
:1007F700FFEE33FEED33FDCC33CCC833C810D7073B
:100807009BEC9AE899400AED9BFDEC9AFCE899F875
:0E0817000FD5F0DAE4CDFBE4CCFAE4C8F92208
:10082500EB9FF5F0EA9E42F0E99D42F0E89C45F029
:0108350022A0
:10083600E8600FECC313FCED13FDEE13FEEF13FFA0
:03084600D8F122C4
:10084900BB010DE58229F582E5833AF583020A5E4B
:100859005007E92582F8020A51BBFE07E92582F80B
:10086900020A6AE58229F582E5833AF583020A7765
:0C087900ECF0A3EDF0A3EEF0A3EFF022F2
:10088500A8828583F0D083D08212089C12089C121E
:10089500089C12089CE473E493A3C583C5F0C58343
:1008A500C8C582C8F0A3C583C5F0C583C8C582C8BD
:0108B5002220
:100ACD00E50824DDF582E43402F583E00508229083
:100ADD0002DA3007039002DDE475F001120A870295
:100AED0006E92000E97F2ED2008018EF540F2490E4
:100AFD00D43440D4FF30040BEF24BFB41A0050039C
:100B0D002461FFE50960021509050CE50C7002056D
:100B1D000B30070E9002DAE475F001120A87EF022E
:100B2D00072F02001D7403D2078003E4C207F508E6
:100B3D009002DA120A9EE4F509F50BF50CE5096051
:100B4D00077F20120B1080F5750AFFC201C200C28B
:100B5D0002C203C205C206C208120ADCFF700D30C4
:100B6D0007057F00120B21AF0CAE0B22B4255FC21F
:100B7D00D5C204120ADCFF24D0B40A00501A75F055
:100B8D000A780930D50508B6FF0106C6A426F62059
:100B9D00D5047002D20380D924CFB41A00EF5004CB
:100BAD00C2E5D204020D22D20180C6D20080C0D28D
:100BBD000280BCD2D580BAD20580B47F20120B1032
:100BCD002002077401B5090040F1120ACDFF120B86
:100BDD0010020B4AD208D2068095120ACDFB120ADA
:100BED00CDFA120ACDF94A4B700679F37A0D7BFFD7
:100BFD0020022EE509602A7E008E82758300120781
:100C0D000260060EEE650A70F0C2D5EBC0E0EAC0D8
:100C1D00E0E9C0E0EE120D69D0E0F9D0E0FAD0E0E5
:100C2D00FB1206E9FF60AAEBC0E0EAC0E0E9C0E014
:100C3D00120B10D0E02401F9D0E03400FAD0E0FB23
:100C4D00E50A0460DCD50AD980877BFF7A0D7965CA
:100C5D00D202809C791080027908C206C2088008F1
:100C6D00D2D5790A8004790AC2D5E50A047002F555
:100C7D000AE4FAFDFEFF120ACDFC7B0820011312D7
:100C8D000ACDFD7B1030000A120ACDFE120ACDFFEF
:100C9D007B20EC3382D592D55013C3E43000069FF0
:100CAD00FFE49EFEE42001039DFDE49CFCE4CBF8F3
:100CBD00C201EC700CCFCECDCCE824F8F870F380E7
:100CCD0017C3EF33FFEE33FEED33FDEC33FCEB33A7
:100CDD00FB994002FB0FD8E9EB300105F8D0E0C4D9
:100CED0048B201C0E00AEC4D4E4F78207B0070C237
:100CFD00EAB50A0040BCC0E0120D6BD0F0D0E02088
:100D0D000104C4C0E0C4B201C0F0120AF9D0F0D59C
:100D1D00F0EB020B4A120AA70BE7530C61580BB804
:100D2D004C0BB4420C654F0C6D440C6D490BCD430F
:080D3D000C73550C57460C57CE
:100D4500450C57470E13500BBC2D0BC02E0BE32B38
:100D55000BC4230BE1200DFC2A0B7C4800000BDBA8
:100D65003F3F3F00790AA2D5200314300509B91089
:100D7500020404B9080104A2D5200602500104208A
:100D850002689202B509005034C0E07F2030031993
:100D95007F30A20272067205500F120DC2C202C246
:100DA50006C205C2087F30800F300503E9C0E01296
:100DB5000B10300503D0E0F9D0E0B509CC300517AC
:100DC5007F30B9100C120B107F583004077F7880E4
:100DD50003B90803120B103002057F2D020B107F9B
:100DE500202008F87F2B2006F322920280CF286E60
:100DF500756C6C2900D201120ACD3001F8C2017858
:100E05000930D50108F6020B7C2D50434958120ACA
:100E1500CD2403B405004001E4900E0E93120B019E
:0D0E2500743A120B01D203750904020C612E
:1008B600E3F5F009E208B5F06D606B80F3E3F5F05F
:1008C60009E608B5F060605E80F387F009E608B5D2
:1008D600F054605280F487F009E208B5F0486046AB
:1008E60080F488828C8387F009E0A3B5F0386036FF
:1008F60080F488828C8387F009E493A3B5F027609F
:100906002580F388828C83E3F5F009E0A3B5F01621
:10091600601480F388828C83E3F5F009E493A3B531
:10092600F004600280F20209E1808580E7808E8013
:10093600D2803C8015806C807E809B80B5808B80C9
:10094600A1804F8070803A0209ED89828A83ECFA91
:10095600E493F5F0A3C8C582C8CCC583CCE493A3C1
:10096600C8C582C8CCC583CCB5F070606E80E189FD
:10097600828A83E493F5F0A3E208B5F05E605C80BA
:10098600F289828A83E0F5F0A3E608B5F04D604B64
:1009960080F389828A83E0F5F0A3E208B5F03C6033
:1009A6003A80F389828A83E493F5F0A3E608B5F0EA
:1009B6002A602880F2805389828A83ECFAE493F5D0
:1009C600F0A3C8C582C8CCC583CCE0A3C8C582C87D
:1009D600CCC583CCB5F004600280E27FFFB5F0029F
:1009E6000F2240027F012289828A83ECFAE0F5F029
:1009F600A3C8C582C8CCC583CCE0A3C8C582C8CC71
:100A0600C583CCB5F0D560D380E389828A83ECFABE
:100A1600E0F5F0A3C8C582C8CCC583CCE493A3C8CF
:100A2600C582C8CCC583CCB5F0B160AF80E288F092
:100A3600ED2402B4040050A3F582EB2402B40400B2
:0B0A46005099232345822390092F7351
:101BE000E4FFFE1206E9600C0FEF70010E09E970C8
:051BF000F20A80EF2263
:1011AB00021086E493A3F8E493A34003F68001F2C4
:1011BB0008DFF48029E493A3F85407240CC8C33345
:1011CB00C4540F4420C8834004F456800146F6DF14
:1011DB00E4800B0102040810204080901B9AE47EEF
:1011EB00019360BCA3FF543F30E509541FFEE49309
:1011FB00A360010ECF54C025E060A840B8E493A3D0
:10120B00FAE493A3F8E493A3C8C582C8CAC583CAFA
:10121B00F0A3C8C582C8CAC583CADFE9DEE780BEB2
:011BB1000033
:0D0A5100E6FB08E6F908E6FA08E6CBF82215
:0C0A5E00E0F8A3E0F9A3E0FAA3E0FB221B
:0D0A6A00E2FB08E2F908E2FA08E2CBF8220C
:100A7700E493F8740193F9740293FA740393FB22D5
:100A8700F8E0FBA3A3E0F925F0F0E58215827002F8
:070A97001583E0FA38F0229C
:090A9E00EBF0A3EAF0A3E9F02259
:100AA700D083D082F8E4937012740193700DA3A3DE
:100AB70093F8740193F5828883E4737402936860F2
:060AC700EFA3A3A380DFF2
:00000001FF
