:1020B6006B65792564202564D0D02564C1D020CCF9
:1020C600A7C6F00A006B65792564202564D0D02563
:1020D60064C1D020B0B4CFC20A006B6579256420F4
:1020E600CCA7C6F00A006B6579256420B0B4CFC2D0
:0F20F6000A00696E697420636F6D6D69740A006A
:042A86004103720195
:102A5A0090030E7403F0E490030DF07B017A03797E
:062A6A000D7F0302169E21
:1027CE0090030D7440F0A37401F0A312079E000154
:1027DE00C2009003147401F0E4A3F07B017A037934
:1027EE000D7F0112088B7D017F0112240253A23F3F
:0127FE0022B8
:081F6D0090030DEFF0A3EDF06D
:101F7500EF25E025E02D04900371F0EB7BFF600673
:101F85007A2079B680077A2079CB900371E0FF90AB
:101F95000312E4F0A3EFF090030DE02401FEE43317
:101FA500900314F0A3CEF090030EE02401FEE43379
:0A1FB500900316F0A3CEF0120F49BE
:011FBF0022FF
:102B3B007BFF7A2079E0900312E4F0A3EFF0020F11
:012B4B004940
:10285C0090030EEFF07BFF7A2079EC900312E4F0FA
:10286C00A3EFF0120F4990030EE0FF700690037275
:0D287C0004F022EFB40205E4900372F02294
:1021E60043BA80122A5A1227CE122A29122B9FD2BC
:1021F600AF7BFF7A2079F8120F497BFF7A1F796D42
:10220600121BC743C90853CAF790FE15E04408F0ED
:10221600121D6F53C9F743CA08900372E024FF9258
:08222600CB7F0A122B4C80D281
:0F2B4C007D607C09ED1D70011C144C70F7DFF1EA
:012B5B002257
:10169E00EFD3940740037FFF22120567FED3940316
:1016AE0040037FFF22EF7041EE700B900001120598
:1016BE0080F452935294120567B4010B90000112FC
:1016CE0005804293F45294120567FEB4020A90000C
:1016DE000112058042934294EEB4030D9000011264
:1016EE000580FEF45293EE4294EF640170431205AE
:1016FE0067FE700B900001120580F452915292EE2B
:10170E00B4010B9000011205804291F45292120521
:10171E0067B4020A900001120580429142921205AE
:10172E0067B4030D900001120580FEF45291EE4253
:10173E0092EF64027043120567FE700B9000011267
:10174E000580F452955296EEB4010B9000011205ED
:10175E00804295F45296120567B4020A9000011267
:10176E00058042954296120567B4030D9000011252
:10177E000580FEF45295EE4296EF64037043120517
:10178E0067FE700B900001120580F452B152B2EE5A
:10179E00B4010B90000112058042B1F452B2120551
:1017AE0067B4020A90000112058042B142B21205DE
:1017BE0067B4030D900001120580FEF452B1EE42A3
:1017CE00B2EF64047043120567FE700B90000112B5
:1017DE000580F452B352B4EEB4010B900001120521
:1017EE008042B3F452B4120567B4020A900001129B
:1017FE00058042B342B4120567B4030D9000011286
:10180E000580FEF452B3EE42B4EF64057043120548
:10181E0067FE700B900001120580F452C952CAEE99
:10182E00B4010B90000112058042C9F452CA120590
:10183E0067B4020A90000112058042C942CA12051D
:10184E0067B4030D900001120580FEF452C9EE42FA
:10185E00CAEF64067043120567FE700B900001120A
:10186E000580F452CB52CCEEB4010B900001120560
:10187E008042CBF452CC120567B4020A90000112DA
:10188E00058042CB42CC120567B4030D90000112C5
:10189E000580FEF452CBEE42CCEF64077043120586
:1018AE0067FF700B900001120580F452E152E2EFD7
:1018BE00B4010B90000112058042E1F452E21205D0
:1018CE0067B4020A90000112058042E142E212055D
:1018DE0067B4030D900001120580FFF452E1EF4250
:0418EE00E27F002273
:1022BD00EFD3940140037FFF22EDD3940340037FBE
:1022CD00FF22EF7004C2A98002D2A9ED700553B7A9
:1022DD00FDC2B9EDB4010553B7FDD2B9EDB4020598
:1022ED0043B702C2B9EDB4030543B702D2B97F00BB
:0122FD0022BE
:1022FE00EFD3940140037FFF22EDD3940340037F7D
:10230E00FF22EF7004C2AB8002D2ABED700553B763
:10231E00F7C2BBEDB4010553B7F7D2BBEDB402055E
:10232E0043B708C2BBEDB4030543B708D2BB7F0069
:01233E00227C
:10299800EFD3940140037FFF22EDD3940340037FDC
:1029A800FF22EF25E025E0FFE5AF54FB4FF5AFE44C
:0229B800FF22FC
:1029BA00EFD3940140037FFF22EDD3940340037FBA
:1029CA00FF22EFC43354E0FFE5AF54DF4FF5AFE425
:0229DA00FF22DA
:10292F00EFD3940140037FFF22EDD3940340037F45
:10293F00FF22EFC4333354C0FFE5AF54BF4FF5AFA1
:03294F00E4FF2280
:10233F00EFD3940140037FFF22EDD3940340037F3B
:10234F00FF22EF7004C2A88002D2A8ED700553B728
:10235F00FEC2B8EDB4010553B7FED2B8EDB4020515
:10236F0043B701C2B8EDB4030543B701D2B87F003C
:01237F00223B
:10238000EFD3940140037FFF22EDD3940340037FFA
:10239000FF22EF7004C2AA8002D2AAED700553B7E3
:1023A000FBC2BAEDB4010553B7FBD2BAEDB40205D6
:1023B00043B704C2BAEDB4030543B704D2BA7F00F1
:0123C00022FA
:102A4200EFD3940140037FFF22EFC454F0FFE58FE0
:082A520054EF4FF58FE4FF2261
:102A1000EFD3940140037FFF22EFC43354E0FFE57E
:092A20008F54DF4FF58FE4FF2213
:1029DC00EFD3940140037FFF22EFC4333354C0FF85
:0A29EC00E58F54BF4FF58FE4FF2282
:1023C100EFD3940140037FFF22EDD3940340037FB9
:1023D100FF22EF7004C2AD8002D2ADED700553B79C
:1023E100DFC2BDEDB4010553B7DFD2BDEDB40205C7
:1023F10043B720C2BDEDB4030543B720D2BD7F0072
:0124010022B8
:10215100EDD3940340037FFF22EF30E10543E620F6
:10216100800353E6DFEF30E00543E610800353E6DA
:10217100EFED700653B6DF53B5DFEDB4010653B68C
:10218100DF43B520EDB4020643B62053B5DFEDB40D
:0B219100030643B62043B5207F002268
:101F1000EFD3940140037FFF22EBD3940340037F70
:101F2000FF22EFB40112ED90FE817006E0547FF0C5
:101F30008011E04480F0800BEF700890FE83E05445
:101F4000874DF0EB700653B6DF53B5DFEBB40106F7
:101F500053B6DF43B520EBB4020643B62053B5DFDA
:0D1F6000EBB4030643B62043B5207F0022FA
:10240200EFD3940140037FFF22EDD3940340037F77
:10241200FF22EF7004C2AC8002D2ACED700553B75C
:10242200EFC2BCEDB4010553B7EFD2BCEDB4020567
:1024320043B710C2BCEDB4030543B710D2BC7F0052
:012442002277
:10004600EFD3940140037FFF22EDD3940340037F57
:10005600FF22E5AF54FE4FF5AFED700653B6FE53E3
:10006600B5FEEDB4010653B6FE43B501EDB4020686
:1000760043B60153B5FEEDB4030643B60143B501DD
:030086007F0022D6
:10219C00EFD3940140037FFF22EDD3940340037FE0
:1021AC00FF22EF33333354F8FFE5AF54F74FF5AF5D
:1021BC00ED700653EEFE53DFFEEDB4010653EEFE5A
:1021CC0043DF01EDB4020643EE0153DFFEEDB40331
:0A21DC000643EE0143DF017F0022FD
:10222E00EFD3940140037FFF22EDD3940340037F4D
:10223E00FF22EFC454F0FFE5AF54EF4FF5AFED7052
:10224E000653EEFD53DFFDEDB4010653EEFD43DF05
:10225E0002EDB4020643EE0253DFFDEDB403064376
:08226E00EE0243DF027F0022B3
:10227600EFD3940140037FFF22EDD3940340037F05
:10228600FF22EF25E0FFE5AF54FD4FF5AFED7006F9
:1022960053B6FD53B5FDEDB4010653B6FD43B50285
:1022A600EDB4020643B60253B5FDEDB4030643B6DC
:0722B6000243B5027F002284
:101E9100EFD3948140037FFF22EBD3940340037F70
:101EA100FF22EF247F603204705D90FEC4EDF0EB01
:101EB100700653B6FB53B5FBEBB4010653B6FB43B7
:101EC100B504EBB4020643B60453B5FBEB640370EF
:101ED1003B43B60443B504803390FEE4EDF0EB7070
:101EE1000653B6F753B5F7EBB4010653B6F743B54E
:101EF10008EBB4020643B60853B5F7EBB4030D4340
:0F1F0100B60843B508800590FEE4EDF07F00229E
:10248400EDD394035029ED700653EEFB53DFFBEDBF
:10249400B4010653EEFB43DF04EDB4020643EE043D
:1024A40053DFFBEDB4030B43EE0443DF0480037FEF
:0A24B400FF2290FE62EFF07F00228D
:1024BE0090FA10E054F0F0EDD39403500BE0FEEDE3
:1024CE0025E025E0FDEE4DF0EBD39403500690FA97
:1024DE0010E04BF0EF90FA10B40106E04480F0806B
:0824EE0004E0547FF07F00229E
:1024F60090FA00E054F0F0EDD39403500BE0FEEDBB
:1025060025E025E0FDEE4DF0EBD39403500690FA5E
:1025160000E04BF0EF90FA00B40106E04480F08052
:0825260004E0547FF07F002265
:10252E0090FA20E054F0F0EDD39403500BE0FEED62
:10253E0025E025E0FDEE4DF0EBD39403500690FA26
:10254E0020E04BF0EF90FA20B40106E04480F080DA
:08255E0004E0547FF07F00222D
:1025660090FA30E054F0F0EDD39403500BE0FEED1A
:1025760025E025E0FDEE4DF0EBD39403500690FAEE
:1025860030E04BF0EF90FA30B40106E04480F08082
:0825960004E0547FF07F0022F5
:10259E0090FA38E054F0F0EDD39403500BE0FEEDDA
:1025AE0025E025E0FDEE4DF0EBD39403500690FAB6
:1025BE0038E04BF0EF90FA38B40106E04480F0803A
:0825CE0004E0547FF07F0022BD
:1025D60090FA40E054F0F0EDD39403500BE0FEED9A
:1025E60025E025E0FDEE4DF0EBD39403500690FA7E
:1025F60040E04BF0EF90FA40B40106E04480F080F2
:0826060004E0547FF07F002284
:10260E0090FA48E054F0F0EDD39403500BE0FEED59
:10261E0025E025E0FDEE4DF0EBD39403500690FA45
:10262E0048E04BF0EF90FA48B40106E04480F080A9
:08263E0004E0547FF07F00224C
:1026460090FA50E054F0F0EDD39403500BE0FEED19
:1026560025E025E0FDEE4DF0EBD39403500690FA0D
:1026660050E04BF0EF90FA50B40106E04480F08061
:0826760004E0547FF07F002214
:10267E0090FA58E054F0F0EDD39403500BE0FEEDD9
:10268E0025E025E0FDEE4DF0EBD39403500690FAD5
:10269E0058E04BF0EF90FA58B40106E04480F08019
:0826AE0004E0547FF07F0022DC
:1026B60090FA60E054F0F0EDD39403500BE0FEED99
:1026C60025E025E0FDEE4DF0EBD39403500690FA9D
:1026D60060E04BF0EF90FA60B40106E04480F080D1
:0826E60004E0547FF07F0022A4
:1026EE0090FA68E054F0F0EDD39403500BE0FEED59
:1026FE0025E025E0FDEE4DF0EBD39403500690FA65
:10270E0068E04BF0EF90FA68B40106E04480F08088
:08271E0004E0547FF07F00226B
:1027260090FA70E054F0F0EDD39403500BE0FEED18
:1027360025E025E0FDEE4DF0EBD39403500690FA2C
:1027460070E04BF0EF90FA70B40106E04480F08040
:0827560004E0547FF07F002233
:1028890090FE50E054CFF0EDD39403500AE0FEEDF2
:10289900C454F0FDEE4DF0EF90FE50B40106E04453
:0B28A90080F08004E0547FF07F0022EC
:10088B00900317EBF0A3EAF0A3E9F0900316EFF057
:10089B0064016003020A69900000F0A3F0A3F0A3C7
:1008AB00F0A3F090031AF0A3F090031AE0FEA3E07C
:1008BB00FFC39480EE9400501C74542FF582740186
:1008CB003EF583E4F090031BE004F070DC90031A18
:1008DB00E004F080D4E490031AF0A3F090031AE044
:1008EB00FEA3E0FFC39480EE9400501C74142FF50C
:1008FB008274003EF583E4F090031BE004F070DC9F
:10090B0090031AE004F080D4900317E0FBA3E0FA05
:10091B00A3E0F9120567FFE598543F4FF598EF6494
:10092B00C06008EF64406003020A149000021207D3
:10093B00627F807E8D7D5B7C0012067E90031C1295
:10094B000792E4FFFE7D01FC90031CE0F8A3E0F9A5
:10095B00A3E0FAA3E0FBC312072B40037FFF229017
:10096B00031CE0F8A3E0F9A3E0FAA3E0FBC3E49BCC
:10097B00FFE49AFE740199FDE498FC90031C1207A6
:10098B0092900317E0FBA3E0FAA3E0F990000112A9
:10099B000580FB64017038C28E538EFE5389BF53A2
:1009AB0089CF438E4090031CE0FCA3E0FDA3E0FE47
:1009BB00A3E0FF780812073C8F8D90031CA3A3A321
:1009CB00E0F58BC2AB5389BF538FFDD28E8073EB97
:1009DB0064027032538EEF438E01538EF7438E04B5
:1009EB0090031CE0FCA3E0FDA3E0FEA3E0FF78086E
:1009FB0012073C8FD690031CA3A3A3E0F5D753AFEC
:100A0B00FB438E10803C7FFF22900317E0FBA3E09B
:100A1B00FAA3E0F9120567FF701390000812058026
:100A2B00B40105438E20801A538EDF8015EFB480FE
:100A3B0011900008120580B4010543878080035391
:100A4B00877F900317E0FBA3E0FAA3E0F990000780
:100A5B001205807004C29C8002D29C7F00229003FE
:100A6B0016E064026003020BB3900005F0A3F0A341
:100A7B00F0A3F0A3F090031AF0A3F090031AE0FE9A
:100A8B00A3E0FFC39480EE9400501C74F42FF58206
:100A9B0074013EF583E4F090031BE004F070DC90EE
:100AAB00031AE004F080D4E490031AF0A3F090034F
:100ABB001AE0FEA3E0FFC39480EE9400501C7494E4
:100ACB002FF58274003EF583E4F090031BE004F0F5
:100ADB0070DC90031AE004F080D4900317E0FBA3C2
:100AEB00E0FAA3E0F9120567FF64C06008EF644009
:100AFB006003020B91EFB4C005439A808003539AB5
:100B0B007F9000021207627F807E8D7D5B7C0012DE
:100B1B00067E90031C120792E4FFFE7D01FC9003FE
:100B2B001CE0F8A3E0F9A3E0FAA3E0FBC312072B48
:100B3B0040037FFF2290031CE0F8A3E0F9A3E0FA47
:100B4B00A3E0FBC3E49BFFE49AFE740199FDE498D8
:100B5B00FC90031C120792538EEF538EF7438E04B7
:100B6B0090031CE0FCA3E0FDA3E0FEA3E0FF7808EC
:100B7B0012073C8FD690031CA3A3A3E0F5D753AF6A
:100B8B00FB438E1080037FFF22900317E0FBA3E053
:100B9B00FAA3E0F9900007120580C454F0FFE59A20
:100BAB0054EF4FF59A7F0022900316E06403600325
:100BBB00020D4790000AF0A3F0A3F0A3F0A3F0906E
:100BCB00031AF0A3F090031AE0FEA3E0FFC39440D6
:100BDB00EE9400501C74742FF58274023EF583E47E
:100BEB00F090031BE004F070DC90031AE004F0803B
:100BFB00D4E490031AF0A3F090031AE0FEA3E0FFF5
:100C0B00C39440EE9400501C74142FF58274013E73
:100C1B00F583E4F090031BE004F070DC90031AE022
:100C2B0004F080D4900317E0FBA3E0FAA3E0F912E1
:100C3B000567FF64C06008EF64406003020D25EF99
:100C4B00B4C00543AC80800353AC7F900002120705
:100C5B00627F807E8D7D5B7C0012067E90031C1272
:100C6B000792E4FFFE7D01FC90031CE0F8A3E0F982
:100C7B00A3E0FAA3E0FBC312072B40037FFF2290F4
:100C8B00031CE0F8A3E0F9A3E0FAA3E0FBC3E49BA9
:100C9B00FFE49AFE740199FDE498FC90031C120783
:100CAB0092900317E0FBA3E0FAA3E0F99000011286
:100CBB000580FB6403702943AC4090031CE0FCA34C
:100CCB00E0FDA3E0FEA3E0FF780812073C8FD49071
:100CDB00031CA3A3A3E0F5D553D1F043D10A803D68
:100CEB00EB64027032538EEF53ACBF538EF7438ECF
:100CFB000490031CE0FCA3E0FDA3E0FEA3E0FF785F
:100D0B000812073C8FD690031CA3A3A3E0F5D7537F
:100D1B00AFFB438E1080067FFF227FFF22900317CD
:100D2B00E0FBA3E0FAA3E0F9900007120580C4549E
:100D3B00F0FFE5AC54EF4FF5AC7F0022900316E0CB
:100D4B0064046003020EDB90000FF0A3F0A3F0A38A
:100D5B00F0A3F090031AF0A3F090031AE0FEA3E0C7
:100D6B00FFC39420EE9400501C74B42FF5827402D0
:100D7B003EF583E4F090031BE004F070DC90031A63
:100D8B00E004F080D4E490031AF0A3F090031AE08F
:100D9B00FEA3E0FFC39420EE9400501C74D42FF5F7
:100DAB008274013EF583E4F090031BE004F070DCE9
:100DBB0090031AE004F080D4900317E0FBA3E0FA51
:100DCB00A3E0F9120567FF64C06008EF644060039D
:100DDB00020EB9EFB4C005438480800353847F9027
:100DEB0000021207627F807E8D7D5B7C0012067E87
:100DFB0090031C120792E4FFFE7D01FC90031CE0A4
:100E0B00F8A3E0F9A3E0FAA3E0FBC312072B40031E
:100E1B007FFF2290031CE0F8A3E0F9A3E0FAA3E024
:100E2B00FBC3E49BFFE49AFE740199FDE498FC90EC
:100E3B00031C120792900317E0FBA3E0FAA3E0F95F
:100E4B00900001120580FB640470294384409003D9
:100E5B001CE0FCA3E0FDA3E0FEA3E0FF7808120773
:100E6B003C8FD290031CA3A3A3E0F5D353D10F4324
:100E7B00D1A0803DEB64027032538EEF5384BF538D
:100E8B008EF7438E0490031CE0FCA3E0FDA3E0FE71
:100E9B00A3E0FF780812073C8FD690031CA3A3A3F3
:100EAB00E0F5D753AFFB438E1080067FFF227FFF09
:100EBB0022900317E0FBA3E0FAA3E0F990000712DE
:100ECB000580C454F0FFE58454EF4FF5847F002276
:020EDB007FFF97
:010EDD0022F2
:0F2B5C008F999000027401F0900002E070FA224D
:102AEF00120567FF600C122B5C740129F9E43AFAA6
:032AFF0080EE2244
:0F2B6B008F9B9000077401F0900007E070FA2232
:102B0200120567FF600C122B6B740129F9E43AFA83
:032B120080EE2230
:0F2B7A008FAD90000C7401F090000CE070FA2207
:102B1500120567FF600C122B7A740129F9E43AFA61
:032B250080EE221D
:0F2B89008F859000117401F0900011E070FA2216
:102B2800120567FF600C122B89740129F9E43AFA3F
:032B380080EE220A
:05008E00AE07022B5C2F
:03002300022105B2
:10210500C0E0C083C082C0D075D000C0073098271A
:10211500C298900003E0C394804002E4F09000036D
:10212500E0FF04F074142FF582E43400F583E5999B
:10213500F09000047405F0309907C299900002E40C
:0C214500F0D007D0D0D082D083D0E032A0
:03004300021FC0D9
:101FC000C0E0C083C082C0D075D000C007E59A30A1
:101FD000E028539AFE900008E0C394804002E4F0A9
:101FE000900008E0FF04F074942FF582E43400F5CB
:101FF00083E59BF09000097405F0E59A30E1085301
:102000009AFD900007E4F0D007D0D0D082D083D0E2
:02201000E032BC
:03008B000220123E
:10201200C0E0C083C082C0D075D000C007E5AC303C
:10202200E02853ACFE90000DE0C394404002E4F07F
:1020320090000DE0FF04F074142FF582E43401F5F2
:1020420083E5ADF090000E7405F0E5AC30E1085385
:10205200ACFD90000CE4F0D007D0D0D082D083D079
:02206200E0326A
:03009300022064E4
:10206400C0E0C083C082C0D075D000C007E5843012
:10207400E0285384FE900012E0C394204002E4F070
:10208400900012E0FF04F074D42FF582E43401F5DB
:1020940083E585F09000137405F0E58430E108537E
:1020A40084FD900011E4F0D007D0D0D082D083D04A
:0220B400E03218
:102A70002E003000310032003300340035003600C3
:062A8000370038003900A8
:072A8A004403670000000097
:10002600900375EFF07006FD7FA612280590037504
:0C003600E0B40107E4FD7FA712280522BA
:1028B400900376EFF0700DFD7FC8122805E4FD7FCC
:1028C400A1122805900376E0B4010EE4FD7FC01246
:0A28D4002805E4FD7FA0122805226C
:102A9B00E4FD7F8D122805E4FD7F14122805E4FD6B
:052AAB007FAF022805C9
:102AB000E4FD7F8D122805E4FD7F10122805E4FD5A
:052AC0007FAE022805B5
:0627FF00120567FF7D01D9
:10280500ED6004D2968002C296C2C7E4FEC2C8EF4C
:1028150030E704D2938002C293D2C8EF25E0FF0EC1
:08282500EEB408E9D2C7D29617
:01282D002288
:1028DE00E4FCEC24B0FFE4FD1228057F101228055D
:1028EE00E4FF122805E4FB7D01E4FF1228050BEB43
:0828FE00B480F40CECB408DA1C
:0129060022AE
:10000300AC07ED24B0FFE4FD122805EC54F0C45412
:0E0013000F4410FF122805EC540FFF022805C1
:10282E00E4900377F0900377E0FDC39408501EE424
:10283E00FF120003E4FC1227FF740129F9E43AFAAF
:0D284E000CECB480F1900377E004F080D82A
:01285B00225A
:08275E0090036BEFF0A3EDF016
:10276600E4A3F090036BE0FFA3E0FD120003E4FC9A
:102776001227FF740129F9E43AFA0CECB410F1902F
:0F278600036CE004F0A3E004F0E0C3940240D43D
:012795002221
:0827960090036EEFF0A3EDF0DB
:10279E00E4A3F090036EE0FFA3E0FD120003E4FC5F
:1027AE001227FF740129F9E43AFA0CECB408F190FF
:0F27BE00036FE004F0A3E004F0E0C3940240D402
:0127CD0022E9
:102AC500120003E4FC1227FF740129F9E43AFA0C19
:042AD500ECB406F166
:012AD90022DA
:1029F600E4FEC2C8EF30E704D2938002C293EF250B
:092A0600E0FFD2C80EEEB408E9AD
:012A0F0022A4
:102ADA00E4FFFEC2C8EF25E0FF3091010FD2C80E15
:042AEA00EEB408EF4F
:012AEE0022C5
:02244300AC07E4
:10244500C2907F031229F6AF041229F6AF051229AF
:10245500F6AF031229F6E4FD900366E0FFEDC39F96
:10246500501A122ADA900363E0FBA3E0FAA3E0F91D
:0E2475008D82758300EF1205BF0D80DCD290C2
:012483002236
:101361009002D4EFF0A3EDF0A3EBF0A3EAF0A3E930
:01137100F08B
:10137200E4A3F09002D6E0FBA3E0FAA3E0F9A3E035
:10138200F582758300120580FFD394005003021684
:101392009DEF94B0500302143EEFD394F740030242
:1013A200143E9002D9E02401FFE433FE8F828E8343
:1013B200120580C394A1500302143E9002D6A3A347
:1013C200A3E0F5827583001205802450FFE434FF08
:1013D200FE7C007D5E1205E1EE3395E0FDFC90039C
:1013E20067120792900367E0F8A3E0F9A3E0FAA37B
:1013F200E0FBC000C001C002C0039002D9E024019A
:10140200FFE433FE9002D6E0FBA3E0FAA3E0F98FFB
:10141200828E83120580245FFFE434FFCF244ECFF7
:101422003403FEE4FCFDD003D002D001D000EB2F48
:10143200FFEA3EFEED39FDEC380214F89002D6E0E8
:10144200FBA3E0FAA3E0F9A3E0F58275830012059D
:1014520080FFC394A15003021599EFD394A34003D4
:101462000215999002D9E02401FFE433FE8F828EA7
:1014720083120580C394A150030215999002D6A34A
:10148200A3A3E0F582758300120580245FFFE43494
:10149200FFFE7C007D5E1205E1EE3395E0FDFC90DF
:1014A2000367120792900367E0F8A3E0F9A3E0FA5A
:1014B200A3E0FBC000C001C002C0039002D9E02437
:1014C20001FFE433FE9002D6E0FBA3E0FAA3E0F9C9
:1014D2008F828E83120580245FFFE434FFFE3395F2
:1014E200E0FDFCD003D002D001D000EB2FFFEA3E9A
:1014F200FEE93DFDE83CFC9003671207929003670A
:10150200E0FCA3E0FDA3E0FEA3E0FFE47B20FAF908
:10151200F81205F3900367120792900367A3E0FDA8
:10152200A3A3E4FFFEE4FC781012073C9002DAEF7A
:10153200F0FA900367A3A3E0FEA3E4FFE4FDFC78C6
:101542000812073C9002DBEFF0F9900367E0FCA37E
:10155200A3E0FEA3E0FF9002DCEFF0FBAF02AD01DF
:101562009003637401F0A37402F0A374DDF0A3741A
:1015720020F01224439002D4E0FFA3E0FD7B017A25
:101582000279DD12275E9002D4E02410F09002D995
:10159200E02402F00213759002D6E0FBA3E0FAA366
:1015A200E0F9A3E0F582758300120580FFC3942061
:0E15B2005003021694EFD3947E400302169469
:1015C0009002D6A3A3A3E0F58275830012058024C0
:1015D000E0FFE434FFFE3395E0FDFC900367120763
:1015E00092900367E0FCA3E0FDA3E0FEA3E0FFE42C
:1015F0007B10FAF9F81205F3900367120792900333
:1016000067E0FCA3E0FDA3E0FEA3E02480FFEE344E
:10161000CFFEED3403FDE43CFC900367120792908B
:101620000367A3E0FDA3A3E4FFFEE4FC7810120728
:101630003C9002DAEFF0FA900367A3A3E0FEA3E484
:10164000FFE4FDFC780812073C9002DBEFF0F99014
:101650000367E0FCA3A3E0FEA3E0FF9002DCEFF051
:10166000FBAF02AD019003637401F0A37402F0A319
:1016700074FDF0A37410F01224439002D4E0FFA391
:10168000E0FD7B017A0279FD1227969002D4E024D6
:0216900008F060
:0B16920080009002D9E004F002137504
:01169D00222A
:101AA60090033FEFF0A3EDF0A3EBF0A3EAF0A3E978
:011AB600F03F
:101AB700E4A3F0900341E0FBA3E0FAA3E0F9A3E07D
:101AC700F582758300120580FFD394005003021B33
:101AD700C6EF94205003021BBDEFD3947E40030250
:021AE7001BBD25
:101AE900900341A3A3A3E0F5827583001205802426
:101AF900E0FFE434FFFE3395E0FDFC900367120735
:101B090092900367E0FCA3E0FDA3E0FEA3E0FFE4FD
:101B19007B08FAF9F81205F390036712079290030C
:101B290067E0FCA3E0FDA3E0FEA3E024C0FFEE34E0
:101B3900BFFEED3403FDE43CFC900367120792906D
:101B49000367A3E0FDA3A3E4FFFEE4FC78101207FA
:101B59003C900345EFF0FA900367A3A3E0FEA3E4EA
:101B6900FFE4FDFC780812073C900346EFF0F9907A
:101B79000367E0FCA3A3E0FEA3E0FF900347EFF0B7
:101B8900FBAF02AD019003637401F0A37403F0A3EA
:101B99007448F0A37408F012244390033FE0FFA3B4
:101BA900E0FD7B017A037948122AC590033FE024BE
:021BB90006F034
:0B1BBB008000900344E004F0021ABA1E
:011BC60022FC
:0A18F200900351EDF0900350EFF069
:1018FC00900356E075F008A42F2408900350F0E4F0
:10190C00FFFE7DC87C42900352E0F8A3E0F9A3E00F
:10191C00FAA3E0FB12009612019C90035C12079252
:10192C00900350E024E8FFA3E0FD7BFF7A2A797056
:10193C00121361E4900357F0900356E0FFA3E0C349
:10194C009F4003021AA5E47B0AFAF9F890035CE0C5
:10195C00FCA3E0FDA3E0FEA3E0FF12067EAC00AD0D
:10196C0001AE02AF0390035812079290035CE0FCA7
:10197C00A3E0FDA3E0FEA3E0FFE47B0AFAF9F81272
:10198C00067E90035C120792900350E024F8F090CE
:10199C000357E0B40207900350E024F8F09003588A
:1019AC00E0FCA3E0FDA3E0FEA3E0FF12081519FA8A
:1019BC00000000001A0B000000011A1B00000002BE
:1019CC001A2B000000031A3B000000041A4B000005
:1019DC0000051A5B000000061A6B000000071A7B5A
:1019EC00000000081A8B0000000900001A9C9003EC
:1019FC0050E0FFA3E0FD7BFF7A2A7972021A9990DE
:101A0C000350E0FFA3E0FD7BFF7A2A7974807E907F
:101A1C000350E0FFA3E0FD7BFF7A2A7976806E907D
:101A2C000350E0FFA3E0FD7BFF7A2A7978805E907B
:101A3C000350E0FFA3E0FD7BFF7A2A797A804E9079
:101A4C000350E0FFA3E0FD7BFF7A2A797C803E9077
:101A5C000350E0FFA3E0FD7BFF7A2A797E802E9075
:101A6C000350E0FFA3E0FD7BFF7A2A7980801E9073
:101A7C000350E0FFA3E0FD7BFF7A2A7982800E9071
:101A8C000350E0FFA3E0FD7BFF7A2A7984121361F7
:091A9C00900357E004F002194424
:011AA500221E
:101CC1005391B45392B453B37F53B47F53C9FE536A
:101CD100CAFED2C7D2907FC8122B4CE4FD7FAE1250
:101CE1002805E4FF1228057F101228057F401228DD
:101CF100057F811228057FCF1228057FA1122805B3
:101D01007FC81228057FA61228057FA81228057F03
:101D11003F1228057FD3122805E4FF1228057FD53D
:101D21001228057F801228057FD91228057FF1121C
:101D310028057FDA1228057F121228057FDB122879
:101D4100057F401228057F201228057F02122805F1
:101D51007F8D1228057F141228057FA41228057F84
:0E1D6100A61228051228DEE4FD7FAF02280539
:052A9100420373FFFF8A
:10290700EF7003C38001D392B4EFB40103C3800116
:10291700D392B5EFB40203C38001D392C0EFB403DF
:0829270003C38001D392C12219
:10295200EF14600E14600F14601024037012A2832F
:10296200800AA2868006A2878002A297E433FF2211
:032972007F0022C1
:102A290053933753943753917F53927F53B1CF5375
:092A3900B2CF53B3FC53B4FC22EC
:0B1BC70090030DEBF0A3EAF0A3E9F09F
:101BD200E4A3F0A3F0A3F0900310F0900310E0FF51
:101BE200C394044003021CC0122907E4A3F090032B
:101BF20011E0FFC394044003021CB7122952EFFD07
:101C02007C00A3E0FF900373E0FEA3E0A807088036
:101C120005CEC313CE13D8F954016D7001EC7003D5
:101C2200021CA8900311E0FF1229527E00A3E0FDDE
:101C3200EFA805088005C333CE33CED8F9FBAA0638
:101C42007E007401A805088005C333CE33CED8F9CF
:101C5200F4FFEEF4FE900373E05EFEA3E05FFFEE9E
:101C62004AFEEF4BFF900373EEF0A3EFF0900311E7
:101C7200E0FF122952EF9003107015E0FFA3E0FD80
:101C820090030DA3E0FAA3E0F5828A83E4FB8013BC
:101C9200E0FFA3E0FD90030DA3E0FAA3E0F5828A42
:101CA200837B01120853900312E004F0900311E0C9
:0E1CB20004F0021BF0900310E004F0021BDDB2
:011CC0002201
:042A96004103780F71
:072B980053C9E153CAE12219
:10297500EF14600E14600F14601024037012A2C9C6
:10298500800AA2CA8006A2CB8002A2CCE433FF2231
:032995007F00229E
:032B9F00022B986E
:101D6F00E490030DF0F090030DE0FFC394044003E3
:101D7F00021E04900378E0FEA807088002C313D860
:101D8F00FC20E02790030DE0FF122975BF011CE036
:101D9F00FF122B3B900378E0FF90030DE0FEF874E9
:101DAF0001088002C333D8FC4F803D90030DE0FF44
:101DBF00900378E0FEA807088002C313D8FC30E038
:101DCF002B122975EF702590030DE0FF12285C9000
:101DDF000378E0FBE47F01FEFDFC90030DE0F9F8D2
:101DEF0012074F120710EB5F900378F090030DE08E
:051DFF0004F0021D7557
:011E040022BB
:10009600EC4D6011E8497017ED33EC3304600DE464
:1000A600FCFFFEFD22E933E8330470F80202081271
:1000B60001D358046009E4CC248150062850090273
:1000C600021228400302020FC0E0EB4A7044B980D6
:1000D60006D0E0FB0201FEEF4E701CBD8008EBFF70
:1000E600EAFEE9FD80EBE98DF0A4FEE5F002017F72
:1000F600E9CDF9EAFEEBFFEF89F0A4FCE5F0CE8945
:10010600F0A42EFFE435F0CD89F0A42DFEE435F001
:100116008067EF4E7005BD80D780C3EF8BF0A4AC2F
:10012600F0EE8BF0A42CFCE435F0F8EF8AF0A42C6A
:10013600E5F038FCE433CB8DF0A42CFCE5F03BF87D
:10014600EE8AF0A42CFCE5F038F8E433CF89F0A46D
:100156002CFCE5F038CF3400CE89F0A42FFFE5F073
:100166003EFEE433C98DF0A42EFEE5F039CD8AF0CB
:10017600A42FFFE5F03EFEE43DFD33D0E0FB500743
:100186000BBB000F020212EC2CFCEF33FFEE33FE2A
:06019600ED33FD0201EA59
:10019C00EDD2E7CD33EC3392D524814006E4FFFE5B
:1001AC00FDFC22FCE4CFCECDCC24E0501174FF80BA
:1001BC00EDC3CC13CCCD13CDCE13CECF13CF047057
:0701CC00F030D5DE02071D33
:100EDE00E5082412F582E43403F583E00508229038
:100EEE00030F300703900312E475F0011207CF02CF
:100EFE0005672000E97F2ED2008018EF540F249052
:100F0E00D43440D4FF30040BEF24BFB41A00500386
:100F1E002461FFE50960021509050CE50C70020558
:100F2E000B30070E90030FE475F0011207CFEF029E
:100F3E0005AD02008E7403D2078003E4C207F508E4
:100F4E0090030F1207E6E4F509F50BF50CE50960C1
:100F5E00077F20120F2180F5750AFFC201C200C261
:100F6E0002C203C205C206C208120EEDFF700D309A
:100F7E0007057F00120F32AF0CAE0B22B4255FC2F5
:100F8E00D5C204120EEDFF24D0B40A00501A75F02B
:100F9E000A780930D50508B6FF0106C6A426F62044
:100FAE00D5047002D20380D924CFB41A00EF5004B6
:100FBE00C2E5D204021224D20180C6D20080C0D271
:100FCE000280BCD2D580BAD20580B47F20120F2108
:100FDE002002077401B5090040F1120EDEFF120F58
:100FEE0021020F5BD208D2068095120EDEFB120E86
:100FFE00DEFA120EDEF94A4B700679227A137BFF67
:10100E0020022EE509602A7E008E8275830012056D
:10101E008060060EEE650A70F0C2D5EBC0E0EAC045
:10102E00E0E9C0E0EE121285D0E0F9D0E0FAD0E0AF
:10103E00FB120567FF60AAEBC0E0EAC0E0E9C0E082
:10104E00120F21D0E02401F9D0E03400FAD0E0FBF9
:10105E00E50A0460DCD50AD98087D20280A212127A
:10106E006760F7E50A70010412021DA90A600DE51A
:10107E000A600914F50A12130FEF60F3EA30E70263
:10108E00F404C3995079EAF4250A0430E701E40424
:10109E00F50A800D12126760C1EA050A250A1202CE
:1010AE001DEA90033EF030E701E4250A04D50A0458
:1010BE0020050114121285E4C0E012130F90033EB6
:1010CE00E0601320E70714F0120F09802204F0D01D
:1010DE00E014C0E07F00120F09E50A6007120F004E
:1010EE00150A800B300503120F00D0E0020F5BD003
:1010FE00E00480C4121267609EE50A0412021D907D
:10110E00033EEAF0E50A20050260010424041212EF
:01111E00854B
:10111F0074FF04C0E012130F120F09E50A20050235
:10112F006003120F00D0E0B50AE87F45120F13904D
:10113F00033EE07F2B30E7047F2DF404C0E0120F55
:10114F0021D0E075F00A84C0F0120F0AD0E0120F20
:10115F000A020F5B791080027908C206C208800864
:10116F00D2D5790A8004790AC2D5E50A047002F54E
:10117F000AE4FAFDFEFF120EDEFC7B0820011312BB
:10118F000EDEFD7B1030000A120EDEFE120EDEFFA9
:10119F007B20EC3382D592D55013C3E43000069FE9
:1011AF00FFE49EFEE42001039DFDE49CFCE4CBF8EC
:1011BF00C201EC700CCFCECDCCE824F8F870F380E0
:1011CF0017C3EF33FFEE33FEED33FDEC33FCEB33A0
:1011DF00FB994002FB0FD8E9EB300105F8D0E0C4D2
:1011EF0048B201C0E00AEC4D4E4F78207B0070C230
:1011FF00EAB50A0040BCC0E0121287D0F0D0E02060
:10120F000104C4C0E0C4B201C0F0120F0AD0F0D57F
:10121F00F0EB020F5B1207EF0FF8531163580FC972
:10122F004C0FC54211674F116F44116F490FDE43C9
:10123F0011755510A246110245106C471342500FFD
:10124F00CD2D0FD12E0FF42B0FD5230FF220132BF3
:10125F002A0F8D4800000FECE50AB4FF03750A064C
:10126F00120EDEFC120EDEFD120EDEFE120EDEFF81
:10127F0090033702025A790AA2D5200314300509C8
:10128F00B910020404B9080104A2D52006025001C6
:10129F00042002689202B509005034C0E07F20306C
:1012AF0003197F30A20272067205500F1212DEC2AE
:1012BF0002C206C205C2087F30800F300503E9C0A5
:1012CF00E0120F21300503D0E0F9D0E0B509CC30A2
:1012DF0005177F30B9100C120F217F583004077F8C
:1012EF00788003B90803120F213002057F2D020FFA
:1012FF00217F202008F87F2B2006F322920280CF37
:10130F007F00B40700500B2437F582E43403F583D4
:10131F00E0FF22286E756C6C2900D201120EDE30B0
:10132F0001F8C201780930D50108F6020F8D2D5052
:10133F00434958120EDE2403B405004001E4901314
:10134F003D93120F12743A120F12D2037509040251
:02135F00116318
:1001D300E9D2E7C933E833F892D5EDD2E7CD33EC72
:0701E30033FC5002B2D522EB
:1001EA00EC30E7100FBF000C0EBE00080DBD000476
:1001FA000BEB6014A2D5EB13FCED92E7FD2274FF22
:10020A00FCFDFEFF22E480F8A2D574FF13FC7D807A
:03021A00E480EF8E
:10021D00F920E73624F950037907E4F42402FBE5CD
:10022D0082158270021583DBF6E024FB501BE9601A
:10023D0014E4F0E582158270021583E004F0B40A2F
:0D024D0008E4F0D9EE7401F00A22C2D522B7
:10025A00ED33EC3392D5FA602AB4FF33EDC2E77B73
:10026A00FF60067A02797FE4227A02798820D5042F
:10027A007A027983224E614E002B494E46002D495F
:10028A004E4600E47A08F0A3DAFC7B00740722C029
:10029A0083C082ECC0E0EDC0E0EEC0E0EFC0E0EA6F
:1002AA0075F010A4CAABF075F04DA42BFBE435F041
:1002BA00FCEA2410FAEB34C5FBEC34D9FCEDC2E7B6
:1002CA00FF75F056A4F42411C5F0F434C58FF0A4D8
:1002DA002AE5F03BE43CF020E714120527D0E0FFC2
:1002EA00D0E0FED0E0FDD0E0FC12045A8014F40401
:1002FA00120527D0E0FFD0E0FED0E0FDD0E0FC12EE
:10030A000096D082D083E0FAEDD2E7CD33EC3324E5
:10031A0082FBE4C3CF33CFCE33CECD33CD33DBF341
:10032A007B0775F00A846004F0A31B0AE5F0F0A3CA
:10033A008FF0740AA4FFACF08EF0740AA42CFEAC01
:10034A00F050010C8DF0740AA42CFDE435F0F0A3F2
:05035A00DBDE74072248
:10035F00020208E86480F8E933E83360110460F0C2
:10036F00ED33EC337009E8FCE9FDEAFEEBFF220404
:10037F0060DED3EB9FEA9EE99DE8C2E78CF0C2F7FF
:10038F0095F0400CE8CCF8E9CDF9EACEFAEBCFFBCB
:10039F001201D385D0F05804700320D5B3E8047050
:1003AF00075002B2D502021292D5EC0460F7E4CCEA
:1003BF00C0E0C398F8603B94186008400DD0E0FB94
:1003CF000201EAE4FBFAC9FC8028E830E406E4C93C
:1003DF00FBE4CAFCE830E305E4C9CACBFCE85407E8
:1003EF006010F8C3E913F9EA13FAEB13FBEC13FCF3
:1003FF00D8F130F52FC3E49CFCEF9BFFEE9AFEED96
:10040F0099FDD0E0FBEF4E4D4C701222DB03020240
:10041F000FEC2CFCEF33FFEE33FEED33FDED30E749
:10042F00EB0201EAEF2BFFEE3AFEED39FDD0E0FBD8
:10043F0050130BBB0003020212ED13FDEE13FEEF80
:08044F0013FFEC13FC0201EAAB
:10045700020212EC5D046005E85904700302020809
:100467001201D3580460F6EC4860F2EC7004FDFE0C
:10047700FF22C860DB2481C85009C3986002500678
:1004870002020F9850CAF582E9294B4A7005AB82E0
:100497000201FE75F0007C1A7880C3EF9BEE9AED9F
:1004A70099400DC3EF9BFFEE9AFEED99FDE842F0F0
:1004B700DC23ACF0D0E0FFD0E0FED0E0FDAB822043
:1004C700E7101BEB60BAEC2CFCEF33FFEE33FEEDCD
:1004D70033FD0201EAE803F830E705C0F075F000E4
:1004E700EF2FFFEE33FEED33FD40B830E7C280AAB1
:1004F7003F8000004120000042C80000447A00000D
:10050700461C400047C35000497424004B1896808E
:100517004CBEBC205A0E1BCA6753C21C749DC5AE85
:10052700FB60065407601C2323120555EB54386003
:1005370009120541120550120096ECF8EDF9EEFA92
:10054700EFCB22EB12055080F1543803241C9004A2
:10055700F7FE93FC0EEE93FD0EEE930ECE93FF2265
:03000000021E05D8
:0C1E0500787FE4F6D8FD758121021E4CA8
:10056700BB010689828A83E0225002E722BBFE0292
:09057700E32289828A83E49322C5
:10058000BB010CE58229F582E5833AF583E0225030
:1005900006E92582F8E622BBFE06E92582F8E2227A
:0D05A000E58229F582E5833AF583E4932294
:1005AD00BB010689828A83F0225002F722BBFE012D
:0205BD00F32227
:1005BF00F8BB010DE58229F582E5833AF583E8F072
:1005CF00225006E92582C8F622BBFE05E92582C81E
:0205DF00F22206
:1005E100EF8DF0A4A8F0CF8CF0A428CE8DF0A42E2E
:0205F100FE22E8
:1005F300E88FF0A4CC8BF0A42CFCE98EF0A42CFCA7
:100603008AF0EDA42CFCEA8EF0A4CDA8F08BF0A424
:100613002DCC3825F0FDE98FF0A42CCD35F0FCEB83
:100623008EF0A4FEA9F0EB8FF0A4CFC5F02ECD3948
:0F063300FEE43CFCEAA42DCE35F0FDE43CFC22B5
:1006420075F008758200EF2FFFEE33FECD33CDCC6F
:1006520033CCC58233C5829BED9AEC99E5829840F2
:100662000CF582EE9BFEED9AFDEC99FC0FD5F0D6CF
:10067200E4CEFBE4CDFAE4CCF9A88222B800C1B9F9
:100682000059BA002DEC8BF084CFCECDFCE5F0CB37
:10069200F97818EF2FFFEE33FEED33FDEC33FCEB70
:1006A20033FB10D703994004EB99FB0FD8E5E4F92B
:1006B200FA227818EF2FFFEE33FEED33FDEC33FC18
:1006C200C933C910D7059BE99A4007EC9BFCE99A0C
:1006D200F90FD8E0E4C9FAE4CCFB2275F010EF2F51
:1006E200FFEE33FEED33FDCC33CCC833C810D70751
:1006F2009BEC9AE899400AED9BFDEC9AFCE899F88C
:0E0702000FD5F0DAE4CDFBE4CCFAE4C8F9221E
:0D071000CFF4CFCEF4CECDF4CDCCF4CC227E
:0E071D00C3E49FFFE49EFEE49DFDE49CFC22ED
:10072B00EB9FF5F0EA9E42F0E99D42F0E89C45F024
:01073B00229B
:10073C00E8600FECC313FCED13FDEE13FEEF13FF9B
:03074C00D8F122BF
:10074F00E8600FEFC333FFEE33FEED33FDEC33FC08
:03075F00D8F122AC
:10076200BB010DE58229F582E5833AF58302086231
:100772005007E92582F8020855BBFE07E92582F8F1
:1007820002086EE58229F582E5833AF58302087B49
:0C079200ECF0A3EDF0A3EEF0A3EFF022DA
:10079E00A8828583F0D083D0821207B51207B512D6
:1007AE0007B51207B5E473E493A3C583C5F0C583FB
:1007BE00C8C582C8F0A3C583C5F0C583C8C582C8A5
:0107CE002208
:1007CF00F8E0FBA3A3E0F925F0F0E58215827002B3
:0707DF001583E0FA38F02257
:0907E600EBF0A3EAF0A3E9F02214
:1007EF00D083D082F8E4937012740193700DA3A399
:1007FF0093F8740193F5828883E4737402936860AD
:06080F00EFA3A3A380DFAC
:10081500D083D082E4937012740193700DA3A393D7
:10082500F8740193F5828883E4737402936C7012F3
:100835007403936D700C7404936E70067405936F56
:0A08450060DDA3A3A3A3A3A380CA50
:06084F008A838982E47334
:101E11000221E6E493A3F8E493A34003F68001F2E0
:101E210008DFF48029E493A3F85407240CC8C333D2
:101E3100C4540F4420C8834004F456800146F6DFA1
:101E4100E4800B0102040810204080902A86E47E81
:101E5100019360BCA3FF543F30E509541FFEE49396
:101E6100A360010ECF54C025E060A840B8E493A35D
:101E7100FAE493A3F8E493A3C8C582C8CAC583CA88
:101E8100F0A3C8C582C8CAC583CADFE9DEE780BE40
:012A9A00003B
:0D085500E6FB08E6F908E6FA08E6CBF82213
:0C086200E0F8A3E0F9A3E0FAA3E0FB2219
:0D086E00E2FB08E2F908E2FA08E2CBF8220A
:10087B00E493F8740193F9740293FA740393FB22D3
:00000001FF
