:100A3E00416C61726D0054696D65720025303464CD
:100A4E002D253032642D2530326400253032643A43
:100A5E00253032643A253032642020573A25640A14
:100A6E00002564002020202000000000000000006F
:100A7E000000000000000000000000000000000068
:100A8E000000000000000000000000000000000058
:100A9E000000000000000000000000000000000048
:100AAE0000000000000000C080C000000000000038
:100ABE000000000000000000000000000000000028
:100ACE000000000000001010101000101010001098
:100ADE000888C8280000000003020C1040800000A7
:100AEE0000000000000000000000000000000000F8
:100AFE00000000000030F090102020408000000028
:100B0E0000000000000000000000000000000000D7
:100B1E0000808000000000000000000000000000C7
:100B2E00000000000000E038070738608000000079
:100B3E0000000000000000000000000000000000A7
:100B4E000000000000000000000000406030100CAB
:100B5E000601000000004020100C0200000001F20F
:100B6E00040810302040408080000000000000008B
:100B7E0000000000000000031EF080000003061CB1
:100B8E007080000000000000000000000000000067
:100B9E00000000010303060E0A1212224240828256
:100BAE00000202C23602030202020202030A32C22B
:100BBE0002020202020202020282C22231190D0751
:100BCE000300000000000000000000000000000014
:100BDE000000303804030000000000000000B007E1
:100BEE0000000000000000000000000000000000F7
:100BFE0000000000000000000000037C80000000E8
:100C0E00009FF00000000000000000000000000047
:100C1E000000000000000000000000000000008145
:100C2E00611E070C103860800000000000000001FB
:100C3E008E70A030080402000100000000000000C9
:100C4E000000000000000000000000000000000096
:100C5E00000000000000000000000000C02C010099
:100C6E000000000000000000000000000000000076
:100C7E000000000000000000000000807F0000C0A7
:100C8E003807000000000000000000000000000017
:100C9E0000000000000000000000000080700C0347
:100CAE000000000000000080432618106884020136
:100CBE000000030C70800000000000000000000027
:100CCE000000000000000000000000000000000016
:100CDE000000000000000000000000000100000005
:100CEE0000000000000000000000000000000000F6
:100CFE0000000000000060603038160B0C0201008E
:100D0E0000000000000000000000000000000000D5
:100D1E0000000000000000000080700E8180402066
:100D2E001008080402010000000000000000030487
:100D3E00083060C000010638C0000000000000004E
:100D4E000000000000000000000000000000000095
:100D5E000000000000000000000000000000000085
:100D6E000000000000000000000000000000000075
:100D7E000000000000000000000000000000000065
:100D8E000000000000000000000000000000000055
:100D9E00000000000000000004030100000000003D
:100DAE000000000000000000000000000000000035
:100DBE000000000001060C18333E00000000000089
:100DCE000000000000000000000000000000000015
:100DDE000000000000000000000000000000000005
:100DEE0000000000000000000000000000000000F5
:100DFE0000000000000000000000000000000000E5
:100E0E0000000000000000000000000000000000D4
:100E1E0000000000000000000000000000000000C4
:100E2E0000000000000000000000000000000000B4
:100E3E0000000000000000000000000000000000A4
:100E4E000000000000000000000000000000000094
:100E5E000000000000000000000000000000000084
:100E6E000000000000000000000003050911FF1142
:100E7E008905C300E000F000F8000000000000004B
:100E8E004428FF11AA4400000000000000000000EA
:100E9E000000000000000000000000000000000044
:100EAE000000000000000000000000000000000034
:100EBE000000000000000000000000000000000024
:100ECE000000008301384482929274018300000076
:100EDE00000000007C44FF017D7D7D017D7D7D7DD8
:100EEE00017D7D7D7D7D01FF000000000000010081
:100EFE0001000100010001000100000000000000DF
:100F0E0000000101000000000000000000000000D1
:100F1E0000000000000000000000000000000000C3
:100F2E0000000000000000000000000000000000B3
:100F3E0000000000000000000000000000000000A3
:100F4E00000000010100000000000001010000008F
:100F5E000000000000000101010101010101010179
:100F6E00010101010101010100000000000000006B
:100F7E000000000000000000000000000000000063
:100F8E0000000000003F3F0303F313111111111174
:100F9E001101F1116181010101816111F101010163
:100FAE00014141F10101010101C121111111112173
:100FBE00C1010101014141F10101010101010101E3
:100FCE0001011111111111D33303033F3F00000032
:100FDE000000000000000000000000000000000003
:100FEE0000000000000000000000000000000000F3
:100FFE0000000000000000000000000000000000E3
:10100E000000000000E0E000007F0101010101018D
:10101E0000007F0000010618060100007F0000009E
:10102E000040407F40400000001F204040404020D4
:10103E001F0000000040407F4040000000006000A4
:10104E0000000040300C0300000000E0E000000053
:10105E000000000000000000000000000000000082
:10106E000000000000000000000000000000000072
:10107E000000000000000000000000000000000062
:10108E000000000000070706060606040404844458
:10109E004444840404844444448404040484C40402
:1010AE000404048444444484040404040484444432
:1010BE0044840404040404844444448404048444A2
:1010CE0044448404040404060606060707000000D0
:1010DE000000000000000000000000000000000002
:1010EE0000000000000000000000000000000000F2
:1010FE0000000000000000000000000000000000E2
:10110E0000000000000000000000000000001018A9
:10111E0014121100000F1010100F000000101F10FD
:10112E00000000081012120D00001800000D12121F
:10113E00120D0000180000101814121100001018E3
:10114E00141211000000000000000000000000005A
:10115E000000000000000000000000000000000081
:10116E000000000000000000000000000000000071
:10117E000000000000000000000000000000000061
:10118E000000000000000000000000000000000051
:10119E000000000000000000000000000000000041
:1011AE000000000000808080808080808000000031
:1011BE000000000000000000000000000000000021
:1011CE000000000000000000000000000000000011
:1011DE000000000000000000000000000000000001
:1011EE00000000000000000000007F030C300C0324
:1011FE007F00003854545800007C04047800003CF2
:10120E0040407C00000000000000000000000000D4
:10121E0000000000000000000000000000000000C0
:10122E000000000000FFAAAAAA280800FF00000084
:10123E0000000000000000000000000000000000A0
:10124E000000000000000000000000000000000090
:10125E0000007F030C300C037F0000264949493201
:09126E0000007F020408107F005B
:0400060041036A7BCD
:1040D9009002FF7403F0E49002FEF07B017A02790A
:1040E900FE7F031227629002FF7480F0E49002FEC3
:0C40F900F07B017A0279FE7F030227624F
:1040A8009002FE7440F0A37401F0A3121CC1000139
:1040B800C2009003057401F0E4A3F07B017A027951
:1040C800FE7F011212777D017F01123C1B53A23F34
:0140D80022C5
:094454007BFF7A0A793E02220185
:09445D007BFF7A0A794402220176
:1029B6009002FC7403F0A374EEF043BA801240D97F
:1029C6001240A8124491123050E4FF1200A6E4FF10
:1029D600124130D2AF9002D47407F0A374EAF0A388
:1029E6007408F09002D8741BF09002D77403F0902C
:1029F60002D97417F0A3743BF0A37437F078FE7C09
:102A0600027D017B017A0279D47E007F0812199A31
:102A1600122D827B017A0279D4122E7C90030174E6
:102A2600FFF0A3740AF0A3744AF09002D4E0FFA367
:102A3600E0900304CFF0A3EFF09002D6E0FF9003FE
:102A460006E4F0A3EFF09002D8E0FF900308E4F06C
:102A5600A3EFF07B017A0279DC1221FB7B017A027B
:102A660079DC9003037410F0E4FDFF12359F9003A8
:102A76000174FFF0A3740AF0A37459F09002D9E030
:102A8600FF900304E4F0A3EFF09002DAE0FF900376
:102A960006E4F0A3EFF09002DBE0FF900308E4F019
:102AA600A3EFF09002D7E0FF90030AE4F0A3EFF063
:102AB6007B017A0279DC1221FB7B017A0279DC90B8
:102AC60003037410F07D02E4FF12359F9003017436
:102AD600FFF0A3740AF0A3746FF09002FC74FFF584
:102AE600F0121AC3AFF0900304F0A3EFF07B017A63
:102AF6000279DC1221FB7BFF7A0A79729003037458
:102B060010F07D06E4FF12359F7B017A0279DC9096
:102B160003037410F07D06E4FF12359F7FFA12431B
:102B26007A7FFA12437A7FFA12437A7FFA12437A4D
:032B3600022A1957
:10366C009000011219FBFFE5DE54F04FF5DE9000DF
:10367C00021219FBC43354E0FFE5DE54DF4FF5DED4
:10368C001219E2FFD3941F502B9000031219FBFE6A
:10369C00D39401501F9000041219FBFDD3940350D6
:1036AC0013EDC43354E0FDEEC433333354804D4F2B
:0536BC0090FEA8F022C1
:0C441C00EFB4010443BC802253BC7F229B
:10352700EFD3940F4002806BE4F5BDF5BEE5BC54C4
:10353700F044404FF5BC0000000000000000000010
:10354700E4FDE5BC30E54753BCDFE5DEAFBD30E564
:103557000DEFFEACBEECFBEBFF9003628022900305
:1035670062E4F0A3EFF0E5BEC4540FFBE0C4F854E7
:103577000FC868FF900362E0C454F048FEEF4BFFAA
:10358700EEF0A3EFF0900362E0FEA3E0FF220DED63
:07359700B4FAAF7E107F00C3
:01359E00220A
:03002B00020016BA
:0400160053BCDF32C6
:0F437A007D607C09ED1D70011C144C70F7DFF1A4
:014389002211
:10276200EFD3940740037FFF221219E2FED39403B2
:1027720040037FFF22EF7041EE700B9000011219AF
:10278200FBF4529352941219E2B4010B900001121D
:1027920019FB4293F452941219E2FEB4020A900019
:1027A200011219FB42934294EEB4030D9000011200
:1027B20019FBFEF45293EE4294EF64017043121936
:1027C200E2FE700B9000011219FBF452915292EE4C
:1027D200B4010B9000011219FB4291F452921219AA
:1027E200E2B4020A9000011219FB429142921219BC
:1027F200E2B4030D9000011219FBFEF45291EE4275
:1028020092EF640270431219E2FE700B9000011203
:1028120019FBF452955296EEB4010B900001121975
:10282200FB4295F452961219E2B4020A9000011288
:1028320019FB429542961219E2B4030D900001125F
:1028420019FBFEF45295EE4296EF6403704312199F
:10285200E2FE700B9000011219FBF452B152B2EE7B
:10286200B4010B9000011219FB42B1F452B21219D9
:10287200E2B4020A9000011219FB42B142B21219EB
:10288200E2B4030D9000011219FBFEF452B1EE42C4
:10289200B2EF640470431219E2FE700B9000011251
:1028A20019FBF452B352B4EEB4010B9000011219A9
:1028B200FB42B3F452B41219E2B4020A90000112BC
:1028C20019FB42B342B41219E2B4030D9000011293
:1028D20019FBFEF452B3EE42B4EF640570431219D1
:1028E200E2FE700B9000011219FBF452C952CAEEBB
:1028F200B4010B9000011219FB42C9F452CA121919
:10290200E2B4020A9000011219FB42C942CA12192A
:10291200E2B4030D9000011219FBFEF452C9EE421B
:10292200CAEF640670431219E2FE700B90000112A6
:1029320019FBF452CB52CCEEB4010B9000011219E8
:10294200FB42CBF452CC1219E2B4020A90000112FB
:1029520019FB42CB42CC1219E2B4030D90000112D2
:1029620019FBFEF452CBEE42CCEF6407704312190E
:10297200E2FF700B9000011219FBF452E152E2EFF8
:10298200B4010B9000011219FB42E1F452E2121958
:10299200E2B4020A9000011219FB42E142E212196A
:1029A200E2B4030D9000011219FBFFF452E1EF4271
:0429B200E27F00229E
:1034AB009000021219FB6401702A90FE80E04440E8
:1034BB00F090FE82E4F01219E2543FFF90FE80E0A0
:1034CB0054C04FF09000031219FB90FE88B4010218
:1034DB008031802990FE80E054BFF090FE84E4F0B0
:1034EB009000041219FB25E0FF90FE85E054014F7C
:1034FB00F09000051219FB90FE85B40106E054FE16
:10350B00F08004E04401F09000011219FB90FE8062
:0C351B007005E0547FF022E04480F022B4
:0844810090FE82E05480FF224E
:0C44280090FE82E030E6F9E054BFF02284
:0944660090FE817401F00244286B
:0E43F30090FE86EFF090FE817402F0024428E6
:0E4269001244661243F3124277AF051243F37C
:0942770090FE817403F00244285A
:0F438A0090FE817404F012442890FE87E0FF2219
:0E44010090FE82E4F090FE817405F0024428E3
:0F43990090FE827401F090FE817405F0024428BA
:09446F0090FE817406F00244285D
:0D00460090FE86EDF090FE81EFF002442860
:10401000900355EBF0A3EAF0A3E9F0124269900394
:1040200055E0FBA3E475F001121AC3A9F0FA1219C6
:10403000E2FF1243F3124277900358E014F070DE6F
:0340400002446FC8
:103C9600AE07124269124466EE4401FF1243F31264
:103CA600427712438AEF121A28740129F9E43AFA84
:103CB60090035EE06401600312440190035EE01429
:093CC600F070DF12439902446F13
:0300C300023115F2
:10311500C0E0C083C082C0D075D000C006C0079093
:10312500FE84E030E607E054BFF00231B890FE843B
:10313500E030E53BE054DFF0900360E06004E4F04C
:10314500807190035FE0600DE4F090FE87E09003EE
:1031550061F0E0803790FE87E0FF900361E0FE04B8
:10316500F0743B2EF582E43403F583EFF080449050
:10317500FE84E030E426E054EFF0E030E10890FE14
:103185008674FFF0802D900361E004F0243BF58206
:10319500E43403F583E090FE86F0801790FE84E02A
:1031A50030E310E054F7F09003607401F090035F92
:1031B500F0D209D007D006D0D0D082D083D0E0326B
:103AD600EFD3940140037FFF22EDD3940340037F8D
:103AE600FF22EF7004C2A98002D2A9ED700553B778
:103AF600FDC2B9EDB4010553B7FDD2B9EDB4020567
:103B060043B702C2B9EDB4030543B702D2B97F0089
:013B1600228C
:103B1700EFD3940140037FFF22EDD3940340037F4B
:103B2700FF22EF7004C2AB8002D2ABED700553B732
:103B3700F7C2BBEDB4010553B7F7D2BBEDB402052D
:103B470043B708C2BBEDB4030543B708D2BB7F0038
:013B5700224B
:1041A100EFD3940140037FFF22EDD3940340037FBB
:1041B100FF22EF25E025E0FFE5AF54FB4FF5AFE42B
:0241C100FF22DB
:1041C300EFD3940140037FFF22EDD3940340037F99
:1041D300FF22EFC43354E0FFE5AF54DF4FF5AFE404
:0241E300FF22B9
:10417E00EFD3940140037FFF22EDD3940340037FDE
:10418E00FF22EFC4333354C0FFE5AF54BF4FF5AF3A
:03419E00E4FF2219
:103B5800EFD3940140037FFF22EDD3940340037F0A
:103B6800FF22EF7004C2A88002D2A8ED700553B7F7
:103B7800FEC2B8EDB4010553B7FED2B8EDB40205E4
:103B880043B701C2B8EDB4030543B701D2B87F000B
:013B9800220A
:103B9900EFD3940140037FFF22EDD3940340037FC9
:103BA900FF22EF7004C2AA8002D2AAED700553B7B2
:103BB900FBC2BAEDB4010553B7FBD2BAEDB40205A5
:103BC90043B704C2BAEDB4030543B704D2BA7F00C0
:013BD90022C9
:10425100EFD3940140037FFF22EFC454F0FFE58FB9
:0842610054EF4FF58FE4FF223A
:10423800EFD3940140037FFF22EFC43354E0FFE53E
:094248008F54DF4FF58FE4FF22D3
:10421E00EFD3940140037FFF22EFC4333354C0FF2A
:0A422E00E58F54BF4FF58FE4FF2227
:103BDA00EFD3940140037FFF22EDD3940340037F88
:103BEA00FF22EF7004C2AD8002D2ADED700553B76B
:103BFA00DFC2BDEDB4010553B7DFD2BDEDB4020596
:103C0A0043B720C2BDEDB4030543B720D2BD7F0040
:013C1A002287
:1038A100EDD3940340037FFF22EF30E10543E6208F
:1038B100800353E6DFEF30E00543E610800353E673
:1038C100EFED700653B6DF53B5DFEDB4010653B625
:1038D100DF43B520EDB4020643B62053B5DFEDB4A6
:0B38E100030643B62043B5207F002201
:10360F00EFD3940140037FFF22EBD3940340037F5A
:10361F00FF22EFB40112ED90FE817006E0547FF0AF
:10362F008011E04480F0800BEF700890FE83E0542F
:10363F00874DF0EB700653B6DF53B5DFEBB40106E1
:10364F0053B6DF43B520EBB4020643B62053B5DFC4
:0D365F00EBB4030643B62043B5207F0022E4
:103C1B00EFD3940140037FFF22EDD3940340037F46
:103C2B00FF22EF7004C2AC8002D2ACED700553B72B
:103C3B00EFC2BCEDB4010553B7EFD2BCEDB4020536
:103C4B0043B710C2BCEDB4030543B710D2BC7F0021
:013C5B002246
:103A9300EFD3940140037FFF22EDD3940340037FD0
:103AA300FF22E5AF54FE4FF5AFED700653B6FE535C
:103AB300B5FEEDB4010653B6FE43B501EDB40206FF
:103AC30043B60153B5FEEDB4030643B60143B50156
:033AD3007F00224F
:1038EC00EFD3940140037FFF22EDD3940340037F79
:1038FC00FF22EF33333354F8FFE5AF54F74FF5AFF6
:10390C00ED700653EEFE53DFFEEDB4010653EEFEF2
:10391C0043DF01EDB4020643EE0153DFFEEDB403C9
:0A392C000643EE0143DF017F002295
:10393600EFD3940140037FFF22EDD3940340037F2E
:10394600FF22EFC454F0FFE5AF54EF4FF5AFED7033
:103956000653EEFD53DFFDEDB4010653EEFD43DFE6
:1039660002EDB4020643EE0253DFFDEDB403064357
:08397600EE0243DF027F002294
:10397E00EFD3940140037FFF22EDD3940340037FE6
:10398E00FF22EF25E0FFE5AF54FD4FF5AFED7006DA
:10399E0053B6FD53B5FDEDB4010653B6FD43B50266
:1039AE00EDB4020643B60253B5FDEDB4030643B6BD
:0739BE000243B5027F002265
:10342C00EFD3948140037FFF22EBD3940340037FBF
:10343C00FF22EF247F603204705D90FEC4EDF0EB50
:10344C00700653B6FB53B5FBEBB4010653B6FB4306
:10345C00B504EBB4020643B60453B5FBEB6403703E
:10346C003B43B60443B504803390FEE4EDF0EB70BF
:10347C000653B6F753B5F7EBB4010653B6F743B59D
:10348C0008EBB4020643B60853B5F7EBB4030D438F
:0F349C00B60843B508800590FEE4EDF07F0022EE
:103C5C00EDD394035029ED700653EEFB53DFFBEDCF
:103C6C00B4010653EEFB43DF04EDB4020643EE044D
:103C7C0053DFFBEDB4030B43EE0443DF0480037FFF
:0A3C8C00FF2290FE62EFF07F00229D
:103CCF0090FA10E054F0F0EDD39403500BE0FEEDBA
:103CDF0025E025E0FDEE4DF0EBD39403500690FA6E
:103CEF0010E04BF0EF90FA10B40106E04480F08042
:083CFF0004E0547FF07F002275
:103D070090FA00E054F0F0EDD39403500BE0FEED91
:103D170025E025E0FDEE4DF0EBD39403500690FA35
:103D270000E04BF0EF90FA00B40106E04480F08029
:083D370004E0547FF07F00223C
:103D3F0090FA20E054F0F0EDD39403500BE0FEED39
:103D4F0025E025E0FDEE4DF0EBD39403500690FAFD
:103D5F0020E04BF0EF90FA20B40106E04480F080B1
:083D6F0004E0547FF07F002204
:103D770090FA30E054F0F0EDD39403500BE0FEEDF1
:103D870025E025E0FDEE4DF0EBD39403500690FAC5
:103D970030E04BF0EF90FA30B40106E04480F08059
:083DA70004E0547FF07F0022CC
:103DAF0090FA38E054F0F0EDD39403500BE0FEEDB1
:103DBF0025E025E0FDEE4DF0EBD39403500690FA8D
:103DCF0038E04BF0EF90FA38B40106E04480F08011
:083DDF0004E0547FF07F002294
:103DE70090FA40E054F0F0EDD39403500BE0FEED71
:103DF70025E025E0FDEE4DF0EBD39403500690FA55
:103E070040E04BF0EF90FA40B40106E04480F080C8
:083E170004E0547FF07F00225B
:103E1F0090FA48E054F0F0EDD39403500BE0FEED30
:103E2F0025E025E0FDEE4DF0EBD39403500690FA1C
:103E3F0048E04BF0EF90FA48B40106E04480F08080
:083E4F0004E0547FF07F002223
:103E570090FA50E054F0F0EDD39403500BE0FEEDF0
:103E670025E025E0FDEE4DF0EBD39403500690FAE4
:103E770050E04BF0EF90FA50B40106E04480F08038
:083E870004E0547FF07F0022EB
:103E8F0090FA58E054F0F0EDD39403500BE0FEEDB0
:103E9F0025E025E0FDEE4DF0EBD39403500690FAAC
:103EAF0058E04BF0EF90FA58B40106E04480F080F0
:083EBF0004E0547FF07F0022B3
:103EC70090FA60E054F0F0EDD39403500BE0FEED70
:103ED70025E025E0FDEE4DF0EBD39403500690FA74
:103EE70060E04BF0EF90FA60B40106E04480F080A8
:083EF70004E0547FF07F00227B
:103EFF0090FA68E054F0F0EDD39403500BE0FEED30
:103F0F0025E025E0FDEE4DF0EBD39403500690FA3B
:103F1F0068E04BF0EF90FA68B40106E04480F0805F
:083F2F0004E0547FF07F002242
:103F370090FA70E054F0F0EDD39403500BE0FEEDEF
:103F470025E025E0FDEE4DF0EBD39403500690FA03
:103F570070E04BF0EF90FA70B40106E04480F08017
:083F670004E0547FF07F00220A
:1041050090FE50E054CFF0EDD39403500AE0FEED5D
:10411500C454F0FDEE4DF0EF90FE50B40106E044BE
:0B41250080F08004E0547FF07F002257
:101D8400AD07ED6401707A90FECCE054FEF0E054AF
:101D9400FBF090FEC8E054FCF01219E2FF90FEC87C
:101DA400E0548F4FF09000061219FBFF90FECC30E8
:101DB400E00DE04401F090FEB1E04401F0800BE05E
:101DC40054FEF090FEB1E054FEF0EF90FECC30E112
:101DD4000DE04404F090FEB1E04402F0800BE054C6
:101DE400FBF090FEB1E054FDF0900003121B04E5FB
:101DF400F090FED5F0900003121B0490FED6022151
:101E04003EED6402707A90FECCE054EFF0E054BFF3
:101E1400F090FEC9E054FCF01219E2FF90FEC9E014
:101E2400548F4FF09000061219FBFF90FECC30E265
:101E34000DE04410F090FEB1E04404F0800BE05457
:101E4400EFF090FEB1E054FBF0EF90FECC30E30DE8
:101E5400E04440F090FEB1E04408F0800BE054BF51
:101E6400F090FEB1E054F7F0900003121B04E5F08B
:101E740090FED7F0900003121B0490FED802213E7E
:101E8400ED6403707A90FECDE054FEF0E054FBF074
:101E940090FECAE054FCF01219E2FF90FECAE0542E
:101EA4008F4FF09000061219FBFF90FECD30E40D29
:101EB400E04401F090FEB1E04410F0800BE054FEE9
:101EC400F090FEB1E054EFF0EF90FECD30E50DE080
:101ED4004404F090FEB1E04420F0800BE054FBF0A9
:101EE40090FEB1E054DFF0900003121B04E5F09083
:101EF400FED9F0900003121B0490FEDA02213EED9D
:101F04006404707A90FECDE054EFF0E054BFF0909A
:101F1400FECBE054FCF01219E2FF90FECBE0548FAC
:101F24004FF09000061219FBFF90FECD30E60DE055
:101F34004410F090FEB1E04440F0800BE054EFF028
:101F440090FEB1E054BFF0EF90FECD30E70DE044D9
:101F540040F090FEB1E04480F0800BE054BFF0907C
:101F6400FEB1E0547FF0900003121B04E5F090FEF4
:101F7400DBF0900003121B0490FEDC02213EED64B2
:101F840080704F9000051219FB90FEDEF090000166
:101F9400121B04E5F090FED2F0900001121B049095
:101FA400FED3F09000081219FB90FEDDB40106E0A8
:101FB4004480F08004E0547FF09000071219FB90F5
:101FC400FEC0B40106E04401F08004E054FEF07F5A
:101FD4000022ED6405705690FEECE054FEF090FE95
:101FE400E8E054FCF01219E2FF90FEE8E0548F4F51
:101FF400F09000061219FB90FEEC30E00DE0440175
:10200400F090FEB5E04401F0800BE054FEF090FE49
:10201400B5E054FEF0900003121B04E5F090FEF5C9
:10202400F0900003121B0490FEF602213EED6406BC
:10203400705690FEECE054EFF090FEE9E054FCF0B2
:102044001219E2FF90FEE9E0548F4FF0900006125F
:1020540019FB90FEEC30E20DE04410F090FEB5E088
:102064004404F0800BE054EFF090FEB5E054FBF034
:10207400900003121B04E5F090FEF7F090000312A9
:102084001B0490FEF802213EED6407705590FEEDAE
:10209400E054FEF090FEEAE054FCF01219E2FF90E6
:1020A400FEEAE0548F4FF09000061219FB90FEED0B
:1020B40030E40DE04401F090FEB5E04410F0800BF4
:1020C400E054FEF090FEB5E054EFF0900003121BD4
:1020D40004E5F090FEF9F0900003121B0490FEFA60
:1020E4008058ED6408705790FEEDE054EFF090FED8
:1020F400EBE054FCF01219E2FF90FEEBE0548F4F3A
:10210400F09000061219FB90FEED30E60DE044104D
:10211400F090FEB5E04440F0800BE054EFF090FE08
:10212400B5E054BFF0900003121B04E5F090FEFBF1
:10213400F0900003121B0490FEFCF07F0022ED647B
:1021440081704C9000051219FB90FEFEF090000186
:10215400121B04FDACF0EC90FEF2F0AF05A3EFF01F
:102164009000081219FB90FEFDB40106E04480F0D3
:102174008004E0547FF09000071219FB90FEE0B455
:102184000106E04401F08004E054FEF07F00227F69
:02219400FF2228
:102B3900EF24807003022BF4147003022C392480D3
:102B4900B408004003022C85902B5F75F003A4C5DF
:102B59008325F0C58373022B77022B84022B940201
:102B69002BA4022BB4022BC4022BD4022BE4121A7D
:102B7900D9FDACF0EC90FED5022C7F900002121B1F
:102B890004FDACF0EC90FED7022C7F900004121BE0
:102B990004FDACF0EC90FED9022C7F900006121BCC
:102BA90004FDACF0EC90FEDB022C7F900008121BB8
:102BB90004FDACF0EC90FEF5022C7F90000A121B8C
:102BC90004FDACF0EC90FEF7022C7F90000C121B78
:102BD90004FDACF0EC90FEF9022C7F90000E121B64
:102BE90004FDACF0EC90FEFB022C7F121AD9FDAC6F
:102BF900F0EC90FED5F0AF05A3EFF0900002121BA8
:102C090004FDACF0EC90FED7F0AF05A3EFF0900017
:102C190004121B04FDACF0EC90FED9F0AF05A3EF54
:102C2900F0900006121B04FDACF0EC90FEDB804630
:102C3900900008121B04FDACF0EC90FEF5F0AF0516
:102C4900A3EFF090000A121B04FDACF0EC90FEF724
:102C5900F0AF05A3EFF090000C121B04FDACF0ECF3
:102C690090FEF9F0AF05A3EFF090000E121B04FDE2
:0D2C7900ACF0EC90FEFBF0AF05A3EFF022F5
:1024FB00AD07ED7079C28C1219E2FED39403400341
:10250B007FFF22E58954FC4EF5899000011219FBDF
:10251B00FED3940240037FFF22EE7006538E7F534F
:10252B0089FB9000011219FBB40106438E8053897D
:10253B00FB9000011219FBB40203438904900002C3
:10254B001219FBFFE58F54FE4FF58F900003121B02
:10255B0004E5F0F58C900003121B04F58A9000063D
:10256B001219FB7004C28C8002D28C7F0022ED64A6
:10257B00016003022601C28E1219E2FED3940340BE
:10258B00037FFF22EEC454F0FFE58954CF4FF5894A
:10259B009000011219FBFED3940240037FFF22EE41
:1025AB007006538EBF5389BF9000011219FBB40103
:1025BB0006438E405389BF9000011219FBB40203EE
:1025CB004389409000021219FB25E0FFE58F54FD73
:1025DB004FF58F900003121B04E5F0F58D9000036F
:1025EB00121B04F58B9000061219FB7004C28E802F
:1025FB0002D28E7F0022ED64027065538EEF900045
:10260B00011219FBFF7006538EFB538EF7EFB401CB
:10261B0006438E04538EF7EFB40203438E089000EB
:10262B00021219FB25E025E0FFE58F54FB4FF58FD8
:10263B00900003121B04E5F0F5D6900003121B0467
:10264B00F5D79000051219FB90FEA2F09000061230
:10265B0019FBC454F0FFE58E54EF4FF58E7F00222B
:10266B00ED6403707253D1F79000011219FBFED386
:10267B00940240037FFF22EE700653D1FD53D1FB32
:10268B009000011219FBB4010643D10253D1FB9008
:10269B0000011219FBB4020343D10490000212197A
:1026AB00FBFFE5D154FE4FF5D1900003121B04E55F
:1026BB00F0F5D4900003121B04F5D5900005121908
:1026CB00FB90FEA3F09000061219FB33333354F842
:1026DB00FFE5D154F78077ED6404707853D17F9088
:1026EB0000011219FBFED3940240037FFF22EE7010
:1026FB000653D1DF53D1BF9000011219FBB4010671
:10270B0043D12053D1BF9000011219FBB4020343F4
:10271B00D1409000021219FBC454F0FFE5D154EFE5
:10272B004FF5D1900003121B04FDACF0ECF5D2AFCA
:10273B00058FD39000051219FB90FEA4F0900006B4
:10274B001219FBC43333335480FFE5D1547F4FF55B
:07275B00D17F00227FFF2265
:03000B0002001ED2
:03001E00B2EF320C
:03001B00020026BA
:03002600B2EE3205
:0300630002005642
:03005600B2ED32D6
:03009B0002005E02
:03005E00B2EC32CF
:0300A300020086D2
:03008600B2EB32A8
:10127700900308EBF0A3EAF0A3E9F0900307EFF07F
:1012870064016003021455900000F0A3F0A3F0A3DB
:10129700F0A3F090030BF0A3F090030BE0FEA3E0A4
:1012A700FFC39480EE9400501C74542FF582740190
:1012B7003EF583E4F090030CE004F070DC90030B40
:1012C700E004F080D4E490030BF0A3F090030BE06C
:1012D700FEA3E0FFC39480EE9400501C74142FF516
:1012E7008274003EF583E4F090030CE004F070DCB8
:1012F70090030BE004F080D4900308E0FBA3E0FA2E
:10130700A3E0F91219E2FFE598543F4FF598EF640F
:10131700C06008EF64406003021400900002121CD2
:10132700857F807E8D7D5B7C00121BCF90030D1225
:101337001CB5E4FFFE7D01FC90030DE0F8A3E0F986
:10134700A3E0FAA3E0FBC3121C6140037FFF2290D6
:10135700030DE0F8A3E0F9A3E0FAA3E0FBC3E49BE5
:10136700FFE49AFE740199FDE498FC90030D121CAA
:10137700B5900308E0FBA3E0FAA3E0F9900001129F
:1013870019FBFB64017038C28E538EFE5389BF531D
:1013970089CF438E4090030DE0FCA3E0FDA3E0FE60
:1013A700A3E0FF7808121C728F8D90030DA3A3A3EF
:1013B700E0F58BC2AB5389BF538FFDD28E8073EBA1
:1013C70064027032538EEF438E01538EF7438E04BF
:1013D70090030DE0FCA3E0FDA3E0FEA3E0FF780887
:1013E700121C728FD690030DA3A3A3E0F5D753AFBA
:1013F700FB438E10803C7FFF22900308E0FBA3E0B5
:10140700FAA3E0F91219E2FF70139000081219FB12
:10141700B40105438E20801A538EDF8015EFB48008
:10142700119000081219FBB401054387808003530C
:10143700877F900308E0FBA3E0FAA3E0F990000799
:101447001219FB7004C29C8002D29C7F0022900379
:1014570007E06402600302159F900005F0A3F0A364
:10146700F0A3F0A3F090030BF0A3F090030BE0FEC2
:10147700A3E0FFC39480EE9400501C74F42FF58210
:1014870074013EF583E4F090030CE004F070DC9007
:10149700030BE004F080D4E490030BF0A3F0900377
:1014A7000BE0FEA3E0FFC39480EE9400501C7494FD
:1014B7002FF58274003EF583E4F090030CE004F00E
:1014C70070DC90030BE004F080D4900308E0FBA3EA
:1014D700E0FAA3E0F91219E2FF64C06008EF644084
:1014E700600302157DEFB4C005439A808003539AC9
:1014F7007F900002121C857F807E8D7D5B7C0012B1
:101507001BCF90030D121CB5E4FFFE7D01FC900379
:101517000DE0F8A3E0F9A3E0FAA3E0FBC3121C6116
:1015270040037FFF2290030DE0F8A3E0F9A3E0FA60
:10153700A3E0FBC3E49BFFE49AFE740199FDE498E2
:10154700FC90030D121CB5538EEF538EF7438E0498
:1015570090030DE0FCA3E0FDA3E0FEA3E0FF780805
:10156700121C728FD690030DA3A3A3E0F5D753AF38
:10157700FB438E1080037FFF22900308E0FBA3E06C
:10158700FAA3E0F99000071219FBC454F0FFE59A9B
:1015970054EF4FF59A7F0022900307E0640360033E
:1015A70002173390000AF0A3F0A3F0A3F0A3F09082
:1015B700030BF0A3F090030BE0FEA3E0FFC39440FE
:1015C700EE9400501C74742FF58274023EF583E488
:1015D700F090030CE004F070DC90030BE004F08063
:1015E700D4E490030BF0A3F090030BE0FEA3E0FF1D
:1015F700C39440EE9400501C74142FF58274013E7E
:10160700F583E4F090030CE004F070DC90030BE04A
:1016170004F080D4900308E0FBA3E0FAA3E0F912FA
:1016270019E2FF64C06008EF64406003021711EF1E
:10163700B4C00543AC80800353AC7F900002121CFA
:10164700857F807E8D7D5B7C00121BCF90030D1202
:101657001CB5E4FFFE7D01FC90030DE0F8A3E0F963
:10166700A3E0FAA3E0FBC3121C6140037FFF2290B3
:10167700030DE0F8A3E0F9A3E0FAA3E0FBC3E49BC2
:10168700FFE49AFE740199FDE498FC90030D121C87
:10169700B5900308E0FBA3E0FAA3E0F9900001127C
:1016A70019FBFB6403702943AC4090030DE0FCA3D6
:1016B700E0FDA3E0FEA3E0FF7808121C728FD49030
:1016C700030DA3A3A3E0F5D553D1F043D10A803D81
:1016D700EB64027032538EEF53ACBF538EF7438ED9
:1016E7000490030DE0FCA3E0FDA3E0FEA3E0FF7878
:1016F70008121C728FD690030DA3A3A3E0F5D7534E
:10170700AFFB438E1080067FFF227FFF22900308E6
:10171700E0FBA3E0FAA3E0F99000071219FBC45419
:10172700F0FFE5AC54EF4FF5AC7F0022900307E0E4
:10173700640460030218C790000FF0A3F0A3F0A39E
:10174700F0A3F090030BF0A3F090030BE0FEA3E0EF
:10175700FFC39420EE9400501C74B42FF5827402DA
:101767003EF583E4F090030CE004F070DC90030B8B
:10177700E004F080D4E490030BF0A3F090030BE0B7
:10178700FEA3E0FFC39420EE9400501C74D42FF501
:101797008274013EF583E4F090030CE004F070DC02
:1017A70090030BE004F080D4900308E0FBA3E0FA79
:1017B700A3E0F91219E2FF64C06008EF6440600318
:1017C7000218A5EFB4C005438480800353847F903B
:1017D7000002121C857F807E8D7D5B7C00121BCFF3
:1017E70090030D121CB5E4FFFE7D01FC90030DE094
:1017F700F8A3E0F9A3E0FAA3E0FBC3121C614003DE
:101807007FFF2290030DE0F8A3E0F9A3E0FAA3E03D
:10181700FBC3E49BFFE49AFE740199FDE498FC90F6
:10182700030D121CB5900308E0FBA3E0FAA3E0F94F
:101837009000011219FBFB64047029438440900354
:101847000DE0FCA3E0FDA3E0FEA3E0FF7808121C77
:10185700728FD290030DA3A3A3E0F5D353D10F4307
:10186700D1A0803DEB64027032538EEF5384BF5397
:101877008EF7438E0490030DE0FCA3E0FDA3E0FE8A
:10188700A3E0FF7808121C728FD690030DA3A3A3C1
:10189700E0F5D753AFFB438E1080067FFF227FFF13
:1018A70022900308E0FBA3E0FAA3E0F990000712F7
:1018B70019FBC454F0FFE58454EF4FF5847F0022F1
:0218C7007FFFA1
:0118C90022FC
:0F43A8008F999000027401F0900002E070FA22E9
:1042AC001219E2FF600C1243A8740129F9E43AFADE
:0342BC0080EE226F
:0F43B7008F9B9000077401F0900007E070FA22CE
:1042BF001219E2FF600C1243B7740129F9E43AFABC
:0342CF0080EE225C
:0F43C6008FAD90000C7401F090000CE070FA22A3
:1042D2001219E2FF600C1243C6740129F9E43AFA9A
:0342E20080EE2249
:0F43D5008F859000117401F0900011E070FA22B2
:1042E5001219E2FF600C1243D5740129F9E43AFA78
:0342F50080EE2236
:05000E00AE070243A84B
:0300230002380997
:10380900C0E0C083C082C0D075D000C007309827FF
:10381900C298900003E0C394804002E4F090000352
:10382900E0FF04F074142FF582E43400F583E59980
:10383900F09000047405F0309907C299900002E4F1
:0C384900F0D007D0D0D082D083D0E03285
:030043000236C1C1
:1036C100C0E0C083C082C0D075D000C007E59A3089
:1036D100E028539AFE900008E0C394804002E4F091
:1036E100900008E0FF04F074942FF582E43400F5B3
:1036F10083E59BF09000097405F0E59A30E10853E9
:103701009AFD900007E4F0D007D0D0D082D083D0CA
:02371100E032A4
:03008B0002371326
:10371300C0E0C083C082C0D075D000C007E5AC3024
:10372300E02853ACFE90000DE0C394404002E4F067
:1037330090000DE0FF04F074142FF582E43401F5DA
:1037430083E5ADF090000E7405F0E5AC30E108536D
:10375300ACFD90000CE4F0D007D0D0D082D083D061
:02376300E03252
:03009300023765CC
:10376500C0E0C083C082C0D075D000C007E58430FA
:10377500E0285384FE900012E0C394204002E4F058
:10378500900012E0FF04F074D42FF582E43401F5C3
:1037950083E585F09000137405F0E58430E1085366
:1037A50084FD900011E4F0D007D0D0D082D083D032
:0237B500E03200
:104357000000000000000000000000000000808056
:02436700808054
:104280009002FF740CF09002FE7402F07B017A023F
:0742900079FE7F03022762A3
:0644910043BA80024280E4
:102D820078067C037D017BFF7A4379577E007F07BB
:102D920012199A900305E0FF75F00A84C454F0FEFC
:102DA200EF75F00A84E5F04EA3F0900304E0FF759E
:102DB200F00A84C454F0FEEF75F00A84E5F04E90F8
:102DC2000307F0900303E0FF75F00A84C454F0FE99
:102DD200EF75F00A84E5F04E900308F0900302E0EC
:102DE200FF75F00A84C454F0FEEF75F00A84E5F032
:102DF2004E900309F0900301E090030AF09002FE66
:102E0200E0FAA3E0FBC39434EA940840047F018013
:102E1200027F00900300E0FE75F00A84C454F0FDC6
:102E2200EFC433333354804DFFEE75F00A84E5F07E
:102E32004F90030BF07C007D64AF03AE02121A6E5A
:102E42007E007F0ACFCDCFCECCCE121A6EEFC45405
:102E5200F0FB9002FEE0FEA3E0FF7C007D0A121A66
:102E62006EEB4D90030CF07B017A0379069003160A
:0A2E72007407F07D027FA2023F6F9B
:0B2E7C009002FEEBF0A3EAF0A3E9F0E7
:102E870078017C037D017BFF7A43795E7E007F07B3
:102E970012199A7B017A03790190030D7407F07D6B
:102EA700027FA21237B7900301E0FFC4540775F001
:102EB7000AA4FEEF540F2EFF9002FEE0FBA3E0FAF8
:102EC700A3E0F9900007EF121A3A900302E0FFC45B
:102ED700540775F00AA4FEEF540F2E900006121A3D
:102EE7003A900303E0FFC4540375F00AA4FEEF54BD
:102EF7000F2E900005121A3A900304E0FFC4540302
:102F070075F00AA4FEEF540F2E900004121A3A909F
:102F17000305E0900003121A3A900306E0FFC45439
:102F27000175F00AA4FEEF540F2E900002121A3A10
:102F3700900307E0C4540F75F00AA4FFE0540F7C18
:102F4700002FFFEC35F08FF0121B74900306E0544E
:102F57008070067E077FD080047E087F349002FE53
:0E2F6700E0FBA3E0FAA3E0F9EE8FF0021B3CC2
:1031C50078477C037D017BFF7A4379657E007F0428
:1031D50012199A900343E0C364809480401BE0FF7A
:1031E50075F00A1219C0C454E0FEEF75F00A121901
:1031F500C0AFF0EF4E900347F0900344E0C3648006
:103205009480401BE0FF75F00A1219C0C454E0FE1B
:10321500EF75F00A1219C0AFF0EF4E900348F09029
:103225000345E0C364809480401BE0FF75F00A12FB
:1032350019C0C454E0FEEF75F00A1219C0AFF0EFE3
:103245004E900349F0900346E0FFC36480948040AC
:1032550007EF54EF90034AF07B017A037947900317
:0B326500167404F07D097FA2023F6F89
:053A0B00900364EFF0E0
:103A10007B017A03796590030D7401F0FD7FA2129A
:103A200037B7900365E054F7F0900364E06007A3B4
:103A3000E04402F08007900365E054FDF07B017ADA
:0F3A40000379659003167401F0FD7FA2023F6FBA
:053FA600900366EDF040
:103FAB00EF4480A3F07B017A0379679003167401C9
:103FBB00F07D0E7FA2123F6F900366E0A3F07B01B2
:103FCB007A0379679003167401F07D0F7FA2023F8D
:013FDB006F76
:053A4F00900368EFF098
:103A54007B017A03796990030D7401F0FD7FA21252
:103A640037B7900369E054FBF0900368E06007A364
:103A7400E04401F08007900369E054FEF07B017A92
:0F3A84000379699003167401F0FD7FA2023F6F72
:103855007B017A03796B90030D7401F0FD7FA21251
:1038650037B790036BE0FF131313541F30E00A12B0
:10387500445490036BE054F7F090036BE030E20A98
:1038850012445D90036BE054FBF07B017A03796B86
:0C3895009003167401F0FD7FA2023F6F4B
:10404300EFD3940140037FFF22EF7010C28912194E
:10405300E27004C2888002D2887F0022EFB401108C
:10406300C28B1219E27004C28A8002D28A7F0022B4
:034073007FFF22AA
:030003000242F8BE
:1042F800C0E0C083C08290036C7401F0D082D08388
:03430800D0E032D0
:0300130002430B9A
:10430B00C0E0C083C08290036C7402F0D082D08373
:03431B00D0E032BD
:0300530002431E47
:10431E00C0E0C083C08290036C7403F0D082D0835F
:03432E00D0E032AA
:03005B000243312C
:10433100C0E0C083C08290036C7404F0D082D0834B
:03434100D0E03297
:03008300024344F1
:10434400C0E0C083C08290036C7405F0D082D08337
:03435400D0E03284
:1000C6000000000000000000002F000000000700F4
:1000D600070000147F147F1400242A7F2A1200626E
:1000E600640813230036495522500000050300001A
:1000F60000001C224100000041221C000014083EA2
:1001060008140008083E0808000000A06000000867
:1001160008080808000060600000002010080402BB
:10012600003E5149453E0000427F40000042615179
:100136004946002141454B31001814127F10002713
:1001460045454539003C4A494930000171090503D6
:1001560000364949493600064949291E0000363607
:10016600000000005636000000081422410000146A
:100176001414141400004122140800020151090647
:1001860000324959513E007C1211127C007F4949C8
:100196004936003E41414122007F4141221C007FF9
:1001A60049494941007F09090901003E4149497A07
:1001B600007F0808087F0000417F41000020404181
:1001C6003F01007F08142241007F40404040007FED
:1001D600020C027F007F0408107F003E4141413E31
:1001E600007F09090906003E4151215E007F091979
:1001F60029460046494949310001017F0101003F76
:100206004040403F001F2040201F003F4038403FF5
:100216000063140814630007087008070061514959
:10022600454300007F41410000552A552A550000EC
:1002360041417F000004020102040040404040406A
:10024600000001020400002054545478007F484402
:10025600443800384444442000384444487F003839
:100266005454541800087E0901020018A4A4A47C62
:10027600007F080404780000447D4000004080842C
:100286007D00007F102844000000417F4000007C74
:1002960004180478007C0804047800384444443880
:1002A60000FC242424180018242418FC007C0804CC
:1002B600040800485454542000043F444020003CA5
:1002C6004040207C001C2040201C003C4030403C2C
:1002D600004428102844001CA0A0A07C00446454BC
:1002E6004C44141414141414000000000000000000
:1002F6000000000000000000000000F80000000000
:10030600000000333000000000100C06100C060040
:10031600000000000000000040C07840C0784000A7
:10032600043F04043F040400007088FC0830000009
:10033600001820FF211E0000F008F000E018000061
:1003460000211C031E211E0000F00888700000001A
:100356001E2123241927211010160E00000000006C
:100366000000000000000000000000E01804020089
:10037600000000071820400000020418E0000000FA
:100386000040201807000000404080F080404000F8
:100396000202010F01020200000000F0000000004E
:1003A6000101011F01010100000000000000000022
:1003B60080B0700000000000000000000000000097
:1003C6000001010101010101000000000000000020
:1003D60000303000000000000000000080601804BB
:1003E600006018060100000000E010080810E00098
:1003F600000F102020100F00001010F80000000061
:100406000020203F202000000070080808887000A7
:100416000030282422213000003008888848300027
:100426000018202020110E000000C02010F8000047
:1004360000070424243F240000F8088888080800E0
:100446000019212020110E0000E0108888180000F5
:10045600000F112020110E0000380808C8380800C7
:100466000000003F00000000007088080888700047
:10047600001C222121221C0000E010080810E000C8
:100486000000312222110F00000000C0C000000051
:100496000000003030000000000000800000000076
:1004A600000080600000000000008040201008006E
:1004B6000001020408102000404040404040400037
:1004C6000404040404040400000810204080000012
:1004D6000020100804020100007048080808F00017
:1004E6000000003036010000C030C828E810E000E7
:1004F6000718272423140B000000C038E000000072
:10050600203C23020227382008F8888888700000DB
:10051600203F202020110E00C030080808083800AF
:10052600071820202010080008F808080810E00026
:10053600203F202020100F0008F88888E8081000C7
:10054600203F20202320180008F88888E80810009B
:10055600203F200003000000C030080808380000D3
:1005660007182020221E020008F808000008F808D4
:10057600203F210101213F20000808F8080800005B
:100586000020203F2020000000000808F80808008E
:10059600C08080807F00000008F888C02818080006
:1005A600203F20012638200008F80800000000003F
:1005B600203F20202020300008F8F800F8F8080036
:1005C600203F003F003F200008F830C00008F80830
:1005D600203F200007183F00E01008080810E00040
:1005E6000F10202020100F0008F808080808F00057
:1005F600203F210101010000E01008080810E0007A
:100606000F18242438504F0008F88888888870000E
:10061600203F2000030C30200070880808083800AE
:100626000038202121221C00180808F808081800A4
:100636000000203F2000000008F808000008F80825
:10064600001F202020201F000878880000C83808D6
:10065600000007380E010000F80800F80008F8004E
:10066600033C0700073C03000818688080681808E8
:1006760020302C03032C30200838C800C838080066
:100686000000203F2000000010080808C8380800B5
:100696002038262120201800000000FE0202020059
:1006A6000000007F40404000000C30C00000000009
:1006B600000000010638C00000020202FE00000031
:1006C600004040407F0000000000040202020400D7
:1006D6000000000000000000000000000000000014
:1006E60080808080808080800002020400000000FC
:1006F60000000000000000000000808080800000F4
:100706000019242222223F2008F8008080000000E1
:10071600003F112020110E000000008080800000A4
:10072600000E112020201100000000808088F800B3
:10073600000E112020103F200000808080800000E5
:10074600001F222222221300008080F08888881849
:100756000020203F20200000000080808080800054
:10076600006B94949493600008F8008080800000E9
:10077600203F210000203F200080989800000000C4
:100786000020203F202000000000008098980000F4
:1007960000C08080807F000008F800008080800014
:1007A600203F24022D302000000808F80000000039
:1007B6000020203F202000008080808080808000F4
:1007C600203F20003F20003F808000808080000086
:1007D600203F210000203F20000080808080000014
:1007E600001F202020201F00808000808000000045
:1007F60080FFA12020110E00000000808080800074
:10080600000E112020A0FF80808080008080800064
:1008160020203F2120000100000080808080800091
:100826000033242424241900008080E08080000006
:100836000000001F20200000808000000080800053
:10084600001F202020103F208080800000808080B4
:1008560000010E3008060100808000800080808044
:100866000F300C030C300F00008080008080800069
:100876000020312E0E312000808080000080808094
:1008860080818E7018060100008080808080800044
:100896000021302C2221300000000000807C020262
:1008A60000000000003F404000000000FF00000084
:1008B60000000000FF0000000002027C8000000033
:1008C6000040403F0000000000060101020204044F
:1008D600000000000000000000003E222A3222FE36
:1008E60022322A223E0000008868090929C9090F18
:1008F60029C9090929C80800000202F282828282F7
:100906008282FE808080000008080808080808081F
:1009160008084880403F00002424A4FE2322003E0D
:1009260022222222223E0000080601FF010640493B
:1009360049497F49494941000000FC040404141553
:10094600569454341404040040300F000101014150
:10095600817F0101010503000000C05E5252525220
:100966005252525EC000000080808F404020100E20
:10097600101020204F800000008060F80740484893
:10098600E85F484848404000010000FF0000020BB5
:100996001222D20A06000000109453321E32521060
:1009A600007E4242427E0000000000FF494949495C
:1009B600494949FF0000000020A4A4A4FFA4B428CC
:1009C60084708F0808F80800040A49887E050484A4
:1009D6004020130C33408000040424B4ACA4A5A624
:1009E600A4A4A4B464040400000000FF0A0A0A0ACE
:1009F6000A4A8A7F0000000000FC0404FC205048DC
:100A06004443444850202000000F04040F00FE42D7
:100A160042424242FE00000040C0C0C0C0E0FCFFAF
:100A2600FCE0C0C0C0C04000000041393F1F1F0F9E
:080A36001F1F3F3941000000C1
:1000A6009002FEEFF07006FD7FA6123FED9002FE75
:0C00B600E0B40107E4FD7FA7123FED223B
:104130009002FEEFF0700DFD7FC8123FEDE4FD7FB1
:10414000A1123FED9002FEE0B4010EE4FD7FC0122B
:0A4150003FEDE4FD7FA0123FED22D9
:084478007F01AE071FEE70FA90
:014480002219
:0F43E400D2B3124478D2B2124478C2B2024478F3
:02415A00AD07AF
:10415C00E4FCC2B2ED30E704D2B38002C2B3124425
:10416C0078D2B2124478C2B2ED25E0FD0CECB40862
:01417C00E161
:01417D00221F
:103FDC00F583E5822FF582E5833EF583E493FF7D3F
:013FEC0001D3
:103FED00900310EFF0ED7B017A03791090031660CA
:103FFD00077401F07D4080057401F0E4FD7F7812B7
:03400D003F6F22E0
:07407600E0FFA3E0FD04F0F0
:10407D0090030FEFF0ED24B0FFE4FD123FED900340
:10408D000FE054F0C4540F4410FFE4FD123FED90C7
:0B409D00030FE0540FFFE4FD023FEDB5
:10002E00E4FD7F8D123FEDE4FD7F14123FEDE4FD04
:05003E007FAF023FED61
:10429700E4FD7F8D123FEDE4FD7F10123FEDE4FD5D
:0542A7007FAE023FEDB7
:1039C500E49002FEF09002FEE0FFC394085036EF4B
:1039D50024B0FFE4FD123FEDE4FDFF123FEDE4FDF1
:1039E5007F10123FEDE49002FFF07D01E4FF123FEE
:1039F500ED9002FFE004F0E0C3948040ED9002FEFC
:053A0500E004F080C0A8
:013A0A002299
:082C8600900305EFF0A3EDF04F
:102C8E00E4900309F0900308E0FFC313FD90030ADC
:102C9E00F0E4A3F0A3F0EFB40809A3E4F0A37406E4
:102CAE00F08031900308E0FF131313541FF5827563
:102CBE008300EF54077E0060047F0180027F00EFE7
:102CCE002582FFEE3583FE7C00121A5C90030DEE1A
:102CDE00F0A3EFF0EB24E0900309F0900305E0FF82
:102CEE00A3E0FD12407DE490030BF0A3F090030DE2
:102CFE00E0FCA3E0FD90030BE0FEA3E0FFC39DEE1E
:102D0E009C507090030AE0FD7C00121A6EED4C7020
:102D1E000E900308E064086006900305124076905A
:102D2E000308E0B4081A90030BE0FEA3E0FF900343
:102D3E0009E075F006A424C6F582E5F03400801F84
:102D4E00900308E0B4102C90030BE0FEA3E0FF907C
:102D5E000309E075F010A424EEF582E5F0340212BA
:102D6E003FDC90030CE004F0700690030BE004F0DF
:032D7E00022CFB29
:012D8100222F
:0741E50090036DEFF0A90546
:1041EC007F017E00AD0119ED600C90036DE0FD7C4C
:0641FC0000121A5C80EEC7
:014202002299
:0E2F7500900331EFF0A3EDF0A3EAF0A3EBF030
:102F8300E4900339F0A3F0900336E0B4080690030D
:102F9300397402F0E4900337F0900335E0FF9003B7
:102FA30037E0FEC39F400302304FC3EF9E14FD7F03
:102FB3000A1241E5900333E0FCA3E0FDCFCDCFCE71
:102FC300CCCE121A6E7C007D0A121A6E900338ED75
:102FD300F090033AE0703C900335E014FF90033720
:102FE300E0FEC39F502DA3E07023900336E0FCC3A3
:102FF30013FF900339E02F8EF0A4FF900331E02FED
:10300300FFA3E0FD900308ECF07B20803390033AAC
:103013007401F0900336E0FEC313FF900339E02FF1
:10302300FF900337E0FDEF8DF0A4FF900331E02F15
:10303300FFA3E0FD900338E02430FB900308EEF09B
:0C304300122C86900337E004F0022F9C52
:01304F00225E
:10359F009002FEEFF0A3EDF0A3EBF0A3EAF0A3E9A6
:0135AF00F02B
:1035B000E4900304F0900300E0FBA3E0FAA3E0F939
:1035C000900304E0F5827583001219FB60409002BD
:1035D000FEE0FFA3E0FD900304E0FE04F08E8275A0
:1035E00083001219FBFB900303E0900308F0122CF8
:1035F00086900303E0FFB408099002FEE02406F081
:0E36000080B3EFC313FF9002FEE02FF080A70F
:01360E002299
:0B32700090034BEFF0A3EDF0A3EBF098
:10327B00A3E0FF131313541FFD7C00EF54077E00D4
:10328B0060047F0180027F00EF2DFFEE3CFE900378
:10329B004EE0FD7C00121A5C900351EEF0A3EFF0B0
:1032AB00E490034FF0A3F0900351E0FCA3E0FD90FA
:1032BB00034FE0FEA3E0FFC39DEE9C504490034EF2
:1032CB00E0FD7C00121A6EED4C700690034B124021
:1032DB007690034EE0B41029A3E0FEA3E0FF900329
:1032EB004DE075F020A424DEF582E5F03408123FA2
:1032FB00DC900350E004F070AE90034FE004F080DC
:01330B00A61B
:01330C00229E
:0B330D00900326EFF0A3EDF0A3EBF01F
:10331800E490032DF0A3F0900329E0FF1313135456
:103328001FFEEF540760047F0180027F00EE2F909C
:103338000329F0E490032FF0900329E0FF90032F76
:10334800E0FEC39F5051900326E0FFA3E0FDEE2D61
:10335800FD12407DE4900330F0900328E0FF9003D5
:1033680030E0C39F502990032AE0FBA3E0FAA3E0D2
:10337800F9A3E475F001121AC385F082F5831219D6
:10338800FBFF7D01123FED900330E004F080CA900E
:07339800032FE004F080A107
:01339F00220B
:10305000E4FD7FAE123FEDE4FDFF123FEDE4FD7FA6
:1030600010123FEDE4FD7F40123FEDE4FD7F811241
:103070003FEDE4FD7FCF123FEDE4FD7FA1123FED78
:10308000E4FD7FC8123FEDE4FD7FA6123FEDE4FDB5
:103090007FA8123FEDE4FD7F3F123FEDE4FD7FD3BB
:1030A000123FEDE4FDFF123FEDE4FD7FD5123FED51
:1030B000E4FD7F80123FEDE4FD7FD9123FEDE4FD9A
:1030C0007FF1123FEDE4FD7FDA123FEDE4FD7F1268
:1030D000123FEDE4FD7FDB123FEDE4FD7F40123F48
:1030E000EDE4FD7F20123FEDE4FD7F02123FEDE4B1
:1030F000FD7F8D123FEDE4FD7F14123FEDE4FD7F77
:10310000A4123FEDE4FD7FA6123FED1239C5E4FDA8
:053110007FAF023FED5E
:07443400D2B312443BD2B2E7
:04443B007F0CDFFE15
:01443F00225A
:0D440F00124434C2B312443BC2B202443B1B
:0A444000C2B3124436D2B302443B6B
:0A444A00C2B3124436C2B202443B72
:08448900124434C2B202443BAC
:05436900AF0412006624
:0C436E00124434A2B392D5C2B202443B08
:02006600AE07E3
:100068007D08EE30E704D2B38002C2B3EE25E0FE8D
:0A007800124436C2B212443BDDE828
:01008200225B
:104203007D08D2B3D2B212443BEE25E0FE30B301B7
:0A4213000EC2B212443BDDECAF0610
:01421D00227E
:103F6F00AE07AC0512440FAF0612006612436E2067
:103F7F00D52212436920D51C1219E2FF1200667474
:103F8F000129F9E43AFA12436E20D508900316E09E
:073F9F0014F070E40244403D
:1037B700900309EDF0AC0712440F12436920D53F7F
:1037C700E0FF12006612436E20D53412440FEC441A
:1037D70001FF12006612436E20D524124203EF1236
:1037E7001A28740129F9E43AFA90030DE06401609C
:1037F7000312444A90030DE014F070DF124489026B
:0238070044403B
:030000000233A028
:0C33A000787FE4F6D8FD7581210233E748
:1018CA00E709F608DFFA8046E709F208DFFA803E00
:1018DA0088828C83E709F0A3DFFA8032E309F608ED
:1018EA00DFFA8078E309F208DFFA807088828C8355
:1018FA00E309F0A3DFFA806489828A83E0A3F60809
:10190A00DFFA805889828A83E0A3F208DFFA804CE2
:10191A0080D280FA80C680D4806980F280338010B9
:10192A0080A680EA809A80A880DA80E280CA803322
:10193A0089828A83ECFAE493A3C8C582C8CCC5839A
:10194A00CCF0A3C8C582C8CCC583CCDFE9DEE7806A
:10195A000D89828A83E493A3F608DFF9ECFAA9F0E9
:10196A00EDFB2289828A83ECFAE0A3C8C582C8CC3F
:10197A00C583CCF0A3C8C582C8CCC583CCDFEADE58
:10198A00E880DB89828A83E493A3F208DFF980CCBA
:10199A0088F0EF60010E4E60C388F0ED2402B404B3
:1019AA000050B9F582EB2402B4040050AF2323455A
:0619BA00822390191A734C
:1019C000C2D530F707B2D563F0FF05F030E70CB2AF
:1019D000D5F4048463F0FF05F080018430D502F46F
:0219E0000422DF
:1019E200BB010689828A83E0225002E722BBFE0203
:0919F200E32289828A83E4932236
:1019FB00BB010CE58229F582E5833AF583E02250A1
:101A0B0006E92582F8E622BBFE06E92582F8E222EA
:0D1A1B00E58229F582E5833AF583E4932204
:101A2800BB010689828A83F0225002F722BBFE019D
:021A3800F32297
:101A3A00F8BB010DE58229F582E5833AF583E8F0E2
:101A4A00225006E92582C8F622BBFE05E92582C88E
:021A5A00F22276
:101A5C00EF8DF0A4A8F0CF8CF0A428CE8DF0A42E9E
:021A6C00FE2258
:101A6E00BC000BBE0029EF8DF084FFADF022E4CC5C
:101A7E00F875F008EF2FFFEE33FEEC33FCEE9DEC25
:101A8E00984005FCEE9DFE0FD5F0E9E4CEFD22ED6B
:101A9E00F8F5F0EE8420D21CFEADF075F008EF2FB5
:101AAE00FFED33FD4007985006D5F0F222C398FDA6
:051ABE000FD5F0EA2243
:101AC300A3F8E0C5F025F0F0E582158270021583D6
:061AD300E0C838F0E82233
:101AD900BB010A89828A83E0F5F0A3E022500687D8
:101AE900F009E71922BBFE07E3F5F009E31922899A
:0B1AF900828A83E493F5F074019322CD
:101B0400BB0110E58229F582E5833AF583E0F5F01F
:101B1400A3E0225009E92582F886F008E622BBFEFC
:101B24000AE92582F8E2F5F008E222E5832AF58342
:081B3400E993F5F0A3E9932207
:101B3C00BB010789828A83021CF2500B09C5F0276E
:101B4C00F7C5F01937F722BBFE0D09F8E325F0F3C2
:101B5C00C5F019E338F322F889828A83740193253E
:081B6C00F0C5F0F8E493382203
:101B7400BB010A89828A83F0E5F0A3F0225006F7BC
:0F1B840009A7F01922BBFE06F3E5F009F31922B9
:101B930075F008758200EF2FFFEE33FECD33CDCC09
:101BA30033CCC58233C5829BED9AEC99E58298408C
:101BB3000CF582EE9BFEED9AFDEC99FC0FD5F0D669
:101BC300E4CEFBE4CDFAE4CCF9A88222B800C1B993
:101BD3000059BA002DEC8BF084CFCECDFCE5F0CBD1
:101BE300F97818EF2FFFEE33FEED33FDEC33FCEB0A
:101BF30033FB10D703994004EB99FB0FD8E5E4F9C5
:101C0300FA227818EF2FFFEE33FEED33FDEC33FCB1
:101C1300C933C910D7059BE99A4007EC9BFCE99AA5
:101C2300F90FD8E0E4C9FAE4CCFB2275F010EF2FEA
:101C3300FFEE33FEED33FDCC33CCC833C810D707EA
:101C43009BEC9AE899400AED9BFDEC9AFCE899F825
:0E1C53000FD5F0DAE4CDFBE4CCFAE4C8F922B8
:101C6100EB9FF5F0EA9E42F0E99D42F0E89C45F0D9
:011C71002250
:101C7200E8600FECC313FCED13FDEE13FEEF13FF50
:031C8200D8F12274
:101C8500BB010DE58229F582E5833AF583021D1531
:101C95005007E92582F8021D08BBFE07E92582F8F1
:101CA500021D21E58229F582E5833AF583021D2E81
:0C1CB500ECF0A3EDF0A3EEF0A3EFF022A2
:101CC100A8828583F0D083D082121CD8121CD8122E
:101CD1001CD8121CD8E473E493A3C583C5F0C58353
:101CE100C8C582C8F0A3C583C5F0C583C8C582C86D
:011CF10022D0
:10219600E5082401F582E43403F583E0050822907E
:1021A60002FE300703900301E475F001121D3E02A2
:1021B60019E22000E97F2ED2008018EF540F2490F8
:1021C600D43440D4FF30040BEF24BFB41A005003BC
:1021D6002461FFE50960021509050CE50C7002058E
:1021E6000B30070E9002FEE475F001121D3EEF0261
:1021F6001A2802000E7403D2078003E4C207F5080A
:102206009002FE121D55E4F509F50BF50CE5096083
:10221600077F201221D980F5750AFFC201C200C2CC
:1022260002C203C205C206C2081221A5FF700D3004
:1022360007057F001221EAAF0CAE0B22B4255FC260
:10224600D5C2041221A5FF24D0B40A00501A75F095
:102256000A780930D50508B6FF0106C6A426F62079
:10226600D5047002D20380D924CFB41A00EF5004EB
:10227600C2E5D2040223EBD20180C6D20080C0D2CE
:102286000280BCD2D580BAD20580B47F201221D973
:102296002002077401B5090040F1122196FF1221B0
:1022A600D9022213D208D2068095122196FB12215A
:1022B60096FA122196F94A4B700679BC7A247BFF6E
:1022C60020022EE509602A7E008E8275830012198F
:1022D600FB60060EEE650A70F0C2D5EBC0E0EAC000
:1022E600E0E9C0E0EE122432D0E0F9D0E0FAD0E026
:1022F600FB1219E2FF60AAEBC0E0EAC0E0E9C0E029
:102306001221D9D0E02401F9D0E03400FAD0E0FB64
:10231600E50A0460DCD50AD980877BFF7A24792E0A
:10232600D202809C791080027908C206C208800811
:10233600D2D5790A8004790AC2D5E50A047002F575
:102346000AE4FAFDFEFF122196FC7B082001131217
:102356002196FD7B1030000A122196FE122196FF6F
:102366007B20EC3382D592D55013C3E43000069F10
:10237600FFE49EFEE42001039DFDE49CFCE4CBF813
:10238600C201EC700CCFCECDCCE824F8F870F38007
:1023960017C3EF33FFEE33FEED33FDEC33FCEB33C7
:1023A600FB994002FB0FD8E9EB300105F8D0E0C4F9
:1023B60048B201C0E00AEC4D4E4F78207B0070C257
:1023C600EAB50A0040BCC0E0122434D0F0D0E020C8
:1023D6000104C4C0E0C4B201C0F01221C2D0F0D5DD
:1023E600F0EB022213121D5E22B053232A582281DB
:1023F6004C227D42232E4F233644233649229643D0
:08240600233C5523204623204E
:10240E004523204724DC5022852D22892E22AC2BF9
:10241E00228D2322AA2024C52A224548000022A468
:10242E003F3F3F00790AA2D5200314300509B910A9
:10243E00020404B9080104A2D520060250010420AA
:10244E0002689202B509005034C0E07F20300319B3
:10245E007F30A20272067205500F12248BC202C286
:10246E0006C205C2087F30800F300503E9C0E012B6
:10247E0021D9300503D0E0F9D0E0B509CC300517ED
:10248E007F30B9100C1221D97F583004077F788025
:10249E0003B908031221D93002057F2D0221D97FFD
:1024AE00202008F87F2B2006F322920280CF286E80
:1024BE00756C6C2900D2011221963001F8C2017898
:1024CE000930D50108F60222452D504349581221F4
:1024DE00962403B405004001E49024D7931221CA38
:0D24EE00743A1221CAD20375090402232A90
:1033AC000229B6E493A3F8E493A34003F68001F258
:1033BC0008DFF48029E493A3F85407240CC8C33322
:1033CC00C4540F4420C8834004F456800146F6DFF1
:1033DC00E4800B0102040810204080900006E47E7B
:1033EC00019360BCA3FF543F30E509541FFEE493E6
:1033FC00A360010ECF54C025E060A840B8E493A3AD
:10340C00FAE493A3F8E493A3C8C582C8CAC583CAD7
:10341C00F0A3C8C582C8CAC583CADFE9DEE780BE8F
:01000A0000F5
:101CF200C5F0F8A3E028F0C5F0F8E582158270027D
:061D02001583E038F02219
:0D1D0800E6FB08E6F908E6FA08E6CBF8224B
:0C1D1500E0F8A3E0F9A3E0FAA3E0FB2251
:0D1D2100E2FB08E2F908E2FA08E2CBF82242
:101D2E00E493F8740193F9740293FA740393FB220B
:101D3E00F8E0FBA3A3E0F925F0F0E582158270022E
:071D4E001583E0FA38F022D2
:091D5500EBF0A3EAF0A3E9F0228F
:101D5E00D083D082F8E4937012740193700DA3A314
:101D6E0093F8740193F5828883E473740293686028
:061D7E00EFA3A3A380DF28
:00000001FF
