:10133B00B6FEC8FDCBC4CAFDD7D6C9CFC9FD0000C8
:10134B00060AFE0AC600E000F000F80000000000EC
:10135B0000FE7DBBC7EFEFEFEFEFEFEFC7BB7DFEFF
:10136B000000000000000000000000000000000072
:10137B000000000000000000000000000000000062
:10138B000000000000000000000000000000000052
:10139B000000000000000000000000000000080C2E
:1013AB00FEFE0C082060FEFE60200000007848FE68
:1013BB0082BABA82BABA82BABA82BABA82FE0000CA
:1013CB000000000000000000000000000000000012
:1013DB0000000101010101010101010101010100F5
:1013EB0000000000000000000000000000000000F2
:1013FB0000000000000000000000000000000000E2
:10140B0000000000000000000000000000000000D1
:10141B0000000000000000000000000000000000C1
:10142B0000000000000000000000000000000000B1
:10143B0000000000000000000000000000000000A1
:10144B000000000000000000000000000000000091
:10145B0000000000000000000000000000FEFF0381
:10146B000303030303030303FFFF0000FEFF030358
:10147B0003030303030303FFFE00000000C0C0C00F
:10148B0000000000FEFF030303030303030303FF3A
:10149B00FE0000FEFF030303030303030303FFFE2E
:1014AB000000000000000000000000000000000031
:1014BB000000000000000000000000000000000021
:1014CB000000000000000000000000000000000011
:1014DB0000000000000000000000000000FFFF0003
:1014EB000000000000000000FFFF0000FFFF0C0CDD
:1014FB000C0C0C0C0C0C0CFFFF00000000E1E1E1EC
:10150B0000000000FFFF000000000000000000FFD3
:10151B00FF0000FFFF0C0C0C0C0C0C0C0C0CFFFF59
:10152B0000000000000000000000000000000000B0
:10153B0000000000000000000000000000000000A0
:10154B000000000000000000000000000000000090
:10155B00000000000000000000000000000F1F183A
:10156B0018181818181818181F0F00000F1F181824
:10157B00181818181818181F0F000000000000008A
:10158B00000000000F1F1818181818181818181F2B
:10159B000F00000F1F1818181818181818181F0FFD
:1015AB000000000000000000000000000000000030
:1015BB000000000000000000000000000000000020
:1015CB000000000000000000000000000000000010
:1015DB000000000000000000000000000000000000
:1015EB0000000000E2928A8600007C8282827C00EE
:1015FB00FE008292AAC60000C0C0007C8282827C60
:10160B000000020202FE0000C0C0007C8282827CCD
:10161B000000FE00000000000000000000000000C1
:10162B0000000000000000000000000000000000AF
:10163B00000000000000000000000000000000009F
:10164B0024A42E24E4242EA424000000F84A4C48A1
:10165B00F8484C4AF80000000000000000000000B1
:10166B00000000000000000000000000000000006F
:10167B00000000000000000000000000000000005F
:10168B00000000000000000000000000000000004F
:10169B00000000000000000000000000000000003F
:1016AB000000000000000000000000C0201010101F
:1016BB001020C00000C0201010101020C00000002F
:1016CB00120A07027F02070A120000000B0A0A0A1D
:1016DB007F0A0A0A0B000000000000000000000057
:1016EB0000000000000000000000000000000000EF
:1016FB0000000000000000000000000000000000DF
:10170B0000000000000000000000000000000000CE
:10171B0000000000000000000000000000000000BE
:10172B0000000000000000000000001F20404040AF
:0F173B0050205F80001F2040404050205F800002
:102312006020032400FE8242A29E8A82868AB262E2
:1023220002FE0000007F40407F40404040407F402E
:10233200407F000060200344808080BFA5A5A53FA8
:10234200A5A5A5BF808080007F24243F24247F0090
:082352007F24243F24247F00B6
:102AC6009002D57403F0E49002D4F07B017A027987
:102AD600D47F03121A875391B45392B453B37F53DE
:082AE600B47F53C9FE53CAFE80
:012AEE0022C5
:1029E3009002D47440F0A37401F0A312077E000197
:1029F300C2009002DB7401F0E4A3F07B017A027958
:102A0300D47F011208657D017F0112261753A23F6F
:012A130022A0
:1021570043BA80122AC61229E3D2AF121FB0E4FF96
:10216700120026E4FF122A9C122AEF9002D61207C9
:102177007E414570A49002DA7404F0E4FDFF121C5E
:10218700DB7BFF7A13793B7D02E4FF12174A7BFF63
:102197007A13793B120F237B017A0379247D04E4B8
:1021A700FF1229737B017A0379447D047F1012297A
:0821B700737FC8122C9A80B35B
:0F2C9A007D607C09ED1D70011C144C70F7DFF19B
:012CA9002208
:101A8700EFD3940740037FFF22120567FED3940329
:101A970040037FFF22EF7041EE700B9000011205AB
:101AA70080F452935294120567B4010B900001120F
:101AB70005804293F45294120567FEB4020A90001F
:101AC7000112058042934294EEB4030D9000011277
:101AD7000580FEF45293EE4294EF640170431205C1
:101AE70067FE700B900001120580F452915292EE3E
:101AF700B4010B9000011205804291F45292120535
:101B070067B4020A900001120580429142921205C1
:101B170067B4030D900001120580FEF45291EE4266
:101B270092EF64027043120567FE700B900001127A
:101B37000580F452955296EEB4010B900001120500
:101B4700804295F45296120567B4020A900001127A
:101B5700058042954296120567B4030D9000011265
:101B67000580FEF45295EE4296EF6403704312052A
:101B770067FE700B900001120580F452B152B2EE6D
:101B8700B4010B90000112058042B1F452B2120564
:101B970067B4020A90000112058042B142B21205F1
:101BA70067B4030D900001120580FEF452B1EE42B6
:101BB700B2EF64047043120567FE700B90000112C8
:101BC7000580F452B352B4EEB4010B900001120534
:101BD7008042B3F452B4120567B4020A90000112AE
:101BE700058042B342B4120567B4030D9000011299
:101BF7000580FEF452B3EE42B4EF6405704312055C
:101C070067FE700B900001120580F452C952CAEEAC
:101C1700B4010B90000112058042C9F452CA1205A3
:101C270067B4020A90000112058042C942CA120530
:101C370067B4030D900001120580FEF452C9EE420D
:101C4700CAEF64067043120567FE700B900001121D
:101C57000580F452CB52CCEEB4010B900001120573
:101C67008042CBF452CC120567B4020A90000112ED
:101C7700058042CB42CC120567B4030D90000112D8
:101C87000580FEF452CBEE42CCEF64077043120599
:101C970067FF700B900001120580F452E152E2EFEA
:101CA700B4010B90000112058042E1F452E21205E3
:101CB70067B4020A90000112058042E142E2120570
:101CC70067B4030D900001120580FFF452E1EF4263
:041CD700E27F002286
:1024D200EFD3940140037FFF22EDD3940340037FA7
:1024E200FF22EF7004C2A98002D2A9ED700553B792
:1024F200FDC2B9EDB4010553B7FDD2B9EDB4020581
:1025020043B702C2B9EDB4030543B702D2B97F00A3
:0125120022A6
:10251300EFD3940140037FFF22EDD3940340037F65
:10252300FF22EF7004C2AB8002D2ABED700553B74C
:10253300F7C2BBEDB4010553B7F7D2BBEDB4020547
:1025430043B708C2BBEDB4030543B708D2BB7F0052
:012553002265
:102B3B00EFD3940140037FFF22EDD3940340037F37
:102B4B00FF22EF25E025E0FFE5AF54FB4FF5AFE4A7
:022B5B00FF2257
:102B5D00EFD3940140037FFF22EDD3940340037F15
:102B6D00FF22EFC43354E0FFE5AF54DF4FF5AFE480
:022B7D00FF2235
:102B1800EFD3940140037FFF22EDD3940340037F5A
:102B2800FF22EFC4333354C0FFE5AF54BF4FF5AFB6
:032B3800E4FF2295
:10255400EFD3940140037FFF22EDD3940340037F24
:10256400FF22EF7004C2A88002D2A8ED700553B711
:10257400FEC2B8EDB4010553B7FED2B8EDB40205FE
:1025840043B701C2B8EDB4030543B701D2B87F0025
:012594002224
:10259500EFD3940140037FFF22EDD3940340037FE3
:1025A500FF22EF7004C2AA8002D2AAED700553B7CC
:1025B500FBC2BAEDB4010553B7FBD2BAEDB40205BF
:1025C50043B704C2BAEDB4030543B704D2BA7F00DA
:0125D50022E3
:102BCC00EFD3940140037FFF22EFC454F0FFE58F55
:082BDC0054EF4FF58FE4FF22D6
:102BB300EFD3940140037FFF22EFC43354E0FFE5DA
:092BC3008F54DF4FF58FE4FF226F
:102B7F00EFD3940140037FFF22EFC4333354C0FFE0
:0A2B8F00E58F54BF4FF58FE4FF22DD
:1025D600EFD3940140037FFF22EDD3940340037FA2
:1025E600FF22EF7004C2AD8002D2ADED700553B785
:1025F600DFC2BDEDB4010553B7DFD2BDEDB40205B0
:1026060043B720C2BDEDB4030543B720D2BD7F005A
:0126160022A1
:1023AE00EDD3940340037FFF22EF30E10543E62097
:1023BE00800353E6DFEF30E00543E610800353E67B
:1023CE00EFED700653B6DF53B5DFEDB4010653B62D
:1023DE00DF43B520EDB4020643B62053B5DFEDB4AE
:0B23EE00030643B62043B5207F002209
:1021BF00EFD3940140037FFF22EBD3940340037FBF
:1021CF00FF22EFB40112ED90FE817006E0547FF014
:1021DF008011E04480F0800BEF700890FE83E05494
:1021EF00874DF0EB700653B6DF53B5DFEBB4010646
:1021FF0053B6DF43B520EBB4020643B62053B5DF29
:0D220F00EBB4030643B62043B5207F002248
:10261700EFD3940140037FFF22EDD3940340037F60
:10262700FF22EF7004C2AC8002D2ACED700553B745
:10263700EFC2BCEDB4010553B7EFD2BCEDB4020550
:1026470043B710C2BCEDB4030543B710D2BC7F003B
:012657002260
:10004600EFD3940140037FFF22EDD3940340037F57
:10005600FF22E5AF54FE4FF5AFED700653B6FE53E3
:10006600B5FEEDB4010653B6FE43B501EDB4020686
:1000760043B60153B5FEEDB4030643B60143B501DD
:030086007F0022D6
:1023F900EFD3940140037FFF22EDD3940340037F81
:10240900FF22EF33333354F8FFE5AF54F74FF5AFFD
:10241900ED700653EEFE53DFFEEDB4010653EEFEFA
:1024290043DF01EDB4020643EE0153DFFEEDB403D1
:0A2439000643EE0143DF017F00229D
:10244300EFD3940140037FFF22EDD3940340037F36
:10245300FF22EFC454F0FFE5AF54EF4FF5AFED703B
:102463000653EEFD53DFFDEDB4010653EEFD43DFEE
:1024730002EDB4020643EE0253DFFDEDB40306435F
:08248300EE0243DF027F00229C
:10248B00EFD3940140037FFF22EDD3940340037FEE
:10249B00FF22EF25E0FFE5AF54FD4FF5AFED7006E2
:1024AB0053B6FD53B5FDEDB4010653B6FD43B5026E
:1024BB00EDB4020643B60253B5FDEDB4030643B6C5
:0724CB000243B5027F00226D
:1020D800EFD3948140037FFF22EBD3940340037F27
:1020E800FF22EF247F603204705D90FEC4EDF0EBB8
:1020F800700653B6FB53B5FBEBB4010653B6FB436E
:10210800B504EBB4020643B60453B5FBEB640370A5
:102118003B43B60443B504803390FEE4EDF0EB7026
:102128000653B6F753B5F7EBB4010653B6F743B504
:1021380008EBB4020643B60853B5F7EBB4030D43F6
:0F214800B60843B508800590FEE4EDF07F002255
:10269900EDD394035029ED700653EEFB53DFFBEDA8
:1026A900B4010653EEFB43DF04EDB4020643EE0426
:1026B90053DFFBEDB4030B43EE0443DF0480037FD8
:0A26C900FF2290FE62EFF07F002276
:1026D30090FA10E054F0F0EDD39403500BE0FEEDCC
:1026E30025E025E0FDEE4DF0EBD39403500690FA80
:1026F30010E04BF0EF90FA10B40106E04480F08054
:0827030004E0547FF07F002286
:10270B0090FA00E054F0F0EDD39403500BE0FEEDA3
:10271B0025E025E0FDEE4DF0EBD39403500690FA47
:10272B0000E04BF0EF90FA00B40106E04480F0803B
:08273B0004E0547FF07F00224E
:1027430090FA20E054F0F0EDD39403500BE0FEED4B
:1027530025E025E0FDEE4DF0EBD39403500690FA0F
:1027630020E04BF0EF90FA20B40106E04480F080C3
:0827730004E0547FF07F002216
:10277B0090FA30E054F0F0EDD39403500BE0FEED03
:10278B0025E025E0FDEE4DF0EBD39403500690FAD7
:10279B0030E04BF0EF90FA30B40106E04480F0806B
:0827AB0004E0547FF07F0022DE
:1027B30090FA38E054F0F0EDD39403500BE0FEEDC3
:1027C30025E025E0FDEE4DF0EBD39403500690FA9F
:1027D30038E04BF0EF90FA38B40106E04480F08023
:0827E30004E0547FF07F0022A6
:1027EB0090FA40E054F0F0EDD39403500BE0FEED83
:1027FB0025E025E0FDEE4DF0EBD39403500690FA67
:10280B0040E04BF0EF90FA40B40106E04480F080DA
:08281B0004E0547FF07F00226D
:1028230090FA48E054F0F0EDD39403500BE0FEED42
:1028330025E025E0FDEE4DF0EBD39403500690FA2E
:1028430048E04BF0EF90FA48B40106E04480F08092
:0828530004E0547FF07F002235
:10285B0090FA50E054F0F0EDD39403500BE0FEED02
:10286B0025E025E0FDEE4DF0EBD39403500690FAF6
:10287B0050E04BF0EF90FA50B40106E04480F0804A
:08288B0004E0547FF07F0022FD
:1028930090FA58E054F0F0EDD39403500BE0FEEDC2
:1028A30025E025E0FDEE4DF0EBD39403500690FABE
:1028B30058E04BF0EF90FA58B40106E04480F08002
:0828C30004E0547FF07F0022C5
:1028CB0090FA60E054F0F0EDD39403500BE0FEED82
:1028DB0025E025E0FDEE4DF0EBD39403500690FA86
:1028EB0060E04BF0EF90FA60B40106E04480F080BA
:0828FB0004E0547FF07F00228D
:1029030090FA68E054F0F0EDD39403500BE0FEED41
:1029130025E025E0FDEE4DF0EBD39403500690FA4D
:1029230068E04BF0EF90FA68B40106E04480F08071
:0829330004E0547FF07F002254
:10293B0090FA70E054F0F0EDD39403500BE0FEED01
:10294B0025E025E0FDEE4DF0EBD39403500690FA15
:10295B0070E04BF0EF90FA70B40106E04480F08029
:08296B0004E0547FF07F00221C
:102A710090FE50E054CFF0EDD39403500AE0FEED08
:102A8100C454F0FDEE4DF0EF90FE50B40106E04469
:0B2A910080F08004E0547FF07F002202
:100865009002DEEBF0A3EAF0A3E9F09002DDEFF0F1
:1008750064016003020A43900000F0A3F0A3F0A313
:10088500F0A3F09002E1F0A3F09002E1E0FEA3E016
:10089500FFC39480EE9400501C74542FF5827401AC
:1008A5003EF583E4F09002E2E004F070DC9002E1B2
:1008B500E004F080D4E49002E1F0A3F09002E1E0DE
:1008C500FEA3E0FFC39480EE9400501C74142FF532
:1008D5008274003EF583E4F09002E2E004F070DCFF
:1008E5009002E1E004F080D49002DEE0FBA3E0FAA0
:1008F500A3E0F9120567FFE598543F4FF598EF64BB
:10090500C06008EF644060030209EE900002120720
:10091500427F807E8D7D5B7C0012067E9002E31215
:100925000772E4FFFE7D01FC9002E3E0F8A3E0F925
:10093500A3E0FAA3E0FBC312071E40037FFF22904A
:1009450002E3E0F8A3E0F9A3E0FAA3E0FBC3E49B2C
:10095500FFE49AFE740199FDE498FC9002E3120706
:10096500729002DEE0FBA3E0FAA3E0F99000011229
:100975000580FB64017038C28E538EFE5389BF53C8
:1009850089CF438E409002E3E0FCA3E0FDA3E0FEA7
:10099500A3E0FF780812072F8F8D9002E3A3A3A38E
:1009A500E0F58BC2AB5389BF538FFDD28E8073EBBD
:1009B50064027032538EEF438E01538EF7438E04DB
:1009C5009002E3E0FCA3E0FDA3E0FEA3E0FF7808CE
:1009D50012072F8FD69002E3A3A3A3E0F5D753AF59
:1009E500FB438E10803C7FFF229002DEE0FBA3E0FC
:1009F500FAA3E0F9120567FF70139000081205804D
:100A0500B40105438E20801A538EDF8015EFB48024
:100A150011900008120580B40105438780800353B7
:100A2500877F9002DEE0FBA3E0FAA3E0F9900007E0
:100A35001205807004C29C8002D29C7F0022900225
:100A4500DDE064026003020B8D900005F0A3F0A3C6
:100A5500F0A3F0A3F09002E1F0A3F09002E1E0FE34
:100A6500A3E0FFC39480EE9400501C74F42FF5822C
:100A750074013EF583E4F09002E2E004F070DC904E
:100A850002E1E004F080D4E49002E1F0A3F09002EA
:100A9500E1E0FEA3E0FFC39480EE9400501C749443
:100AA5002FF58274003EF583E4F09002E2E004F055
:100AB50070DC9002E1E004F080D49002DEE0FBA35C
:100AC500E0FAA3E0F9120567FF64C06008EF64402F
:100AD5006003020B6BEFB4C005439A808003539A01
:100AE5007F9000021207427F807E8D7D5B7C001225
:100AF500067E9002E3120772E4FFFE7D01FC900280
:100B0500E3E0F8A3E0F9A3E0FAA3E0FBC312071EB4
:100B150040037FFF229002E3E0F8A3E0F9A3E0FAA7
:100B2500A3E0FBC3E49BFFE49AFE740199FDE498FE
:100B3500FC9002E3120772538EEF538EF7438E0437
:100B45009002E3E0FCA3E0FDA3E0FEA3E0FF78084C
:100B550012072F8FD69002E3A3A3A3E0F5D753AFD7
:100B6500FB438E1080037FFF229002DEE0FBA3E0B3
:100B7500FAA3E0F9900007120580C454F0FFE59A46
:100B850054EF4FF59A7F00229002DDE06403600385
:100B9500020D2190000AF0A3F0A3F0A3F0A3F090BA
:100BA50002E1F0A3F09002E1E0FEA3E0FFC3944070
:100BB500EE9400501C74742FF58274023EF583E4A4
:100BC500F09002E2E004F070DC9002E1E004F080D5
:100BD500D4E49002E1F0A3F09002E1E0FEA3E0FF8F
:100BE500C39440EE9400501C74142FF58274013E9A
:100BF500F583E4F09002E2E004F070DC9002E1E0BD
:100C050004F080D49002DEE0FBA3E0FAA3E0F91241
:100C15000567FF64C06008EF64406003020CFFEFE6
:100C2500B4C00543AC80800353AC7F90000212072B
:100C3500427F807E8D7D5B7C0012067E9002E312F2
:100C45000772E4FFFE7D01FC9002E3E0F8A3E0F902
:100C5500A3E0FAA3E0FBC312071E40037FFF229027
:100C650002E3E0F8A3E0F9A3E0FAA3E0FBC3E49B09
:100C7500FFE49AFE740199FDE498FC9002E31207E3
:100C8500729002DEE0FBA3E0FAA3E0F99000011206
:100C95000580FB6403702943AC409002E3E0FCA3AC
:100CA500E0FDA3E0FEA3E0FF780812072F8FD490A4
:100CB50002E3A3A3A3E0F5D553D1F043D10A803DC8
:100CC500EB64027032538EEF53ACBF538EF7438EF5
:100CD500049002E3E0FCA3E0FDA3E0FEA3E0FF78BF
:100CE5000812072F8FD69002E3A3A3A3E0F5D753ED
:100CF500AFFB438E1080067FFF227FFF229002DE2E
:100D0500E0FBA3E0FAA3E0F9900007120580C454C4
:100D1500F0FFE5AC54EF4FF5AC7F00229002DDE02B
:100D250064046003020EB590000FF0A3F0A3F0A3D6
:100D3500F0A3F09002E1F0A3F09002E1E0FEA3E061
:100D4500FFC39420EE9400501C74B42FF5827402F6
:100D55003EF583E4F09002E2E004F070DC9002E1FD
:100D6500E004F080D4E49002E1F0A3F09002E1E029
:100D7500FEA3E0FFC39420EE9400501C74D42FF51D
:100D85008274013EF583E4F09002E2E004F070DC49
:100D95009002E1E004F080D49002DEE0FBA3E0FAEB
:100DA500A3E0F9120567FF64C06008EF64406003C3
:100DB500020E93EFB4C005438480800353847F9073
:100DC50000021207427F807E8D7D5B7C0012067ECD
:100DD5009002E3120772E4FFFE7D01FC9002E3E05E
:100DE500F8A3E0F9A3E0FAA3E0FBC312071E400352
:100DF5007FFF229002E3E0F8A3E0F9A3E0FAA3E085
:100E0500FBC3E49BFFE49AFE740199FDE498FC9012
:100E150002E31207729002DEE0FBA3E0FAA3E0F919
:100E2500900001120580FB64047029438440900200
:100E3500E3E0FCA3E0FDA3E0FEA3E0FF78081207D2
:100E45002F8FD29002E3A3A3A3E0F5D353D10F4391
:100E5500D1A0803DEB64027032538EEF5384BF53B3
:100E65008EF7438E049002E3E0FCA3E0FDA3E0FED1
:100E7500A3E0FF780812072F8FD69002E3A3A3A360
:100E8500E0F5D753AFFB438E1080067FFF227FFF2F
:100E9500229002DEE0FBA3E0FAA3E0F9900007123E
:100EA5000580C454F0FFE58454EF4FF5847F00229C
:020EB5007FFFBD
:010EB7002218
:0F2CAA008F999000027401F0900002E070FA22FE
:102C4E00120567FF600C122CAA740129F9E43AFAF6
:032C5E0080EE22E3
:0F2CB9008F9B9000077401F0900007E070FA22E3
:102C6100120567FF600C122CB9740129F9E43AFAD4
:032C710080EE22D0
:0F2CC8008FAD90000C7401F090000CE070FA22B8
:102C7400120567FF600C122CC8740129F9E43AFAB2
:032C840080EE22BD
:0F2CD7008F859000117401F0900011E070FA22C7
:102C8700120567FF600C122CD7740129F9E43AFA90
:032C970080EE22AA
:05008E00AE07022CAAE0
:0300230002236253
:10236200C0E0C083C082C0D075D000C007309827BB
:10237200C298900003E0C394804002E4F09000030E
:10238200E0FF04F074142FF582E43400F583E5993C
:10239200F09000047405F0309907C299900002E4AD
:0C23A200F0D007D0D0D082D083D0E03241
:0300430002221C7A
:10221C00C0E0C083C082C0D075D000C007E59A3042
:10222C00E028539AFE900008E0C394804002E4F04A
:10223C00900008E0FF04F074942FF582E43400F56C
:10224C0083E59BF09000097405F0E59A30E10853A2
:10225C009AFD900007E4F0D007D0D0D082D083D084
:02226C00E0325E
:03008B0002226EE0
:10226E00C0E0C083C082C0D075D000C007E5AC30DE
:10227E00E02853ACFE90000DE0C394404002E4F021
:10228E0090000DE0FF04F074142FF582E43401F594
:10229E0083E5ADF090000E7405F0E5AC30E1085327
:1022AE00ACFD90000CE4F0D007D0D0D082D083D01B
:0222BE00E0320C
:030093000222C086
:1022C000C0E0C083C082C0D075D000C007E58430B4
:1022D000E0285384FE900012E0C394204002E4F012
:1022E000900012E0FF04F074D42FF582E43401F57D
:1022F00083E585F09000137405F0E58430E1085320
:1023000084FD900011E4F0D007D0D0D082D083D0EB
:02231000E032B9
:102BE4002E0030003100320033003400350036004E
:062BF40037003800390033
:07235A0044037500000000C0
:100026009002D4EFF07006FD7FA6122A1A9002D431
:0C003600E0B40107E4FD7FA7122A1A22A3
:102A9C009002D4EFF0700DFD7FC8122A1AE4FD7F6E
:102AAC00A1122A1A9002D4E0B4010EE4FD7FC012E8
:0A2ABC002A1AE4FD7FA0122A1A2254
:102BFA00E4FD7F8D122A1AE4FD7F14122A1AE4FDDD
:052C0A007FAF022A1A51
:102C0F00E4FD7F8D122A1AE4FD7F10122A1AE4FDCB
:052C1F007FAE022A1A3D
:062A1400120567FF7D01C1
:102A1A00ED6004D2968002C296C2C7E4FEC2C8EF35
:102A2A0030E704D2938002C293D2C8EF25E0FF0EAA
:082A3A00EEB408E9D2C7D29600
:012A42002271
:102AEF00E4FCEC24B0FFE4FD122A1A7F10122A1A1C
:102AFF00E4FF122A1AE4FB7D01E4FF122A1A0BEB02
:082B0F00B480F40CECB408DA08
:012B1700229B
:10000300AC07ED24B0FFE4FD122A1AEC54F0C454FB
:0E0013000F4410FF122A1AEC540FFF022A1A93
:102A4300E4900379F0900379E0FDC39408501EE409
:102A5300FF120003E4FC122A14740129F9E43AFA80
:0D2A63000CECB480F1900379E004F080D811
:012A70002243
:0829730090031DEFF0A3EDF04D
:10297B00E4A3F090031DE0FFA3E0FD120003E4FCD1
:10298B00122A14740129F9E43AFA0CECB410F19000
:0F299B00031EE004F0A3E004F0E0C3940240D474
:0129AA00220A
:0829AB0090031DEFF0A3EDF015
:1029B300E4A3F090031DE0FFA3E0FD120003E4FC99
:1029C300122A14740129F9E43AFA0CECB408F190D0
:0F29D300031EE004F0A3E004F0E0C3940240D43C
:0129E20022D2
:102C2400120003E4FC122A14740129F9E43AFA0CA0
:042C3400ECB406F105
:012C38002279
:102B9900E4FEC2C8EF30E704D2938002C293EF2566
:092BA900E0FFD2C80EEEB408E909
:012BB2002200
:102C3900E4FFFEC2C8EF25E0FF3091010FD2C80EB4
:042C4900EEB408EFEE
:012C4D002264
:02265800AC07CD
:10265A00C2907F03122B99AF04122B99AF05122B4C
:10266A0099AF03122B99E4FD900323E0FFEDC39F7A
:10267A00501A122C39900320E0FBA3E0FAA3E0F9E8
:0E268A008D82758300EF1205BF0D80DCD290AB
:01269800221F
:10174A009002E4EFF0A3EDF0A3EBF0A3EAF0A3E933
:01175A00F09E
:10175B00E4A3F09002E6E0FBA3E0FAA3E0F9A3E038
:10176B00F582758300120580FFD394005003021A93
:10177B0086EF94B05003021827EFD394F74003027F
:10178B0018279002E9E02401FFE433FE8F828E8359
:10179B00120580C394A150030218279002E6A3A35D
:1017AB00A3E0F5827583001205802450FFE434FF1B
:1017BB00FE7C007D5E1205E1EE3395E0FDFC9003AF
:1017CB0075120772900375E0F8A3E0F9A3E0FAA392
:1017DB00E0FBC000C001C002C0039002E9E024019D
:1017EB00FFE433FE9002E6E0FBA3E0FAA3E0F98FFF
:1017FB00828E83120580245FFFE434FFCF244ECF0B
:10180B003403FEE4FCFDD003D002D001D000EB2F5B
:10181B00FFEA3EFEED39FDEC380218E19002E6E0FE
:10182B00FBA3E0FAA3E0F9A3E0F5827583001205B0
:10183B0080FFC394A15003021982EFD394A34003FA
:10184B000219829002E9E02401FFE433FE8F828EBD
:10185B0083120580C394A150030219829002E6A360
:10186B00A3A3E0F582758300120580245FFFE434A7
:10187B00FFFE7C007D5E1205E1EE3395E0FDFC90F2
:10188B000375120772900375E0F8A3E0F9A3E0FA71
:10189B00A3E0FBC000C001C002C0039002E9E0243A
:1018AB0001FFE433FE9002E6E0FBA3E0FAA3E0F9CC
:1018BB008F828E83120580245FFFE434FFFE339505
:1018CB00E0FDFCD003D002D001D000EB2FFFEA3EAD
:1018DB00FEE93DFDE83CFC90037512077290037521
:1018EB00E0FCA3E0FDA3E0FEA3E0FFE47B20FAF91C
:1018FB00F81205F3900375120772900375A3E0FDC0
:10190B00A3A3E4FFFEE4FC781012072F9002EAEF8A
:10191B00F0FA900375A3A3E0FEA3E4FFE4FDFC78CB
:10192B000812072F9002EBEFF0F9900375E0FCA380
:10193B00A3E0FEA3E0FF9002ECEFF0FBAF02AD01E2
:10194B009003207401F0A37402F0A374EDF0A37460
:10195B0020F01226589002E4E0FFA3E0FD7B017A11
:10196B000279ED1229739002E4E02410F09002E961
:10197B00E02402F002175E9002E6E0FBA3E0FAA37C
:10198B00E0F9A3E0F582758300120580FFC3942074
:0E199B005003021A7DEFD3947E4003021A7DA2
:1019A9009002E6A3A3A3E0F58275830012058024C3
:1019B900E0FFE434FFFE3395E0FDFC900375120768
:1019C90072900375E0FCA3E0FDA3E0FEA3E0FFE451
:1019D9007B10FAF9F81205F3900375120772900358
:1019E90075E0FCA3E0FDA3E0FEA3E02480FFEE3454
:1019F900CFFEED3403FDE43CFC90037512077290B1
:101A09000375A3E0FDA3A3E4FFFEE4FC781012072D
:101A19002F9002EAEFF0FA900375A3A3E0FEA3E486
:101A2900FFE4FDFC780812072F9002EBEFF0F99024
:101A39000375E0FCA3A3E0FEA3E0FF9002ECEFF046
:101A4900FBAF02AD019003207401F0A37403F0A36E
:101A5900740DF0A37410F01226589002E4E0FFA36D
:101A6900E0FD7B017A03790D1229AB9002E4E024B1
:021A790008F073
:0B1A7B0080009002E9E004F002175E1A
:011A8600223D
:101E8F00900364EFF0A3EDF0A3EBF0A3EAF0A3E966
:011E9F00F052
:101EA000E4A3F0900366E0FBA3E0FAA3E0F9A3E06B
:101EB000F582758300120580FFD394005003021F42
:101EC000AFEF94205003021FA6EFD3947E4003028D
:021ED0001FA64B
:101ED200900366A3A3A3E0F5827583001205802414
:101EE200E0FFE434FFFE3395E0FDFC90037512073A
:101EF20072900375E0FCA3E0FDA3E0FEA3E0FFE423
:101F02007B08FAF9F81205F3900375120772900331
:101F120075E0FCA3E0FDA3E0FEA3E024C0FFEE34E5
:101F2200BFFEED3403FDE43CFC9003751207729092
:101F32000375A3E0FDA3A3E4FFFEE4FC78101207FF
:101F42002F90036AEFF0FA900375A3A3E0FEA3E4D7
:101F5200FFE4FDFC780812072F90036BEFF0F99075
:101F62000375E0FCA3A3E0FEA3E0FF90036CEFF097
:101F7200FBAF02AD019003207401F0A37403F0A340
:101F8200746DF0A37408F0122658900364E0FFA366
:101F9200E0FD7B017A03796D122C24900364E02426
:021FA20006F047
:0B1FA4008000900369E004F0021EA31F
:011FAF00220F
:0A1CDB009002D5EDF09002D4EFF076
:101CE5009002DAE075F008A42F24089002D4F0E4FD
:101CF500FFFE7DC87C429002D6E0F8A3E0F9A3E0A0
:101D0500FAA3E0FB12009612019C9002E012077202
:101D15009002D4E024E8FFA3E0FD7BFF7A2B79E471
:101D250012174AE49002DBF09002DAE0FFA3E0C369
:101D35009F4003021E8EE47B0AFAF9F89002E0E068
:101D4500FCA3E0FDA3E0FEA3E0FF12067EAC00AD20
:101D550001AE02AF039002DC1207729002E0E0FCD4
:101D6500A3E0FDA3E0FEA3E0FFE47B0AFAF9F81285
:101D7500067E9002E01207729002D4E024F8F090FB
:101D850002DBE0B402079002D4E024F8F09002DC14
:101D9500E0FCA3E0FDA3E0FEA3E0FF1207F51DE3D1
:101DA500000000001DF4000000011E0400000002F8
:101DB5001E14000000031E24000000041E34000051
:101DC50000051E44000000061E54000000071E64A6
:101DD500000000081E740000000900001E85900226
:101DE500D4E0FFA3E0FD7BFF7A2B79E6021E82900B
:101DF50002D4E0FFA3E0FD7BFF7A2B79E8807E909B
:101E050002D4E0FFA3E0FD7BFF7A2B79EA806E9098
:101E150002D4E0FFA3E0FD7BFF7A2B79EC805E9096
:101E250002D4E0FFA3E0FD7BFF7A2B79EE804E9094
:101E350002D4E0FFA3E0FD7BFF7A2B79F0803E9092
:101E450002D4E0FFA3E0FD7BFF7A2B79F2802E9090
:101E550002D4E0FFA3E0FD7BFF7A2B79F4801E908E
:101E650002D4E0FFA3E0FD7BFF7A2B79F6800E908C
:101E750002D4E0FFA3E0FD7BFF7A2B79F812174A25
:091E85009002DBE004F0021D2DC7
:011E8E002231
:101FB000D2C7D2907FC8122C9AE4FD7FAE122A1AA3
:101FC000E4FF122A1A7F10122A1A7F40122A1A7F5F
:101FD00081122A1A7FCF122A1A7FA1122A1A7FC8C9
:101FE000122A1A7FA6122A1A7FA8122A1A7F3F12D3
:101FF0002A1A7FD3122A1AE4FF122A1A7FD5122A2C
:102000001A7F80122A1A7FD9122A1A7FF1122A1AED
:102010007FDA122A1A7F12122A1A7FDB122A1A7FFB
:1020200040122A1A7F20122A1A7F02122A1A7F8D42
:10203000122A1A7F14122A1A7FA4122A1A7FA612B1
:0C2040002A1A122AEFE4FD7FAF022A1AD0
:10009600EC4D6011E8497017ED33EC3304600DE464
:1000A600FCFFFEFD22E933E8330470F80202081271
:1000B60001D358046009E4CC248150062850090273
:1000C600021228400302020FC0E0EB4A7044B980D6
:1000D60006D0E0FB0201FEEF4E701CBD8008EBFF70
:1000E600EAFEE9FD80EBE98DF0A4FEE5F002017F72
:1000F600E9CDF9EAFEEBFFEF89F0A4FCE5F0CE8945
:10010600F0A42EFFE435F0CD89F0A42DFEE435F001
:100116008067EF4E7005BD80D780C3EF8BF0A4AC2F
:10012600F0EE8BF0A42CFCE435F0F8EF8AF0A42C6A
:10013600E5F038FCE433CB8DF0A42CFCE5F03BF87D
:10014600EE8AF0A42CFCE5F038F8E433CF89F0A46D
:100156002CFCE5F038CF3400CE89F0A42FFFE5F073
:100166003EFEE433C98DF0A42EFEE5F039CD8AF0CB
:10017600A42FFFE5F03EFEE43DFD33D0E0FB500743
:100186000BBB000F020212EC2CFCEF33FFEE33FE2A
:06019600ED33FD0201EA59
:10019C00EDD2E7CD33EC3392D524814006E4FFFE5B
:1001AC00FDFC22FCE4CFCECDCC24E0501174FF80BA
:1001BC00EDC3CC13CCCD13CDCE13CECF13CF047057
:0701CC00F030D5DE02071040
:100EB800E50824D7F582E43402F583E0050822909A
:100EC80002D43007039002D7E475F0011207AF028D
:100ED80005672000E97F2ED2008018EF540F249078
:100EE800D43440D4FF30040BEF24BFB41A005003AD
:100EF8002461FFE50960021509050CE50C7002057F
:100F08000B30070E9002D4E475F0011207AFEF0220
:100F180005AD02008E7403D2078003E4C207F5080A
:100F28009002D41207C6E4F509F50BF50CE5096043
:100F3800077F20120EFB80F5750AFFC201C200C2AE
:100F480002C203C205C206C208120EC7FF700D30E6
:100F580007057F00120F0CAF0CAE0B22B4255FC241
:100F6800D5C204120EC7FF24D0B40A00501A75F077
:100F78000A780930D50508B6FF0106C6A426F6206A
:100F8800D5047002D20380D924CFB41A00EF5004DC
:100F9800C2E5D2040211FED20180C6D20080C0D2BE
:100FA8000280BCD2D580BAD20580B47F20120EFB55
:100FB8002002077401B5090040F1120EB8FF120EA5
:100FC800FB020F35D208D2068095120EB8FB120E1E
:100FD800B8FA120EB8F94A4B700679FC7A127BFF00
:100FE80020022EE509602A7E008E82758300120594
:100FF8008060060EEE650A70F0C2D5EBC0E0EAC06C
:10100800E0E9C0E0EE12125FD0E0F9D0E0FAD0E0FB
:10101800FB120567FF60AAEBC0E0EAC0E0E9C0E0A8
:10102800120EFBD0E02401F9D0E03400FAD0E0FB46
:10103800E50A0460DCD50AD98087D20280A21212A0
:101048004160F7E50A70010412021DA90A600DE566
:101058000A600914F50A1212E9EF60F3EA30E702B0
:10106800F404C3995079EAF4250A0430E701E4044A
:10107800F50A800D12124160C1EA050A250A12021A
:101088001DEA900303F030E701E4250A04D50A04B9
:101098002005011412125FE4C0E01212E990030364
:1010A800E0601320E70714F0120EE3802204F0D06A
:1010B800E014C0E07F00120EE3E50A6007120EDAC2
:1010C800150A800B300503120EDAD0E0020F35D076
:1010D800E00480C4121241609EE50A0412021D90C9
:1010E8000303EAF0E50A2005026001042404121251
:0110F8005F98
:1010F90074FF04C0E01212E9120EE3E50A200502AA
:101109006003120EDAD0E0B50AE87F45120EED90C1
:101119000303E07F2B30E7047F2DF404C0E0120EB7
:10112900FBD0E075F00A84C0F0120EE4D0E0120E94
:10113900E4020F35791080027908C206C2088008D6
:10114900D2D5790A8004790AC2D5E50A047002F574
:101159000AE4FAFDFEFF120EB8FC7B082001131207
:101169000EB8FD7B1030000A120EB8FE120EB8FF41
:101179007B20EC3382D592D55013C3E43000069F0F
:10118900FFE49EFEE42001039DFDE49CFCE4CBF812
:10119900C201EC700CCFCECDCCE824F8F870F38006
:1011A90017C3EF33FFEE33FEED33FDEC33FCEB33C6
:1011B900FB994002FB0FD8E9EB300105F8D0E0C4F8
:1011C90048B201C0E00AEC4D4E4F78207B0070C256
:1011D900EAB50A0040BCC0E0121261D0F0D0E020AC
:1011E9000104C4C0E0C4B201C0F0120EE4D0F0D5CD
:1011F900F0EB020F351207CF0FD253113D580FA351
:101209004C0F9F4211414F1149441149490FB843AD
:10121900114F55107C4610DC45104647131C500FE2
:10122900A72D0FAB2E0FCE2B0FAF230FCC201305FD
:101239002A0F674800000FC6E50AB4FF03750A06BE
:10124900120EB8FC120EB8FD120EB8FE120EB8FF3F
:101259009002FC02025A790AA2D52003143005092A
:10126900B910020404B9080104A2D52006025001EC
:10127900042002689202B509005034C0E07F203092
:1012890003197F30A20272067205500F1212B8C2FA
:1012990002C206C205C2087F30800F300503E9C0CB
:1012A900E0120EFB300503D0E0F9D0E0B509CC30EF
:1012B90005177F30B9100C120EFB7F583004077FD9
:1012C900788003B90803120EFB3002057F2D020E48
:1012D900FB7F202008F87F2B2006F322920280CF83
:1012E9007F00B40700500B24FCF582E43402F58337
:1012F900E0FF22286E756C6C2900D201120EB830FD
:1013090001F8C201780930D50108F6020F672D509E
:10131900434958120EB82403B405004001E4901360
:101329001793120EEC743A120EECD20375090402EB
:02133900113D64
:1001D300E9D2E7C933E833F892D5EDD2E7CD33EC72
:0701E30033FC5002B2D522EB
:1001EA00EC30E7100FBF000C0EBE00080DBD000476
:1001FA000BEB6014A2D5EB13FCED92E7FD2274FF22
:10020A00FCFDFEFF22E480F8A2D574FF13FC7D807A
:03021A00E480EF8E
:10021D00F920E73624F950037907E4F42402FBE5CD
:10022D0082158270021583DBF6E024FB501BE9601A
:10023D0014E4F0E582158270021583E004F0B40A2F
:0D024D0008E4F0D9EE7401F00A22C2D522B7
:10025A00ED33EC3392D5FA602AB4FF33EDC2E77B73
:10026A00FF60067A02797FE4227A02798820D5042F
:10027A007A027983224E614E002B494E46002D495F
:10028A004E4600E47A08F0A3DAFC7B00740722C029
:10029A0083C082ECC0E0EDC0E0EEC0E0EFC0E0EA6F
:1002AA0075F010A4CAABF075F04DA42BFBE435F041
:1002BA00FCEA2410FAEB34C5FBEC34D9FCEDC2E7B6
:1002CA00FF75F056A4F42411C5F0F434C58FF0A4D8
:1002DA002AE5F03BE43CF020E714120527D0E0FFC2
:1002EA00D0E0FED0E0FDD0E0FC12045A8014F40401
:1002FA00120527D0E0FFD0E0FED0E0FDD0E0FC12EE
:10030A000096D082D083E0FAEDD2E7CD33EC3324E5
:10031A0082FBE4C3CF33CFCE33CECD33CD33DBF341
:10032A007B0775F00A846004F0A31B0AE5F0F0A3CA
:10033A008FF0740AA4FFACF08EF0740AA42CFEAC01
:10034A00F050010C8DF0740AA42CFDE435F0F0A3F2
:05035A00DBDE74072248
:10035F00020208E86480F8E933E83360110460F0C2
:10036F00ED33EC337009E8FCE9FDEAFEEBFF220404
:10037F0060DED3EB9FEA9EE99DE8C2E78CF0C2F7FF
:10038F0095F0400CE8CCF8E9CDF9EACEFAEBCFFBCB
:10039F001201D385D0F05804700320D5B3E8047050
:1003AF00075002B2D502021292D5EC0460F7E4CCEA
:1003BF00C0E0C398F8603B94186008400DD0E0FB94
:1003CF000201EAE4FBFAC9FC8028E830E406E4C93C
:1003DF00FBE4CAFCE830E305E4C9CACBFCE85407E8
:1003EF006010F8C3E913F9EA13FAEB13FBEC13FCF3
:1003FF00D8F130F52FC3E49CFCEF9BFFEE9AFEED96
:10040F0099FDD0E0FBEF4E4D4C701222DB03020240
:10041F000FEC2CFCEF33FFEE33FEED33FDED30E749
:10042F00EB0201EAEF2BFFEE3AFEED39FDD0E0FBD8
:10043F0050130BBB0003020212ED13FDEE13FEEF80
:08044F0013FFEC13FC0201EAAB
:10045700020212EC5D046005E85904700302020809
:100467001201D3580460F6EC4860F2EC7004FDFE0C
:10047700FF22C860DB2481C85009C3986002500678
:1004870002020F9850CAF582E9294B4A7005AB82E0
:100497000201FE75F0007C1A7880C3EF9BEE9AED9F
:1004A70099400DC3EF9BFFEE9AFEED99FDE842F0F0
:1004B700DC23ACF0D0E0FFD0E0FED0E0FDAB822043
:1004C700E7101BEB60BAEC2CFCEF33FFEE33FEEDCD
:1004D70033FD0201EAE803F830E705C0F075F000E4
:1004E700EF2FFFEE33FEED33FD40B830E7C280AAB1
:1004F7003F8000004120000042C80000447A00000D
:10050700461C400047C35000497424004B1896808E
:100517004CBEBC205A0E1BCA6753C21C749DC5AE85
:10052700FB60065407601C2323120555EB54386003
:1005370009120541120550120096ECF8EDF9EEFA92
:10054700EFCB22EB12055080F1543803241C9004A2
:10055700F7FE93FC0EEE93FD0EEE930ECE93FF2265
:0300000002204C8F
:0C204C00787FE4F6D8FD75812102209316
:10056700BB010689828A83E0225002E722BBFE0292
:09057700E32289828A83E49322C5
:10058000BB010CE58229F582E5833AF583E0225030
:1005900006E92582F8E622BBFE06E92582F8E2227A
:0D05A000E58229F582E5833AF583E4932294
:1005AD00BB010689828A83F0225002F722BBFE012D
:0205BD00F32227
:1005BF00F8BB010DE58229F582E5833AF583E8F072
:1005CF00225006E92582C8F622BBFE05E92582C81E
:0205DF00F22206
:1005E100EF8DF0A4A8F0CF8CF0A428CE8DF0A42E2E
:0205F100FE22E8
:1005F300E88FF0A4CC8BF0A42CFCE98EF0A42CFCA7
:100603008AF0EDA42CFCEA8EF0A4CDA8F08BF0A424
:100613002DCC3825F0FDE98FF0A42CCD35F0FCEB83
:100623008EF0A4FEA9F0EB8FF0A4CFC5F02ECD3948
:0F063300FEE43CFCEAA42DCE35F0FDE43CFC22B5
:1006420075F008758200EF2FFFEE33FECD33CDCC6F
:1006520033CCC58233C5829BED9AEC99E5829840F2
:100662000CF582EE9BFEED9AFDEC99FC0FD5F0D6CF
:10067200E4CEFBE4CDFAE4CCF9A88222B800C1B9F9
:100682000059BA002DEC8BF084CFCECDFCE5F0CB37
:10069200F97818EF2FFFEE33FEED33FDEC33FCEB70
:1006A20033FB10D703994004EB99FB0FD8E5E4F92B
:1006B200FA227818EF2FFFEE33FEED33FDEC33FC18
:1006C200C933C910D7059BE99A4007EC9BFCE99A0C
:1006D200F90FD8E0E4C9FAE4CCFB2275F010EF2F51
:1006E200FFEE33FEED33FDCC33CCC833C810D70751
:1006F2009BEC9AE899400AED9BFDEC9AFCE899F88C
:0E0702000FD5F0DAE4CDFBE4CCFAE4C8F9221E
:0E071000C3E49FFFE49EFEE49DFDE49CFC22FA
:10071E00EB9FF5F0EA9E42F0E99D42F0E89C45F031
:01072E0022A8
:10072F00E8600FECC313FCED13FDEE13FEEF13FFA8
:03073F00D8F122CC
:10074200BB010DE58229F582E5833AF58302083C77
:100752005007E92582F802082FBBFE07E92582F837
:10076200020848E58229F582E5833AF583020855B5
:0C077200ECF0A3EDF0A3EEF0A3EFF022FA
:10077E00A8828583F0D083D0821207951207951236
:10078E000795120795E473E493A3C583C5F0C5835B
:10079E00C8C582C8F0A3C583C5F0C583C8C582C8C5
:0107AE002228
:1007AF00F8E0FBA3A3E0F925F0F0E58215827002D3
:0707BF001583E0FA38F02277
:0907C600EBF0A3EAF0A3E9F02234
:1007CF00D083D082F8E4937012740193700DA3A3B9
:1007DF0093F8740193F5828883E4737402936860CD
:0607EF00EFA3A3A380DFCD
:1007F500D083D082E4937012740193700DA3A393F8
:10080500F8740193F5828883E4737402936C701213
:100815007403936D700C7404936E70067405936F76
:0A08250060DDA3A3A3A3A3A380CA70
:10205800022157E493A3F8E493A34003F68001F226
:1020680008DFF48029E493A3F85407240CC8C33389
:10207800C4540F4420C8834004F456800146F6DF58
:10208800E4800B0102040810204080902312E47EB3
:10209800019360BCA3FF543F30E509541FFEE4934D
:1020A800A360010ECF54C025E060A840B8E493A314
:1020B800FAE493A3F8E493A3C8C582C8CAC583CA3F
:1020C800F0A3C8C582C8CAC583CADFE9DEE780BEF7
:01236100007B
:0D082F00E6FB08E6F908E6FA08E6CBF82239
:0C083C00E0F8A3E0F9A3E0FAA3E0FB223F
:0D084800E2FB08E2F908E2FA08E2CBF82230
:10085500E493F8740193F9740293FA740393FB22F9
:00000001FF
