:020003000026D5
:020005002C3E8F
:02000700295975
:0200090029DCF0
:092C60004203330203410335175E
:100096009002D57403F0E49002D4F07B017A0279E1
:1000A600D47F0312160B9002D5740CF09002D47410
:0D00B60002F07B017A0279D47F0302160B61
:1028F9009002D47440F0A37401F0A312159E000154
:10290900C2009002DB7401F0E4A3F07B017A027942
:10291900D47F01120A3E7D017F0112250C53A23F8B
:01292900228B
:10292A009002D67401F09002D5F0E49002D7F090AC
:10293A0002D4740DF07B017A0279D4121FD2E4FB1F
:0E294A00FD7F011220BEE5BA54CF4430F5BA2D
:01295800225C
:102C2C0043BA801200961228F912292A121B18D2C4
:022C3C00AF22C5
:10002600122C2C122D50122B837F011212037F02E9
:0D0036001212037F03121203E4FF02128C6A
:101E4900EF701BED7018900335E0C3945A4006E01B
:101E590024A6F0805B900335E0240AF08052EF70ED
:101E690017EDB40113900335E0B46304E4F0804046
:101E7900900335E004F08038EFB4011BED70189041
:101E89000335E0D3940A5006E0245AF080229003E7
:101E990035E024F6F08019EFB40115EDB401119085
:101EA9000335E070057463F08006900335E014F0A3
:101EB900900335E0FF75F00A84900333F0EF75F075
:0B1EC9000A84A3E5F0F07F030213156C
:102C3E007BFF7A1E794912195B7D027F0212133CCB
:022C4E0080EE16
:10295900E49002EDF0F09002EDE0FD2433F582E41D
:102969003403F583E0FF122D537D017F0212133CDE
:0E2979009002EDE004F0E0C3940240DA80D258
:1029DC00E4FF122B1AE4FF1229B2900335E0FB7AC4
:1029EC00009002F37402F0A37410F0E4FDFF121ACD
:0829FC003D7F0112133C80E253
:03000B000210964A
:10109100C2AF80FE3212109585D00B75D008AAE040
:1010A100C28CE58A24F7F58AE58C34D8F58CD28C8C
:1010B100EC2417F8E6BC030274FFC39581B4140055
:1010C10040CE7904780E16E608700BC2AFE630E127
:1010D100034418F6D2AF08D9EDEA8BD030000122D3
:1010E100D50DFCC0E0C0D0C0F0C083C082C000C03C
:1010F10001C002C003C004C005C006C007E50C233F
:10110100240FF87440C2AF46F6D2AFD200E50CFF0F
:1011110023240FF80F0808BF04047F00780FE6307E
:10112100E4F200E50CC39F5020050C7416250CF861
:10113100E6FDA68108E6AE0CBE030274FFCDF8E819
:101141006D60E008E6C0E080F6E50CD39F4027E53E
:101151000C2417F8E6AE0CBE030274FFFD18E6CDB1
:10116100F8E5816D6006D0E0F61880F5E50C2416EF
:10117100C8F6150C80D3750D05E50C23240FF87FF7
:1011810004C2AFE610E61E30E00310E20C7F00302F
:05119100E10730E3045A
:101196007F0854F4547CC6D2AF54804207C2002262
:1011A600F6D2AFD007D006D005D004D003D002D0F7
:1011B60001D000D082D083D0F0D0D0D0E0C20022BF
:1011C6007816A68174036006FF0876FFDFFB7F04AE
:1011D600E4780EF608F608DFFA780F76309000030A
:1011E600740193C0E0E493C0E0750D054389017571
:0D11F6008AF0758CD8D28CD2AFD2A922031A
:0F2C50007D607C09ED1D70011C144C70F7DFF1E5
:012C5F002252
:102B3600AB07AA06EB1B70011A14D39400EA9400A3
:0A2B460040077F01122C5080EB22A3
:10160B00EFD3940740037FFF2212139BFED3940367
:10161B0040037FFF22EF7041EE700B90000112131D
:10162B00B4F45293529412139BB4010B9000011219
:10163B0013B44293F4529412139BFEB4020A90001B
:10164B00011213B442934294EEB4030D90000112B5
:10165B0013B4FEF45293EE4294EF640170431213F1
:10166B009BFE700B9000011213B4F452915292EE48
:10167B00B4010B9000011213B44291F45292121365
:10168B009BB4020A9000011213B4429142921213BE
:10169B009BB4030D9000011213B4FEF45291EE4271
:1016AB0092EF6402704312139BFE700B90000112B9
:1016BB0013B4F452955296EEB4010B900001121331
:1016CB00B44295F4529612139BB4020A9000011285
:1016DB0013B44295429612139BB4030D9000011262
:1016EB0013B4FEF45295EE4296EF6403704312135B
:1016FB009BFE700B9000011213B4F452B152B2EE78
:10170B00B4010B9000011213B442B1F452B2121394
:10171B009BB4020A9000011213B442B142B21213ED
:10172B009BB4030D9000011213B4FEF452B1EE42C0
:10173B00B2EF6404704312139BFE700B9000011206
:10174B0013B4F452B352B4EEB4010B900001121364
:10175B00B442B3F452B412139BB4020A90000112B8
:10176B0013B442B342B412139BB4030D9000011295
:10177B0013B4FEF452B3EE42B4EF6405704312138C
:10178B009BFE700B9000011213B4F452C952CAEEB7
:10179B00B4010B9000011213B442C9F452CA1213D4
:1017AB009BB4020A9000011213B442C942CA12132D
:1017BB009BB4030D9000011213B4FEF452C9EE4218
:1017CB00CAEF6406704312139BFE700B900001125C
:1017DB0013B4F452CB52CCEEB4010B9000011213A4
:1017EB00B442CBF452CC12139BB4020A90000112F8
:1017FB0013B442CB42CC12139BB4030D90000112D5
:10180B0013B4FEF452CBEE42CCEF640770431213C9
:10181B009BFF700B9000011213B4F452E152E2EFF4
:10182B00B4010B9000011213B442E1F452E2121313
:10183B009BB4020A9000011213B442E142E212136C
:10184B009BB4030D9000011213B4FFF452E1EF426D
:04185B00E27F002206
:100A3E009002DEEBF0A3EAF0A3E9F09002DDEFF016
:100A4E0064016003020C1C900000F0A3F0A3F0A35D
:100A5E00F0A3F09002E1F0A3F09002E1E0FEA3E03B
:100A6E00FFC39480EE9400501C74542FF5827401D1
:100A7E003EF583E4F09002E2E004F070DC9002E1D7
:100A8E00E004F080D4E49002E1F0A3F09002E1E003
:100A9E00FEA3E0FFC39480EE9400501C74142FF557
:100AAE008274003EF583E4F09002E2E004F070DC24
:100ABE009002E1E004F080D49002DEE0FBA3E0FAC5
:100ACE00A3E0F912139BFFE598543F4FF598EF649E
:100ADE00C06008EF64406003020BC790000212155D
:100AEE00627F807E8D7D5B7C001214AC9002E312DF
:100AFE001592E4FFFE7D01FC9002E3E0F8A3E0F91D
:100B0E00A3E0FAA3E0FBC312153E40037FFF229041
:100B1E0002E3E0F8A3E0F9A3E0FAA3E0FBC3E49B51
:100B2E00FFE49AFE740199FDE498FC9002E312151D
:100B3E00929002DEE0FBA3E0FAA3E0F9900001122E
:100B4E0013B4FB64017038C28E538EFE5389BF53AB
:100B5E0089CF438E409002E3E0FCA3E0FDA3E0FECC
:100B6E00A3E0FF780812154F8F8D9002E3A3A3A385
:100B7E00E0F58BC2AB5389BF538FFDD28E8073EBE2
:100B8E0064027032538EEF438E01538EF7438E0400
:100B9E009002E3E0FCA3E0FDA3E0FEA3E0FF7808F3
:100BAE0012154F8FD69002E3A3A3A3E0F5D753AF50
:100BBE00FB438E10803C7FFF229002DEE0FBA3E021
:100BCE00FAA3E0F912139BFF70139000081213B4EE
:100BDE00B40105438E20801A538EDF8015EFB4804A
:100BEE00119000081213B4B401054387808003539B
:100BFE00877F9002DEE0FBA3E0FAA3E0F990000706
:100C0E001213B47004C29C8002D29C7F0022900208
:100C1E00DDE064026003020D66900005F0A3F0A310
:100C2E00F0A3F0A3F09002E1F0A3F09002E1E0FE59
:100C3E00A3E0FFC39480EE9400501C74F42FF58251
:100C4E0074013EF583E4F09002E2E004F070DC9073
:100C5E0002E1E004F080D4E49002E1F0A3F090020F
:100C6E00E1E0FEA3E0FFC39480EE9400501C749468
:100C7E002FF58274003EF583E4F09002E2E004F07A
:100C8E0070DC9002E1E004F080D49002DEE0FBA381
:100C9E00E0FAA3E0F912139BFF64C06008EF644012
:100CAE006003020D44EFB4C005439A808003539A4B
:100CBE007F9000021215627F807E8D7D5B7C00121C
:100CCE0014AC9002E3121592E4FFFE7D01FC90023B
:100CDE00E3E0F8A3E0F9A3E0FAA3E0FBC312153EAC
:100CEE0040037FFF229002E3E0F8A3E0F9A3E0FACD
:100CFE00A3E0FBC3E49BFFE49AFE740199FDE49824
:100D0E00FC9002E3121592538EEF538EF7438E042E
:100D1E009002E3E0FCA3E0FDA3E0FEA3E0FF780871
:100D2E0012154F8FD69002E3A3A3A3E0F5D753AFCE
:100D3E00FB438E1080037FFF229002DEE0FBA3E0D8
:100D4E00FAA3E0F99000071213B4C454F0FFE59A29
:100D5E0054EF4FF59A7F00229002DDE064036003AA
:100D6E00020EFA90000AF0A3F0A3F0A3F0A3F09005
:100D7E0002E1F0A3F09002E1E0FEA3E0FFC3944095
:100D8E00EE9400501C74742FF58274023EF583E4C9
:100D9E00F09002E2E004F070DC9002E1E004F080FA
:100DAE00D4E49002E1F0A3F09002E1E0FEA3E0FFB4
:100DBE00C39440EE9400501C74142FF58274013EBF
:100DCE00F583E4F09002E2E004F070DC9002E1E0E2
:100DDE0004F080D49002DEE0FBA3E0FAA3E0F91267
:100DEE00139BFF64C06008EF64406003020ED8EFEF
:100DFE00B4C00543AC80800353AC7F900002121543
:100E0E00627F807E8D7D5B7C001214AC9002E312BB
:100E1E001592E4FFFE7D01FC9002E3E0F8A3E0F9F9
:100E2E00A3E0FAA3E0FBC312153E40037FFF22901E
:100E3E0002E3E0F8A3E0F9A3E0FAA3E0FBC3E49B2E
:100E4E00FFE49AFE740199FDE498FC9002E31215FA
:100E5E00929002DEE0FBA3E0FAA3E0F9900001120B
:100E6E0013B4FB6403702943AC409002E3E0FCA38F
:100E7E00E0FDA3E0FEA3E0FF780812154F8FD4909B
:100E8E0002E3A3A3A3E0F5D553D1F043D10A803DED
:100E9E00EB64027032538EEF53ACBF538EF7438E1A
:100EAE00049002E3E0FCA3E0FDA3E0FEA3E0FF78E4
:100EBE000812154F8FD69002E3A3A3A3E0F5D753E4
:100ECE00AFFB438E1080067FFF227FFF229002DE53
:100EDE00E0FBA3E0FAA3E0F99000071213B4C454A8
:100EEE00F0FFE5AC54EF4FF5AC7F00229002DDE051
:100EFE006404600302108E90000FF0A3F0A3F0A321
:100F0E00F0A3F09002E1F0A3F09002E1E0FEA3E086
:100F1E00FFC39420EE9400501C74B42FF58274021B
:100F2E003EF583E4F09002E2E004F070DC9002E122
:100F3E00E004F080D4E49002E1F0A3F09002E1E04E
:100F4E00FEA3E0FFC39420EE9400501C74D42FF542
:100F5E008274013EF583E4F09002E2E004F070DC6E
:100F6E009002E1E004F080D49002DEE0FBA3E0FA10
:100F7E00A3E0F912139BFF64C06008EF64406003A6
:100F8E0002106CEFB4C005438480800353847F90BD
:100F9E0000021215627F807E8D7D5B7C001214AC88
:100FAE009002E3121592E4FFFE7D01FC9002E3E055
:100FBE00F8A3E0F9A3E0FAA3E0FBC312153E400349
:100FCE007FFF229002E3E0F8A3E0F9A3E0FAA3E0AA
:100FDE00FBC3E49BFFE49AFE740199FDE498FC9038
:100FEE0002E31215929002DEE0FBA3E0FAA3E0F911
:100FFE009000011213B4FB640470294384409002E4
:10100E00E3E0FCA3E0FDA3E0FEA3E0FF78081215E9
:10101E004F8FD29002E3A3A3A3E0F5D353D10F4396
:10102E00D1A0803DEB64027032538EEF5384BF53D8
:10103E008EF7438E049002E3E0FCA3E0FDA3E0FEF6
:10104E00A3E0FF780812154F8FD69002E3A3A3A357
:10105E00E0F5D753AFFB438E1080067FFF227FFF54
:10106E00229002DEE0FBA3E0FAA3E0F99000071263
:10107E0013B4C454F0FFE58454EF4FF5847F00227F
:02108E007FFFE2
:01109000223D
:0F2C6F008F999000027401F0900002E070FA2239
:102BE00012139BFF600C122C6F740129F9E43AFA5E
:032BF00080EE2252
:0F2C7E008F9B9000077401F0900007E070FA221E
:102BF30012139BFF600C122C7E740129F9E43AFA3C
:032C030080EE223E
:0F2C8D008FAD90000C7401F090000CE070FA22F3
:102C060012139BFF600C122C8D740129F9E43AFA19
:032C160080EE222B
:0F2C9C008F859000117401F0900011E070FA2202
:102C190012139BFF600C122C9C740129F9E43AFAF7
:032C290080EE2218
:05008E00AE07022C6F1B
:03002300022211A5
:10221100C0E0C083C082C0D075D000C0073098270D
:10222100C298900003E0C394804002E4F090000360
:10223100E0FF04F074142FF582E43400F583E5998E
:10224100F09000047405F0309907C299900002E4FF
:0C225100F0D007D0D0D082D083D0E03293
:0300430002211B7C
:10211B00C0E0C083C082C0D075D000C007E59A3044
:10212B00E028539AFE900008E0C394804002E4F04C
:10213B00900008E0FF04F074942FF582E43400F56E
:10214B0083E59BF09000097405F0E59A30E10853A4
:10215B009AFD900007E4F0D007D0D0D082D083D086
:02216B00E03260
:03008B0002216DE2
:10216D00C0E0C083C082C0D075D000C007E5AC30E0
:10217D00E02853ACFE90000DE0C394404002E4F023
:10218D0090000DE0FF04F074142FF582E43401F596
:10219D0083E5ADF090000E7405F0E5AC30E1085329
:1021AD00ACFD90000CE4F0D007D0D0D082D083D01D
:0221BD00E0320E
:030093000221BF88
:1021BF00C0E0C083C082C0D075D000C007E58430B6
:1021CF00E0285384FE900012E0C394204002E4F014
:1021DF00900012E0FF04F074D42FF582E43401F57F
:1021EF0083E585F09000137405F0E58430E1085322
:1021FF0084FD900011E4F0D007D0D0D082D083D0EE
:02220F00E032BB
:1023C700EFD3940140037FFF22EDD3940340037FB3
:1023D700FF22EF7004C2A98002D2A9ED700553B79E
:1023E700FDC2B9EDB4010553B7FDD2B9EDB402058D
:1023F70043B702C2B9EDB4030543B702D2B97F00B0
:0124070022B2
:10240800EFD3940140037FFF22EDD3940340037F71
:10241800FF22EF7004C2AB8002D2ABED700553B758
:10242800F7C2BBEDB4010553B7F7D2BBEDB4020553
:1024380043B708C2BBEDB4030543B708D2BB7F005E
:012448002271
:102A9600EFD3940140037FFF22EDD3940340037FDD
:102AA600FF22EF25E025E0FFE5AF54FB4FF5AFE44D
:022AB600FF22FD
:102AB800EFD3940140037FFF22EDD3940340037FBB
:102AC800FF22EFC43354E0FFE5AF54DF4FF5AFE426
:022AD800FF22DB
:102A5000EFD3940140037FFF22EDD3940340037F23
:102A6000FF22EFC4333354C0FFE5AF54BF4FF5AF7F
:032A7000E4FF225E
:10244900EFD3940140037FFF22EDD3940340037F30
:10245900FF22EF7004C2A88002D2A8ED700553B71D
:10246900FEC2B8EDB4010553B7FED2B8EDB402050A
:1024790043B701C2B8EDB4030543B701D2B87F0031
:012489002230
:10248A00EFD3940140037FFF22EDD3940340037FEF
:10249A00FF22EF7004C2AA8002D2AAED700553B7D8
:1024AA00FBC2BAEDB4010553B7FBD2BAEDB40205CB
:1024BA0043B704C2BAEDB4030543B704D2BA7F00E6
:0124CA0022EF
:102B9C00EFD3940140037FFF22EFC454F0FFE58F85
:082BAC0054EF4FF58FE4FF2206
:102B6A00EFD3940140037FFF22EFC43354E0FFE523
:092B7A008F54DF4FF58FE4FF22B8
:102B5000EFD3940140037FFF22EFC4333354C0FF0F
:0A2B6000E58F54BF4FF58FE4FF220C
:1024CB00EFD3940140037FFF22EDD3940340037FAE
:1024DB00FF22EF7004C2AD8002D2ADED700553B791
:1024EB00DFC2BDEDB4010553B7DFD2BDEDB40205BC
:1024FB0043B720C2BDEDB4030543B720D2BD7F0067
:01250B0022AD
:10225D00EDD3940340037FFF22EF30E10543E620E9
:10226D00800353E6DFEF30E00543E610800353E6CD
:10227D00EFED700653B6DF53B5DFEDB4010653B67F
:10228D00DF43B520EDB4020643B62053B5DFEDB400
:0B229D00030643B62043B5207F00225B
:1020BE00EFD3940140037FFF22EBD3940340037FC1
:1020CE00FF22EFB40112ED90FE817006E0547FF016
:1020DE008011E04480F0800BEF700890FE83E05496
:1020EE00874DF0EB700653B6DF53B5DFEBB4010648
:1020FE0053B6DF43B520EBB4020643B62053B5DF2B
:0D210E00EBB4030643B62043B5207F00224A
:10250C00EFD3940140037FFF22EDD3940340037F6C
:10251C00FF22EF7004C2AC8002D2ACED700553B751
:10252C00EFC2BCEDB4010553B7EFD2BCEDB402055C
:10253C0043B710C2BCEDB4030543B710D2BC7F0047
:01254C00226C
:10004600EFD3940140037FFF22EDD3940340037F57
:10005600FF22E5AF54FE4FF5AFED700653B6FE53E3
:10006600B5FEEDB4010653B6FE43B501EDB4020686
:1000760043B60153B5FEEDB4030643B60143B501DD
:030086007F0022D6
:1022A800EFD3940140037FFF22EDD3940340037FD3
:1022B800FF22EF33333354F8FFE5AF54F74FF5AF50
:1022C800ED700653EEFE53DFFEEDB4010653EEFE4D
:1022D80043DF01EDB4020643EE0153DFFEEDB40324
:0A22E8000643EE0143DF017F0022F0
:1022F200EFD3940140037FFF22EDD3940340037F89
:10230200FF22EFC454F0FFE5AF54EF4FF5AFED708D
:102312000653EEFD53DFFDEDB4010653EEFD43DF40
:1023220002EDB4020643EE0253DFFDEDB4030643B1
:08233200EE0243DF027F0022EE
:10233A00EFD3940140037FFF22EDD3940340037F40
:10234A00FF22EF25E0FFE5AF54FD4FF5AFED700634
:10235A0053B6FD53B5FDEDB4010653B6FD43B502C0
:10236A00EDB4020643B60253B5FDEDB4030643B617
:07237A000243B5027F0022BF
:101ED400EFD3948140037FFF22EBD3940340037F2D
:101EE400FF22EF247F603204705D90FEC4EDF0EBBE
:101EF400700653B6FB53B5FBEBB4010653B6FB4374
:101F0400B504EBB4020643B60453B5FBEB640370AB
:101F14003B43B60443B504803390FEE4EDF0EB702C
:101F24000653B6F753B5F7EBB4010653B6F743B50A
:101F340008EBB4020643B60853B5F7EBB4030D43FC
:0F1F4400B60843B508800590FEE4EDF07F00225B
:10254D00EDD394035029ED700653EEFB53DFFBEDF5
:10255D00B4010653EEFB43DF04EDB4020643EE0473
:10256D0053DFFBEDB4030B43EE0443DF0480037F25
:0A257D00FF2290FE62EFF07F0022C3
:1025C00090FA10E054F0F0EDD39403500BE0FEEDE0
:1025D00025E025E0FDEE4DF0EBD39403500690FA94
:1025E00010E04BF0EF90FA10B40106E04480F08068
:0825F00004E0547FF07F00229B
:1025F80090FA00E054F0F0EDD39403500BE0FEEDB8
:1026080025E025E0FDEE4DF0EBD39403500690FA5B
:1026180000E04BF0EF90FA00B40106E04480F0804F
:0826280004E0547FF07F002262
:1026300090FA20E054F0F0EDD39403500BE0FEED5F
:1026400025E025E0FDEE4DF0EBD39403500690FA23
:1026500020E04BF0EF90FA20B40106E04480F080D7
:0826600004E0547FF07F00222A
:1026680090FA30E054F0F0EDD39403500BE0FEED17
:1026780025E025E0FDEE4DF0EBD39403500690FAEB
:1026880030E04BF0EF90FA30B40106E04480F0807F
:0826980004E0547FF07F0022F2
:1026A00090FA38E054F0F0EDD39403500BE0FEEDD7
:1026B00025E025E0FDEE4DF0EBD39403500690FAB3
:1026C00038E04BF0EF90FA38B40106E04480F08037
:0826D00004E0547FF07F0022BA
:1026D80090FA40E054F0F0EDD39403500BE0FEED97
:1026E80025E025E0FDEE4DF0EBD39403500690FA7B
:1026F80040E04BF0EF90FA40B40106E04480F080EF
:0827080004E0547FF07F002281
:1027100090FA48E054F0F0EDD39403500BE0FEED56
:1027200025E025E0FDEE4DF0EBD39403500690FA42
:1027300048E04BF0EF90FA48B40106E04480F080A6
:0827400004E0547FF07F002249
:1027480090FA50E054F0F0EDD39403500BE0FEED16
:1027580025E025E0FDEE4DF0EBD39403500690FA0A
:1027680050E04BF0EF90FA50B40106E04480F0805E
:0827780004E0547FF07F002211
:1027800090FA58E054F0F0EDD39403500BE0FEEDD6
:1027900025E025E0FDEE4DF0EBD39403500690FAD2
:1027A00058E04BF0EF90FA58B40106E04480F08016
:0827B00004E0547FF07F0022D9
:1027B80090FA60E054F0F0EDD39403500BE0FEED96
:1027C80025E025E0FDEE4DF0EBD39403500690FA9A
:1027D80060E04BF0EF90FA60B40106E04480F080CE
:0827E80004E0547FF07F0022A1
:1027F00090FA68E054F0F0EDD39403500BE0FEED56
:1028000025E025E0FDEE4DF0EBD39403500690FA61
:1028100068E04BF0EF90FA68B40106E04480F08085
:0828200004E0547FF07F002268
:1028280090FA70E054F0F0EDD39403500BE0FEED15
:1028380025E025E0FDEE4DF0EBD39403500690FA29
:1028480070E04BF0EF90FA70B40106E04480F0803D
:0828580004E0547FF07F002230
:1029870090FE50E054CFF0EDD39403500AE0FEEDF3
:10299700C454F0FDEE4DF0EF90FE50B40106E04454
:0B29A70080F08004E0547FF07F0022ED
:101FD2009000021213B46401702A90FE80E0444023
:101FE200F090FE82E4F012139B543FFF90FE80E0DB
:101FF20054C04FF09000031213B490FE88B4010253
:102002008031802990FE80E054BFF090FE84E4F09D
:102012009000041213B425E0FF90FE85E054014FB6
:10202200F09000051213B490FE85B40106E054FE50
:10203200F08004E04401F09000011213B490FE809D
:0C2042007005E0547FF022E04480F022A2
:082D410090FE82E05480FF22A5
:0C2D100090FE82E030E6F9E054BFF022B3
:092D260090FE817401F0022D10F1
:0E2CE70090FE86EFF090FE817402F0022D1038
:0E2BB400122D26122CE7122BC2AF05122CE7B1
:092BC20090FE817403F0022D1055
:0F2CAB0090FE817404F0122D1090FE87E0FF223E
:0E2CF50090FE82E4F090FE817405F0022D1036
:0F2CBA0090FE827401F090FE817405F0022D10DF
:092D2F0090FE817406F0022D10E3
:0D2D030090FE86EDF090FE81EFF0022D10A5
:10289400900307EBF0A3EAF0A3E9F0122BB4900342
:1028A40007E0FBA3E475F00112145AA9F0FA12131D
:1028B4009BFF122CE7122BC290030AE014F070DE87
:0328C400022D2FB3
:10258700AE07122BB4122D26EE4401FF122CE712D0
:102597002BC2122CABEF1213E1740129F9E43AFABA
:1025A700900332E064016003122CF5900332E014CB
:0925B700F070DF122CBA022D2F86
:0300C300021BDD40
:101BDD00C0E0C083C082C0D075D000C006C00790E1
:101BED00FE84E030E607E054BFF0021C8090FE84D6
:101BFD00E030E53BE054DFF0900337E06004E4F0C3
:101C0D008071900336E0600DE4F090FE87E0900364
:101C1D0038F0E0803790FE87E0FF900338E0FE0457
:101C2D00F074162EF582E43403F583EFF0804490C2
:101C3D00FE84E030E426E054EFF0E030E10890FE61
:101C4D008674FFF0802D900338E004F02416F582A1
:101C5D00E43403F583E090FE86F0801790FE84E077
:101C6D0030E310E054F7F09003377401F090033631
:101C7D00F0D201D007D006D0D0D082D083D0E032C0
:102ADA00C0F9A4B0999282F88090407924301912F2
:102AEA00027800107FBF8883C6A1868E89F1C78CC1
:022AFA0098C181
:072D490053B3E353B4E3228E
:032D5000022D4908
:101F53009002EE7407F09002EEE0FEC3648094807A
:101F63004022EF902ADA93FCA806088002C313D814
:101F7300FC1392C4C2C20000D2C200009002EEE081
:041F830014F080D204
:101F87009002EE7407F09002EEE0FCC36480948048
:101F970040307E007401A805088005C333CE33CED8
:101FA700D8F9A804088006CEA2E713CE13D8F813F1
:101FB70092C4C2C20000D2C200009002EEE014F048
:021FC70080C4D4
:091FC900C2C30000D2C3000022D3
:032D5300021F5309
:052C6900420339FFFFEA
:102A0400EF7003C38001D392B4EFB40103C3800118
:102A1400D392B5EFB40203C38001D392C0EFB403E1
:082A240003C38001D392C1221B
:102A7300EF14600E14600F14601024037012A2830D
:102A8300800AA2868006A2878002A297E433FF22EF
:032A93007F00229F
:102B830053933753943753917F53927F53B1CF531A
:092B9300B2CF53B3FC53B4FC2291
:0B195B009002E7EBF0A3EAF0A3E9F034
:10196600E4A3F0A3F0A3F09002EAF09002EAE0FF0D
:10197600C394044003021A3C122A04E4A3F0900222
:10198600EBE0FFC394044003021A33122A73EFFDFF
:101996007C00A3E0FF900339E0FEA3E0A8070880DF
:1019A60005CEC313CE13D8F954016D7001EC606EE9
:1019B6009002EBE0FF122A737E00A3E0FDEFA8057C
:1019C600088005C333CE33CED8F9FBAA067E007451
:1019D60001A805088005C333CE33CED8F9F4FFEE4F
:1019E600F4FE900339E05EFEA3E05FFFEE4AFEEFF1
:1019F6004BFF900339EEF0A3EFF09002EBE0FF12FD
:101A06002A73EF70199002EAE0FFA3E0FD9002E767
:101A1600A3E0FAA3E0F5828A83E4FB1215D39002D1
:101A2600ECE004F09002EBE004F00219849002EA84
:061A3600E004F00219714A
:011A3C002287
:1000C6000000000000000000002F000000000700F4
:1000D600070000147F147F1400242A7F2A1200626E
:1000E600640813230036495522500000050300001A
:1000F60000001C224100000041221C000014083EA2
:1001060008140008083E0808000000A06000000867
:1001160008080808000060600000002010080402BB
:10012600003E5149453E0000427F40000042615179
:100136004946002141454B31001814127F10002713
:1001460045454539003C4A494930000171090503D6
:1001560000364949493600064949291E0000363607
:10016600000000005636000000081422410000146A
:100176001414141400004122140800020151090647
:1001860000324959513E007C1211127C007F4949C8
:100196004936003E41414122007F4141221C007FF9
:1001A60049494941007F09090901003E4149497A07
:1001B600007F0808087F0000417F41000020404181
:1001C6003F01007F08142241007F40404040007FED
:1001D600020C027F007F0408107F003E4141413E31
:1001E600007F09090906003E4151215E007F091979
:1001F60029460046494949310001017F0101003F76
:100206004040403F001F2040201F003F4038403FF5
:100216000063140814630007087008070061514959
:10022600454300007F41410000552A552A550000EC
:1002360041417F000004020102040040404040406A
:10024600000001020400002054545478007F484402
:10025600443800384444442000384444487F003839
:100266005454541800087E0901020018A4A4A47C62
:10027600007F080404780000447D4000004080842C
:100286007D00007F102844000000417F4000007C74
:1002960004180478007C0804047800384444443880
:1002A60000FC242424180018242418FC007C0804CC
:1002B600040800485454542000043F444020003CA5
:1002C6004040207C001C2040201C003C4030403C2C
:1002D600004428102844001CA0A0A07C00446454BC
:1002E6004C44141414141414000000000000000000
:1002F6000000000000000000000000F80000000000
:10030600000000333000000000100C06100C060040
:10031600000000000000000040C07840C0784000A7
:10032600043F04043F040400007088FC0830000009
:10033600001820FF211E0000F008F000E018000061
:1003460000211C031E211E0000F00888700000001A
:100356001E2123241927211010160E00000000006C
:100366000000000000000000000000E01804020089
:10037600000000071820400000020418E0000000FA
:100386000040201807000000404080F080404000F8
:100396000202010F01020200000000F0000000004E
:1003A6000101011F01010100000000000000000022
:1003B60080B0700000000000000000000000000097
:1003C6000001010101010101000000000000000020
:1003D60000303000000000000000000080601804BB
:1003E600006018060100000000E010080810E00098
:1003F600000F102020100F00001010F80000000061
:100406000020203F202000000070080808887000A7
:100416000030282422213000003008888848300027
:100426000018202020110E000000C02010F8000047
:1004360000070424243F240000F8088888080800E0
:100446000019212020110E0000E0108888180000F5
:10045600000F112020110E0000380808C8380800C7
:100466000000003F00000000007088080888700047
:10047600001C222121221C0000E010080810E000C8
:100486000000312222110F00000000C0C000000051
:100496000000003030000000000000800000000076
:1004A600000080600000000000008040201008006E
:1004B6000001020408102000404040404040400037
:1004C6000404040404040400000810204080000012
:1004D6000020100804020100007048080808F00017
:1004E6000000003036010000C030C828E810E000E7
:1004F6000718272423140B000000C038E000000072
:10050600203C23020227382008F8888888700000DB
:10051600203F202020110E00C030080808083800AF
:10052600071820202010080008F808080810E00026
:10053600203F202020100F0008F88888E8081000C7
:10054600203F20202320180008F88888E80810009B
:10055600203F200003000000C030080808380000D3
:1005660007182020221E020008F808000008F808D4
:10057600203F210101213F20000808F8080800005B
:100586000020203F2020000000000808F80808008E
:10059600C08080807F00000008F888C02818080006
:1005A600203F20012638200008F80800000000003F
:1005B600203F20202020300008F8F800F8F8080036
:1005C600203F003F003F200008F830C00008F80830
:1005D600203F200007183F00E01008080810E00040
:1005E6000F10202020100F0008F808080808F00057
:1005F600203F210101010000E01008080810E0007A
:100606000F18242438504F0008F88888888870000E
:10061600203F2000030C30200070880808083800AE
:100626000038202121221C00180808F808081800A4
:100636000000203F2000000008F808000008F80825
:10064600001F202020201F000878880000C83808D6
:10065600000007380E010000F80800F80008F8004E
:10066600033C0700073C03000818688080681808E8
:1006760020302C03032C30200838C800C838080066
:100686000000203F2000000010080808C8380800B5
:100696002038262120201800000000FE0202020059
:1006A6000000007F40404000000C30C00000000009
:1006B600000000010638C00000020202FE00000031
:1006C600004040407F0000000000040202020400D7
:1006D6000000000000000000000000000000000014
:1006E60080808080808080800002020400000000FC
:1006F60000000000000000000000808080800000F4
:100706000019242222223F2008F8008080000000E1
:10071600003F112020110E000000008080800000A4
:10072600000E112020201100000000808088F800B3
:10073600000E112020103F200000808080800000E5
:10074600001F222222221300008080F08888881849
:100756000020203F20200000000080808080800054
:10076600006B94949493600008F8008080800000E9
:10077600203F210000203F200080989800000000C4
:100786000020203F202000000000008098980000F4
:1007960000C08080807F000008F800008080800014
:1007A600203F24022D302000000808F80000000039
:1007B6000020203F202000008080808080808000F4
:1007C600203F20003F20003F808000808080000086
:1007D600203F210000203F20000080808080000014
:1007E600001F202020201F00808000808000000045
:1007F60080FFA12020110E00000000808080800074
:10080600000E112020A0FF80808080008080800064
:1008160020203F2120000100000080808080800091
:100826000033242424241900008080E08080000006
:100836000000001F20200000808000000080800053
:10084600001F202020103F208080800000808080B4
:1008560000010E3008060100808000800080808044
:100866000F300C030C300F00008080008080800069
:100876000020312E0E312000808080000080808094
:1008860080818E7018060100008080808080800044
:100896000021302C2221300000000000807C020262
:1008A60000000000003F404000000000FF00000084
:1008B60000000000FF0000000002027C8000000033
:1008C6000040403F0000000000060101020204044F
:1008D600000000000000000000003E222A3222FE36
:1008E60022322A223E0000008868090929C9090F18
:1008F60029C9090929C80800000202F282828282F7
:100906008282FE808080000008080808080808081F
:1009160008084880403F00002424A4FE2322003E0D
:1009260022222222223E0000080601FF010640493B
:1009360049497F49494941000000FC040404141553
:10094600569454341404040040300F000101014150
:10095600817F0101010503000000C05E5252525220
:100966005252525EC000000080808F404020100E20
:10097600101020204F800000008060F80740484893
:10098600E85F484848404000010000FF0000020BB5
:100996001222D20A06000000109453321E32521060
:1009A600007E4242427E0000000000FF494949495C
:1009B600494949FF0000000020A4A4A4FFA4B428CC
:1009C60084708F0808F80800040A49887E050484A4
:1009D6004020130C33408000040424B4ACA4A5A624
:1009E600A4A4A4B464040400000000FF0A0A0A0ACE
:1009F6000A4A8A7F0000000000FC0404FC205048DC
:100A06004443444850202000000F04040F00FE42D7
:100A160042424242FE00000040C0C0C0C0E0FCFFAF
:100A2600FCE0C0C0C0C04000000041393F1F1F0F9E
:080A36001F1F3F3941000000C1
:102B1A009002EFEFF07006FD7FA61228719002EF87
:0C2B2A00E0B40107E4FD7FA7122871222F
:1029B2009002EFEFF0700DFD7FC8122871E4FD7FE9
:1029C200A11228719002EFE0B4010EE4FD7FC01263
:0A29D2002871E4FD7FA01228712295
:082D38007F01AE071FEE70FAE7
:012D40002270
:0F2CC900D2B3D2B2122D38C2B3122D38C2B222FA
:0A2D1C00C2B3D2B2122D38D2B32296
:0F2CD800D2B3122D38D2B2122D38C2B2022D381B
:022A2C00AD07F4
:102A2E00E4FCC2B2ED30E704D2B38002C2B3122D81
:102A3E0038D2B2122D38C2B2ED25E0FD0CECB4083E
:012A4E00E1A6
:012A4F002264
:10286000F583E5822FF582E5833EF583E493FF7DD2
:012870000166
:10287100900304EFF0ED7B017A03790490030A6081
:10288100077401F07D4080057401F0E4FD7F78124A
:0328910028942266
:0728C700E0FFA3E0FD04F0B7
:1028CE00900303EFF0ED24B0FFE4FD1228719003A6
:1028DE0003E054F0C4540F4410FFE4FD122871902D
:0B28EE000303E0540FFFE4FD0228711B
:10000E00E4FD7F8D122871E4FD7F14122871E4FD4A
:05001E007FAF02287114
:102BCB00E4FD7F8D122871E4FD7F10122871E4FD66
:052BDB007FAE0228712D
:10238100E49002D4F09002D4E0FFC394085036EFF9
:1023910024B0FFE4FD122871E4FDFF122871E4FD71
:1023A1007F10122871E49002D5F07D01E4FF12281C
:1023B100719002D5E004F0E0C3948040ED9002D426
:0523C100E004F080C003
:0123C60022F4
:08185F009002F9EFF0A3EDF097
:10186700E49002FDF09002FCE0FFC313FD9002FE3E
:10187700F0E4A3F0A3F0EFB40809A3E4F0A374061F
:10188700F080319002FCE0FF131313541FF58275AB
:101897008300EF54077E0060047F0180027F00EF22
:1018A7002582FFEE3583FE7C001213F3900301EED1
:1018B700F0A3EFF0EB24E09002FDF09002F9E0FFD7
:1018C700A3E0FD1228CEE49002FFF0A3F0900301FD
:1018D700E0FCA3E0FD9002FFE0FEA3E0FFC39DEE66
:1018E7009C50709002FEE0FD7C00121405ED4C70D8
:1018F7000E9002FCE0640860069002F91228C79077
:1019070002FCE0B4081A9002FFE0FEA3E0FF900299
:10191700FDE075F006A424C6F582E5F03400801FCB
:101927009002FCE0B4102C9002FFE0FEA3E0FF90D1
:1019370002FDE075F010A424EEF582E5F034021202
:101947002860900300E004F070069002FFE004F0C6
:031957000218D49F
:01195A00226A
:072AFC009002F9EFF0A905BB
:102B03007F017E00AD0119ED600C9002F9E0FD7CC0
:062B1300001213F380EE36
:012B19002299
:0E1A3D009002EFEFF0A3EDF0A3EAF0A3EBF0C0
:101A4B00E49002F7F0A3F09002F4E0B408069002E1
:101A5B00F77402F0E49002F5F09002F3E0FF9002CD
:101A6B00F5E0FEC39F4003021B17C3EF9E14FD7FDF
:101A7B000A122AFC9002F1E0FCA3E0FDCFCDCFCE01
:101A8B00CCCE1214057C007D0A1214059002F6EDE3
:101A9B00F09002F8E0703C9002F3E014FF9002F536
:101AAB00E0FEC39F502DA3E070239002F4E0FCC333
:101ABB0013FF9002F7E02F8EF0A4FF9002EFE02FC0
:101ACB00FFA3E0FD9002FCECF07B2080339002F84A
:101ADB007401F09002F4E0FEC313FF9002F7E02FC5
:101AEB00FF9002F5E0FDEF8DF0A4FF9002EFE02FE9
:101AFB00FFA3E0FD9002F6E02430FB9002FCEEF039
:0C1B0B0012185F9002F5E004F0021A646A
:011B170022AB
:10204E00900326EFF0A3EDF0A3EBF0A3EAF0A3E9E3
:01205E00F091
:10205F00E490032CF0900328E0FBA3E0FAA3E0F94F
:10206F0090032CE0F5827583001213B46040900347
:10207F0026E0FFA3E0FD90032CE0FE04F08E8275B6
:10208F0083001213B4FB90032BE09002FCF01218A4
:10209F005F90032BE0FFB40809900326E02406F0BD
:0E20AF0080B3EFC313FF900326E02FF080A74D
:0120BD002200
:0B1C8D0090031EEFF0A3EDF0A3EBF0BE
:101C9800A3E0FF131313541FFD7C00EF54077E00CD
:101CA80060047F0180027F00EF2DFFEE3CFE900371
:101CB80021E0FD7C001213F3900324EEF0A3EFF073
:101CC800E4900322F0A3F0900324E0FCA3E0FD904D
:101CD8000322E0FEA3E0FFC39DEE9C504490032145
:101CE800E0FD7C00121405ED4C700690031E1228CE
:101CF800C7900321E0B41029A3E0FEA3E0FF9003FE
:101D080020E075F020A424DEF582E5F034081228DE
:101D180060900323E004F070AE900322E004F080AA
:011D2800A614
:011D29002297
:0B1D2A0090030BEFF0A3EDF0A3EBF033
:101D3500E4900312F0A3F090030EE0FF1313135485
:101D45001FFEEF540760047F0180027F00EE2F9095
:101D5500030EF0E4900314F090030EE0FF900314DB
:101D6500E0FEC39F505190030BE0FFA3E0FDEE2D75
:101D7500FD1228CEE4900315F090030DE0FF9003CB
:101D850015E0C39F502990030FE0FBA3E0FAA3E001
:101D9500F9A3E475F00112145A85F082F583121344
:101DA500B4FF7D01122871900315E004F080CA90FC
:071DB5000314E004F080A11B
:011DBC002204
:101B1800E4FD7FAE122871E4FDFF122871E4FD7F19
:101B280010122871E4FD7F40122871E4FD7F8112B4
:101B38002871E4FD7FCF122871E4FD7FA11228717E
:101B4800E4FD7FC8122871E4FD7FA6122871E4FD28
:101B58007FA8122871E4FD7F3F122871E4FD7FD32E
:101B6800122871E4FDFF122871E4FD7FD512287157
:101B7800E4FD7F80122871E4FD7FD9122871E4FD0D
:101B88007FF1122871E4FD7FDA122871E4FD7F12DB
:101B9800122871E4FD7FDB122871E4FD7F401228D2
:101BA80071E4FD7F20122871E4FD7F02122871E4A0
:101BB800FD7F8D122871E4FD7F14122871E4FD7FEA
:101BC800A4122871E4FD7FA6122871122381E4FD76
:051BD8007FAF0228713F
:10120300EFD3940340037FFF22740F2F2FF8E620C0
:10121300E5F4C2AFE64430F6D2AFAE0CEEC39F5056
:10122300210E74162EF8E6F908E618BE030274FFC1
:10123300FDED69600909E71919F7090980F3161625
:1012430080DAEED39F400405810581EED39F4022CF
:1012530074162EF808E6F9EEB50C02A981180606F5
:10126300E6FDED6960091919E70909F71980F31E0D
:1012730080D9EF2416F8E604F8EF2F0490000393C7
:09128300F608EF2F93F67F00221C
:10128C00EFD3940340037FFF22EF23240FF8E630C3
:10129C00E5F4C2AFE6548CF6D2AFE50CB5070A7490
:1012AC00162FF8E6F58102110C502E74172FF8E664
:1012BC00BF030274FFFD18E6F974162FF8FBE6FC69
:1012CC00E96C6008A805E7F61D1980F4A803A605CB
:1012DC001FE50CB507E37F002274172FF8E6FD1805
:1012EC0086010F74162FF8A601088604E50CB507C5
:1012FC0002AC81ED6C60080D09A805E6F780F4E5F9
:09130C000CB507DE89817F002287
:10131500EFD3940340037FFF22EF23240FF8C2AFDE
:10132500E630E50530E002D2E4D2E2C6D2AF7F0076
:0713350030E2010F0210E09D
:10133C008FF0E4FFFEE50C23240EF8C2A930F70D64
:10134C007F08E6600B2DF660325030800730F106D6
:10135C00EDF660277E020830F010C2AFE610E725EC
:10136C000E30E20CD2AF7F048014C2AFE610E7154A
:10137C0054EC4EF6D2AFD2A902110C7F0808EF4400
:0F138C0083F4C2AF56C6D2AFD2A954804FFF220E
:03000000021DBD21
:0C1DBD00787FE4F6D8FD758120021E043A
:10139B00BB010689828A83E0225002E722BBFE0250
:0913AB00E32289828A83E4932283
:1013B400BB010CE58229F582E5833AF583E02250EE
:1013C40006E92582F8E622BBFE06E92582F8E22238
:0D13D400E58229F582E5833AF583E4932252
:1013E100BB010689828A83F0225002F722BBFE01EB
:0213F100F322E5
:1013F300EF8DF0A4A8F0CF8CF0A428CE8DF0A42E0E
:02140300FE22C7
:10140500BC000BBE0029EF8DF084FFADF022E4CCCB
:10141500F875F008EF2FFFEE33FEEC33FCEE9DEC94
:10142500984005FCEE9DFE0FD5F0E9E4CEFD22EDDA
:10143500F8F5F0EE8420D21CFEADF075F008EF2F24
:10144500FFED33FD4007985006D5F0F222C398FD15
:051455000FD5F0EA22B2
:10145A00A3F8E0C5F025F0F0E58215827002158345
:06146A00E0C838F0E822A2
:1014700075F008758200EF2FFFEE33FECD33CDCC33
:1014800033CCC58233C5829BED9AEC99E5829840B6
:101490000CF582EE9BFEED9AFDEC99FC0FD5F0D693
:1014A000E4CEFBE4CDFAE4CCF9A88222B800C1B9BD
:1014B0000059BA002DEC8BF084CFCECDFCE5F0CBFB
:1014C000F97818EF2FFFEE33FEED33FDEC33FCEB34
:1014D00033FB10D703994004EB99FB0FD8E5E4F9EF
:1014E000FA227818EF2FFFEE33FEED33FDEC33FCDC
:1014F000C933C910D7059BE99A4007EC9BFCE99AD0
:10150000F90FD8E0E4C9FAE4CCFB2275F010EF2F14
:10151000FFEE33FEED33FDCC33CCC833C810D70714
:101520009BEC9AE899400AED9BFDEC9AFCE899F84F
:0E1530000FD5F0DAE4CDFBE4CCFAE4C8F922E2
:10153E00EB9FF5F0EA9E42F0E99D42F0E89C45F003
:01154E00227A
:10154F00E8600FECC313FCED13FDEE13FEEF13FF7A
:03155F00D8F1229E
:10156200BB010DE58229F582E5833AF5830215E296
:101572005007E92582F80215D5BBFE07E92582F856
:101582000215EEE58229F582E5833AF5830215FB21
:0C159200ECF0A3EDF0A3EEF0A3EFF022CC
:10159E00A8828583F0D083D0821215B51215B512AC
:1015AE0015B51215B5E473E493A3C583C5F0C583D1
:1015BE00C8C582C8F0A3C583C5F0C583C8C582C897
:0115CE0022FA
:0615CF008A838982E473A7
:101DC9000211C6E493A3F8E493A34003F68001F259
:101DD90008DFF48029E493A3F85407240CC8C3331B
:101DE900C4540F4420C8834004F456800146F6DFEA
:101DF900E4800B0102040810204080902C60E47EEE
:101E0900019360BCA3FF543F30E509541FFEE493DE
:101E1900A360010ECF54C025E060A840B8E493A3A5
:101E2900FAE493A3F8E493A3C8C582C8CAC583CAD0
:101E3900F0A3C8C582C8CAC583CADFE9DEE780BE88
:012C6E000065
:0D15D500E6FB08E6F908E6FA08E6CBF82286
:0C15E200E0F8A3E0F9A3E0FAA3E0FB228C
:0D15EE00E2FB08E2F908E2FA08E2CBF8227D
:1015FB00E493F8740193F9740293FA740393FB2246
:00000001FF
