:0200030019BC26
:020005001901DF
:020007000026D1
:10116F00CAFDBEDDB7A2C9FAB1E4BBAF2C20CDA832
:10117F00D6AAC6C1C4BBCBA2D0C20A007461736B1E
:10118F00325F6F6C65642D3EB5C8B4FDD0C5BAC56E
:10119F000A007461736B325F6F6C65642D3E6F6C08
:1011AF006564C6C1C4BBCBA2D0C23A202563210A55
:0111BF00002F
:031A1200010E20A2
:1018E100752408E4F523FB7A0079237F05120BD6D2
:1018F100752403E4F523FB7A0079237F03020BD6D9
:101824007523407524017528007527C27526017536
:101834002500752A01E4F52BFB7A0079237F011238
:0C18440000967D017F0112152753A23F82
:011850002275
:0C19DE0043BA801218E1121824D2AF2284
:1019BC001219DE7F01120A3E7F02120A3EE4FF0278
:0219CC000AC748
:10196C00E4F5367BFF7A11796F1205D2900000E016
:07197C00F50E7F02020B5083
:10190100E563D394004010D5630DE562D3940040A4
:101911000312196CE4F5627D017F02120B7780E0FE
:100026007BFF7A11798B1205D27F01120B777BFF4A
:0C0036007A1179A1850E4E1205D280E4EB
:03000B000208D117
:1008CC00C2AF80FE321208D085D00B75D008AAE0DA
:1008DC00C28CE58A24F7F58AE58C34D8F58CD28C59
:1008EC00EC2416F8E6BC020274FFC39581B4140024
:1008FC0040CE7903780F16E608700BC2AFE630E1F4
:10090C00034418F6D2AF08D9EDEA8BD0301201228D
:10091C00D50DFCC0E0C0D0C0F0C083C082C000C008
:10092C0001C002C003C004C005C006C007E50C230B
:10093C002410F87440C2AF46F6D2AFD212E50CFFC9
:10094C00232410F80F0808BF03047F007810E6304A
:10095C00E4F200E50CC39F5020050C7415250CF82F
:10096C00E6FDA68108E6AE0CBE020274FFCDF8E8E7
:10097C006D60E008E6C0E080F6E50CD39F4027E50B
:10098C000C2416F8E6AE0CBE020274FFFD18E6CD80
:10099C00F8E5816D6006D0E0F61880F5E50C2415BD
:1009AC00C8F6150C80D3750D05E50C232410F87FC3
:1009BC0004C2AFE610E61E30E00310E20C7F0030FC
:0509CC00E10730E30427
:1009D1007F0854F4547CC6D2AF54804207C212221D
:1009E100F6D2AFD007D006D005D004D003D002D0C4
:1009F10001D000D082D083D0F0D0D0D0E0C212227A
:100A01007815A68174026006FF0876FFDFFB7F037D
:100A1100E4780FF608F608DFFA78107630900003D4
:100A2100740193C0E0E493C0E0750D05438901753D
:0D0A31008AF0758CD8D28CD2AFD2A92202E7
:100BD600EFD3940740037FFF22120E2AFED394031D
:100BE60040037FFF22EF7041EE700B900001120E62
:100BF60043F452935294120E2AB4010B9000011240
:100C06000E434293F45294120E2AFEB4020A900046
:100C160001120E4342934294EEB4030D900001126A
:100C26000E43FEF45293EE4294EF64017043120EAB
:100C36002AFE700B900001120E43F452915292EE6E
:100C4600B4010B900001120E434291F45292120E1F
:100C56002AB4020A900001120E4342914292120EE9
:100C66002AB4030D900001120E43FEF45291EE4297
:100C760092EF64027043120E2AFE700B900001126E
:100C86000E43F452955296EEB4010B900001120EEB
:100C9600434295F45296120E2AB4020A90000112AB
:100CA6000E4342954296120E2AB4030D900001128D
:100CB6000E43FEF45295EE4296EF64037043120E15
:100CC6002AFE700B900001120E43F452B152B2EE9E
:100CD600B4010B900001120E4342B1F452B2120E4F
:100CE6002AB4020A900001120E4342B142B2120E19
:100CF6002AB4030D900001120E43FEF452B1EE42E7
:100D0600B2EF64047043120E2AFE700B90000112BB
:100D16000E43F452B352B4EEB4010B900001120E1E
:100D26004342B3F452B4120E2AB4020A90000112DE
:100D36000E4342B342B4120E2AB4030D90000112C0
:100D46000E43FEF452B3EE42B4EF64057043120E46
:100D56002AFE700B900001120E43F452C952CAEEDD
:100D6600B4010B900001120E4342C9F452CA120E8E
:100D76002AB4020A900001120E4342C942CA120E58
:100D86002AB4030D900001120E43FEF452C9EE423E
:100D9600CAEF64067043120E2AFE700B9000011211
:100DA6000E43F452CB52CCEEB4010B900001120E5E
:100DB6004342CBF452CC120E2AB4020A900001121E
:100DC6000E4342CB42CC120E2AB4030D9000011200
:100DD6000E43FEF452CBEE42CCEF64077043120E84
:100DE6002AFF700B900001120E43F452E152E2EF1B
:100DF600B4010B900001120E4342E1F452E2120ECE
:100E06002AB4020A900001120E4342E142E2120E97
:100E16002AB4030D900001120E43FFF452E1EF4293
:040E2600E27F002245
:0F19CE007D607C09ED1D70011C144C70F7DFF17A
:0119DD0022E7
:1013F100EFD3940140037FFF22EDD3940340037F99
:10140100FF22EF7004C2A98002D2A9ED700553B783
:10141100FDC2B9BD010553B7FDD2B9BD020543B740
:0E14210002C2B9BD030543B702D2B97F002253
:10142F00EFD3940140037FFF22EDD3940340037F5A
:10143F00FF22EF7004C2AB8002D2ABED700553B741
:10144F00F7C2BBBD010553B7F7D2BBBD020543B70A
:0E145F0008C2BBBD030543B708D2BB7F002205
:10189D00EFD3940140037FFF22EDD3940340037FE8
:1018AD00FF22EF25E025E0FFE5AF54FB4FF5AFE458
:0218BD00FF2208
:1018BF00EFD3940140037FFF22EDD3940340037FC6
:1018CF00FF22EFC43354E0FFE5AF54DF4FF5AFE431
:0218DF00FF22E6
:10187A00EFD3940140037FFF22EDD3940340037F0B
:10188A00FF22EFC4333354C0FFE5AF54BF4FF5AF67
:03189A00E4FF2246
:10146D00EFD3940140037FFF22EDD3940340037F1C
:10147D00FF22EF7004C2A88002D2A8ED700553B709
:10148D00FEC2B8BD010553B7FED2B8BD020543B7C4
:0E149D0001C2B8BD030543B701D2B87F0022DB
:1014AB00EFD3940140037FFF22EDD3940340037FDE
:1014BB00FF22EF7004C2AA8002D2AAED700553B7C7
:1014CB00FBC2BABD010553B7FBD2BABD020543B788
:0E14DB0004C2BABD030543B704D2BA7F002293
:10195400EFD3940140037FFF22EFC454F0FFE58FDF
:0819640054EF4FF58FE4FF2260
:10193B00EFD3940140037FFF22EFC43354E0FFE564
:09194B008F54DF4FF58FE4FF22F9
:10192100EFD3940140037FFF22EFC4333354C0FF50
:0A193100E58F54BF4FF58FE4FF224D
:1014E900EFD3940140037FFF22EDD3940340037FA0
:1014F900FF22EF7004C2AD8002D2ADED700553B783
:10150900DFC2BDBD010553B7DFD2BDBD020543B77B
:0E15190020C2BDBD030543B720D2BD7F002216
:10129B00EDD3940340037FFF22EF30E10543E620BB
:1012AB00800353E6DFEF30E00543E610800353E69F
:1012BB00EFED700653B6DF53B5DFBD010653B6DF56
:1012CB0043B520BD020643B62053B5DFBD0306432D
:0812DB00B62043B5207F00227C
:10111600EFD3940140037FFF22EBD3940340037F78
:10112600FF22BF0112ED90FE817006E0547FF08031
:1011360011E04480F0800BEF700890FE83E0548746
:101146004DF0EB700653B6DF53B5DFBB010653B661
:10115600DF43B520BB020643B62053B5DFBB03060B
:0911660043B62043B5207F0022AE
:10152700EFD3940140037FFF22EDD3940340037F61
:10153700FF22EF7004C2AC8002D2ACED700553B746
:10154700EFC2BCBD010553B7EFD2BCBD020543B71F
:0E15570010C2BCBD030543B710D2BC7F0022FA
:1013B100EFD3940140037FFF22EDD3940340037FD9
:1013C100FF22E5AF54FE4FF5AFED700653B6FE5365
:1013D100B5FEBD010653B6FE43B501BD020643B6D7
:1013E1000153B5FEBD030643B60143B5017F00229B
:1012E300EFD3940140037FFF22EDD3940340037FA8
:1012F300FF22EF33333354F8FFE5AF54F74FF5AF25
:10130300ED700653EEFE53DFFEBD010653EEFE43C2
:10131300DF01BD020643EE0153DFFEBD030643EECC
:071323000143DF017F0022FE
:10004600EFD3940140037FFF22EDD3940340037F57
:10005600FF22EFC454F0FFE5AF54EF4FF5AFED705C
:100066000653EEFD53DFFDBD010653EEFD43DF02F1
:10007600BD020643EE0253DFFDBD030643EE024317
:05008600DF027F0022F3
:10132A00EFD3940140037FFF22EDD3940340037F60
:10133A00FF22EF25E0FFE5AF54FD4FF5AFED700654
:10134A0053B6FD53B5FDBD010653B6FD43B502BD07
:10135A00020643B60253B5FDBD030643B60243B5C2
:04136A00027F0022DC
:10109C00EFD3948140037FFF22EBD3940340037F73
:1010AC00FF22EF247F603004705890FEC4EDF0EB0B
:1010BC00700653B6FB53B5FBBB010653B6FB43B5E9
:1010CC0004BB020643B60453B5FBEB640370384310
:1010DC00B60443B504803090FEE4EDF0EB7006539B
:1010EC00B6F753B5F7BB010653B6F743B508BB02C9
:1010FC000643B60853B5F7BB030D43B60843B50812
:0A110C00800590FEE4EDF07F002264
:10156500EDD394035026ED700653EEFB53DFFBBD20
:10157500010653EEFB43DF04BD020643EE0453DFD1
:10158500FBBD030B43EE0443DF0480037FFF229082
:07159500FE62EFF07F00226F
:10159C0090FA10E054F0F0EDD39403500BE0FEED14
:1015AC0025E025E0FDEE4DF0EBD39403500690FAC8
:1015BC0010E04BF090FA10E0BF01054480F080037E
:0615CC00547FF07F0022B5
:1015D20090FA00E054F0F0EDD39403500BE0FEEDEE
:1015E20025E025E0FDEE4DF0EBD39403500690FA92
:1015F20000E04BF090FA00E0BF01054480F0800368
:06160200547FF07F00227E
:1016080090FA20E054F0F0EDD39403500BE0FEED97
:1016180025E025E0FDEE4DF0EBD39403500690FA5B
:1016280020E04BF090FA20E0BF01054480F08003F1
:06163800547FF07F002248
:10163E0090FA30E054F0F0EDD39403500BE0FEED51
:10164E0025E025E0FDEE4DF0EBD39403500690FA25
:10165E0030E04BF090FA30E0BF01054480F080039B
:06166E00547FF07F002212
:1016740090FA38E054F0F0EDD39403500BE0FEED13
:1016840025E025E0FDEE4DF0EBD39403500690FAEF
:1016940038E04BF090FA38E0BF01054480F0800355
:0616A400547FF07F0022DC
:1016AA0090FA40E054F0F0EDD39403500BE0FEEDD5
:1016BA0025E025E0FDEE4DF0EBD39403500690FAB9
:1016CA0040E04BF090FA40E0BF01054480F080030F
:0616DA00547FF07F0022A6
:1016E00090FA48E054F0F0EDD39403500BE0FEED97
:1016F00025E025E0FDEE4DF0EBD39403500690FA83
:1017000048E04BF090FA48E0BF01054480F08003C8
:06171000547FF07F00226F
:1017160090FA50E054F0F0EDD39403500BE0FEED58
:1017260025E025E0FDEE4DF0EBD39403500690FA4C
:1017360050E04BF090FA50E0BF01054480F0800382
:06174600547FF07F002239
:10174C0090FA58E054F0F0EDD39403500BE0FEED1A
:10175C0025E025E0FDEE4DF0EBD39403500690FA16
:10176C0058E04BF090FA58E0BF01054480F080033C
:06177C00547FF07F002203
:1017820090FA60E054F0F0EDD39403500BE0FEEDDC
:1017920025E025E0FDEE4DF0EBD39403500690FAE0
:1017A20060E04BF090FA60E0BF01054480F08003F6
:0617B200547FF07F0022CD
:1017B80090FA68E054F0F0EDD39403500BE0FEED9E
:1017C80025E025E0FDEE4DF0EBD39403500690FAAA
:1017D80068E04BF090FA68E0BF01054480F08003B0
:0617E800547FF07F002297
:1017EE0090FA70E054F0F0EDD39403500BE0FEED60
:1017FE0025E025E0FDEE4DF0EBD39403500690FA74
:10180E0070E04BF090FA70E0BF01054480F0800369
:06181E00547FF07F002260
:1018510090FE50E054CFF0EDD39403500AE0FEED3A
:10186100C454F0FDEE4DF090FE50E0BF0105448000
:09187100F08003547FF07F002297
:080096008F2C8B2D8A2E892F7F
:10009E00E52C6401600302020CF55FF560F561F575
:1000AE0062F563F530F53174402531F58274013512
:1000BE0030F583E4F00531E531700205306480459A
:1000CE003070E4E4F530F53174002531F5827400BA
:1000DE003530F583E4F00531E5317002053064808A
:1000EE00453070E4AB2DAA2EA92F120E2AFFE598EB
:1000FE00543F4FF598EF64C06008EF644060030210
:10010E0001C1900002120F627F807E8D7D5B7C00AC
:10011E00120EAC8F358E348D338C32E4FFFE7D01A2
:10012E00FCAB35AA34A933A832C3120F3E40037F6D
:10013E00FF22C3E49535F535E49534F53474019515
:10014E0033F533E49532F532AB2DAA2EA92F90005C
:10015E0001120E43FB6401702CC28E538EFE538926
:10016E00BF5389CF438E40AF35AE34AD33AC32780A
:10017E0008120F4F8F8D85358BC2AB5389BF538FAE
:10018E00FDD28E8062EB64027026538EEF438E0199
:10019E00538EF7438E04AF35AE34AD33AC327808A0
:1001AE00120F4F8FD68535D753AFFB438E10803746
:1001BE007FFF22AB2DAA2EA92F120E2AFF701390AD
:1001CE000008120E43B40105438E20801A538EDFB1
:1001DE008015EFB48011900008120E43B401054350
:1001EE008780800353877FAB2DAA2EA92F900007FF
:1001FE00120E437004C29C8002D29C7F0022E52C1A
:10020E0064026003020305F564F565F566F567F5AE
:10021E0068F530F53174E02531F58274013530F52D
:10022E0083E4F00531E531700205306480453070AD
:10023E00E4E4F530F53174802531F5827400353003
:10024E00F583E4F00531E531700205306480453008
:10025E0070E4AB2DAA2EA92F120E2AFF64C06005E2
:10026E00EF64407075EFB4C005439A808003539AD3
:10027E007F900002120F627F807E8D7D5B7C00126C
:10028E000EAC8F358E348D338C32E4FFFE7D01FC47
:10029E00AB35AA34A933A832C3120F3E40037FFFF9
:1002AE0022C3E49535F535E49534F5347401953370
:1002BE00F533E49532F532538EEF538EF7438E04B9
:1002CE00AF35AE34AD33AC327808120F4F8FD685C2
:1002DE0035D753AFFB438E1080037FFF22AB2DAA81
:1002EE002EA92F900007120E43C454F0FFE59A5426
:1002FE00EF4FF59A7F0022E52C6403600302043968
:10030E00F569F56AF56BF56CF56DF530F5317460E0
:10031E002531F58274023530F583E4F00531E5318F
:10032E00700205306440453070E4E4F530F5317408
:10033E00002531F58274013530F583E4F00531E5A1
:10034E0031700205306440453070E4AB2DAA2EA901
:10035E002F120E2AFF64C06008EF6440600302048F
:10036E001CEFB4C00543AC80800353AC7F900002F9
:10037E00120F627F807E8D7D5B7C00120EAC8F35FE
:10038E008E348D338C32E4FFFE7D01FCAB35AA3406
:10039E00A933A832C3120F3E40037FFF22C3E49558
:1003AE0035F535E49534F53474019533F533E4952C
:1003BE0032F532AB2DAA2EA92F900001120E43FB5F
:1003CE00B4031D43AC40AF35AE34AD33AC32780818
:1003DE00120F4F8FD48535D553D1F043D10A8031CA
:1003EE00EB64027026538EEF53ACBF538EF7438EE1
:1003FE0004AF35AE34AD33AC327808120F4F8FD612
:10040E008535D753AFFB438E1080067FFF227FFFCB
:10041E0022AB2DAA2EA92F900007120E43C454F022
:10042E00FFE5AC54EF4FF5AC7F0022E52C64046081
:10043E000302056DF56EF56FF570F571F572F53019
:10044E00F53174A02531F58274023530F583E4F070
:10045E000531E531700205306420453070E4E4F575
:10046E0030F53174C02531F58274013530F583E4F1
:10047E00F00531E531700205306420453070E4AB93
:10048E002DAA2EA92F120E2AFF64C06008EF644019
:10049E006003020550EFB4C005438480800353848B
:1004AE007F900002120F627F807E8D7D5B7C00123A
:1004BE000EAC8F358E348D338C32E4FFFE7D01FC15
:1004CE00AB35AA34A933A832C3120F3E40037FFFC7
:1004DE0022C3E49535F535E49534F534740195333E
:1004EE00F533E49532F532AB2DAA2EA92F900001EB
:1004FE00120E43FBB4041D438440AF35AE34AD330E
:10050E00AC327808120F4F8FD28535D353D10F43AB
:10051E00D1A08031EB64027026538EEF5384BF530B
:10052E008EF7438E04AF35AE34AD33AC327808124D
:10053E000F4F8FD68535D753AFFB438E1080067F76
:10054E00FF227FFF22AB2DAA2EA92F900007120E9D
:10055E0043C454F0FFE58454EF4FF5847F00227FAF
:01056E00FF8D
:01056F002269
:0A19EA008F99756101E56170FC2220
:10000E00120E2AFF600C1219EA740129F9E43AFA69
:03001E0080EE224F
:0A19F4008F9B756601E56670FC220A
:10198300120E2AFF600C1219F4740129F9E43AFAD1
:0319930080EE22C1
:0A19FE008FAD756B01E56B70FC22E4
:10199600120E2AFF600C1219FE740129F9E43AFAB4
:0319A60080EE22AE
:0A1A08008F85757001E57070FC22F7
:1019A900120E2AFF600C121A08740129F9E43AFA96
:0319B90080EE229B
:05008E00AE070219EAB3
:0300230002136E57
:10136E00C0E0C083C082C0D075D000C007309820C6
:10137E00C298E562C394804003756200AF62056255
:10138E0074002FF582E43400F583E599F07563055A
:10139E00309905C299756100D007D0D0D082D08324
:0313AE00D0E0325A
:030043000211C0E7
:1011C000C0E0C083C082C0D075D000C007E59A30AF
:1011D000E021539AFEE567C394804003756700AF32
:1011E00067056774802FF582E43400F583E59BF092
:1011F000756805E59A30E106539AFD756600D007DB
:09120000D0D0D082D083D0E032BE
:03008B0002120955
:10120900C0E0C083C082C0D075D000C007E5AC3053
:10121900E02153ACFEE56CC394404003756C00AF0C
:101229006C056C74002FF582E43401F583E5ADF0AB
:10123900756D05E5AC30E10653ACFD756B00D00763
:09124900D0D0D082D083D0E03275
:0300930002125204
:10125200C0E0C083C082C0D075D000C007E5843032
:10126200E0215384FEE571C394204003757100AF01
:1012720071057174C02FF582E43401F583E585F0C0
:10128200757205E58430E1065384FD757000D00760
:09129200D0D0D082D083D0E0322C
:100A3E00EFD3940240037FFF2274102F2FF8E6208D
:100A4E00E5F4C2AFE64430F6D2AFAE0CEEC39F5023
:100A5E00210E74152EF8E6F908E618BE020274FF90
:100A6E00FDED69600909E71919F7090980F31616F2
:100A7E0080DAEED39F400405810581EED39F40229C
:100A8E0074152EF808E6F9EEB50C02A981180606C3
:100A9E00E6FDED6960091919E70909F71980F31EDA
:100AAE0080D9EF2415F8E604F8EF2F049000039395
:090ABE00F608EF2F93F67F0022E9
:100AC700EFD3940240037FFF22EF232410F8E63090
:100AD700E5F4C2AFE6548CF6D2AFE50CB5070A745D
:100AE700152FF8E6F581020947502E74162FF8E600
:100AF700BF020274FFFD18E6F974152FF8FBE6FC38
:100B0700E96C6008A805E7F61D1980F4A803A60597
:100B17001FE50CB507E37F002274162FF8E6FD18D2
:100B270086010F74152FF8A601088604E50CB50792
:100B370002AC81ED6C60080D09A805E6F780F4E5C5
:090B47000CB507DE89817F002254
:100B5000EFD3940240037FFF22EF232410F8C2AFAB
:100B6000E630E50530E002D2E4D2E2C6D2AF7F0043
:070B700030E2010F02091B36
:100B77008FF0E4FFFEE50C23240FF8C2A930F70D30
:100B87007F08E6600B2DF660325030800730F106A3
:100B9700EDF660277E020830F010C2AFE610E725B9
:100BA7000E30E20CD2AF7F048014C2AFE610E71517
:100BB70054EC4EF6D2AFD2A90209477F0808EF449A
:0F0BC70083F4C2AF56C6D2AFD2A954804FFF22DB
:03000000021010DB
:0C101000787FE4F6D8FD7581720210575D
:100E2A00BB010689828A83E0225002E722BBFE02C6
:090E3A00E32289828A83E49322F9
:100E4300BB010CE58229F582E5833AF583E0225064
:100E530006E92582F8E622BBFE06E92582F8E222AE
:0D0E6300E58229F582E5833AF583E49322C8
:100E700075F008758200EF2FFFEE33FECD33CDCC39
:100E800033CCC58233C5829BED9AEC99E5829840BC
:100E90000CF582EE9BFEED9AFDEC99FC0FD5F0D699
:100EA000E4CEFBE4CDFAE4CCF9A88222B800C1B9C3
:100EB0000059BA002DEC8BF084CFCECDFCE5F0CB01
:100EC000F97818EF2FFFEE33FEED33FDEC33FCEB3A
:100ED00033FB10D703994004EB99FB0FD8E5E4F9F5
:100EE000FA227818EF2FFFEE33FEED33FDEC33FCE2
:100EF000C933C910D7059BE99A4007EC9BFCE99AD6
:100F0000F90FD8E0E4C9FAE4CCFB2275F010EF2F1A
:100F1000FFEE33FEED33FDCC33CCC833C810D7071A
:100F20009BEC9AE899400AED9BFDEC9AFCE899F855
:0E0F30000FD5F0DAE4CDFBE4CCFAE4C8F922E8
:100F3E00EB9FF5F0EA9E42F0E99D42F0E89C45F009
:010F4E002280
:100F4F00E8600FECC313FCED13FDEE13FEEF13FF80
:030F5F00D8F122A4
:100F6200BB010DE58229F582E5833AF583020FB1D3
:100F72005007E92582F8020FA4BBFE07E92582F893
:100F8200020FBDE58229F582E5833AF583020FCA95
:10057000E55A244EF8E6055A22784B301002784EA0
:10058000E475F001120FDA020E2A2009EB7F2ED259
:10059000098018EF540F2490D43440D4FF300D0B51
:1005A000EF24BFB41A0050032461FFE55B6002151D
:1005B0005B055EE55E7002055D30100D784BE475FD
:1005C000F001120FDAEF020F9202008E7403D210C4
:1005D0008003E4C210F55A8B4B8A4C894DE4F55BDD
:1005E000F55DF55EE55B60077F201205AB80F57574
:1005F0005CFFC20AC209C20BC20CC20EC20FC211FA
:10060000120579FF700D3010057F001205BCAF5E3A
:10061000AE5D22B4255FC2D5C20D120579FF24D08C
:10062000B40A00501A75F00A785B30D50508B6FF99
:100630000106C6A426F620D5047002D20C80D92467
:10064000CFB41A00EF5004C2E5D20D0207BCD20AA3
:1006500080C6D20980C0D20B80BCD2D580BAD20E5F
:1006600080B47F201205AB200B077401B55B0040FE
:10067000F1120570FF1205AB0205E4D211D20F8012
:1006800095120570FB120570FA120570F94A4B704D
:1006900006798D7A087BFF200B2EE55B602A7E00B1
:1006A0008E82758300120E4360060EEE655C70F05C
:1006B000C2D5EBC0E0EAC0E0E9C0E0EE120803D02A
:1006C000E0F9D0E0FAD0E0FB120E2AFF60AAEBC0FE
:1006D000E0EAC0E0E9C0E01205ABD0E02401F9D0C7
:1006E000E03400FAD0E0FBE55C0460DCD55CD98046
:1006F000877BFF7A0779FFD20B809C791080027983
:1007000008C20FC2118008D2D5790A8004790AC2C2
:10071000D5E55C047002F55CE4FAFDFEFF1205709D
:10072000FC7B08200A13120570FD7B1030090A12A9
:100730000570FE120570FF7B20EC3382D592D550F8
:1007400013C3E43009069FFFE49EFEE4200A039DE4
:10075000FDE49CFCE4CBF8C20AEC700CCFCECDCC0F
:10076000E824F8F870F38017C3EF33FFEE33FEEDA3
:1007700033FDEC33FCEB33FB994002FB0FD8E9EB84
:10078000300A05F8D0E0C448B20AC0E00AEC4D4E89
:100790004F78207B0070C2EAB55C0040BCC0E0121C
:1007A0000805D0F0D0E0200A04C4C0E0C4B20AC0FA
:1007B000F0120594D0F0D5F0EB0205E4120FEA0632
:1007C000815306FB5806524C064E4206FF4F070760
:0F07D00044070749066743070D5506F14606F132
:1007DF004506F14708AD5006562D065A2E067D2BBD
:1007EF00065E23067B2008962A061648000006752B
:1007FF003F3F3F00790AA2D5200C14300E09B910E3
:10080F00020404B9080104A2D5200F0250010420EC
:10081F000B68920BB55B005034C0E07F20300C1991
:10082F007F30A20B720F720E500F12085CC20BC2F8
:10083F000FC20EC2117F30800F300E03E9C0E012DD
:10084F0005AB300E03D0E0F9D0E0B55BCC300E171E
:10085F007F30B9100C1205AB7F58300D077F7880B1
:10086F0003B908031205AB300B057F2D0205AB7FD3
:10087F00202011F87F2B200FF322920B80CF286EB0
:10088F00756C6C2900D20A120570300AF8C20A780A
:10089F005B30D50108F60206162D50434958120554
:1008AF00702403B405004001E49008A89312059C3E
:0D08BF00743A12059CD20C755B040206FB16
:10101C00020A01E493A3F8E493A34003F68001F2DF
:10102C0008DFF48029E493A3F85407240CC8C333D5
:10103C00C4540F4420C8834004F456800146F6DFA4
:10104C00E4800B0102040810204080901A12E47E08
:10105C00019360BCA3FF543F30E509541FFEE49399
:10106C00A360010ECF54C025E060A840B8E493A360
:10107C00FAE493A3F8E493A3C8C582C8CAC583CA8B
:10108C00F0A3C8C582C8CAC583CADFE9DEE780BE43
:011A150000D0
:100F9200BB010689828A83F0225002F722BBFE013E
:020FA200F32238
:0D0FA400E6FB08E6F908E6FA08E6CBF822BD
:0C0FB100E0F8A3E0F9A3E0FAA3E0FB22C3
:0D0FBD00E2FB08E2F908E2FA08E2CBF822B4
:100FCA00E493F8740193F9740293FA740393FB227D
:100FDA00FAE6FB0808E6F925F0F618E6CA3AF62218
:100FEA00D083D082F8E4937012740193700DA3A396
:100FFA0093F8740193F5828883E4737402936860AA
:06100A00EFA3A3A380DFA9
:00000001FF
