:100A3E00416C61726D0054696D65720025303464CD
:100A4E002D253032642D2530326400253032643A43
:100A5E00253032643A253032642020573A25640A14
:100A6E00002564002020202000000000000000006F
:100A7E000000000000000000000000000000000068
:100A8E000000000000000000000000000000000058
:100A9E000000000000000000000000000000000048
:100AAE0000000000000000C080C000000000000038
:100ABE000000000000000000000000000000000028
:100ACE000000000000001010101000101010001098
:100ADE000888C8280000000003020C1040800000A7
:100AEE0000000000000000000000000000000000F8
:100AFE00000000000030F090102020408000000028
:100B0E0000000000000000000000000000000000D7
:100B1E0000808000000000000000000000000000C7
:100B2E00000000000000E038070738608000000079
:100B3E0000000000000000000000000000000000A7
:100B4E000000000000000000000000406030100CAB
:100B5E000601000000004020100C0200000001F20F
:100B6E00040810302040408080000000000000008B
:100B7E0000000000000000031EF080000003061CB1
:100B8E007080000000000000000000000000000067
:100B9E00000000010303060E0A1212224240828256
:100BAE00000202C23602030202020202030A32C22B
:100BBE0002020202020202020282C22231190D0751
:100BCE000300000000000000000000000000000014
:100BDE000000303804030000000000000000B007E1
:100BEE0000000000000000000000000000000000F7
:100BFE0000000000000000000000037C80000000E8
:100C0E00009FF00000000000000000000000000047
:100C1E000000000000000000000000000000008145
:100C2E00611E070C103860800000000000000001FB
:100C3E008E70A030080402000100000000000000C9
:100C4E000000000000000000000000000000000096
:100C5E00000000000000000000000000C02C010099
:100C6E000000000000000000000000000000000076
:100C7E000000000000000000000000807F0000C0A7
:100C8E003807000000000000000000000000000017
:100C9E0000000000000000000000000080700C0347
:100CAE000000000000000080432618106884020136
:100CBE000000030C70800000000000000000000027
:100CCE000000000000000000000000000000000016
:100CDE000000000000000000000000000100000005
:100CEE0000000000000000000000000000000000F6
:100CFE0000000000000060603038160B0C0201008E
:100D0E0000000000000000000000000000000000D5
:100D1E0000000000000000000080700E8180402066
:100D2E001008080402010000000000000000030487
:100D3E00083060C000010638C0000000000000004E
:100D4E000000000000000000000000000000000095
:100D5E000000000000000000000000000000000085
:100D6E000000000000000000000000000000000075
:100D7E000000000000000000000000000000000065
:100D8E000000000000000000000000000000000055
:100D9E00000000000000000004030100000000003D
:100DAE000000000000000000000000000000000035
:100DBE000000000001060C18333E00000000000089
:100DCE000000000000000000000000000000000015
:100DDE000000000000000000000000000000000005
:100DEE0000000000000000000000000000000000F5
:100DFE0000000000000000000000000000000000E5
:100E0E0000000000000000000000000000000000D4
:100E1E0000000000000000000000000000000000C4
:100E2E0000000000000000000000000000000000B4
:100E3E0000000000000000000000000000000000A4
:100E4E000000000000000000000000000000000094
:100E5E000000000000000000000000000000000084
:100E6E000000000000000000000003050911FF1142
:100E7E008905C300E000F000F8000000000000004B
:100E8E004428FF11AA4400000000000000000000EA
:100E9E000000000000000000000000000000000044
:100EAE000000000000000000000000000000000034
:100EBE000000000000000000000000000000000024
:100ECE000000008301384482929274018300000076
:100EDE00000000007C44FF017D7D7D017D7D7D7DD8
:100EEE00017D7D7D7D7D01FF000000000000010081
:100EFE0001000100010001000100000000000000DF
:100F0E0000000101000000000000000000000000D1
:100F1E0000000000000000000000000000000000C3
:100F2E0000000000000000000000000000000000B3
:100F3E0000000000000000000000000000000000A3
:100F4E00000000010100000000000001010000008F
:100F5E000000000000000101010101010101010179
:100F6E00010101010101010100000000000000006B
:100F7E000000000000000000000000000000000063
:100F8E0000000000003F3F0303F313111111111174
:100F9E001101F1116181010101816111F101010163
:100FAE00014141F10101010101C121111111112173
:100FBE00C1010101014141F10101010101010101E3
:100FCE0001011111111111D33303033F3F00000032
:100FDE000000000000000000000000000000000003
:100FEE0000000000000000000000000000000000F3
:100FFE0000000000000000000000000000000000E3
:10100E000000000000E0E000007F0101010101018D
:10101E0000007F0000010618060100007F0000009E
:10102E000040407F40400000001F204040404020D4
:10103E001F0000000040407F4040000000006000A4
:10104E0000000040300C0300000000E0E000000053
:10105E000000000000000000000000000000000082
:10106E000000000000000000000000000000000072
:10107E000000000000000000000000000000000062
:10108E000000000000070706060606040404844458
:10109E004444840404844444448404040484C40402
:1010AE000404048444444484040404040484444432
:1010BE0044840404040404844444448404048444A2
:1010CE0044448404040404060606060707000000D0
:1010DE000000000000000000000000000000000002
:1010EE0000000000000000000000000000000000F2
:1010FE0000000000000000000000000000000000E2
:10110E0000000000000000000000000000001018A9
:10111E0014121100000F1010100F000000101F10FD
:10112E00000000081012120D00001800000D12121F
:10113E00120D0000180000101814121100001018E3
:10114E00141211000000000000000000000000005A
:10115E000000000000000000000000000000000081
:10116E000000000000000000000000000000000071
:10117E000000000000000000000000000000000061
:10118E000000000000000000000000000000000051
:10119E000000000000000000000000000000000041
:1011AE000000000000808080808080808000000031
:1011BE000000000000000000000000000000000021
:1011CE000000000000000000000000000000000011
:1011DE000000000000000000000000000000000001
:1011EE00000000000000000000007F030C300C0324
:1011FE007F00003854545800007C04047800003CF2
:10120E0040407C00000000000000000000000000D4
:10121E0000000000000000000000000000000000C0
:10122E000000000000FFAAAAAA280800FF00000084
:10123E0000000000000000000000000000000000A0
:10124E000000000000000000000000000000000090
:10125E0000007F030C300C037F0000264949493201
:09126E0000007F020408107F005B
:040006004103607BD7
:10414B009003017403F0E4900300F07B017A037990
:10415B00007F031227629003017480F0E490030048
:0C416B00F07B017A0379007F03022762D9
:1040EB009003007440F0A37401F0A3121CD70001DD
:1040FB00C2009003077401F0E4A3F07B017A03790B
:10410B00007F011212777D017F01123C9553A23F74
:01411B002281
:09446C007BFF7A0A793E0222016D
:094475007BFF7A0A79440222015E
:10329F00E4900308F0A3F0900003E0FF900308E030
:1032AF00FCA3E0FDC39F7480F8EC648098501F74FA
:1032BF00142DF58274003CF583E0FF1243D4900384
:1032CF0009E004F070D1900308E004F080C9900089
:1032DF0016E075F064A4FFA3E07C002FFEEC35F040
:1032EF00900300F0A3CEF0900018E0900302F0904E
:1032FF000019E0900304F090001AE0900303F0909F
:10330F00001BE0900305F090001CE0900306F09086
:10331F00001DE0900307F0780A7C037D017B017AA2
:0D332F000379007E007F0812199A022DB16B
:1029B6009002FC7403F0A374EEF043BA8012414B0C
:1029C6001240EB12449012307FE4FF120066E4FFDF
:1029D6001241A2D2AF9002D47407F0A374EAF0A316
:1029E6007408F09002D8741BF09002D77403F0902C
:1029F60002D97417F0A3743BF0A37437F0780A7CFD
:102A0600037D017B017A0279D47E007F0812199A30
:102A1600122DB19002FEE475F001121AC3FED3E541
:102A2600F094E8EE94035003022B41E49002FEF08A
:102A3600A3F07B017A0279D4122EAB90030374FFC4
:102A4600F0A3740AF0A3744AF09002D4E0FFA3E066
:102A5600900306CFF0A3EFF09002D6E0FF900308B4
:102A6600E4F0A3EFF09002D8E0FF90030AE4F0A3AD
:102A7600EFF07B017A0279DC1221FB7B017A027985
:102A8600DC9003057410F0E4FDFF12366B9003032F
:102A960074FFF0A3740AF0A37459F09002D9E0FF12
:102AA600900306E4F0A3EFF09002DAE0FF9003084B
:102AB600E4F0A3EFF09002DBE0FF90030AE4F0A35A
:102AC600EFF09002D7E0FF90030CE4F0A3EFF07B69
:102AD600017A0279DC1221FB7B017A0279DC900310
:102AE600057410F07D02E4FF12366B90030374FF49
:102AF600F0A3740AF0A3746FF09002FC74FFF5F073
:102B0600121AD9AFF0900306F0A3EFF07B017A0218
:102B160079DC1221FB7BFF7A0A7972900305741027
:102B2600F07D06E4FF12366B7B017A0279DC9003B6
:102B3600057410F07D06E4FF12366B900004E0D3B6
:102B460094004016E014F07011900003E0D3940056
:102B5600400312329FE4900003F07F011243A60265
:022B66002A192A
:103738009000011219FBFFE5DE54F04FF5DE900012
:10374800021219FBC43354E0FFE5DE54DF4FF5DE07
:103758001219E2FFD3941F502B9000031219FBFE9D
:10376800D39401501F9000041219FBFDD394035009
:1037780013EDC43354E0FDEEC433333354804D4F5E
:0537880090FEA8F022F4
:0C444A00EFB4010443BC802253BC7F226D
:1035F300EFD3940F4002806BE4F5BDF5BEE5BC54F8
:10360300F044404FF5BC0000000000000000000043
:10361300E4FDE5BC30E54753BCDFE5DEAFBD30E597
:103623000DEFFEACBEECFBEBFF9003588022900342
:1036330058E4F0A3EFF0E5BEC4540FFBE0C4F85424
:103643000FC868FF900358E0C454F048FEEF4BFFE7
:10365300EEF0A3EFF0900358E0FEA3E0FF220DEDA0
:07366300B4FAAF7E107F00F6
:01366A00223D
:03002B00020016BA
:0400160053BCDF32C6
:0F43A6007D607C09ED1D70011C144C70F7DFF178
:0143B50022E5
:10276200EFD3940740037FFF221219E2FED39403B2
:1027720040037FFF22EF7041EE700B9000011219AF
:10278200FBF4529352941219E2B4010B900001121D
:1027920019FB4293F452941219E2FEB4020A900019
:1027A200011219FB42934294EEB4030D9000011200
:1027B20019FBFEF45293EE4294EF64017043121936
:1027C200E2FE700B9000011219FBF452915292EE4C
:1027D200B4010B9000011219FB4291F452921219AA
:1027E200E2B4020A9000011219FB429142921219BC
:1027F200E2B4030D9000011219FBFEF45291EE4275
:1028020092EF640270431219E2FE700B9000011203
:1028120019FBF452955296EEB4010B900001121975
:10282200FB4295F452961219E2B4020A9000011288
:1028320019FB429542961219E2B4030D900001125F
:1028420019FBFEF45295EE4296EF6403704312199F
:10285200E2FE700B9000011219FBF452B152B2EE7B
:10286200B4010B9000011219FB42B1F452B21219D9
:10287200E2B4020A9000011219FB42B142B21219EB
:10288200E2B4030D9000011219FBFEF452B1EE42C4
:10289200B2EF640470431219E2FE700B9000011251
:1028A20019FBF452B352B4EEB4010B9000011219A9
:1028B200FB42B3F452B41219E2B4020A90000112BC
:1028C20019FB42B342B41219E2B4030D9000011293
:1028D20019FBFEF452B3EE42B4EF640570431219D1
:1028E200E2FE700B9000011219FBF452C952CAEEBB
:1028F200B4010B9000011219FB42C9F452CA121919
:10290200E2B4020A9000011219FB42C942CA12192A
:10291200E2B4030D9000011219FBFEF452C9EE421B
:10292200CAEF640670431219E2FE700B90000112A6
:1029320019FBF452CB52CCEEB4010B9000011219E8
:10294200FB42CBF452CC1219E2B4020A90000112FB
:1029520019FB42CB42CC1219E2B4030D90000112D2
:1029620019FBFEF452CBEE42CCEF6407704312190E
:10297200E2FF700B9000011219FBF452E152E2EFF8
:10298200B4010B9000011219FB42E1F452E2121958
:10299200E2B4020A9000011219FB42E142E212196A
:1029A200E2B4030D9000011219FBFFF452E1EF4271
:0429B200E27F00229E
:103577009000021219FB6401702A90FE80E044401B
:10358700F090FE82E4F01219E2543FFF90FE80E0D3
:1035970054C04FF09000031219FB90FE88B401024B
:1035A7008031802990FE80E054BFF090FE84E4F0E3
:1035B7009000041219FB25E0FF90FE85E054014FAF
:1035C700F09000051219FB90FE85B40106E054FE49
:1035D700F08004E04401F09000011219FB90FE8096
:0C35E7007005E0547FF022E04480F022E8
:0844A20090FE82E05480FF222D
:0C44560090FE82E030E6F9E054BFF02256
:09447E0090FE817401F002445625
:0E442E0090FE86EFF090FE817402F00244567C
:0E42A60012447E12442E1242B4AF0512442E72
:0942B40090FE817403F0024456EF
:0F43B60090FE817404F012445690FE87E0FF22BF
:0E443C0090FE82E4F090FE817405F00244567A
:0F43C50090FE827401F090FE817405F002445660
:0944870090FE817406F002445617
:0D00460090FE86EDF090FE81EFF002445632
:1040530090031BEBF0A3EAF0A3E9F01242A690034E
:104063001BE0FBA3E475F001121AD9A9F0FA1219A7
:10407300E2FF12442E1242B490031EE014F070DEED
:034083000244876D
:103D1000AE071242A612447EEE4401FF12442E1258
:103D200042B41243B6EF121A28740129F9E43AFAA0
:103D300090030FE06401600312443C90030FE01411
:093D4000F070DF1243C502448754
:0300C300023144C3
:10314400C0E0C083C082C0D075D000C006C0079064
:10315400FE84E030E607E054BFF00231E790FE84DD
:10316400E030E53BE054DFF0900356E06004E4F027
:103174008071900355E0600DE4F090FE87E09003C9
:1031840057F0E0803790FE87E0FF900357E0FE049D
:10319400F0743D2EF582E43403F583EFF08044901F
:1031A400FE84E030E426E054EFF0E030E10890FEE5
:1031B4008674FFF0802D900357E004F0243DF582DF
:1031C400E43403F583E090FE86F0801790FE84E0FB
:1031D40030E310E054F7F09003567401F090035577
:1031E400F0D209D007D006D0D0D082D083D0E0323C
:103B5000EFD3940140037FFF22EDD3940340037F12
:103B6000FF22EF7004C2A98002D2A9ED700553B7FD
:103B7000FDC2B9EDB4010553B7FDD2B9EDB40205EC
:103B800043B702C2B9EDB4030543B702D2B97F000F
:013B90002212
:103B9100EFD3940140037FFF22EDD3940340037FD1
:103BA100FF22EF7004C2AB8002D2ABED700553B7B8
:103BB100F7C2BBEDB4010553B7F7D2BBEDB40205B3
:103BC10043B708C2BBEDB4030543B708D2BB7F00BE
:013BD10022D1
:10421300EFD3940140037FFF22EDD3940340037F48
:10422300FF22EF25E025E0FFE5AF54FB4FF5AFE4B8
:02423300FF2268
:10423500EFD3940140037FFF22EDD3940340037F26
:10424500FF22EFC43354E0FFE5AF54DF4FF5AFE491
:02425500FF2246
:1041F000EFD3940140037FFF22EDD3940340037F6C
:10420000FF22EFC4333354C0FFE5AF54BF4FF5AFC7
:03421000E4FF22A6
:103BD200EFD3940140037FFF22EDD3940340037F90
:103BE200FF22EF7004C2A88002D2A8ED700553B77D
:103BF200FEC2B8EDB4010553B7FED2B8EDB402056A
:103C020043B701C2B8EDB4030543B701D2B87F0090
:013C1200228F
:103C1300EFD3940140037FFF22EDD3940340037F4E
:103C2300FF22EF7004C2AA8002D2AAED700553B737
:103C3300FBC2BAEDB4010553B7FBD2BAEDB402052A
:103C430043B704C2BAEDB4030543B704D2BA7F0045
:013C5300224E
:10428E00EFD3940140037FFF22EFC454F0FFE58F7C
:08429E0054EF4FF58FE4FF22FD
:10427500EFD3940140037FFF22EFC43354E0FFE501
:094285008F54DF4FF58FE4FF2296
:1000A600EFD3940140037FFF22EFC4333354C0FFE4
:0A00B600E58F54BF4FF58FE4FF22E1
:103C5400EFD3940140037FFF22EDD3940340037F0D
:103C6400FF22EF7004C2AD8002D2ADED700553B7F0
:103C7400DFC2BDEDB4010553B7DFD2BDEDB402051B
:103C840043B720C2BDEDB4030543B720D2BD7F00C6
:013C9400220D
:10391B00EDD3940340037FFF22EF30E10543E62014
:10392B00800353E6DFEF30E00543E610800353E6F8
:10393B00EFED700653B6DF53B5DFEDB4010653B6AA
:10394B00DF43B520EDB4020643B62053B5DFEDB42B
:0B395B00030643B62043B5207F002286
:1036DB00EFD3940140037FFF22EBD3940340037F8E
:1036EB00FF22EFB40112ED90FE817006E0547FF0E3
:1036FB008011E04480F0800BEF700890FE83E05463
:10370B00874DF0EB700653B6DF53B5DFEBB4010614
:10371B0053B6DF43B520EBB4020643B62053B5DFF7
:0D372B00EBB4030643B62043B5207F002217
:103C9500EFD3940140037FFF22EDD3940340037FCC
:103CA500FF22EF7004C2AC8002D2ACED700553B7B1
:103CB500EFC2BCEDB4010553B7EFD2BCEDB40205BC
:103CC50043B710C2BCEDB4030543B710D2BC7F00A7
:013CD50022CC
:103B0D00EFD3940140037FFF22EDD3940340037F55
:103B1D00FF22E5AF54FE4FF5AFED700653B6FE53E1
:103B2D00B5FEEDB4010653B6FE43B501EDB4020684
:103B3D0043B60153B5FEEDB4030643B60143B501DB
:033B4D007F0022D4
:10396600EFD3940140037FFF22EDD3940340037FFE
:10397600FF22EF33333354F8FFE5AF54F74FF5AF7B
:10398600ED700653EEFE53DFFEEDB4010653EEFE78
:1039960043DF01EDB4020643EE0153DFFEEDB4034F
:0A39A6000643EE0143DF017F00221B
:1039B000EFD3940140037FFF22EDD3940340037FB4
:1039C000FF22EFC454F0FFE5AF54EF4FF5AFED70B9
:1039D0000653EEFD53DFFDEDB4010653EEFD43DF6C
:1039E00002EDB4020643EE0253DFFDEDB4030643DD
:0839F000EE0243DF027F00221A
:1039F800EFD3940140037FFF22EDD3940340037F6C
:103A0800FF22EF25E0FFE5AF54FD4FF5AFED70065F
:103A180053B6FD53B5FDEDB4010653B6FD43B502EB
:103A2800EDB4020643B60253B5FDEDB4030643B642
:073A38000243B5027F0022EA
:1034F800EFD3948140037FFF22EBD3940340037FF3
:10350800FF22EF247F603204705D90FEC4EDF0EB83
:10351800700653B6FB53B5FBEBB4010653B6FB4339
:10352800B504EBB4020643B60453B5FBEB64037071
:103538003B43B60443B504803390FEE4EDF0EB70F2
:103548000653B6F753B5F7EBB4010653B6F743B5D0
:1035580008EBB4020643B60853B5F7EBB4030D43C2
:0F356800B60843B508800590FEE4EDF07F002221
:103CD600EDD394035029ED700653EEFB53DFFBED55
:103CE600B4010653EEFB43DF04EDB4020643EE04D3
:103CF60053DFFBEDB4030B43EE0443DF0480037F85
:0A3D0600FF2290FE62EFF07F002222
:103D490090FA10E054F0F0EDD39403500BE0FEED3F
:103D590025E025E0FDEE4DF0EBD39403500690FAF3
:103D690010E04BF0EF90FA10B40106E04480F080C7
:083D790004E0547FF07F0022FA
:103D810090FA00E054F0F0EDD39403500BE0FEED17
:103D910025E025E0FDEE4DF0EBD39403500690FABB
:103DA10000E04BF0EF90FA00B40106E04480F080AF
:083DB10004E0547FF07F0022C2
:103DB90090FA20E054F0F0EDD39403500BE0FEEDBF
:103DC90025E025E0FDEE4DF0EBD39403500690FA83
:103DD90020E04BF0EF90FA20B40106E04480F08037
:083DE90004E0547FF07F00228A
:103DF10090FA30E054F0F0EDD39403500BE0FEED77
:103E010025E025E0FDEE4DF0EBD39403500690FA4A
:103E110030E04BF0EF90FA30B40106E04480F080DE
:083E210004E0547FF07F002251
:103E290090FA38E054F0F0EDD39403500BE0FEED36
:103E390025E025E0FDEE4DF0EBD39403500690FA12
:103E490038E04BF0EF90FA38B40106E04480F08096
:083E590004E0547FF07F002219
:103E610090FA40E054F0F0EDD39403500BE0FEEDF6
:103E710025E025E0FDEE4DF0EBD39403500690FADA
:103E810040E04BF0EF90FA40B40106E04480F0804E
:083E910004E0547FF07F0022E1
:103E990090FA48E054F0F0EDD39403500BE0FEEDB6
:103EA90025E025E0FDEE4DF0EBD39403500690FAA2
:103EB90048E04BF0EF90FA48B40106E04480F08006
:083EC90004E0547FF07F0022A9
:103ED10090FA50E054F0F0EDD39403500BE0FEED76
:103EE10025E025E0FDEE4DF0EBD39403500690FA6A
:103EF10050E04BF0EF90FA50B40106E04480F080BE
:083F010004E0547FF07F002270
:103F090090FA58E054F0F0EDD39403500BE0FEED35
:103F190025E025E0FDEE4DF0EBD39403500690FA31
:103F290058E04BF0EF90FA58B40106E04480F08075
:083F390004E0547FF07F002238
:103F410090FA60E054F0F0EDD39403500BE0FEEDF5
:103F510025E025E0FDEE4DF0EBD39403500690FAF9
:103F610060E04BF0EF90FA60B40106E04480F0802D
:083F710004E0547FF07F002200
:103F790090FA68E054F0F0EDD39403500BE0FEEDB5
:103F890025E025E0FDEE4DF0EBD39403500690FAC1
:103F990068E04BF0EF90FA68B40106E04480F080E5
:083FA90004E0547FF07F0022C8
:103FB10090FA70E054F0F0EDD39403500BE0FEED75
:103FC10025E025E0FDEE4DF0EBD39403500690FA89
:103FD10070E04BF0EF90FA70B40106E04480F0809D
:083FE10004E0547FF07F002290
:1041770090FE50E054CFF0EDD39403500AE0FEEDEB
:10418700C454F0FDEE4DF0EF90FE50B40106E0444C
:0B41970080F08004E0547FF07F0022E5
:101D8400AD07ED6401707A90FECCE054FEF0E054AF
:101D9400FBF090FEC8E054FCF01219E2FF90FEC87C
:101DA400E0548F4FF09000061219FBFF90FECC30E8
:101DB400E00DE04401F090FEB1E04401F0800BE05E
:101DC40054FEF090FEB1E054FEF0EF90FECC30E112
:101DD4000DE04404F090FEB1E04402F0800BE054C6
:101DE400FBF090FEB1E054FDF0900003121B1AE5E5
:101DF400F090FED5F0900003121B1A90FED602213B
:101E04003EED6402707A90FECCE054EFF0E054BFF3
:101E1400F090FEC9E054FCF01219E2FF90FEC9E014
:101E2400548F4FF09000061219FBFF90FECC30E265
:101E34000DE04410F090FEB1E04404F0800BE05457
:101E4400EFF090FEB1E054FBF0EF90FECC30E30DE8
:101E5400E04440F090FEB1E04408F0800BE054BF51
:101E6400F090FEB1E054F7F0900003121B1AE5F075
:101E740090FED7F0900003121B1A90FED802213E68
:101E8400ED6403707A90FECDE054FEF0E054FBF074
:101E940090FECAE054FCF01219E2FF90FECAE0542E
:101EA4008F4FF09000061219FBFF90FECD30E40D29
:101EB400E04401F090FEB1E04410F0800BE054FEE9
:101EC400F090FEB1E054EFF0EF90FECD30E50DE080
:101ED4004404F090FEB1E04420F0800BE054FBF0A9
:101EE40090FEB1E054DFF0900003121B1AE5F0906D
:101EF400FED9F0900003121B1A90FEDA02213EED87
:101F04006404707A90FECDE054EFF0E054BFF0909A
:101F1400FECBE054FCF01219E2FF90FECBE0548FAC
:101F24004FF09000061219FBFF90FECD30E60DE055
:101F34004410F090FEB1E04440F0800BE054EFF028
:101F440090FEB1E054BFF0EF90FECD30E70DE044D9
:101F540040F090FEB1E04480F0800BE054BFF0907C
:101F6400FEB1E0547FF0900003121B1AE5F090FEDE
:101F7400DBF0900003121B1A90FEDC02213EED649C
:101F840080704F9000051219FB90FEDEF090000166
:101F9400121B1AE5F090FED2F0900001121B1A9069
:101FA400FED3F09000081219FB90FEDDB40106E0A8
:101FB4004480F08004E0547FF09000071219FB90F5
:101FC400FEC0B40106E04401F08004E054FEF07F5A
:101FD4000022ED6405705690FEECE054FEF090FE95
:101FE400E8E054FCF01219E2FF90FEE8E0548F4F51
:101FF400F09000061219FB90FEEC30E00DE0440175
:10200400F090FEB5E04401F0800BE054FEF090FE49
:10201400B5E054FEF0900003121B1AE5F090FEF5B3
:10202400F0900003121B1A90FEF602213EED6406A6
:10203400705690FEECE054EFF090FEE9E054FCF0B2
:102044001219E2FF90FEE9E0548F4FF0900006125F
:1020540019FB90FEEC30E20DE04410F090FEB5E088
:102064004404F0800BE054EFF090FEB5E054FBF034
:10207400900003121B1AE5F090FEF7F09000031293
:102084001B1A90FEF802213EED6407705590FEED98
:10209400E054FEF090FEEAE054FCF01219E2FF90E6
:1020A400FEEAE0548F4FF09000061219FB90FEED0B
:1020B40030E40DE04401F090FEB5E04410F0800BF4
:1020C400E054FEF090FEB5E054EFF0900003121BD4
:1020D4001AE5F090FEF9F0900003121B1A90FEFA34
:1020E4008058ED6408705790FEEDE054EFF090FED8
:1020F400EBE054FCF01219E2FF90FEEBE0548F4F3A
:10210400F09000061219FB90FEED30E60DE044104D
:10211400F090FEB5E04440F0800BE054EFF090FE08
:10212400B5E054BFF0900003121B1AE5F090FEFBDB
:10213400F0900003121B1A90FEFCF07F0022ED6465
:1021440081704C9000051219FB90FEFEF090000186
:10215400121B1AFDACF0EC90FEF2F0AF05A3EFF009
:102164009000081219FB90FEFDB40106E04480F0D3
:102174008004E0547FF09000071219FB90FEE0B455
:102184000106E04401F08004E054FEF07F00227F69
:02219400FF2228
:102B6800EF24807003022C23147003022C68248045
:102B7800B408004003022CB4902B8E75F003A4C552
:102B88008325F0C58373022BA6022BB3022BC30245
:102B98002BD3022BE3022BF3022C03022C13121A61
:102BA800EFFDACF0EC90FED5022CAE900002121BAB
:102BB8001AFDACF0EC90FED7022CAE900004121B6C
:102BC8001AFDACF0EC90FED9022CAE900006121B58
:102BD8001AFDACF0EC90FEDB022CAE900008121B44
:102BE8001AFDACF0EC90FEF5022CAE90000A121B18
:102BF8001AFDACF0EC90FEF7022CAE90000C121B04
:102C08001AFDACF0EC90FEF9022CAE90000E121BEF
:102C18001AFDACF0EC90FEFB022CAE121AEFFDACE4
:102C2800F0EC90FED5F0AF05A3EFF0900002121B78
:102C38001AFDACF0EC90FED7F0AF05A3EFF09000D2
:102C480004121B1AFDACF0EC90FED9F0AF05A3EF0F
:102C5800F0900006121B1AFDACF0EC90FEDB8046EB
:102C6800900008121B1AFDACF0EC90FEF5F0AF05D1
:102C7800A3EFF090000A121B1AFDACF0EC90FEF7DF
:102C8800F0AF05A3EFF090000C121B1AFDACF0ECAE
:102C980090FEF9F0AF05A3EFF090000E121B1AFD9D
:0D2CA800ACF0EC90FEFBF0AF05A3EFF022C6
:1024FB00AD07ED7079C28C1219E2FED39403400341
:10250B007FFF22E58954FC4EF5899000011219FBDF
:10251B00FED3940240037FFF22EE7006538E7F534F
:10252B0089FB9000011219FBB40106438E8053897D
:10253B00FB9000011219FBB40203438904900002C3
:10254B001219FBFFE58F54FE4FF58F900003121B02
:10255B001AE5F0F58C900003121B1AF58A90000611
:10256B001219FB7004C28C8002D28C7F0022ED64A6
:10257B00016003022601C28E1219E2FED3940340BE
:10258B00037FFF22EEC454F0FFE58954CF4FF5894A
:10259B009000011219FBFED3940240037FFF22EE41
:1025AB007006538EBF5389BF9000011219FBB40103
:1025BB0006438E405389BF9000011219FBB40203EE
:1025CB004389409000021219FB25E0FFE58F54FD73
:1025DB004FF58F900003121B1AE5F0F58D90000359
:1025EB00121B1AF58B9000061219FB7004C28E8019
:1025FB0002D28E7F0022ED64027065538EEF900045
:10260B00011219FBFF7006538EFB538EF7EFB401CB
:10261B0006438E04538EF7EFB40203438E089000EB
:10262B00021219FB25E025E0FFE58F54FB4FF58FD8
:10263B00900003121B1AE5F0F5D6900003121B1A3B
:10264B00F5D79000051219FB90FEA2F09000061230
:10265B0019FBC454F0FFE58E54EF4FF58E7F00222B
:10266B00ED6403707253D1F79000011219FBFED386
:10267B00940240037FFF22EE700653D1FD53D1FB32
:10268B009000011219FBB4010643D10253D1FB9008
:10269B0000011219FBB4020343D10490000212197A
:1026AB00FBFFE5D154FE4FF5D1900003121B1AE549
:1026BB00F0F5D4900003121B1AF5D59000051219F2
:1026CB00FB90FEA3F09000061219FB33333354F842
:1026DB00FFE5D154F78077ED6404707853D17F9088
:1026EB0000011219FBFED3940240037FFF22EE7010
:1026FB000653D1DF53D1BF9000011219FBB4010671
:10270B0043D12053D1BF9000011219FBB4020343F4
:10271B00D1409000021219FBC454F0FFE5D154EFE5
:10272B004FF5D1900003121B1AFDACF0ECF5D2AFB4
:10273B00058FD39000051219FB90FEA4F0900006B4
:10274B001219FBC43333335480FFE5D1547F4FF55B
:07275B00D17F00227FFF2265
:03000B0002001ED2
:03001E00B2EF320C
:03001B00020026BA
:03002600B2EE3205
:0300630002005642
:03005600B2ED32D6
:03009B0002005E02
:03005E00B2EC32CF
:0300A300020086D2
:03008600B2EB32A8
:1012770090030AEBF0A3EAF0A3E9F0900309EFF07B
:1012870064016003021455900000F0A3F0A3F0A3DB
:10129700F0A3F090030DF0A3F090030DE0FEA3E0A0
:1012A700FFC39480EE9400501C74542FF582740190
:1012B7003EF583E4F090030EE004F070DC90030D3C
:1012C700E004F080D4E490030DF0A3F090030DE068
:1012D700FEA3E0FFC39480EE9400501C74142FF516
:1012E7008274003EF583E4F090030EE004F070DCB6
:1012F70090030DE004F080D490030AE0FBA3E0FA2A
:10130700A3E0F91219E2FFE598543F4FF598EF640F
:10131700C06008EF64406003021400900002121CD2
:101327009B7F807E8D7D5B7C00121BE590030F12F7
:101337001CCBE4FFFE7D01FC90030FE0F8A3E0F96E
:10134700A3E0FAA3E0FBC3121C7740037FFF2290C0
:10135700030FE0F8A3E0F9A3E0FAA3E0FBC3E49BE3
:10136700FFE49AFE740199FDE498FC90030F121CA8
:10137700CB90030AE0FBA3E0FAA3E0F99000011287
:1013870019FBFB64017038C28E538EFE5389BF531D
:1013970089CF438E4090030FE0FCA3E0FDA3E0FE5E
:1013A700A3E0FF7808121C888F8D90030FA3A3A3D7
:1013B700E0F58BC2AB5389BF538FFDD28E8073EBA1
:1013C70064027032538EEF438E01538EF7438E04BF
:1013D70090030FE0FCA3E0FDA3E0FEA3E0FF780885
:1013E700121C888FD690030FA3A3A3E0F5D753AFA2
:1013F700FB438E10803C7FFF2290030AE0FBA3E0B3
:10140700FAA3E0F91219E2FF70139000081219FB12
:10141700B40105438E20801A538EDF8015EFB48008
:10142700119000081219FBB401054387808003530C
:10143700877F90030AE0FBA3E0FAA3E0F990000797
:101447001219FB7004C29C8002D29C7F0022900379
:1014570009E06402600302159F900005F0A3F0A362
:10146700F0A3F0A3F090030DF0A3F090030DE0FEBE
:10147700A3E0FFC39480EE9400501C74F42FF58210
:1014870074013EF583E4F090030EE004F070DC9005
:10149700030DE004F080D4E490030DF0A3F0900373
:1014A7000DE0FEA3E0FFC39480EE9400501C7494FB
:1014B7002FF58274003EF583E4F090030EE004F00C
:1014C70070DC90030DE004F080D490030AE0FBA3E6
:1014D700E0FAA3E0F91219E2FF64C06008EF644084
:1014E700600302157DEFB4C005439A808003539AC9
:1014F7007F900002121C9B7F807E8D7D5B7C00129B
:101507001BE590030F121CCBE4FFFE7D01FC90034B
:101517000FE0F8A3E0F9A3E0FAA3E0FBC3121C77FE
:1015270040037FFF2290030FE0F8A3E0F9A3E0FA5E
:10153700A3E0FBC3E49BFFE49AFE740199FDE498E2
:10154700FC90030F121CCB538EEF538EF7438E0480
:1015570090030FE0FCA3E0FDA3E0FEA3E0FF780803
:10156700121C888FD690030FA3A3A3E0F5D753AF20
:10157700FB438E1080037FFF2290030AE0FBA3E06A
:10158700FAA3E0F99000071219FBC454F0FFE59A9B
:1015970054EF4FF59A7F0022900309E0640360033C
:1015A70002173390000AF0A3F0A3F0A3F0A3F09082
:1015B700030DF0A3F090030DE0FEA3E0FFC39440FA
:1015C700EE9400501C74742FF58274023EF583E488
:1015D700F090030EE004F070DC90030DE004F0805F
:1015E700D4E490030DF0A3F090030DE0FEA3E0FF19
:1015F700C39440EE9400501C74142FF58274013E7E
:10160700F583E4F090030EE004F070DC90030DE046
:1016170004F080D490030AE0FBA3E0FAA3E0F912F8
:1016270019E2FF64C06008EF64406003021711EF1E
:10163700B4C00543AC80800353AC7F900002121CFA
:101647009B7F807E8D7D5B7C00121BE590030F12D4
:101657001CCBE4FFFE7D01FC90030FE0F8A3E0F94B
:10166700A3E0FAA3E0FBC3121C7740037FFF22909D
:10167700030FE0F8A3E0F9A3E0FAA3E0FBC3E49BC0
:10168700FFE49AFE740199FDE498FC90030F121C85
:10169700CB90030AE0FBA3E0FAA3E0F99000011264
:1016A70019FBFB6403702943AC4090030FE0FCA3D4
:1016B700E0FDA3E0FEA3E0FF7808121C888FD4901A
:1016C700030FA3A3A3E0F5D553D1F043D10A803D7F
:1016D700EB64027032538EEF53ACBF538EF7438ED9
:1016E7000490030FE0FCA3E0FDA3E0FEA3E0FF7876
:1016F70008121C888FD690030FA3A3A3E0F5D75336
:10170700AFFB438E1080067FFF227FFF2290030AE4
:10171700E0FBA3E0FAA3E0F99000071219FBC45419
:10172700F0FFE5AC54EF4FF5AC7F0022900309E0E2
:10173700640460030218C790000FF0A3F0A3F0A39E
:10174700F0A3F090030DF0A3F090030DE0FEA3E0EB
:10175700FFC39420EE9400501C74B42FF5827402DA
:101767003EF583E4F090030EE004F070DC90030D87
:10177700E004F080D4E490030DF0A3F090030DE0B3
:10178700FEA3E0FFC39420EE9400501C74D42FF501
:101797008274013EF583E4F090030EE004F070DC00
:1017A70090030DE004F080D490030AE0FBA3E0FA75
:1017B700A3E0F91219E2FF64C06008EF6440600318
:1017C7000218A5EFB4C005438480800353847F903B
:1017D7000002121C9B7F807E8D7D5B7C00121BE5C7
:1017E70090030F121CCBE4FFFE7D01FC90030FE07A
:1017F700F8A3E0F9A3E0FAA3E0FBC3121C774003C8
:101807007FFF2290030FE0F8A3E0F9A3E0FAA3E03B
:10181700FBC3E49BFFE49AFE740199FDE498FC90F6
:10182700030F121CCB90030AE0FBA3E0FAA3E0F935
:101837009000011219FBFB64047029438440900354
:101847000FE0FCA3E0FDA3E0FEA3E0FF7808121C75
:10185700888FD290030FA3A3A3E0F5D353D10F43EF
:10186700D1A0803DEB64027032538EEF5384BF5397
:101877008EF7438E0490030FE0FCA3E0FDA3E0FE88
:10188700A3E0FF7808121C888FD690030FA3A3A3A9
:10189700E0F5D753AFFB438E1080067FFF227FFF13
:1018A7002290030AE0FBA3E0FAA3E0F990000712F5
:1018B70019FBC454F0FFE58454EF4FF5847F0022F1
:0218C7007FFFA1
:0118C90022FC
:0F43D4008F999000027401F0900002E070FA22BD
:1042E9001219E2FF600C1243D4740129F9E43AFA75
:0342F90080EE2232
:0F43E3008F9B9000077401F0900007E070FA22A2
:1042FC001219E2FF600C1243E3740129F9E43AFA53
:03430C0080EE221E
:0F43F2008FAD90000C7401F090000CE070FA2277
:10430F001219E2FF600C1243F2740129F9E43AFA30
:03431F0080EE220B
:0F4401008F859000117401F0900011E070FA2285
:104322001219E2FF600C124401740129F9E43AFA0D
:0343320080EE22F8
:05000E00AE070243D41F
:030023000238831D
:10388300C0E0C083C082C0D075D000C00730982785
:10389300C298900003E0C394804002E4F0900003D8
:1038A300E0FF04F074142FF582E43400F583E59906
:1038B300F09000047405F0309907C299900002E477
:0C38C300F0D007D0D0D082D083D0E0320B
:0300430002378DF4
:10378D00C0E0C083C082C0D075D000C007E59A30BC
:10379D00E028539AFE900008E0C394804002E4F0C4
:1037AD00900008E0FF04F074942FF582E43400F5E6
:1037BD0083E59BF09000097405F0E59A30E108531C
:1037CD009AFD900007E4F0D007D0D0D082D083D0FE
:0237DD00E032D8
:03008B000237DF5A
:1037DF00C0E0C083C082C0D075D000C007E5AC3058
:1037EF00E02853ACFE90000DE0C394404002E4F09B
:1037FF0090000DE0FF04F074142FF582E43401F50E
:10380F0083E5ADF090000E7405F0E5AC30E10853A0
:10381F00ACFD90000CE4F0D007D0D0D082D083D094
:02382F00E03285
:03009300023831FF
:10383100C0E0C083C082C0D075D000C007E584302D
:10384100E0285384FE900012E0C394204002E4F08B
:10385100900012E0FF04F074D42FF582E43401F5F6
:1038610083E585F09000137405F0E58430E1085399
:1038710084FD900011E4F0D007D0D0D082D083D065
:02388100E03233
:104394000000000000000000000000000000808019
:0243A400808017
:1042BD00900301740CF09003007402F07B017A03FB
:0742CD0079007F0302276264
:10411C009003027401F0900301F0E4900303F0901B
:10412C000300740DF07B017A037900123577E4FB00
:0E413C00FD7F011236DBE5BA54CF4430F5BAF0
:01414A002252
:0944900043BA801242BD02411C36
:102DB10078127C037D017BFF7A4379947E007F0743
:102DC10012199A900311E0FF75F00A84C454F0FEC1
:102DD100EF75F00A84E5F04EA3F0900310E0FF7563
:102DE100F00A84C454F0FEEF75F00A84E5F04E90C9
:102DF1000313F090030FE0FF75F00A84C454F0FE52
:102E0100EF75F00A84E5F04E900314F090030EE0A4
:102E1100FF75F00A84C454F0FEEF75F00A84E5F002
:102E21004E900315F090030DE0900316F090030A05
:102E3100E0FAA3E0FBC39434EA940840047F0180E4
:102E4100027F0090030CE0FE75F00A84C454F0FD8B
:102E5100EFC433333354804DFFEE75F00A84E5F04F
:102E61004F900317F07C007D64AF03AE02121A6E1F
:102E71007E007F0ACFCDCFCECCCE121A6EEFC454D6
:102E8100F0FB90030AE0FEA3E0FF7C007D0A121A2A
:102E91006EEB4D900318F07B017A03791290031EBB
:0A2EA1007407F07D027FA202405387
:0B2EAB00900300EBF0A3EAF0A3E9F0B5
:102EB60078037C037D017BFF7A43799B7E007F0745
:102EC60012199A7B017A03790390030F7407F07D38
:102ED600027FA2123D10900303E0FFC4540775F071
:102EE6000AA4FEEF540F2EFF900300E0FBA3E0FAC6
:102EF600A3E0F9900007EF121A3A900304E0FFC42A
:102F0600540775F00AA4FEEF540F2E900006121A0D
:102F16003A900305E0FFC4540375F00AA4FEEF548B
:102F26000F2E900005121A3A900306E0FFC45403D0
:102F360075F00AA4FEEF540F2E900004121A3A9070
:102F46000307E0900003121A3A900308E0FFC45406
:102F56000175F00AA4FEEF540F2E900002121A3AE1
:102F6600900309E0C4540F75F00AA4FFE0540F7CE7
:102F7600002FFFEC35F08FF0121B8A900308E05407
:102F86008070067E077FD080047E087F3490030021
:0E2F9600E0FBA3E0FAA3E0F9EE8FF0021B527D
:1031F40078497C037D017BFF7A4379A27E007F04BA
:1032040012199A900345E0C364809480401BE0FF48
:1032140075F00A1219C0C454E0FEEF75F00A1219D1
:10322400C0AFF0EF4E900349F0900346E0C36480D2
:103234009480401BE0FF75F00A1219C0C454E0FEEC
:10324400EF75F00A1219C0AFF0EF4E90034AF090F8
:103254000347E0C364809480401BE0FF75F00A12CA
:1032640019C0C454E0FEEF75F00A1219C0AFF0EFB4
:103274004E90034BF0900348E0FFC3648094804079
:1032840007EF54EF90034CF07B017A0379499003E4
:0B3294001E7404F07D097FA20240536D
:053A850090035AEFF070
:103A8A007B017A03795B90030F7401F0FD7FA21228
:103A9A003D1090035BE054F7F090035AE06007A3EF
:103AAA00E04402F0800790035BE054FDF07B017A6A
:0F3ABA0003795B90031E7401F0FD7FA20240535D
:053FE90090035CEDF007
:103FEE00EF4480A3F07B017A03795D90031E740188
:103FFE00F07D0E7FA212405390035CE0A3F07B0194
:10400E007A03795D90031E7401F07D0F7FA202404A
:01401E00534E
:053AC90090035EEFF028
:103ACE007B017A03795F90030F7401F0FD7FA212E0
:103ADE003D1090035FE054FBF090035EE06007A39F
:103AEE00E04401F0800790035FE054FEF07B017A22
:0F3AFE0003795F90031E7401F0FD7FA202405315
:1038CF007B017A03796190030F7401F0FD7FA212DF
:1038DF003D10900361E0FF131313541F30E00A12E1
:1038EF00446C900361E054F7F0900361E030E20A1A
:1038FF00124475900361E054FBF07B017A03796108
:0C390F0090031E7401F0FD7FA2024053E3
:10408600EFD3940140037FFF22EF7010C28912190B
:10409600E27004C2888002D2887F0022EFB4011049
:1040A600C28B1219E27004C28A8002D28A7F002271
:0340B6007FFF2267
:0300030002433580
:10433500C0E0C083C0829003627401F0D082D08354
:03434500D0E03293
:030013000243485D
:10434800C0E0C083C0829003627402F0D082D08340
:03435800D0E03280
:0300530002435B0A
:10435B00C0E0C083C0829003627403F0D082D0832C
:03436B00D0E0326D
:03005B0002436EEF
:10436E00C0E0C083C0829003627404F0D082D08318
:03437E00D0E0325A
:03008300024381B4
:10438100C0E0C083C0829003627405F0D082D08304
:03439100D0E03247
:1000C6000000000000000000002F000000000700F4
:1000D600070000147F147F1400242A7F2A1200626E
:1000E600640813230036495522500000050300001A
:1000F60000001C224100000041221C000014083EA2
:1001060008140008083E0808000000A06000000867
:1001160008080808000060600000002010080402BB
:10012600003E5149453E0000427F40000042615179
:100136004946002141454B31001814127F10002713
:1001460045454539003C4A494930000171090503D6
:1001560000364949493600064949291E0000363607
:10016600000000005636000000081422410000146A
:100176001414141400004122140800020151090647
:1001860000324959513E007C1211127C007F4949C8
:100196004936003E41414122007F4141221C007FF9
:1001A60049494941007F09090901003E4149497A07
:1001B600007F0808087F0000417F41000020404181
:1001C6003F01007F08142241007F40404040007FED
:1001D600020C027F007F0408107F003E4141413E31
:1001E600007F09090906003E4151215E007F091979
:1001F60029460046494949310001017F0101003F76
:100206004040403F001F2040201F003F4038403FF5
:100216000063140814630007087008070061514959
:10022600454300007F41410000552A552A550000EC
:1002360041417F000004020102040040404040406A
:10024600000001020400002054545478007F484402
:10025600443800384444442000384444487F003839
:100266005454541800087E0901020018A4A4A47C62
:10027600007F080404780000447D4000004080842C
:100286007D00007F102844000000417F4000007C74
:1002960004180478007C0804047800384444443880
:1002A60000FC242424180018242418FC007C0804CC
:1002B600040800485454542000043F444020003CA5
:1002C6004040207C001C2040201C003C4030403C2C
:1002D600004428102844001CA0A0A07C00446454BC
:1002E6004C44141414141414000000000000000000
:1002F6000000000000000000000000F80000000000
:10030600000000333000000000100C06100C060040
:10031600000000000000000040C07840C0784000A7
:10032600043F04043F040400007088FC0830000009
:10033600001820FF211E0000F008F000E018000061
:1003460000211C031E211E0000F00888700000001A
:100356001E2123241927211010160E00000000006C
:100366000000000000000000000000E01804020089
:10037600000000071820400000020418E0000000FA
:100386000040201807000000404080F080404000F8
:100396000202010F01020200000000F0000000004E
:1003A6000101011F01010100000000000000000022
:1003B60080B0700000000000000000000000000097
:1003C6000001010101010101000000000000000020
:1003D60000303000000000000000000080601804BB
:1003E600006018060100000000E010080810E00098
:1003F600000F102020100F00001010F80000000061
:100406000020203F202000000070080808887000A7
:100416000030282422213000003008888848300027
:100426000018202020110E000000C02010F8000047
:1004360000070424243F240000F8088888080800E0
:100446000019212020110E0000E0108888180000F5
:10045600000F112020110E0000380808C8380800C7
:100466000000003F00000000007088080888700047
:10047600001C222121221C0000E010080810E000C8
:100486000000312222110F00000000C0C000000051
:100496000000003030000000000000800000000076
:1004A600000080600000000000008040201008006E
:1004B6000001020408102000404040404040400037
:1004C6000404040404040400000810204080000012
:1004D6000020100804020100007048080808F00017
:1004E6000000003036010000C030C828E810E000E7
:1004F6000718272423140B000000C038E000000072
:10050600203C23020227382008F8888888700000DB
:10051600203F202020110E00C030080808083800AF
:10052600071820202010080008F808080810E00026
:10053600203F202020100F0008F88888E8081000C7
:10054600203F20202320180008F88888E80810009B
:10055600203F200003000000C030080808380000D3
:1005660007182020221E020008F808000008F808D4
:10057600203F210101213F20000808F8080800005B
:100586000020203F2020000000000808F80808008E
:10059600C08080807F00000008F888C02818080006
:1005A600203F20012638200008F80800000000003F
:1005B600203F20202020300008F8F800F8F8080036
:1005C600203F003F003F200008F830C00008F80830
:1005D600203F200007183F00E01008080810E00040
:1005E6000F10202020100F0008F808080808F00057
:1005F600203F210101010000E01008080810E0007A
:100606000F18242438504F0008F88888888870000E
:10061600203F2000030C30200070880808083800AE
:100626000038202121221C00180808F808081800A4
:100636000000203F2000000008F808000008F80825
:10064600001F202020201F000878880000C83808D6
:10065600000007380E010000F80800F80008F8004E
:10066600033C0700073C03000818688080681808E8
:1006760020302C03032C30200838C800C838080066
:100686000000203F2000000010080808C8380800B5
:100696002038262120201800000000FE0202020059
:1006A6000000007F40404000000C30C00000000009
:1006B600000000010638C00000020202FE00000031
:1006C600004040407F0000000000040202020400D7
:1006D6000000000000000000000000000000000014
:1006E60080808080808080800002020400000000FC
:1006F60000000000000000000000808080800000F4
:100706000019242222223F2008F8008080000000E1
:10071600003F112020110E000000008080800000A4
:10072600000E112020201100000000808088F800B3
:10073600000E112020103F200000808080800000E5
:10074600001F222222221300008080F08888881849
:100756000020203F20200000000080808080800054
:10076600006B94949493600008F8008080800000E9
:10077600203F210000203F200080989800000000C4
:100786000020203F202000000000008098980000F4
:1007960000C08080807F000008F800008080800014
:1007A600203F24022D302000000808F80000000039
:1007B6000020203F202000008080808080808000F4
:1007C600203F20003F20003F808000808080000086
:1007D600203F210000203F20000080808080000014
:1007E600001F202020201F00808000808000000045
:1007F60080FFA12020110E00000000808080800074
:10080600000E112020A0FF80808080008080800064
:1008160020203F2120000100000080808080800091
:100826000033242424241900008080E08080000006
:100836000000001F20200000808000000080800053
:10084600001F202020103F208080800000808080B4
:1008560000010E3008060100808000800080808044
:100866000F300C030C300F00008080008080800069
:100876000020312E0E312000808080000080808094
:1008860080818E7018060100008080808080800044
:100896000021302C2221300000000000807C020262
:1008A60000000000003F404000000000FF00000084
:1008B60000000000FF0000000002027C8000000033
:1008C6000040403F0000000000060101020204044F
:1008D600000000000000000000003E222A3222FE36
:1008E60022322A223E0000008868090929C9090F18
:1008F60029C9090929C80800000202F282828282F7
:100906008282FE808080000008080808080808081F
:1009160008084880403F00002424A4FE2322003E0D
:1009260022222222223E0000080601FF010640493B
:1009360049497F49494941000000FC040404141553
:10094600569454341404040040300F000101014150
:10095600817F0101010503000000C05E5252525220
:100966005252525EC000000080808F404020100E20
:10097600101020204F800000008060F80740484893
:10098600E85F484848404000010000FF0000020BB5
:100996001222D20A06000000109453321E32521060
:1009A600007E4242427E0000000000FF494949495C
:1009B600494949FF0000000020A4A4A4FFA4B428CC
:1009C60084708F0808F80800040A49887E050484A4
:1009D6004020130C33408000040424B4ACA4A5A624
:1009E600A4A4A4B464040400000000FF0A0A0A0ACE
:1009F6000A4A8A7F0000000000FC0404FC205048DC
:100A06004443444850202000000F04040F00FE42D7
:100A160042424242FE00000040C0C0C0C0E0FCFFAF
:100A2600FCE0C0C0C0C04000000041393F1F1F0F9E
:080A36001F1F3F3941000000C1
:10006600900300EFF07006FD7FA61240309003006B
:0C007600E0B40107E4FD7FA71240302237
:1041A200900300EFF0700DFD7FC8124030E4FD7FF8
:1041B200A1124030900300E0B4010EE4FD7FC01272
:0A41C2004030E4FD7FA012403022DF
:084499007F01AE071FEE70FA6F
:0144A10022F8
:0F441000D2B3D2B2124499C2B3124499C2B222AB
:0A446200C2B3D2B2124499D2B322C1
:0F441F00D2B3124499D2B2124499C2B202449954
:0241CC00AD073D
:1041CE00E4FCC2B2ED30E704D2B38002C2B31244B3
:1041DE0099D2B2124499C2B2ED25E0FD0CECB408AE
:0141EE00E1EF
:0141EF0022AD
:10401F00F583E5822FF582E5833EF583E493FF7DFB
:01402F00018F
:10403000900312EFF0ED7B017A03791290031E607A
:10404000077401F07D4080057401F0E4FD7F781273
:03405000405322B8
:0740B900E0FFA3E0FD04F0AD
:1040C000900311EFF0ED24B0FFE4FD1240309003B7
:1040D00011E054F0C4540F4410FFE4FD124030903E
:0B40E0000311E0540FFFE4FD0240302C
:10002E00E4FD7F8D124030E4FD7F14124030E4FD7C
:05003E007FAF0240301D
:1042D400E4FD7F8D124030E4FD7F10124030E4FD98
:0542E4007FAE02403036
:103A3F00E4900300F0900300E0FFC394085036EFCA
:103A4F0024B0FFE4FD124030E4FDFF124030E4FDEE
:103A5F007F10124030E4900301F07D01E4FF12402B
:103A6F0030900301E004F0E0C3948040ED90030038
:053A7F00E004F080C02E
:013A8400221F
:082CB500900307EFF0A3EDF01E
:102CBD00E490030BF090030AE0FFC313FD90030CA7
:102CCD00F0E4A3F0A3F0EFB40809A3E4F0A37406B5
:102CDD00F0803190030AE0FF131313541FF5827532
:102CED008300EF54077E0060047F0180027F00EFB8
:102CFD002582FFEE3583FE7C00121A5C90030FEEE9
:102D0D00F0A3EFF0EB24E090030BF0900307E0FF4E
:102D1D00A3E0FD1240C0E490030DF0A3F090030F6B
:102D2D00E0FCA3E0FD90030DE0FEA3E0FFC39DEEEC
:102D3D009C507090030CE0FD7C00121A6EED4C70EF
:102D4D000E90030AE0640860069003071240B990E4
:102D5D00030AE0B4081A90030DE0FEA3E0FF900310
:102D6D000BE075F006A424C6F582E5F03400801F53
:102D7D0090030AE0B4102C90030DE0FEA3E0FF9049
:102D8D00030BE075F010A424EEF582E5F034021289
:102D9D00401F90030EE004F0700690030DE004F068
:032DAD00022D2ACA
:012DB0002200
:07425700900363EFF0A905DD
:10425E007F017E00AD0119ED600C900363E0FD7CE3
:06426E0000121A5C80EE54
:014274002227
:0E2FA400900333EFF0A3EDF0A3EAF0A3EBF0FF
:102FB200E490033BF0A3F0900338E0B408069003DA
:102FC2003B7402F0E4900339F0900337E0FF900382
:102FD20039E0FEC39F400302307EC3EF9E14FD7FA3
:102FE2000A124257900335E0FCA3E0FDCFCDCFCECD
:102FF200CCCE121A6E7C007D0A121A6E90033AED44
:10300200F090033CE0703C900337E014FF900339EA
:10301200E0FEC39F502DA3E07023900338E0FCC371
:1030220013FF90033BE02F8EF0A4FF900333E02FB9
:10303200FFA3E0FD90030AECF07B20803390033C79
:103042007401F0900338E0FEC313FF90033BE02FBE
:10305200FF900339E0FDEF8DF0A4FF900333E02FE2
:10306200FFA3E0FD90033AE02430FB90030AEEF068
:0C307200122CB5900339E004F0022FCBC3
:01307E00222F
:10366B00900300EFF0A3EDF0A3EBF0A3EAF0A3E9D6
:01367B00F05E
:10367C00E4900306F0900302E0FBA3E0FAA3E0F968
:10368C00900306E0F5827583001219FB60409003ED
:10369C0000E0FFA3E0FD900306E0FE04F08E8275CF
:1036AC0083001219FBFB900305E090030AF0122C27
:1036BC00B5900305E0FFB40809900300E02406F080
:0E36CC0080B3EFC313FF900300E02FF080A740
:0136DA0022CD
:0B333C0090034DEFF0A3EDF0A3EBF0C9
:10334700A3E0FF131313541FFD7C00EF54077E0007
:1033570060047F0180027F00EF2DFFEE3CFE9003AB
:1033670050E0FD7C00121A5C900353EEF0A3EFF0DF
:10337700E4900351F0A3F0900353E0FCA3E0FD9029
:103387000351E0FEA3E0FFC39DEE9C504490035021
:10339700E0FD7C00121A6EED4C700690034D124052
:1033A700B9900350E0B41029A3E0FEA3E0FF900317
:1033B7004FE075F020A424DEF582E5F034081240D2
:1033C7001F900352E004F070AE900351E004F080C8
:0133D700A64F
:0133D80022D2
:0B33D900900328EFF0A3EDF0A3EBF051
:1033E400E490032FF0A3F090032BE0FF1313135486
:1033F4001FFEEF540760047F0180027F00EE2F90D0
:10340400032BF0E4900331F090032BE0FF900331A1
:10341400E0FEC39F5051900328E0FFA3E0FDEE2D92
:10342400FD1240C0E4900332F090032AE0FF9003C1
:1034340032E0C39F502990032CE0FBA3E0FAA3E001
:10344400F9A3E475F001121AD985F082F5831219F3
:10345400FBFF7D01124030900332E004F080CA90FB
:073464000331E004F080A138
:01346B00223E
:10307F00E4FD7FAE124030E4FDFF124030E4FD7FEF
:10308F0010124030E4FD7F40124030E4FD7F81128A
:10309F004030E4FD7FCF124030E4FD7FA11240307D
:1030AF00E4FD7FC8124030E4FD7FA6124030E4FDFE
:1030BF007FA8124030E4FD7F3F124030E4FD7FD304
:1030CF00124030E4FDFF124030E4FD7FD512403056
:1030DF00E4FD7F80124030E4FD7FD9124030E4FDE3
:1030EF007FF1124030E4FD7FDA124030E4FD7F12B1
:1030FF00124030E4FD7FDB124030E4FD7F40124090
:10310F0030E4FD7F20124030E4FD7F02124030E4B6
:10311F00FD7F8D124030E4FD7F14124030E4FD7FBF
:10312F00A4124030E4FD7FA6124030123A3FE4FD76
:05313F007FAF024030EB
:0300000002346C5B
:0C346C00787FE4F6D8FD7581210234B3AE
:1018CA00E709F608DFFA8046E709F208DFFA803E00
:1018DA0088828C83E709F0A3DFFA8032E309F608ED
:1018EA00DFFA8078E309F208DFFA807088828C8355
:1018FA00E309F0A3DFFA806489828A83E0A3F60809
:10190A00DFFA805889828A83E0A3F208DFFA804CE2
:10191A0080D280FA80C680D4806980F280338010B9
:10192A0080A680EA809A80A880DA80E280CA803322
:10193A0089828A83ECFAE493A3C8C582C8CCC5839A
:10194A00CCF0A3C8C582C8CCC583CCDFE9DEE7806A
:10195A000D89828A83E493A3F608DFF9ECFAA9F0E9
:10196A00EDFB2289828A83ECFAE0A3C8C582C8CC3F
:10197A00C583CCF0A3C8C582C8CCC583CCDFEADE58
:10198A00E880DB89828A83E493A3F208DFF980CCBA
:10199A0088F0EF60010E4E60C388F0ED2402B404B3
:1019AA000050B9F582EB2402B4040050AF2323455A
:0619BA00822390191A734C
:1019C000C2D530F707B2D563F0FF05F030E70CB2AF
:1019D000D5F4048463F0FF05F080018430D502F46F
:0219E0000422DF
:1019E200BB010689828A83E0225002E722BBFE0203
:0919F200E32289828A83E4932236
:1019FB00BB010CE58229F582E5833AF583E02250A1
:101A0B0006E92582F8E622BBFE06E92582F8E222EA
:0D1A1B00E58229F582E5833AF583E4932204
:101A2800BB010689828A83F0225002F722BBFE019D
:021A3800F32297
:101A3A00F8BB010DE58229F582E5833AF583E8F0E2
:101A4A00225006E92582C8F622BBFE05E92582C88E
:021A5A00F22276
:101A5C00EF8DF0A4A8F0CF8CF0A428CE8DF0A42E9E
:021A6C00FE2258
:101A6E00BC000BBE0029EF8DF084FFADF022E4CC5C
:101A7E00F875F008EF2FFFEE33FEEC33FCEE9DEC25
:101A8E00984005FCEE9DFE0FD5F0E9E4CEFD22ED6B
:101A9E00F8F5F0EE8420D21CFEADF075F008EF2FB5
:101AAE00FFED33FD4007985006D5F0F222C398FDA6
:051ABE000FD5F0EA2243
:101AC300C5F0F8A3E028F0C5F0F8E58215827002AE
:061AD3001583E038F0224B
:101AD900A3F8E0C5F025F0F0E582158270021583C0
:061AE900E0C838F0E8221D
:101AEF00BB010A89828A83E0F5F0A3E022500687C2
:101AFF00F009E71922BBFE07E3F5F009E319228984
:0B1B0F00828A83E493F5F074019322B6
:101B1A00BB0110E58229F582E5833AF583E0F5F009
:101B2A00A3E0225009E92582F886F008E622BBFEE6
:101B3A000AE92582F8E2F5F008E222E5832AF5832C
:081B4A00E993F5F0A3E99322F1
:101B5200BB010789828A83021AC3500B09C5F02789
:101B6200F7C5F01937F722BBFE0D09F8E325F0F3AC
:101B7200C5F019E338F322F889828A837401932528
:081B8200F0C5F0F8E4933822ED
:101B8A00BB010A89828A83F0E5F0A3F0225006F7A6
:0F1B9A0009A7F01922BBFE06F3E5F009F31922A3
:101BA90075F008758200EF2FFFEE33FECD33CDCCF3
:101BB90033CCC58233C5829BED9AEC99E582984076
:101BC9000CF582EE9BFEED9AFDEC99FC0FD5F0D653
:101BD900E4CEFBE4CDFAE4CCF9A88222B800C1B97D
:101BE9000059BA002DEC8BF084CFCECDFCE5F0CBBB
:101BF900F97818EF2FFFEE33FEED33FDEC33FCEBF4
:101C090033FB10D703994004EB99FB0FD8E5E4F9AE
:101C1900FA227818EF2FFFEE33FEED33FDEC33FC9B
:101C2900C933C910D7059BE99A4007EC9BFCE99A8F
:101C3900F90FD8E0E4C9FAE4CCFB2275F010EF2FD4
:101C4900FFEE33FEED33FDCC33CCC833C810D707D4
:101C59009BEC9AE899400AED9BFDEC9AFCE899F80F
:0E1C69000FD5F0DAE4CDFBE4CCFAE4C8F922A2
:101C7700EB9FF5F0EA9E42F0E99D42F0E89C45F0C3
:011C8700223A
:101C8800E8600FECC313FCED13FDEE13FEEF13FF3A
:031C9800D8F1225E
:101C9B00BB010DE58229F582E5833AF583021D151B
:101CAB005007E92582F8021D08BBFE07E92582F8DB
:101CBB00021D21E58229F582E5833AF583021D2E6B
:0C1CCB00ECF0A3EDF0A3EEF0A3EFF0228C
:101CD700A8828583F0D083D082121CEE121CEE12EC
:101CE7001CEE121CEEE473E493A3C583C5F0C58311
:101CF700C8C582C8F0A3C583C5F0C583C8C582C857
:011D070022B9
:10219600E5082403F582E43403F583E0050822907C
:1021A6000300300703900303E475F001121D3E029D
:1021B60019E22000E97F2ED2008018EF540F2490F8
:1021C600D43440D4FF30040BEF24BFB41A005003BC
:1021D6002461FFE50960021509050CE50C7002058E
:1021E6000B30070E900300E475F001121D3EEF025E
:1021F6001A2802000E7403D2078003E4C207F5080A
:10220600900300121D55E4F509F50BF50CE5096080
:10221600077F201221D980F5750AFFC201C200C2CC
:1022260002C203C205C206C2081221A5FF700D3004
:1022360007057F001221EAAF0CAE0B22B4255FC260
:10224600D5C2041221A5FF24D0B40A00501A75F095
:102256000A780930D50508B6FF0106C6A426F62079
:10226600D5047002D20380D924CFB41A00EF5004EB
:10227600C2E5D2040223EBD20180C6D20080C0D2CE
:102286000280BCD2D580BAD20580B47F201221D973
:102296002002077401B5090040F1122196FF1221B0
:1022A600D9022213D208D2068095122196FB12215A
:1022B60096FA122196F94A4B700679BC7A247BFF6E
:1022C60020022EE509602A7E008E8275830012198F
:1022D600FB60060EEE650A70F0C2D5EBC0E0EAC000
:1022E600E0E9C0E0EE122432D0E0F9D0E0FAD0E026
:1022F600FB1219E2FF60AAEBC0E0EAC0E0E9C0E029
:102306001221D9D0E02401F9D0E03400FAD0E0FB64
:10231600E50A0460DCD50AD980877BFF7A24792E0A
:10232600D202809C791080027908C206C208800811
:10233600D2D5790A8004790AC2D5E50A047002F575
:102346000AE4FAFDFEFF122196FC7B082001131217
:102356002196FD7B1030000A122196FE122196FF6F
:102366007B20EC3382D592D55013C3E43000069F10
:10237600FFE49EFEE42001039DFDE49CFCE4CBF813
:10238600C201EC700CCFCECDCCE824F8F870F38007
:1023960017C3EF33FFEE33FEED33FDEC33FCEB33C7
:1023A600FB994002FB0FD8E9EB300105F8D0E0C4F9
:1023B60048B201C0E00AEC4D4E4F78207B0070C257
:1023C600EAB50A0040BCC0E0122434D0F0D0E020C8
:1023D6000104C4C0E0C4B201C0F01221C2D0F0D5DD
:1023E600F0EB022213121D5E22B053232A582281DB
:1023F6004C227D42232E4F233644233649229643D0
:08240600233C5523204623204E
:10240E004523204724DC5022852D22892E22AC2BF9
:10241E00228D2322AA2024C52A224548000022A468
:10242E003F3F3F00790AA2D5200314300509B910A9
:10243E00020404B9080104A2D520060250010420AA
:10244E0002689202B509005034C0E07F20300319B3
:10245E007F30A20272067205500F12248BC202C286
:10246E0006C205C2087F30800F300503E9C0E012B6
:10247E0021D9300503D0E0F9D0E0B509CC300517ED
:10248E007F30B9100C1221D97F583004077F788025
:10249E0003B908031221D93002057F2D0221D97FFD
:1024AE00202008F87F2B2006F322920280CF286E80
:1024BE00756C6C2900D2011221963001F8C2017898
:1024CE000930D50108F60222452D504349581221F4
:1024DE00962403B405004001E49024D7931221CA38
:0D24EE00743A1221CAD20375090402232A90
:103478000229B6E493A3F8E493A34003F68001F28B
:1034880008DFF48029E493A3F85407240CC8C33355
:10349800C4540F4420C8834004F456800146F6DF24
:1034A800E4800B0102040810204080900006E47EAE
:1034B800019360BCA3FF543F30E509541FFEE49319
:1034C800A360010ECF54C025E060A840B8E493A3E0
:1034D800FAE493A3F8E493A3C8C582C8CAC583CA0B
:1034E800F0A3C8C582C8CAC583CADFE9DEE780BEC3
:01000A0000F5
:0D1D0800E6FB08E6F908E6FA08E6CBF8224B
:0C1D1500E0F8A3E0F9A3E0FAA3E0FB2251
:0D1D2100E2FB08E2F908E2FA08E2CBF82242
:101D2E00E493F8740193F9740293FA740393FB220B
:101D3E00F8E0FBA3A3E0F925F0F0E582158270022E
:071D4E001583E0FA38F022D2
:091D5500EBF0A3EAF0A3E9F0228F
:101D5E00D083D082F8E4937012740193700DA3A314
:101D6E0093F8740193F5828883E473740293686028
:061D7E00EFA3A3A380DF28
:00000001FF
