:025E2200004638
:025E24005E56C8
:025E26003FF546
:025E2800474CE5
:025E2A003693AD
:025E2C005863B9
:025E2E00463AF2
:025E30005A59BD
:025E32005BD43F
:03000B0002272E9B
:10272900C2AF80FE3212272D85D00B75D008AAE0E2
:10273900C28CE58A24F7F58AE58C34D8F58CD28CDD
:10274900EC2440F8E6BC080274FFC39581B4140078
:1027590040CE7909780E16E608700BC2AFE630E173
:10276900034418F6D2AF08D9EDEA8BD0302D0122F7
:10277900D50DFCC0E0C0D0C0F0C083C082C000C08D
:1027890001C002C003C004C005C006C007E50C2390
:10279900240FF87440C2AF46F6D2AFD22DE50CFF34
:1027A90023240FF80F0808BF09047F00780FE630CB
:1027B900E4F200E50CC39F5020050C743F250CF88A
:1027C900E6FDA68108E6AE0CBE080274FFCDF8E866
:1027D9006D60E008E6C0E080F6E50CD39F4027E590
:1027E9000C2440F8E6AE0CBE080274FFFD18E6CDD5
:1027F900F8E5816D6006D0E0F61880F5E50C243F18
:10280900C8F6150C80D3750D05E50C23240FF87F48
:1028190004C2AFE610E61E30E00310E20C7F003080
:05282900E10730E304AB
:10282E007F0854F4547CC6D2AF54804207C22D2286
:10283E00F6D2AFD007D006D005D004D003D002D048
:10284E0001D000D082D083D0F0D0D0D0E0C22D22E3
:10285E00783FA68174086006FF0876FFDFFB7F09CC
:10286E00E4780EF608F608DFFA780F7630905E22DE
:10287E00740193C0E0E493C0E0750D0543890175C2
:0D288E008AF0758CD8D28CD2AFD2A9220866
:105D2C009002D57403F0E49002D4F07B017A0279EE
:065D3C00D47F03022C9A43
:105746009002D47440F0A37401F0A3120B09000177
:10575600C2009002DB7401F0E4A3F07B017A0279C7
:10576600D47F011215047D017F0112520453A23F1A
:015776002210
:0C5F230043BA80125D2C125746D2AF2208
:10004600125F237F0112289B7F0212289B7F0312D7
:0C005600289B7F0412289BE4FF02292451
:105B74006B6579732D3E25640A00676C6F62616CF6
:105B84005F6375725F706F73202D3E2025640A0079
:0533F4004205DC0000B1
:053D98009002E8EFF0CD
:103D9D009005DCA3E09002E9F07BFF7A5B797490EB
:103DAD000407E4F0A3EFF0121BC29002E8E06003F9
:103DBD00B401089005DDE0240680139002E8E0FFD1
:103DCD0064026004EFB4031A9005DDE02401FF9056
:103DDD0005DCE03400FE7C007D07120858ECF0A3F2
:103DED00EDF07BFF7A5B797E9005DCE0FFA3E09040
:103DFD000407CFF0A3EFF0121BC29002E9E01460AC
:103E0D001214601414601614601824047017125FD5
:103E1D009C8012125F53800D125F2F8008120003D9
:103E2D008003125E659005DCE0FEA3E0FFEE7026D8
:103E3D00EF146011146012146013146014240470D4
:103E4D00157F04800E7F05800A7F0680067F078020
:103E5D00027F0812289B7F021229AD7F01025EECC2
:0F5E560012008E12451D7D027F021229D480F4A6
:10002E00256320256420257300436C656172204F83
:05003E004C45440A00DE
:1033F9006118046738B8F64C4544C9C1CBB8000018
:1034090000000000000000004C45440000000000DE
:10341900000000000000000000000000C8C8C3F45C
:10342900B5E7D7E800000000000000000000000038
:103439004E5443000000000000000000000000009E
:1034490000000000B5E7CEBBC6F72BC2EDB4EF0014
:103459000000000000000000504F54202B204D4F69
:10346900544F52000000000000000000525443CAAB
:10347900B1D6D300000000000000000000000000E9
:10348900525443000000000000000000000000004A
:1034990000000000CAFDC2EBB9DC0000000000001A
:1034A90000000000000000004E49584945204469C9
:1034B900676974616C00000000000000CEC2CAAAEE
:1034C900B6C8000000000000000000000000000075
:1034D90044485431310000000000000000000000A1
:1034E90000000000BCFCC5CCB7E4C3F9C6F7000076
:1034F90000000000000000004D61747269784B659E
:10350900792B42757A7A65720000000041046607DA
:043519004104650103
:103FF500E490031AF0124159E4FF125C30E4FF1219
:10400500593D125991125991E490031AF090031AEF
:0A401500E0FFC3940440030240A141
:10401F009005DDE02FFF9005DCE03400FE90046694
:10402F00E0FD7C0012085890032FEDF09004077408
:10403F00FFF0A37400F0A3742EF090031AE0600455
:10404F007F2080027F3E90040AEFF090032FE0FD67
:10405F0090040BE4F0A3EDF075F028A42467F97435
:10406F000435F0FAA37401F0A3EAF0A3E9F07B01A1
:10407F007A03791B121BBC90031AE025E0FD7B012C
:09408F007A03791BE4FF1223EC13
:1040980090031AE004F00240127F011229D4024072
:0140A8000A0D
:0E5EEC00EF60069004657401F07F030229AD9B
:10474C00E4900370F0123E6DE4FF125C4CE4FF1237
:10475C005967900465E0600EE4F0124EA57BFF7A79
:10476C00007937121BC29005DCE0FEA3E0FF7C0051
:10477C007D281207F1747B2FF974043EFA7B0190AB
:10478C0003967410F0E4FDFF1249449005DCE0FE42
:10479C00A3E0FFEE7028EF1460121460141460167E
:1047AC00146018240470171252F58012124C5480A5
:1047BC000D124C038008123F3B8003124ABA7F0152
:0547CC001229D4808DCC
:105A320074656D70202D3E20256420A1E60A005475
:105A4200656D70203A20202020430054656D70203F
:075A52003A20256420430007
:10586300125FB81242B29005DEEEF0A3EFF07BFFB9
:105873007A5A7932900407EEF0A3EFF0121BC2E4D8
:0D588300FF125EEC7DC87F021229D480D692
:104C54007BFF7A5A79419003967410F07D02E4FF49
:104C640012494490040774FFF0A3745AF0A3744DDE
:104C7400F09005DEE0FFA3E090040ACFF0A3EFF08C
:104C84007B017A037971121BBC7B017A03797190E1
:0C4C940003967410F07D02E4FF02494416
:0A5F5300E4FF125F477F05022924D6
:0D000E004C45445F434E54203A20256400C9
:05351D004205E0000082
:104FFA009003F37420F0E49003F2F07B017A0379D2
:10500A00F27F04122C9A9003F374CFF0E49003F227
:10501A00F07B017A0379F27F02122C9A9003F374DF
:10502A0030F0E49003F2F07B017A0379F27F010217
:02503A002C9AAE
:10369300E49003F1F0124FFAC2C5D2A0D2A1D2A294
:1036A300D2A3D294D295D2A6D2A7E49003F1F090FC
:1036B30003F1E0FFC3648094885066EFB4080050C0
:1036C3003D9036CBF82828730236E30236E70236FC
:1036D300EB0236EF0236F30236F70236FB0236FF11
:1036E300C2A7801AC2A68016C2958012C294800E09
:1036F300C2A3800AC2A28006C2A18002C2A0900314
:10370300F1E0FE3395E09005E0F0A3CEF0E4FF1284
:103713005EEC7D197F021229D49003F1E004F0805E
:103723008ED2A0D2A1D2A2D2A3D294D295D2A6D223
:10373300A77DFF7F021229D49003F17407F0900351
:10374300F1E0FFC3648094804066EFB40800503D0D
:1037530090375AF828287302377202377602377A7D
:1037630002377E02378202378602378A02378EC2D9
:10377300A7801AC2A68016C2958012C294800EC278
:10378300A3800AC2A28006C2A18002C2A09003F154
:10379300E0FE3395E09005E0F0A3CEF0E4FF125E87
:1037A300EC7D197F021229D49003F1E014F0808E8E
:1037B300D2A0D2A1D2A2D2A3D294D295D2A6D2A77A
:0A37C3007DFF7F021229D40236AD0B
:075F9C00D2C57F0402292495
:1052F50090040774FFF0A37400F0A3740EF09005FA
:10530500E0E0FFA3E090040ACFF0A3EFF07B017A81
:10531500037971121BBC7B017A0379719003967432
:0953250010F07D02E4FF0249448E
:105B94004144433A2025642C20647574793A2025C5
:105BA400640A00447574793A25362E326625250038
:10503C009004057420F09004047401F0FB7A047958
:10504C0004E4FF122C9A9004057403F0E490040419
:10505C00F07B017A0479047F03122C9A9004057476
:10506C0002F090040404F07B017A047904E4FF025A
:02507C002C9A6C
:1058BC00900404741FF0E4900407F0A304F0900427
:1058CC0005740FF0A37401F0FB7A047904124A11E9
:0B58DC007F01125F47E4FDFF0251C393
:104A66009004047460F0900407745DF0A374C0F0C1
:104A760090040A7404F07B017A0479047F06121FFD
:104A8600DA900405745DF0A374BFF0E4900409F0B5
:104A960090040C04F090040BF0FB7A0479047F81F7
:104AA600121FDA90FEB6E054F34408F0E4FBFD7FF3
:044AB600810247D161
:10463A0043BA8012503C124A661258BCD2AFE49078
:10464A0003FEF0A3F07B017A0379F47F0612354664
:10465A007F0D1248CC9005E2EEF0A3EFF0E4FCFDEA
:10466A007BC07A5DF9F812095EE47BB47A0AF9F83C
:10467A00124F739003FEEEF0A3EFF07B017A0379F9
:10468A00F47F061235467BFF7A5B79949005E2E067
:10469A00FFA3E0900407CFF0A3EFF09003FEE0FF42
:1046AA00A3E0900409CFF0A3EFF0121BC2E4FF12BB
:0B46BA005EEC7D287F021229D4809561
:104C030090040774FFF0A3745BF0A374A7F09005FE
:104C1300E2E0FCA3E0FDE41203F37B007AA0792A2F
:104C230078451202C7E4FBFA79C878421201BE90B4
:104C3300040A120AFD7B017A037971121BBC7B0102
:104C43007A0379719003967410F07D02E4FF0249B0
:014C5300441C
:0C5F2F0090FEECE054EFF07F0602292405
:10006600253034642D253032642D25303264002548
:100076003032643A253032643A25303264202057D3
:040086003A256400B3
:105890009004357403F0E4900434F07B017A0479C9
:1058A000347F03122C9A9004357480F0E490043411
:0C58B000F07B017A0479347F03022C9A0B
:105777009004347440F0A37401F0A3120B090001E4
:10578700C20090043B7401F0E4A3F07B017A047932
:10579700347F011215047D017F0112520453A23F89
:0157A70022DF
:1059BA009004357401F0E4A3F0A374A2F0A3744038
:1059CA00F0E4A3F0A304F0FB7A0479347F03122AEB
:0859DA0033E4FD7F01025B5282
:01002A0022B3
:01006200227B
:10435100E490044EF0A3F0900003E0FF90044EE0DF
:10436100FCA3E0FDC39F7480F8EC648098501F7437
:10437100142DF58274003CF583E0FF125EB09004C9
:104381004FE004F070D190044EE004F080C9900039
:1043910016E075F064A4FFA3E07C002FFEEC35F07D
:1043A1009005B5F0A3CEF0900018E09005B7F0901D
:1043B1000019E09005B9F090001AE09005B8F0906E
:1043C100001BE09005BAF090001CE09005BBF09056
:1043D100001DE09005BCF078507C047D017B017AE2
:0D43E1000579B57E007F0812072F0239EA2A
:105BB400900004E0D394004016E014F070119000BB
:105BC40003E0D394004003124351E4900003F02215
:105A59007D647F021229D443BA8012589012577775
:105A69001259BA125F79D2AFE4FF125EEC7DC87F9A
:065A7900021229D480F2A4
:103F3B007B017A0579B5123AE490040774FFF0A37C
:103F4B007400F0A37466F09005B5E0FFA3E0900455
:103F5B000ACFF0A3EFF09005B7E0FF90040CE4F06C
:103F6B00A3EFF09005B9E0FF90040EE4F0A3EFF09F
:103F7B007B017A037971121BBC7B017A03797190F7
:103F8B0003967410F07D02E4FF1249449004077409
:103F9B00FFF0A37400F0A37475F09005BAE0FF90E6
:103FAB00040AE4F0A3EFF09005BBE0FF90040CE4EF
:103FBB00F0A3EFF09005BCE0FF90040EE4F0A3EF4C
:103FCB00F09005B8E0FF900410E4F0A3EFF07B0154
:103FDB007A037971121BBC7B017A0379719003967A
:0A3FEB007410F07D04E4FF02494465
:0800030053D1F77F0702292405
:095F67004E49584945203A20003A
:103522004805AC00000203040506074105B400414A
:0335320005AB00E6
:1059E2009004487401F0E4A3F0A374A2F0A37440FD
:1059F200F0E4A3F0A304F0FB7A0479477F02122AB1
:085A020033E4FD7F01025B307B
:1046C500EF701BED70189005B4E0C3945A4006E0F6
:1046D50024A6F0805B9005B4E0240AF08052EF70C8
:1046E50017EDB401139005B4E0B46304E4F0804021
:1046F5009005B4E004F08038EFB4011BED7018901C
:1047050005B4E0D3940A5006E0245AF080229005BF
:10471500B4E024F6F08019EFB40115EDB401119061
:1047250005B4E070057463F080069005B4E014F0FC
:104735009005B4E0FF75F00A849005ACF0EF75F0D4
:074745000A84A3E5F0F02255
:1000A6009005ABE0FD24ACF582E43405F583E0FF72
:0B00B600125CCE9005ABE0045407F094
:0100C100221C
:105BD400125FB1125C9C1259E27BFF7A4679C512BE
:105BE4003BDD7D017F021229D4E4FF125EEC80E9E3
:104ABA00E4900371F07BFF7A5F7967900396741034
:104ACA00F07D02E4FF124944E4900371F09003710F
:104ADA00E0FE75F008A42440FF74AC2EF582E4349D
:104AEA0005F583E0FB7A009003767401F0A3741055
:104AFA00F07D02123CBD900371E004F0E0C394081B
:024B0A0040CB9E
:014B0C002286
:0F5E6500538EEFE4FD7FFF124DCD7F08022924FD
:043535004105EC0F51
:075FA30053C9E153CAE122DA
:105AC700EF14600E14600F14601024037012A2C943
:105AD700800AA2CA8006A2CB8002A2CCE433FF22AE
:035AE7007F00221B
:03008E00025FA36B
:10451D00E49002E7F0F09002E7E0FFC3940440035B
:10452D000245AD9005ECE0FEA807088002C313D844
:10453D00FC20E0229002E7E0FF125AC7BF0117905E
:10454D0005ECE0FF9002E7E0FEF87401088002C37D
:10455D0033D8FC4F803D9002E7E0FF9005ECE0FE84
:10456D00A807088002C313D8FC30E02B125AC7EFFE
:10457D0070259002E7E0FF123D989005ECE0FBE41A
:10458D007F01FEFDFC9002E7E0F9F8120ABA120A6B
:10459D007BEB5F9005ECF09002E7E004F002452321
:0145AD0022EB
:105D42002E003000310032003300340035003600BE
:065D5200370038003900A3
:073539004405D5000000006D
:105C3000900330EFF07006FD7FA61257AE90033050
:0C5C4000E0B40107E4FD7FA71257AE227C
:10593D00900330EFF0700DFD7FC81257AEE4FD7F80
:10594D00A11257AE900330E0B4010EE4FD7FC012FA
:0A595D0057AEE4FD7FA01257AE2202
:105D5800E4FD7F8D1257AEE4FD7F141257AEE4FDCB
:055D68007FAF0257AE01
:105D6D00E4FD7F8D1257AEE4FD7F101257AEE4FDBA
:055D7D007FAE0257AEED
:0657A800120777FF7D01EE
:1057AE00ED6004D2968002C296C2C7E4FEC2C8EF74
:1057BE0030E704D2938002C293D2C8EF25E0FF0EE9
:0857CE00EEB408E9D2C7D2963F
:0157D60022B0
:10599100E4FCEC24B0FFE4FD1257AE7F101257AEC9
:1059A100E4FF1257AEE4FB7D01E4FF1257AE0BEBAF
:0859B100B480F40CECB408DA38
:0159B90022CB
:105BF400AC07ED24B0FFE4FD1257AEEC54F0C454EE
:0E5C04000F4410FF1257AEEC540FFF0257AEC4
:10583500E49005EDF09005EDE0FDC39408501EE4FD
:10584500FF125BF4E4FC1257A8740129F9E43AFA53
:0D5855000CECB480F19005EDE004F080D87B
:015862002223
:08536700900369EFF0A3EDF0E3
:10536F00E4A3F0900369E0FFA3E0FD125BF4E4FC1B
:10537F001257A8740129F9E43AFA0CECB410F19021
:0F538F00036AE004F0A3E004F0E0C3940240D40A
:01539E0022EC
:08539F00900369EFF0A3EDF0AB
:1053A700E4A3F0900369E0FFA3E0FD125BF4E4FCE3
:1053B7001257A8740129F9E43AFA0CECB408F190F1
:0F53C700036AE004F0A3E004F0E0C3940240D4D2
:0153D60022B4
:105D8200125BF4E4FC1257A8740129F9E43AFA0C04
:045D9200ECB406F176
:015D960022EA
:105C6800E4FEC2C8EF30E704D2938002C293EF2566
:095C7800E0FFD2C80EEEB408E909
:015C81002200
:105D9700E4FFFEC2C8EF25E0FF3091010FD2C80E25
:045DA700EEB408EF5F
:015DAB0022D5
:02507E00AC077D
:10508000C2907F03125C68AF04125C68AF05125CCB
:1050900068AF03125C68E4FD90036FE0FFEDC39F0F
:1050A000501A125D9790036CE0FBA3E0FAA3E0F9BD
:0E50B0008D82758300EF1207CF0D80DCD29049
:0150BE0022CF
:1023EC00900330EFF0A3EDF0A3EBF0A3EAF0A3E938
:0123FC00F0F0
:1023FD00E4A3F0900332E0FBA3E0FAA3E0F9A3E03D
:10240D00F582758300120790FFD3940050030227C5
:10241D0028EF94B050030224C9EFD394F740030280
:10242D0024C9900335E02401FFE433FE8F828E83AF
:10243D00120790C394A150030224C9900332A3A3A1
:10244D00A3E0F5827583001207902450FFE434FF5A
:10245D00FE7C007D5E1207F1EE3395E0FDFC9005EC
:10246D00D5120AFD9005D5E0F8A3E0F9A3E0FAA393
:10247D00E0FBC000C001C002C003900335E02401A1
:10248D00FFE433FE900332E0FBA3E0FAA3E0F98F03
:10249D00828E83120790245FFFE434FFCF244ECF4A
:1024AD003403FEE4FCFDD003D002D001D000EB2FAD
:1024BD00FFEA3EFEED39FDEC38022583900332E054
:1024CD00FBA3E0FAA3E0F9A3E0F582758300120700
:1024DD0090FFC394A15003022624EFD394A340038D
:1024ED00022624900335E02401FFE433FE8F828E13
:1024FD0083120790C394A15003022624900332A3A4
:10250D00A3A3E0F582758300120790245FFFE434E6
:10251D00FFFE7C007D5E1207F1EE3395E0FDFC9031
:10252D0005D5120AFD9005D5E0F8A3E0F9A3E0FA70
:10253D00A3E0FBC000C001C002C003900335E0243E
:10254D0001FFE433FE900332E0FBA3E0FAA3E0F9D0
:10255D008F828E83120790245FFFE434FFFE339544
:10256D00E0FDFCD003D002D001D000EB2FFFEA3EFE
:10257D00FEE93DFDE83CFC9005D5120AFD9005D520
:10258D00E0FCA3E0FDA3E0FEA3E0FFE47B20FAF96D
:10259D00F812095E9005D5120AFD9005D5A3E0FD50
:1025AD00A3A3E4FFFEE4FC7810120AA7900336EF14
:1025BD00F0FA9005D5A3A3E0FEA3E4FFE4FDFC78BB
:1025CD0008120AA7900337EFF0F99005D5E0FCA3A8
:1025DD00A3E0FEA3E0FF900338EFF0FBAF02AD01E7
:1025ED0090036C7401F0A37403F0A37439F0A37419
:1025FD0020F012507E900330E0FFA3E0FD7B017AC6
:10260D00037939125367900330E02410F0900335AD
:10261D00E02402F0022400900332E0FBA3E0FAA3D1
:10262D00E0F9A3E0F582758300120790FFC39420B3
:0E263D00500302271FEFD3947E400302271F95
:10264B00900332A3A3A3E0F58275830012079024B5
:10265B00E0FFE434FFFE3395E0FDFC9005D5120A54
:10266B00FD9005D5E0FCA3E0FDA3E0FEA3E0FFE4B5
:10267B007B10FAF9F812095E9005D5120AFD900548
:10268B00D5E0FCA3E0FDA3E0FEA3E02480FFEE3445
:10269B00CFFEED3403FDE43CFC9005D5120AFD9012
:1026AB0005D5A3E0FDA3A3E4FFFEE4FC7810120A1A
:1026BB00A7900336EFF0FA9005D5A3A3E0FEA3E4B1
:1026CB00FFE4FDFC7808120AA7900337EFF0F990AE
:1026DB0005D5E0FCA3A3E0FEA3E0FF900338EFF0E9
:1026EB00FBAF02AD0190036C7401F0A37403F0A374
:1026FB007459F0A37410F012507E900330E0FFA3D6
:10270B00E0FD7B017A03795912539F900330E0244B
:02271B0008F0C4
:0B271D008000900335E004F00224006F
:01272800228E
:1037CD0090057FEFF0A3EDF0A3EBF0A3EAF0A3E9F2
:0137DD00F0FB
:1037DE00E4A3F0900581E0FBA3E0FAA3E0F9A3E0F7
:1037EE00F582758300120790FFD3940050030238C0
:1037FE00EDEF942050030238E4EFD3947E400302A1
:02380E0038E49C
:10381000900581A3A3A3E0F582758300120790248D
:10382000E0FFE434FFFE3395E0FDFC9005D5120A7D
:10383000FD9005D5E0FCA3E0FDA3E0FEA3E0FFE4DE
:103840007B08FAF9F812095E9005D5120AFD900579
:10385000D5E0FCA3E0FDA3E0FEA3E024C0FFEE342E
:10386000BFFEED3403FDE43CFC9005D5120AFD904B
:1038700005D5A3E0FDA3A3E4FFFEE4FC7810120A43
:10388000A7900585EFF0FA9005D5A3A3E0FEA3E489
:10389000FFE4FDFC7808120AA7900586EFF0F99086
:1038A00005D5E0FCA3A3E0FEA3E0FF900587EFF0C1
:1038B000FBAF02AD0190036C7401F0A37405F0A39B
:1038C0007488F0A37408F012507E90057FE0FFA387
:1038D000E0FD7B017A057988125D8290057FE02406
:0238E00006F0F0
:0B38E2008000900584E004F00237E154
:0138ED0022B8
:0A30D600900591EDF0900590EFF0E9
:1030E000900596E075F008A42F2408900590F0E470
:1030F000FFFE7DC87C42900592E0F8A3E0F9A3E0D2
:10310000FAA3E0FB1201BE12042C90059C120AFDEA
:10311000900590E024E8FFA3E0FD7BFF7A5D794213
:103120001223ECE4900597F0900596E0FFA3E0C32E
:103130009F4003023289E47B0AFAF9F890059CE08B
:10314000FCA3E0FDA3E0FEA3E0FF1209E9AC00ADA3
:1031500001AE02AF03900598120AFD90059CE0FCB9
:10316000A3E0FDA3E0FEA3E0FFE47B0AFAF9F81276
:1031700009E990059C120AFD900590E024F8F09072
:103180000597E0B40207900590E024F8F0900598C8
:10319000E0FCA3E0FDA3E0FEA3E0FF120B8031DE24
:1031A0000000000031EF0000000131FF00000002CC
:1031B000320F00000003321F00000004322F000015
:1031C0000005323F00000006324F00000007325F6A
:1031D00000000008326F00000009000032809005F6
:1031E00090E0FFA3E0FD7BFF7A5D794402327D90A1
:1031F0000590E0FFA3E0FD7BFF7A5D7946807E903D
:103200000590E0FFA3E0FD7BFF7A5D7948806E903A
:103210000590E0FFA3E0FD7BFF7A5D794A805E9038
:103220000590E0FFA3E0FD7BFF7A5D794C804E9036
:103230000590E0FFA3E0FD7BFF7A5D794E803E9034
:103240000590E0FFA3E0FD7BFF7A5D7950802E9032
:103250000590E0FFA3E0FD7BFF7A5D7952801E9030
:103260000590E0FFA3E0FD7BFF7A5D7954800E902E
:103270000590E0FFA3E0FD7BFF7A5D79561223EC19
:09328000900597E004F0023128EA
:013289002222
:104159005391B45392B453B37F53B47F53C9FE53AD
:10416900CAFED2C7D2907FC8125E46E4FD7FAE1266
:1041790057AEE4FF1257AE7F101257AE7F40125769
:10418900AE7F811257AE7FCF1257AE7FA11257AEC5
:104199007FC81257AE7FA61257AE7FA81257AE7FBF
:1041A9003F1257AE7FD31257AEE4FF1257AE7FD5F9
:1041B9001257AE7F801257AE7FD91257AE7FF112D8
:1041C90057AE7FDA1257AE7F121257AE7FDB125706
:1041D900AE7F401257AE7F201257AE7F021257AE04
:1041E9007F8D1257AE7F141257AE7FA41257AE7F40
:0E41F900A61257AE125991E4FD7FAF0257AEE9
:100C0C000000000000000000002F000000000700A2
:100C1C00070000147F147F1400242A7F2A1200621C
:100C2C0064081323003649552250000005030000C8
:100C3C0000001C224100000041221C000014083E50
:100C4C0008140008083E0808000000A06000000816
:100C5C00080808080000606000000020100804026A
:100C6C00003E5149453E0000427F40000042615128
:100C7C004946002141454B31001814127F100027C2
:100C8C0045454539003C4A49493000017109050385
:100C9C0000364949493600064949291E00003636B6
:100CAC000000000056360000000814224100001419
:100CBC0014141414000041221408000201510906F6
:100CCC0000324959513E007C1211127C007F494977
:100CDC004936003E41414122007F4141221C007FA8
:100CEC0049494941007F09090901003E4149497AB6
:100CFC00007F0808087F0000417F41000020404130
:100D0C003F01007F08142241007F40404040007F9B
:100D1C00020C027F007F0408107F003E4141413EDF
:100D2C00007F09090906003E4151215E007F091927
:100D3C0029460046494949310001017F0101003F24
:100D4C004040403F001F2040201F003F4038403FA4
:100D5C000063140814630007087008070061514908
:100D6C00454300007F41410000552A552A5500009B
:100D7C0041417F0000040201020400404040404019
:100D8C00000001020400002054545478007F4844B1
:100D9C00443800384444442000384444487F0038E8
:100DAC005454541800087E0901020018A4A4A47C11
:100DBC00007F080404780000447D400000408084DB
:100DCC007D00007F102844000000417F4000007C23
:100DDC0004180478007C080404780038444444382F
:100DEC0000FC242424180018242418FC007C08047B
:100DFC00040800485454542000043F444020003C54
:100E0C004040207C001C2040201C003C4030403CDA
:100E1C00004428102844001CA0A0A07C004464546A
:100E2C004C441414141414140000000000000000AE
:100E3C000000000000000000000000F800000000AE
:100E4C00000000333000000000100C06100C0600EF
:100E5C00000000000000000040C07840C078400056
:100E6C00043F04043F040400007088FC08300000B8
:100E7C00001820FF211E0000F008F000E018000010
:100E8C0000211C031E211E0000F0088870000000C9
:100E9C001E2123241927211010160E00000000001B
:100EAC000000000000000000000000E01804020038
:100EBC00000000071820400000020418E0000000A9
:100ECC000040201807000000404080F080404000A7
:100EDC000202010F01020200000000F000000000FD
:100EEC000101011F010101000000000000000000D1
:100EFC0080B0700000000000000000000000000046
:100F0C0000010101010101010000000000000000CE
:100F1C000030300000000000000000008060180469
:100F2C00006018060100000000E010080810E00046
:100F3C00000F102020100F00001010F8000000000F
:100F4C000020203F20200000007008080888700056
:100F5C0000302824222130000030088888483000D6
:100F6C000018202020110E000000C02010F80000F6
:100F7C0000070424243F240000F80888880808008F
:100F8C000019212020110E0000E0108888180000A4
:100F9C00000F112020110E0000380808C838080076
:100FAC000000003F000000000070880808887000F6
:100FBC00001C222121221C0000E010080810E00077
:100FCC000000312222110F00000000C0C000000000
:100FDC000000003030000000000000800000000025
:100FEC00000080600000000000008040201008001D
:100FFC0000010204081020004040404040404000E6
:10100C0004040404040404000008102040800000C0
:10101C000020100804020100007048080808F000C5
:10102C000000003036010000C030C828E810E00095
:10103C000718272423140B000000C038E000000020
:10104C00203C23020227382008F88888887000008A
:10105C00203F202020110E00C0300808080838005E
:10106C00071820202010080008F808080810E000D5
:10107C00203F202020100F0008F88888E808100076
:10108C00203F20202320180008F88888E80810004A
:10109C00203F200003000000C03008080838000082
:1010AC0007182020221E020008F808000008F80883
:1010BC00203F210101213F20000808F8080800000A
:1010CC000020203F2020000000000808F80808003D
:1010DC00C08080807F00000008F888C028180800B5
:1010EC00203F20012638200008F8080000000000EE
:1010FC00203F20202020300008F8F800F8F80800E5
:10110C00203F003F003F200008F830C00008F808DE
:10111C00203F200007183F00E01008080810E000EE
:10112C000F10202020100F0008F808080808F00005
:10113C00203F210101010000E01008080810E00028
:10114C000F18242438504F0008F8888888887000BD
:10115C00203F2000030C302000708808080838005D
:10116C000038202121221C00180808F80808180053
:10117C000000203F2000000008F808000008F808D4
:10118C00001F202020201F000878880000C8380885
:10119C00000007380E010000F80800F80008F800FD
:1011AC00033C0700073C0300081868808068180897
:1011BC0020302C03032C30200838C800C838080015
:1011CC000000203F2000000010080808C838080064
:1011DC002038262120201800000000FE0202020008
:1011EC000000007F40404000000C30C000000000B8
:1011FC00000000010638C00000020202FE000000E0
:10120C00004040407F000000000004020202040085
:10121C0000000000000000000000000000000000C2
:10122C0080808080808080800002020400000000AA
:10123C0000000000000000000000808080800000A2
:10124C000019242222223F2008F800808000000090
:10125C00003F112020110E00000000808080000053
:10126C00000E112020201100000000808088F80062
:10127C00000E112020103F20000080808080000094
:10128C00001F222222221300008080F088888818F8
:10129C000020203F20200000000080808080800003
:1012AC00006B94949493600008F800808080000098
:1012BC00203F210000203F20008098980000000073
:1012CC000020203F202000000000008098980000A3
:1012DC0000C08080807F000008F8000080808000C3
:1012EC00203F24022D302000000808F800000000E8
:1012FC000020203F202000008080808080808000A3
:10130C00203F20003F20003F808000808080000034
:10131C00203F210000203F200000808080800000C2
:10132C00001F202020201F008080008080000000F3
:10133C0080FFA12020110E00000000808080800022
:10134C00000E112020A0FF80808080008080800013
:10135C0020203F2120000100000080808080800040
:10136C000033242424241900008080E080800000B5
:10137C000000001F20200000808000000080800002
:10138C00001F202020103F20808080000080808063
:10139C0000010E30080601008080008000808080F3
:1013AC000F300C030C300F00008080008080800018
:1013BC000020312E0E312000808080000080808043
:1013CC0080818E70180601000080808080808000F3
:1013DC000021302C2221300000000000807C020211
:1013EC0000000000003F404000000000FF00000033
:1013FC0000000000FF0000000002027C80000000E2
:10140C000040403F000000000006010102020404FD
:10141C0000000000000000000000F010101010FF91
:10142C0010101010F000000000000F04040404FF62
:10143C00040404040F0000004040405F55555575EE
:10144C005555555F404040000040200F09498979AF
:10145C000909090F2040000000FE02424ACA4A4A0C
:10146C00CA4A4A4202FE000000FF40504C43404032
:10147C004F50505C40FF00000000F888888888FFBF
:10148C0088888888F800000000001F080808087F7A
:10149C00888888889F80F00080828282828282E2A3
:1014AC00A2928A8682808000000000000040807F2B
:1014BC000000000000000000101010FF10900888C1
:1014CC008888FF88888808000444827F01808040D7
:1014DC00432C1028468180000010101010D030FFD3
:1014EC0030D0121C1010000010080402010000FF84
:0814FC000000010204081000C9
:105C4C00900371EFF07006FD7FA61256BE900371A3
:0C5C5C00E0B40107E4FD7FA71256BE2251
:10596700900371EFF0700DFD7FC81256BEE4FD7F06
:10597700A11256BE900371E0B4010EE4FD7FC01280
:0A59870056BEE4FD7FA01256BE22BA
:085F70007F01AE071FEE70FA7D
:015F78002206
:0F5E7400D2B3D2B2125F70C2B3125F70C2B22249
:0A5F5D00C2B3D2B2125F70D2B322B9
:0F5E8300D2B3125F70D2B2125F70C2B2025F7000
:025A7F00AD0771
:105A8100E4FCC2B2ED30E704D2B38002C2B3125FCC
:105A910070D2B2125F70C2B2ED25E0FD0CECB40819
:015AA100E123
:015AA20022E1
:1056AD00F583E5822FF582E5833EF583E493FF7D57
:0156BD0001EB
:1056BE009003A3EFF0ED7B017A0379A3900464606D
:1056CE00077401F07D4080057401F0E4FD7F7812CF
:0356DE0056E12270
:07571400E0FFA3E0FD04F03B
:10571B009003A2EFF0ED24B0FFE4FD1256BE900310
:10572B00A2E054F0C4540F4410FFE4FD1256BE9097
:0B573B0003A2E0540FFFE4FD0256BE85
:105DAC00E4FD7F8D1256BEE4FD7F141256BEE4FD59
:055DBC007FAF0256BE9E
:105DC100E4FD7F8D1256BEE4FD7F101256BEE4FD48
:055DD1007FAE0256BE8A
:104EA500E4900371F0900371E0FFC394085036EF6E
:104EB50024B0FFE4FD1256BEE4FDFF1256BEE4FD2C
:104EC5007F101256BEE4900372F07D01E4FF125686
:104ED500BE900372E004F0E0C3948040ED9003714E
:054EE500E004F080C0B4
:014EEA0022A5
:0838EE00900398EFF0A3EDF048
:1038F600E490039CF090039BE0FFC313FD90039DAF
:10390600F0E4A3F0A3F0EFB40809A3E4F0A374066F
:10391600F0803190039BE0FF131313541FF582755B
:103926008300EF54077E0060047F0180027F00EF72
:103936002582FFEE3583FE7C001207F19003A0EE90
:10394600F0A3EFF0EB24E090039CF0900398E0FFE7
:10395600A3E0FD12571BE490039EF0A3F09003A092
:10396600E0FCA3E0FD90039EE0FEA3E0FFC39DEE16
:103976009C507090039DE0FD7C00120803ED4C7096
:103986000E90039BE064086006900398125714900B
:10399600039BE0B4081A90039EE0FEA3E0FF9003A9
:1039A6009CE075F006A4240CF582E5F0340C801F2B
:1039B60090039BE0B4102C90039EE0FEA3E0FF90E2
:1039C600039CE075F010A42434F582E5F0340E1261
:1039D60056AD90039FE004F0700690039EE004F05D
:0339E60002396340
:0139E90022BB
:075C120090037CEFF0A905EF
:105C19007F017E00AD0119ED600C90037CE0FD7CF5
:065C2900001207F180EEFD
:015C2F002252
:0E3CBD00900372EFF0A3EDF0A3EAF0A3EBF09A
:103CCB00E490037AF0A3F0900377E0B40806900336
:103CDB007A7402F0E4900378F0900376E0FF90039F
:103CEB0078E0FEC39F4003023D97C3EF9E14FD7F18
:103CFB000A125C12900374E0FCA3E0FDCFCDCFCE93
:103D0B00CCCE1208037C007D0A120803900379EDD8
:103D1B00F090037BE0703C900376E014FF90037807
:103D2B00E0FEC39F502DA3E07023900377E0FCC30C
:103D3B0013FF90037AE02F8EF0A4FF900372E02F15
:103D4B00FFA3E0FD90039BECF07B20803390037B83
:103D5B007401F0900377E0FEC313FF90037AE02F1A
:103D6B00FF900378E0FDEF8DF0A4FF900372E02F3E
:103D7B00FFA3E0FD900379E02430FB90039BEEF072
:0C3D8B001238EE900378E004F0023CE4F3
:013D97002209
:10494400900391EFF0A3EDF0A3EBF0A3EAF0A3E959
:01495400F072
:10495500E4900397F0900393E0FBA3E0FAA3E0F95A
:10496500900397E0F58275830012079060409003ED
:1049750091E0FFA3E0FD900397E0FE04F08E8275C1
:104985008300120790FB900396E090039BF012388A
:10499500EE900396E0FFB40809900391E02406F039
:0E49A50080B3EFC313FF900391E02FF080A7C3
:0149B30022E1
:0B43EE009005BDEFF0A3EDF0A3EBF095
:1043F900A3E0FF131313541FFD7C00EF54077E0045
:1044090060047F0180027F00EF2DFFEE3CFE9005E6
:10441900C0E0FD7C001207F19005C3EEF0A3EFF0B8
:10442900E49005C1F0A3F09005C3E0FCA3E0FD9082
:1044390005C1E0FEA3E0FFC39DEE9C50439005C07B
:10444900E0FD7C00120803ED4C70069005BD125783
:10445900149005C0E0B41028A3E0FEA3E0FF900586
:10446900BFE0C43354E02424F582E434141256AD79
:104479009005C2E004F070AF9005C1E004F080A798
:014489002210
:0B448A009005A0EFF0A3EDF0A3EBF015
:10449500E49005A7F0A3F09005A3E0FF13131354D0
:1044A5001FFEEF540760047F0180027F00EE2F900E
:1044B50005A3F0E49005A9F09005A3E0FF9005A9F8
:1044C500E0FEC39F50519005A0E0FFA3E0FDEE2D57
:1044D500FD12571BE49005AAF09005A2E0FF900598
:1044E500AAE0C39F50299005A4E0FBA3E0FAA3E04E
:1044F500F9A3E475F00112088E85F082F5831207A1
:1045050090FF7D011256BE9005AAE004F080CA9086
:0745150005A9E004F080A1FC
:01451C00227C
:1057D7009003737401F0900372F0E4900374F090F7
:1057E7000371740DF07B017A037971124850E4FB61
:0E57F700FD7F011249B4E5BA54CF4430F5BA33
:015805002280
:103E6D0053B1F353B2F31257D7E4FD7FAE1256BEE2
:103E7D00E4FDFF1256BEE4FD7F101256BEE4FD7F39
:103E8D00401256BEE4FD7F811256BEE4FD7FCF1277
:103E9D0056BEE4FD7FA11256BEE4FD7FC81256BE8C
:103EAD00E4FD7FA61256BEE4FD7FA81256BEE4FDCA
:103EBD007F3F1256BEE4FD7FD31256BEE4FDFF12C6
:103ECD0056BEE4FD7FD51256BEE4FD7F801256BE70
:103EDD00E4FD7FD91256BEE4FD7FF11256BEE4FD1E
:103EED007FDA1256BEE4FD7F121256BEE4FD7FDB73
:103EFD001256BEE4FD7F401256BEE4FD7F201256E1
:103F0D00BEE4FD7F021256BEE4FD7F8D1256BEE467
:103F1D00FD7F141256BEE4FD7FA41256BEE4FD7F54
:0E3F2D00A61256BE124EA5E4FD7FAF0256BE90
:10328A00E3F2D8A8CDDAC380B99BB029A7259E8DD1
:10329A00965C8E9087258017796373046CF8673B78
:1032AA0061CA5CA157BC53194EB44A8B469B42E093
:1032BA003F583C0138D735D9330530582DD02B6AC1
:1032CA002927270224FC231121411F8B1DEC1C6393
:1032DA001AF019911844170A15E114C713BD12C13F
:1032EA0011D210F0101A0F500E900DDA0D2E0C8B11
:1032FA000BF10B5E0AD30A4F09D3095C08EC08816B
:10330A00081C07BA0761070A06B8066A062005D923
:10331A0005960556051A04E004A904750444041424
:10332A0003E803BD0394036D03480325030302E383
:10333A0002C502A7028C0271025802400228021238
:10334A0001FD01E901D601C401B201A10191018285
:10335A00017301660158014B013E01320127011C2C
:10336A000112010800FE00F500EC00E400DC00D4C4
:10337A0000CD00C600BF00B800B200AC00A600A095
:10338A00009B00960091008C00870083007E007AE3
:10339A0000760073006F006B006800650061005ED4
:1033AA00005B0059005600530051004E004C004A81
:1033BA000047004500430041003F003D003C003A01
:1033CA00003800370035003400320031002F002E5B
:1033DA00002D002B002A002900280027002600259E
:0A33EA00002400230022002100202F
:075FAA004393105394EF2212
:1058E7009003C1741FF0E49003C4F0A304F0900385
:1058F700C2740FF0A37401F0FB7A0379C1124A1145
:0B5907007F01125F47E4FDFF0251C367
:062EEE009003C9120AFD69
:102EF400E49003CDF0A3F0A3F0A3F090328A93FC06
:102F0400740193FDE41203F3A804A905AA06AB0710
:102F14009003C9E0FCA3E0FDA3E0FEA3E0FF1200E0
:102F2400C9E4FBFAF9F8120364502990328AE49355
:102F3400FC740193FDE41203F3A804A905AA06ABEB
:102F4400079003C9E0FCA3E0FDA3E0FEA3E0FF12A9
:102F540000C9802A90328AE493FC740193FDE41240
:102F640003F3A804A905AA06AB079003C9E0FCA3D0
:102F7400E0FDA3E0FEA3E0FF1200C91203DD90030D
:102F8400D1120AFD9003D5E4F0A374B5F09003CFF9
:102F9400E4F0A304F09003D5E0FEA3E0FF9003CF98
:102FA400E0FCA3E0FDC39FEE6480F8EC64809840ED
:042FB400030230CD17
:102FB800ED25E0FFEC33FE748A2FF58274323EF57E
:102FC80083E493FC740193FDE41203F3A804A905B8
:102FD800AA06AB079003C9E0FCA3E0FDA3E0FEA3AB
:102FE800E0FF1200C9E4FBFAF9F8120364503D90BF
:102FF80003D0E025E0FF9003CFE033FE748A2FF57D
:103008008274323EF583E493FC740193FDE4120369
:10301800F3A804A905AA06AB079003C9E0FCA3E03E
:10302800FDA3E0FEA3E0FF1200C9803E9003D0E0BC
:1030380025E0FF9003CFE033FE748A2FF5827432C7
:103048003EF583E493FC740193FDE41203F3A804B2
:10305800A905AA06AB079003C9E0FCA3E0FDA3E01D
:10306800FEA3E0FF1200C91203DD9003D7120AFD88
:103078009003D1E0FCA3E0FDA3E0FEA3E0FF9003F2
:10308800D7E0F8A3E0F9A3E0FAA3E0FB1203645049
:10309800239003D7E0FCA3E0FDA3E0FEA3E0FF90AC
:1030A80003D1120AFD9003CFE0FFA3E09003CDCF38
:0430B800F0A3EFF0A2
:1030BC009003D0E004F070069003CFE004F0022FF0
:0930CC00999003CDE0FEA3E0FFA2
:0130D50022D8
:065FB800125FAA0258E787
:1042B2009003C1120B09000000007F0C1248CCAD24
:1042C20007AC06E41203F3E4FBFA7920784012010A
:1042D200BEE4FBFA798078451202C79003C1120A44
:1042E200FD9003C1E0F8A3E0F9A3E0FAA3E0FB7FAD
:1042F200337E337D537C401200C9C004C005C00622
:10430200C007E4FFFE7D207C419003C1E0F8A3E0FA
:10431200F9A3E0FAA3E0FB1201BED003D002D00160
:10432200D0001202C79003C5120AFDE4FFFE7DC849
:104332007C429003C5E0F8A3E0F9A3E0FAA3E0FB16
:0E4342001201BE122EEEEF24C9FFEE34FFFE74
:01435000224A
:105E3400000000000000000000000000000080805E
:025E440080805C
:105CFE00900435740CF09004347402F07B017A0435
:075D0E0079347F03022C9A97
:105806009004367401F0900435F0E4900437F0907B
:105816000434740DF07B017A047934124850E4FBA9
:0E582600FD7F011249B4E5BA54CF4430F5BA03
:015834002251
:095F790043BA80125CFE025806D6
:1039EA0078587C047D017BFF7A5E79347E007F07FC
:1039FA0012072F900457E0FF75F00A84C454F0FEB2
:103A0A00EF75F00A84E5F04EA3F0900456E0FF75D6
:103A1A00F00A84C454F0FEEF75F00A84E5F04E9083
:103A2A000459F0900455E0FF75F00A84C454F0FE7E
:103A3A00EF75F00A84E5F04E90045AF0900454E0D1
:103A4A00FF75F00A84C454F0FEEF75F00A84E5F0BD
:103A5A004E90045BF0900453E090045CF0900450A4
:103A6A00E0FAA3E0FBC39434EA940840047F01809F
:103A7A00027F00900452E0FE75F00A84C454F0FDFF
:103A8A00EFC433333354804DFFEE75F00A84E5F00A
:103A9A004F90045DF07C007D64AF03AE0212080310
:103AAA007E007F0ACFCDCFCECCCE120803EFC4540E
:103ABA00F0FB900450E0FEA3E0FF7C007D0A1208B0
:103ACA0003EB4D90045EF07B017A0479589004640C
:0A3ADA007407F07D027FA20256E19E
:0B3AE400900391EBF0A3EAF0A3E9F0DF
:103AEF0078947C037D017BFF7A5E793B7E007F07B4
:103AFF0012072F7B017A0379949003A07407F07D4E
:103B0F00027FA212532E900394E0FFC4540775F066
:103B1F000AA4FEEF540F2EFF900391E0FBA3E0FAEF
:103B2F00A3E0F9900007EF1207CF900395E0FFC4D1
:103B3F00540775F00AA4FEEF540F2E9000061207DB
:103B4F00CF900396E0FFC4540375F00AA4FEEF5420
:103B5F000F2E9000051207CF900397E0FFC4540378
:103B6F0075F00AA4FEEF540F2E9000041207CF90A9
:103B7F000398E09000031207CF900399E0FFC4541D
:103B8F000175F00AA4FEEF540F2E9000021207CF1A
:103B9F0090039AE0C4540F75F00AA4FFE0540F7C11
:103BAF00002FFFEC35F08FF012093F900399E0548E
:103BBF008070067E077FD080047E087F349003914B
:0E3BCF00E0FBA3E0FAA3E0F9EE8FF002090795
:1042070078C97C057D017BFF7A5E79427E007F0459
:1042170012072F9005C5E0C364809480401BE0FF20
:1042270075F00A120755C454E0FEEF75F00A12073D
:1042370055AFF0EF4E9005C9F09005C6E0C3648016
:104247009480401BE0FF75F00A120755C454E0FE46
:10425700EF75F00A120755AFF0EF4E9005CAF090D0
:1042670005C7E0C364809480401BE0FF75F00A1225
:104277000755C454E0FEEF75F00A120755AFF0EF8B
:104287004E9005CBF09005C8E0FFC3648094804052
:1042970007EF54EF9005CCF07B017A0579C99004BC
:0B42A700647404F07D097FA20256E160
:054EEB009005E4EFF06A
:104EF0007B017A0579E59003A07401F0FD7FA21291
:104F0000532E9005E5E054F7F09005E4E06007A328
:104F1000E04402F080079005E5E054FDF07B017A63
:0F4F20000579E59004647401F0FD7FA20256E16B
:055677009005E6EDF0D6
:10567C00EF4480A3F07B017A0579E7900464740110
:10568C00F07D0E7FA21256E19005E6E0A3F07B01BF
:10569C007A0579E79004647401F07D0F7FA20256BD
:0156AC00E11C
:054F2F009005E8EFF021
:104F34007B017A0579E99003A07401F0FD7FA21248
:104F4400532E9005E9E054FBF09005E8E06007A3D8
:104F5400E04401F080079005E9E054FEF07B017A1B
:0F4F64000579E99004647401F0FD7FA20256E123
:104CA0007B017A0579EE9003A07401F0FD7FA212DA
:104CB000532E9005EEE0FF131313541F30E00A1239
:104CC000002A9005EEE054F7F09005EEE030E20A9D
:104CD0001200629005EEE054FBF07B017A0579EE5C
:0C4CE0009004647401F0FD7FA20256E114
:105AA300C0F9A4B0999282F88090407924301912F9
:105AB300027800107FBF8883C6A1868E89F1C78CC8
:045AC30098C1A3FFE4
:075FB10053B3E343B41C22CB
:104DCD007E07A806EF088002C313D8FC1392C4C255
:104DDD00C20000D2C200001EC3EE6480948050E277
:104DED007E07A806ED088002C313D8FC1392C4C237
:104DFD00C20000D2C200001EC3EE6480948050E257
:084E0D00C2C30000D2C3000083
:014E1500227A
:105CCE00EF905AA393FFAE05A8067401088002C395
:085CDE0033D8FCFEFD024DCDA0
:053540004205EAFFFF57
:105A0A00EF7003C38001D392B4EFB40103C38001E2
:105A1A00D392B5EFB40203C38001D392C0EFB403AB
:085A2A0003C38001D392C122E5
:105AEA00EF14600E14600F14601024037012A28366
:105AFA00800AA2868006A2878002A297E433FF2248
:035B0A007F0022F7
:105C9C0053933753943753917F53927F53B1CF53D0
:095CAC00B2CF53B3FC53B4FC2247
:0B3BDD00900447EBF0A3EAF0A3E9F02E
:103BE800E4A3F0A3F0A3F090044AF090044AE0FFA5
:103BF800C394044003023CBC125A0AE4A3F09004A4
:103C08004BE0FFC394044003023CB3125AEAEFFDB1
:103C18007C00A3E0FF9005EAE0FEA3E0A807088087
:103C280005CEC313CE13D8F954016D7001EC606C46
:103C380090044BE0FF125AEA7E00A3E0FDEFA805CE
:103C4800088005C333CE33CED8F9FBAA067E0074AC
:103C580001A805088005C333CE33CED8F9F4FFEEAA
:103C6800F4FE9005EAE05EFEA3E05FFFEE4AFEEF99
:103C78004BFF9005EAEEF0A3EFF090044BE0FF1243
:103C88005AEAEF701790044AE0FFA3E0FD9004475A
:103C9800A3E0FAA3E0F5828A83120BBE90044CE0FD
:103CA80004F090044BE004F0023C0690044AE0045F
:043CB800F0023BF3E8
:013CBC0022E5
:0F5E46007D607C09ED1D70011C144C70F7DFF1BD
:015E5500222A
:102C9A00EFD3940740037FFF22120777FED39403F2
:102CAA0040037FFF22EF7041EE700B900001120784
:102CBA0090F452935294120777B4010B90000112C8
:102CCA0007904293F45294120777FEB4020A9000D6
:102CDA000112079042934294EEB4030D9000011240
:102CEA000790FEF45293EE4294EF64017043120788
:102CFA0077FE700B900001120790F452915292EEF7
:102D0A00B4010B9000011207904291F452921207FB
:102D1A0077B4020A90000112079042914292120778
:102D2A0077B4030D900001120790FEF45291EE421F
:102D3A0092EF64027043120777FE700B9000011243
:102D4A000790F452955296EEB4010B9000011207C7
:102D5A00904295F45296120777B4020A9000011233
:102D6A00079042954296120777B4030D900001121C
:102D7A000790FEF45295EE4296EF640370431207F1
:102D8A0077FE700B900001120790F452B152B2EE26
:102D9A00B4010B90000112079042B1F452B212072B
:102DAA0077B4020A90000112079042B142B21207A8
:102DBA0077B4030D900001120790FEF452B1EE426F
:102DCA00B2EF64047043120777FE700B9000011291
:102DDA000790F452B352B4EEB4010B9000011207FB
:102DEA009042B3F452B4120777B4020A9000011267
:102DFA00079042B342B4120777B4030D9000011250
:102E0A000790FEF452B3EE42B4EF64057043120722
:102E1A0077FE700B900001120790F452C952CAEE65
:102E2A00B4010B90000112079042C9F452CA12076A
:102E3A0077B4020A90000112079042C942CA1207E7
:102E4A0077B4030D900001120790FEF452C9EE42C6
:102E5A00CAEF64067043120777FE700B90000112E6
:102E6A000790F452CB52CCEEB4010B90000112073A
:102E7A009042CBF452CC120777B4020A90000112A6
:102E8A00079042CB42CC120777B4030D900001128F
:102E9A000790FEF452CBEE42CCEF64077043120760
:102EAA0077FF700B900001120790F452E152E2EFA3
:102EBA00B4010B90000112079042E1F452E21207AA
:102ECA0077B4020A90000112079042E142E2120727
:102EDA0077B4030D900001120790FFF452E1EF421C
:042EEA00E27F002261
:104850009000021207906401702A90FE80E04440AC
:10486000F090FE82E4F0120777543FFF90FE80E064
:1048700054C04FF090000312079090FE88B40102DC
:104880008031802990FE80E054BFF090FE84E4F0F7
:1048900090000412079025E0FF90FE85E054014F40
:1048A000F090000512079090FE85B40106E054FEDA
:1048B000F08004E04401F090000112079090FE8027
:0C48C0007005E0547FF022E04480F022FC
:085F940090FE82E05480FF2220
:0C5F3B0090FE82E030E6F9E054BFF02256
:095F820090FE817401F0025F3B06
:0E5EFA0090FE86EFF090FE817402F0025F3B96
:0E5D1500125F82125EFA125D23AF05125EFA73
:095D230090FE817403F0025F3B65
:0F5E920090FE817404F0125F3B90FE87E0FF22C8
:0E5F080090FE82E4F090FE817405F0025F3B93
:0F5EA10090FE827401F090FE817405F0025F3B69
:095F8B0090FE817406F0025F3BF8
:0D5F160090FE86EDF090FE81EFF0025F3B03
:1056E100900461EBF0A3EAF0A3E9F0125D159004D8
:1056F10061E0FBA3E475F00112088EA9F0FA12072C
:1057010077FF125EFA125D23900464E014F070DEFC
:03571100025F8BA9
:10532E00AE07125D15125F82EE4401FF125EFA1295
:10533E005D23125E92EF1207BD740129F9E43AFA69
:10534E009003A0E064016003125F089003A0E014D4
:09535E00F070DF125EA1025F8B0A
:0300C3000240A94F
:1040A900C0E0C083C082C0D075D000C006C00790F0
:1040B900FE84E030E607E054BFF002414C90FE84F4
:1040C900E030E53BE054DFF09005DAE06004E4F02D
:1040D90080719005D9E0600DE4F090FE87E09005CD
:1040E900DBF0E0803790FE87E0FF9005DBE0FE041F
:1040F900F074CD2EF582E43405F583EFF080449019
:10410900FE84E030E426E054EFF0E030E10890FE70
:104119008674FFF0802D9005DBE004F024CDF58254
:10412900E43405F583E090FE86F0801790FE84E084
:1041390030E310E054F7F09005DA7401F09005D9F6
:10414900F0D22ED007D006D0D0D082D083D0E032A2
:1050BF00EFD3940140037FFF22EDD3940340037F8E
:1050CF00FF22EF7004C2A98002D2A9ED700553B779
:1050DF00FDC2B9EDB4010553B7FDD2B9EDB4020568
:1050EF0043B702C2B9EDB4030543B702D2B97F008B
:0150FF00228E
:10510000EFD3940140037FFF22EDD3940340037F4C
:10511000FF22EF7004C2AB8002D2ABED700553B733
:10512000F7C2BBEDB4010553B7F7D2BBEDB402052E
:1051300043B708C2BBEDB4030543B708D2BB7F0039
:01514000224C
:105B3000EFD3940140037FFF22EDD3940340037F12
:105B4000FF22EF25E025E0FFE5AF54FB4FF5AFE482
:025B5000FF2232
:105B5200EFD3940140037FFF22EDD3940340037FF0
:105B6200FF22EFC43354E0FFE5AF54DF4FF5AFE45B
:025B7200FF2210
:105B0D00EFD3940140037FFF22EDD3940340037F35
:105B1D00FF22EFC4333354C0FFE5AF54BF4FF5AF91
:035B2D00E4FF2270
:10514100EFD3940140037FFF22EDD3940340037F0B
:10515100FF22EF7004C2A88002D2A8ED700553B7F8
:10516100FEC2B8EDB4010553B7FED2B8EDB40205E5
:1051710043B701C2B8EDB4030543B701D2B87F000C
:01518100220B
:10518200EFD3940140037FFF22EDD3940340037FCA
:10519200FF22EF7004C2AA8002D2AAED700553B7B3
:1051A200FBC2BAEDB4010553B7FBD2BAEDB40205A6
:1051B20043B704C2BAEDB4030543B704D2BA7F00C1
:0151C20022CA
:105CE600EFD3940140037FFF22EFC454F0FFE58F0A
:085CF60054EF4FF58FE4FF228B
:105CB500EFD3940140037FFF22EFC43354E0FFE5A7
:095CC5008F54DF4FF58FE4FF223C
:105C8200EFD3940140037FFF22EFC4333354C0FFAC
:0A5C9200E58F54BF4FF58FE4FF22A9
:1051C300EFD3940140037FFF22EDD3940340037F89
:1051D300FF22EF7004C2AD8002D2ADED700553B76C
:1051E300DFC2BDEDB4010553B7DFD2BDEDB4020597
:1051F30043B720C2BDEDB4030543B720D2BD7F0042
:015203002288
:104D3800EDD3940340037FFF22EF30E10543E620E3
:104D4800800353E6DFEF30E00543E610800353E6C7
:104D5800EFED700653B6DF53B5DFEDB4010653B679
:104D6800DF43B520EDB4020643B62053B5DFEDB4FA
:0B4D7800030643B62043B5207F002255
:1049B400EFD3940140037FFF22EBD3940340037FA2
:1049C400FF22EFB40112ED90FE817006E0547FF0F7
:1049D4008011E04480F0800BEF700890FE83E05477
:1049E400874DF0EB700653B6DF53B5DFEBB4010629
:1049F40053B6DF43B520EBB4020643B62053B5DF0C
:0D4A0400EBB4030643B62043B5207F00222B
:10520400EFD3940140037FFF22EDD3940340037F47
:10521400FF22EF7004C2AC8002D2ACED700553B72C
:10522400EFC2BCEDB4010553B7EFD2BCEDB4020537
:1052340043B710C2BCEDB4030543B710D2BC7F0022
:015244002247
:104FB700EFD3940140037FFF22EDD3940340037F97
:104FC700FF22E5AF54FE4FF5AFED700653B6FE5323
:104FD700B5FEEDB4010653B6FE43B501EDB40206C6
:104FE70043B60153B5FEEDB4030643B60143B5011D
:034FF7007F002216
:104D8300EFD3940140037FFF22EDD3940340037FCD
:104D9300FF22EF33333354F8FFE5AF54F74FF5AF4A
:104DA300ED700653EEFE53DFFEEDB4010653EEFE47
:104DB30043DF01EDB4020643EE0153DFFEEDB4031E
:0A4DC3000643EE0143DF017F0022EA
:104E1600EFD3940140037FFF22EDD3940340037F39
:104E2600FF22EFC454F0FFE5AF54EF4FF5AFED703E
:104E36000653EEFD53DFFDEDB4010653EEFD43DFF1
:104E460002EDB4020643EE0253DFFDEDB403064362
:084E5600EE0243DF027F00229F
:104E5E00EFD3940140037FFF22EDD3940340037FF1
:104E6E00FF22EF25E0FFE5AF54FD4FF5AFED7006E5
:104E7E0053B6FD53B5FDEDB4010653B6FD43B50271
:104E8E00EDB4020643B60253B5FDEDB4030643B6C8
:074E9E000243B5027F002270
:1047D100EFD3948140037FFF22EBD3940340037F07
:1047E100FF22EF247F603204705D90FEC4EDF0EB98
:1047F100700653B6FB53B5FBEBB4010653B6FB434E
:10480100B504EBB4020643B60453B5FBEB64037085
:104811003B43B60443B504803390FEE4EDF0EB7006
:104821000653B6F753B5F7EBB4010653B6F743B5E4
:1048310008EBB4020643B60853B5F7EBB4030D43D6
:0F484100B60843B508800590FEE4EDF07F002235
:1052BB00EDD394035029ED700653EEFB53DFFBED5A
:1052CB00B4010653EEFB43DF04EDB4020643EE04D8
:1052DB0053DFFBEDB4030B43EE0443DF0480037F8A
:0A52EB00FF2290FE62EFF07F002228
:1053D70090FA10E054F0F0EDD39403500BE0FEED9B
:1053E70025E025E0FDEE4DF0EBD39403500690FA4F
:1053F70010E04BF0EF90FA10B40106E04480F08023
:0854070004E0547FF07F002255
:10540F0090FA00E054F0F0EDD39403500BE0FEED72
:10541F0025E025E0FDEE4DF0EBD39403500690FA16
:10542F0000E04BF0EF90FA00B40106E04480F0800A
:08543F0004E0547FF07F00221D
:1054470090FA20E054F0F0EDD39403500BE0FEED1A
:1054570025E025E0FDEE4DF0EBD39403500690FADE
:1054670020E04BF0EF90FA20B40106E04480F08092
:0854770004E0547FF07F0022E5
:10547F0090FA30E054F0F0EDD39403500BE0FEEDD2
:10548F0025E025E0FDEE4DF0EBD39403500690FAA6
:10549F0030E04BF0EF90FA30B40106E04480F0803A
:0854AF0004E0547FF07F0022AD
:1054B70090FA38E054F0F0EDD39403500BE0FEED92
:1054C70025E025E0FDEE4DF0EBD39403500690FA6E
:1054D70038E04BF0EF90FA38B40106E04480F080F2
:0854E70004E0547FF07F002275
:1054EF0090FA40E054F0F0EDD39403500BE0FEED52
:1054FF0025E025E0FDEE4DF0EBD39403500690FA36
:10550F0040E04BF0EF90FA40B40106E04480F080A9
:08551F0004E0547FF07F00223C
:1055270090FA48E054F0F0EDD39403500BE0FEED11
:1055370025E025E0FDEE4DF0EBD39403500690FAFD
:1055470048E04BF0EF90FA48B40106E04480F08061
:0855570004E0547FF07F002204
:10555F0090FA50E054F0F0EDD39403500BE0FEEDD1
:10556F0025E025E0FDEE4DF0EBD39403500690FAC5
:10557F0050E04BF0EF90FA50B40106E04480F08019
:08558F0004E0547FF07F0022CC
:1055970090FA58E054F0F0EDD39403500BE0FEED91
:1055A70025E025E0FDEE4DF0EBD39403500690FA8D
:1055B70058E04BF0EF90FA58B40106E04480F080D1
:0855C70004E0547FF07F002294
:1055CF0090FA60E054F0F0EDD39403500BE0FEED51
:1055DF0025E025E0FDEE4DF0EBD39403500690FA55
:1055EF0060E04BF0EF90FA60B40106E04480F08089
:0855FF0004E0547FF07F00225C
:1056070090FA68E054F0F0EDD39403500BE0FEED10
:1056170025E025E0FDEE4DF0EBD39403500690FA1C
:1056270068E04BF0EF90FA68B40106E04480F08040
:0856370004E0547FF07F002223
:10563F0090FA70E054F0F0EDD39403500BE0FEEDD0
:10564F0025E025E0FDEE4DF0EBD39403500690FAE4
:10565F0070E04BF0EF90FA70B40106E04480F080F8
:08566F0004E0547FF07F0022EB
:1059120090FE50E054CFF0EDD39403500AE0FEED38
:10592200C454F0FDEE4DF0EF90FE50B40106E04499
:0B59320080F08004E0547FF07F002232
:1015040090043EEBF0A3EAF0A3E9F090043DEFF081
:10151400640160030216E2900000F0A3F0A3F0A3BC
:10152400F0A3F0900441F0A3F0900441E0FEA3E0A6
:10153400FFC39480EE9400501C74542FF582740100
:101544003EF583E4F0900442E004F070DC90044142
:10155400E004F080D4E4900441F0A3F0900441E06E
:10156400FEA3E0FFC39480EE9400501C74142FF586
:101574008274003EF583E4F0900442E004F070DCF1
:10158400900441E004F080D490043EE0FBA3E0FA30
:10159400A3E0F9120777FFE598543F4FF598EF64FD
:1015A400C06008EF6440600302168D900002120AC6
:1015B400CD7F807E8D7D5B7C001209E9900443120F
:1015C4000AFDE4FFFE7D01FC900443E0F8A3E0F98A
:1015D400A3E0FAA3E0FBC3120A9640037FFF229024
:1015E4000443E0F8A3E0F9A3E0FAA3E0FBC3E49B1F
:1015F400FFE49AFE740199FDE498FC900443120AF6
:10160400FD90043EE0FBA3E0FAA3E0F99000011290
:101614000790FB64017038C28E538EFE5389BF530A
:1016240089CF438E40900443E0FCA3E0FDA3E0FE99
:10163400A3E0FF7808120AA78F8D900443A3A3A305
:10164400E0F58BC2AB5389BF538FFDD28E8073EB11
:1016540064027032538EEF438E01538EF7438E042F
:10166400900443E0FCA3E0FDA3E0FEA3E0FF7808C0
:10167400120AA78FD6900443A3A3A3E0F5D753AFD0
:10168400FB438E10803C7FFF2290043EE0FBA3E0EE
:10169400FAA3E0F9120777FF70139000081207907D
:1016A400B40105438E20801A538EDF8015EFB48079
:1016B40011900008120790B40105438780800353FA
:1016C400877F90043EE0FBA3E0FAA3E0F9900007D3
:1016D4001207907004C29C8002D29C7F0022900466
:1016E4003DE06402600302182C900005F0A3F0A30F
:1016F400F0A3F0A3F0900441F0A3F0900441E0FEC5
:10170400A3E0FFC39480EE9400501C74F42FF58280
:1017140074013EF583E4F0900442E004F070DC9040
:101724000441E004F080D4E4900441F0A3F0900478
:1017340041E0FEA3E0FFC39480EE9400501C749437
:101744002FF58274003EF583E4F0900442E004F047
:1017540070DC900441E004F080D490043EE0FBA3EC
:10176400E0FAA3E0F9120777FF64C06008EF644071
:10177400600302180AEFB4C005439A808003539AA9
:101784007F900002120ACD7F807E8D7D5B7C0012EB
:1017940009E9900443120AFDE4FFFE7D01FC900474
:1017A40043E0F8A3E0F9A3E0FAA3E0FBC3120A962E
:1017B40040037FFF22900443E0F8A3E0F9A3E0FA9A
:1017C400A3E0FBC3E49BFFE49AFE740199FDE49853
:1017D400FC900443120AFD538EEF538EF7438E049C
:1017E400900443E0FCA3E0FDA3E0FEA3E0FF78083F
:1017F400120AA78FD6900443A3A3A3E0F5D753AF4F
:10180400FB438E1080037FFF2290043EE0FBA3E0A5
:10181400FAA3E0F9900007120790C454F0FFE59A88
:1018240054EF4FF59A7F002290043DE06403600377
:101834000219C090000AF0A3F0A3F0A3F0A3F09063
:101844000441F0A3F0900441E0FEA3E0FFC3944000
:10185400EE9400501C74742FF58274023EF583E4F8
:10186400F0900442E004F070DC900441E004F08065
:10187400D4E4900441F0A3F0900441E0FEA3E0FF1F
:10188400C39440EE9400501C74142FF58274013EEE
:10189400F583E4F0900442E004F070DC900441E04D
:1018A40004F080D490043EE0FBA3E0FAA3E0F91234
:1018B4000777FF64C06008EF6440600302199EEF7D
:1018C400B4C00543AC80800353AC7F900002120A7D
:1018D400CD7F807E8D7D5B7C001209E990044312EC
:1018E4000AFDE4FFFE7D01FC900443E0F8A3E0F967
:1018F400A3E0FAA3E0FBC3120A9640037FFF229001
:101904000443E0F8A3E0F9A3E0FAA3E0FBC3E49BFB
:10191400FFE49AFE740199FDE498FC900443120AD2
:10192400FD90043EE0FBA3E0FAA3E0F9900001126D
:101934000790FB6403702943AC40900443E0FCA38C
:10194400E0FDA3E0FEA3E0FF7808120AA78FD4907D
:101954000443A3A3A3E0F5D553D1F043D10A803DBA
:10196400EB64027032538EEF53ACBF538EF7438E49
:1019740004900443E0FCA3E0FDA3E0FEA3E0FF78B1
:1019840008120AA78FD6900443A3A3A3E0F5D75364
:10199400AFFB438E1080067FFF227FFF2290043E20
:1019A400E0FBA3E0FAA3E0F9900007120790C45407
:1019B400F0FFE5AC54EF4FF5AC7F002290043DE01E
:1019C40064046003021B5490000FF0A3F0A3F0A37F
:1019D400F0A3F0900441F0A3F0900441E0FEA3E0F2
:1019E400FFC39420EE9400501C74B42FF58274024B
:1019F4003EF583E4F0900442E004F070DC9004418E
:101A0400E004F080D4E4900441F0A3F0900441E0B9
:101A1400FEA3E0FFC39420EE9400501C74D42FF571
:101A24008274013EF583E4F0900442E004F070DC3B
:101A3400900441E004F080D490043EE0FBA3E0FA7B
:101A4400A3E0F9120777FF64C06008EF6440600305
:101A5400021B32EFB4C005438480800353847F901B
:101A64000002120ACD7F807E8D7D5B7C001209E925
:101A7400900443120AFDE4FFFE7D01FC900443E060
:101A8400F8A3E0F9A3E0FAA3E0FBC3120A9640032B
:101A94007FFF22900443E0F8A3E0F9A3E0FAA3E077
:101AA400FBC3E49BFFE49AFE740199FDE498FC9067
:101AB4000443120AFD90043EE0FBA3E0FAA3E0F91C
:101AC400900001120790FB64047029438440900441
:101AD40043E0FCA3E0FDA3E0FEA3E0FF7808120AC4
:101AE400A78FD2900443A3A3A3E0F5D353D10F430C
:101AF400D1A0803DEB64027032538EEF5384BF5308
:101B04008EF7438E04900443E0FCA3E0FDA3E0FEC3
:101B1400A3E0FF7808120AA78FD6900443A3A3A3D7
:101B2400E0F5D753AFFB438E1080067FFF227FFF83
:101B34002290043EE0FBA3E0FAA3E0F99000071230
:101B44000790C454F0FFE58454EF4FF5847F0022DE
:021B54007FFF11
:011B5600226C
:0F5EB0008F999000027401F0900002E070FA22C6
:105DD600120777FF600C125EB0740129F9E43AFAF3
:035DE60080EE222A
:0F5EBF008F9B9000077401F0900007E070FA22AB
:105DE900120777FF600C125EBF740129F9E43AFAD1
:035DF90080EE2217
:0F5ECE008FAD90000C7401F090000CE070FA2280
:105DFC00120777FF600C125ECE740129F9E43AFAAF
:035E0C0080EE2203
:0F5EDD008F859000117401F0900011E070FA228F
:105E0F00120777FF600C125EDD740129F9E43AFA8C
:035E1F0080EE22F0
:05001E00AE07025EB018
:03002300024CECA0
:104CEC00C0E0C083C082C0D075D000C00730982708
:104CFC00C298900003E0C394804002E4F09000035B
:104D0C00E0FF04F074142FF582E43400F583E59988
:104D1C00F09000047405F0309907C299900002E4F9
:0C4D2C00F0D007D0D0D082D083D0E0328D
:03004300024B0D60
:104B0D00C0E0C083C082C0D075D000C007E59A3028
:104B1D00E028539AFE900008E0C394804002E4F030
:104B2D00900008E0FF04F074942FF582E43400F552
:104B3D0083E59BF09000097405F0E59A30E1085388
:104B4D009AFD900007E4F0D007D0D0D082D083D06A
:024B5D00E03244
:03008B00024B5FC6
:104B5F00C0E0C083C082C0D075D000C007E5AC30C4
:104B6F00E02853ACFE90000DE0C394404002E4F007
:104B7F0090000DE0FF04F074142FF582E43401F57A
:104B8F0083E5ADF090000E7405F0E5AC30E108530D
:104B9F00ACFD90000CE4F0D007D0D0D082D083D001
:024BAF00E032F2
:03009300024BB16C
:104BB100C0E0C083C082C0D075D000C007E584309A
:104BC100E0285384FE900012E0C394204002E4F0F8
:104BD100900012E0FF04F074D42FF582E43401F563
:104BE10083E585F09000137405F0E58430E1085306
:104BF10084FD900011E4F0D007D0D0D082D083D0D2
:024C0100E0329F
:104A1100900001120790FFE5DE54F04FF5DE9000A3
:104A210002120790C43354E0FFE5DE54DF4FF5DE98
:104A3100120777FFD3941F502B900003120790FEAB
:104A4100D39401501F900004120790FDD39403509A
:104A510013EDC43354E0FDEEC433333354804D4F72
:054A610090FEA8F02208
:0C5F4700EFB4010443BC802253BC7F2255
:1048CC00EFD3940F4002806BE4F5BDF5BEE5BC540C
:1048DC00F044404FF5BC0000000000000000000058
:1048EC00E4FDE5BC30E54753BCDFE5DEAFBD30E5AC
:1048FC000DEFFEACBEECFBEBFF90040480229004A9
:10490C0004E4F0A3EFF0E5BEC4540FFBE0C4F8548C
:10491C000FC868FF900404E0C454F048FEEF4BFF4E
:10492C00EEF0A3EFF0900404E0FEA3E0FF220DED07
:07493C00B4FAAF7E107F000A
:014943002251
:03002B00020026AA
:0400260053BCDF32B6
:101FDA00AD07ED6401707A90FECCE054FEF0E05457
:101FEA00FBF090FEC8E054FCF0120777FF90FEC8A1
:101FFA00E0548F4FF0900006120790FF90FECC300D
:10200A00E00DE04401F090FEB1E04401F0800BE005
:10201A0054FEF090FEB1E054FEF0EF90FECC30E1B9
:10202A000DE04404F090FEB1E04402F0800BE0546D
:10203A00FBF090FEB1E054FDF09000031208CFE5EA
:10204A00F090FED5F09000031208CF90FED602233E
:10205A0094ED6402707A90FECCE054EFF0E054BF45
:10206A00F090FEC9E054FCF0120777FF90FEC9E039
:10207A00548F4FF0900006120790FF90FECC30E28A
:10208A000DE04410F090FEB1E04404F0800BE054FF
:10209A00EFF090FEB1E054FBF0EF90FECC30E30D90
:1020AA00E04440F090FEB1E04408F0800BE054BFF9
:1020BA00F090FEB1E054F7F09000031208CFE5F07B
:1020CA0090FED7F09000031208CF90FED802239416
:1020DA00ED6403707A90FECDE054FEF0E054FBF01C
:1020EA0090FECAE054FCF0120777FF90FECAE05453
:1020FA008F4FF0900006120790FF90FECD30E40D4E
:10210A00E04401F090FEB1E04410F0800BE054FE90
:10211A00F090FEB1E054EFF0EF90FECD30E50DE027
:10212A004404F090FEB1E04420F0800BE054FBF050
:10213A0090FEB1E054DFF09000031208CFE5F09072
:10214A00FED9F09000031208CF90FEDA022394ED34
:10215A006404707A90FECDE054EFF0E054BFF09042
:10216A00FECBE054FCF0120777FF90FECBE0548FD1
:10217A004FF0900006120790FF90FECD30E60DE07A
:10218A004410F090FEB1E04440F0800BE054EFF0D0
:10219A0090FEB1E054BFF0EF90FECD30E70DE04481
:1021AA0040F090FEB1E04480F0800BE054BFF09024
:1021BA00FEB1E0547FF09000031208CFE5F090FEE4
:1021CA00DBF09000031208CF90FEDC022394ED644A
:1021DA0080704F90000512079090FEDEF09000018B
:1021EA001208CFE5F090FED2F09000011208CF90CD
:1021FA00FED3F090000812079090FEDDB40106E0CD
:10220A004480F08004E0547FF09000071207909019
:10221A00FEC0B40106E04401F08004E054FEF07F01
:10222A000022ED6405705690FEECE054FEF090FE3C
:10223A00E8E054FCF0120777FF90FEE8E0548F4F75
:10224A00F090000612079090FEEC30E00DE0440199
:10225A00F090FEB5E04401F0800BE054FEF090FEF1
:10226A00B5E054FEF09000031208CFE5F090FEF5B9
:10227A00F09000031208CF90FEF6022394ED640654
:10228A00705690FEECE054EFF090FEE9E054FCF05A
:10229A00120777FF90FEE9E0548F4FF09000061284
:1022AA00079090FEEC30E20DE04410F090FEB5E0AD
:1022BA004404F0800BE054EFF090FEB5E054FBF0DC
:1022CA009000031208CFE5F090FEF7F09000031299
:1022DA0008CF90FEF8022394ED6407705590FEED46
:1022EA00E054FEF090FEEAE054FCF0120777FF900B
:1022FA00FEEAE0548F4FF090000612079090FEED30
:10230A0030E40DE04401F090FEB5E04410F0800B9B
:10231A00E054FEF090FEB5E054EFF090000312088E
:10232A00CFE5F090FEF9F09000031208CF90FEFA84
:10233A008058ED6408705790FEEDE054EFF090FE7F
:10234A00EBE054FCF0120777FF90FEEBE0548F4F5E
:10235A00F090000612079090FEED30E60DE0441072
:10236A00F090FEB5E04440F0800BE054EFF090FEB0
:10237A00B5E054BFF09000031208CFE5F090FEFBE1
:10238A00F09000031208CF90FEFCF07F0022ED646B
:10239A0081704C90000512079090FEFEF0900001AB
:1023AA001208CFFDACF0EC90FEF2F0AF05A3EFF00F
:1023BA0090000812079090FEFDB40106E04480F0F8
:1023CA008004E0547FF090000712079090FEE0B47A
:1023DA000106E04401F08004E054FEF07F00227F11
:0223EA00FF22D0
:10354600EF2480700302360114700302364624808D
:10355600B40800400302369290356C75F003A4C59A
:103566008325F0C583730235840235910235A102A5
:1035760035B10235C10235D10235E10235F1120805
:10358600A4FDACF0EC90FED502368C900002120839
:10359600CFFDACF0EC90FED702368C9000041208FA
:1035A600CFFDACF0EC90FED902368C9000061208E6
:1035B600CFFDACF0EC90FEDB02368C9000081208D2
:1035C600CFFDACF0EC90FEF502368C90000A1208A6
:1035D600CFFDACF0EC90FEF702368C90000C120892
:1035E600CFFDACF0EC90FEF902368C90000E12087E
:1035F600CFFDACF0EC90FEFB02368C1208A4FDACBD
:10360600F0EC90FED5F0AF05A3EFF09000021208A3
:10361600CFFDACF0EC90FED7F0AF05A3EFF0900035
:10362600041208CFFDACF0EC90FED9F0AF05A3EF85
:10363600F09000061208CFFDACF0EC90FEDB804661
:103646009000081208CFFDACF0EC90FEF5F0AF0547
:10365600A3EFF090000A1208CFFDACF0EC90FEF755
:10366600F0AF05A3EFF090000C1208CFFDACF0EC24
:1036760090FEF9F0AF05A3EFF090000E1208CFFD13
:0D368600ACF0EC90FEFBF0AF05A3EFF022DE
:102A3300AD07ED7079C28C120777FED39403400380
:102A43007FFF22E58954FC4EF5899000011207901F
:102A5300FED3940240037FFF22EE7006538E7F5312
:102A630089FB900001120790B40106438E805389BD
:102A7300FB900001120790B4020343890490000203
:102A8300120790FFE58F54FE4FF58F900003120855
:102A9300CFE5F0F58C9000031208CFF58A9000067D
:102AA3001207907004C28C8002D28C7F0022ED64E6
:102AB300016003022B39C28E120777FED3940340C1
:102AC300037FFF22EEC454F0FFE58954CF4FF5890D
:102AD300900001120790FED3940240037FFF22EE81
:102AE3007006538EBF5389BF900001120790B40143
:102AF30006438E405389BF900001120790B402032E
:102B030043894090000212079025E0FFE58F54FDB2
:102B13004FF58F9000031208CFE5F0F58D90000379
:102B23001208CFF58B9000061207907004C28E80B6
:102B330002D28E7F0022ED64027065538EEF900007
:102B430001120790FF7006538EFB538EF7EFB4010B
:102B530006438E04538EF7EFB40203438E089000AE
:102B63000212079025E025E0FFE58F54FB4FF58F18
:102B73009000031208CFE5F0F5D69000031208CFBA
:102B8300F5D790000512079090FEA2F09000061270
:102B93000790C454F0FFE58E54EF4FF58E7F00226B
:102BA300ED6403707253D1F7900001120790FED3C6
:102BB300940240037FFF22EE700653D1FD53D1FBF5
:102BC300900001120790B4010643D10253D1FB9048
:102BD3000001120790B4020343D1049000021207CC
:102BE30090FFE5D154FE4FF5D19000031208CFE5D5
:102BF300F0F5D49000031208CFF5D5900005120725
:102C03009090FEA3F090000612079033333354F8EC
:102C1300FFE5D154F78077ED6404707853D17F904A
:102C23000001120790FED3940240037FFF22EE704F
:102C33000653D1DF53D1BF900001120790B40106B0
:102C430043D12053D1BF900001120790B402034334
:102C5300D140900002120790C454F0FFE5D154EF25
:102C63004FF5D19000031208CFFDACF0ECF5D2AFD5
:102C7300058FD390000512079090FEA4F0900006F4
:102C8300120790C43333335480FFE5D1547F4FF59B
:072C9300D17F00227FFF2228
:03001B000200964A
:03009600B2EE3295
:0300630002524501
:10524500C0E0C0F0C083C082C0D075D000C000C02F
:1052550001C002C003C004C005C006C0071200A6F5
:10526500D007D006D005D004D003D002D001D0009D
:0B527500D0D0D082D083D0F0D0E03247
:03009B000252808E
:10528000C0E0C0F0C083C082C0D075D000C000C0F4
:1052900001C002C003C004C005C006C007125BB451
:1052A000D007D006D005D004D003D002D001D00062
:0B52B000D0D0D082D083D0F0D0E0320C
:0300A30002009EBA
:03009E00B2EB3290
:10289B00EFD3940840037FFF22740F2F2FF8E6200D
:1028AB00E5F4C2AFE64430F6D2AFAE0CEEC39F50A8
:1028BB00210E743F2EF8E6F908E618BE080274FFE5
:1028CB00FDED69600909E71919F7090980F3161677
:1028DB0080DAEED39F400405810581EED39F402221
:1028EB00743F2EF808E6F9EEB50C02A9811806061E
:1028FB00E6FDED6960091919E70909F71980F31E5F
:10290B0080D9EF243FF8E604F8EF2F04905E229372
:09291B00F608EF2F93F67F00226D
:10292400EFD3940840037FFF22EF23240FF8E6300F
:10293400E5F4C2AFE6548CF6D2AFE50CB5070A74E1
:102944003F2FF8E6F5810227A4502E74402FF8E6B5
:10295400BF080274FFFD18E6F9743F2FF8FBE6FC8C
:10296400E96C6008A805E7F61D1980F4A803A6051C
:102974001FE50CB507E37F002274402FF8E6FD182D
:1029840086010F743F2FF8A601088604E50CB507ED
:1029940002AC81ED6C60080D09A805E6F780F4E54A
:0929A4000CB507DE89817F0022D9
:1029AD00EFD3940840037FFF22EF23240FF8C2AF2B
:1029BD00E630E50530E002D2E4D2E2C6D2AF7F00C8
:0729CD0030E2010F02277840
:1029D4008FF0E4FFFEE50C23240EF8C2A930F70DB6
:1029E4007F08E6600B2DF660325030800730F10628
:1029F400EDF660277E020830F010C2AFE610E7253E
:102A04000E30E20CD2AF7F048014C2AFE610E7159B
:102A140054EC4EF6D2AFD2A90227A47F0808EF44A3
:0F2A240083F4C2AF56C6D2AFD2A954804FFF225F
:1000C600020498E86480F8E933E83360110460F0CC
:1000D600ED33EC337009E8FCE9FDEAFEEBFF2204A0
:1000E60060DED3EB9FEA9EE99DE8C2E78CF0C2F79B
:1000F60095F0400CE8CCF8E9CDF9EACEFAEBCFFB67
:1001060012046385D0F05804700320D5B3E8047058
:10011600075002B2D50204A292D5EC0460F7E4CCF3
:10012600C0E0C398F8603B94186008400DD0E0FB2F
:1001360002047AE4FBFAC9FC8028E830E406E4C944
:10014600FBE4CAFCE830E305E4C9CACBFCE8540783
:100156006010F8C3E913F9EA13FAEB13FBEC13FC8E
:10016600D8F130F52FC3E49CFCEF9BFFEE9AFEED31
:1001760099FDD0E0FBEF4E4D4C701222DB030204DA
:100186009FEC2CFCEF33FFEE33FEED33FDED30E755
:10019600EB02047AEF2BFFEE3AFEED39FDD0E0FBE1
:1001A60050130BBB00030204A2ED13FDEE13FEEF8A
:0801B60013FFEC13FC02047AB4
:1001BE00EC4D6011E8497017ED33EC3304600DE43B
:1001CE00FCFFFEFD22E933E8330470F802049812B6
:1001DE00046358046009E4CC2481500628500902B7
:1001EE0004A228400302049FC0E0EB4A7044B98089
:1001FE0006D0E0FB02048EEF4E701CBD8008EBFFB4
:10020E00EAFEE9FD80EBE98DF0A4FEE5F00202A71F
:10021E00E9CDF9EAFEEBFFEF89F0A4FCE5F0CE891B
:10022E00F0A42EFFE435F0CD89F0A42DFEE435F0D8
:10023E008067EF4E7005BD80D780C3EF8BF0A4AC06
:10024E00F0EE8BF0A42CFCE435F0F8EF8AF0A42C41
:10025E00E5F038FCE433CB8DF0A42CFCE5F03BF854
:10026E00EE8AF0A42CFCE5F038F8E433CF89F0A444
:10027E002CFCE5F038CF3400CE89F0A42FFFE5F04A
:10028E003EFEE433C98DF0A42EFEE5F039CD8AF0A2
:10029E00A42FFFE5F03EFEE43DFD33D0E0FB50071A
:1002AE000BBB000F0204A2EC2CFCEF33FFEE33FE6F
:0602BE00ED33FD02047A9D
:1002C4000204A2EC5D046005E8590470030204987A
:1002D400120463580460F6EC4860F2EC7004FDFE0E
:1002E400FF22C860DB2481C85009C398600250060D
:1002F40002049F9850CAF582E9294B4A7005AB82E3
:1003040002048E75F0007C1A7880C3EF9BEE9AEDA0
:1003140099400DC3EF9BFFEE9AFEED99FDE842F084
:10032400DC23ACF0D0E0FFD0E0FED0E0FDAB8220D7
:10033400E7101BEB60BAEC2CFCEF33FFEE33FEED61
:1003440033FD02047AE803F830E705C0F075F000E5
:10035400EF2FFFEE33FEED33FD40B830E7C280AA45
:1003640074F8CC6480CCC86480C8F58204604FC340
:10037400EB9FF5F0EA9E42F0E99D42F0E89C45F0DF
:10038400603C501DE5825FFFE582D313CB5BCBF469
:100394002B5582FB50280ABA002409B90020088092
:1003A4001DE5825BFBE582D313CF5FCFF4C3132F2C
:1003B4005582FF50090EBE00050DBD00010CC3EBB4
:1003C4009FF5F0EA9E42F0E99D42F0E89C45F0601A
:0903D40007CC4820E701B3EC223C
:1003DD00ED33EC33600A047003BD8004ECB2E7FC2E
:0103ED0022ED
:1003EE0075F020800E75F010800575F0087D007E8A
:1003FE00007F003392D530D503120A88EC334010BB
:10040E00EF33FFEE33FEED33FDEC33FCD5F0ED2292
:0E041E00E5F0247EA2D513CC92E7CDCEFF22CE
:10042C00EDD2E7CD33EC3392D524814006E4FFFEC8
:10043C00FDFC22FCE4CFCECDCC24E0501174FF8027
:10044C00EDC3CC13CCCD13CDCE13CECF13CF0470C4
:07045C00F030D5DE020A8832
:101B5700E53A2407F582E43404F583E0053A229058
:101B67000404302B03900407E475F001120B3A02CA
:101B770007772024E97F2ED2248018EF540F249072
:101B8700D43440D4FF30280BEF24BFB41A005003DD
:101B97002461FFE53B6002153B053EE53E7002050B
:101BA7003D302B0E900404E475F001120B3AEF025E
:101BB70007BD02001E7403D22B8003E4C22BF53A43
:101BC700900404120B51E4F53BF53DF53EE53B600F
:101BD700077F20121B9A80F5753CFFC225C224C2DD
:101BE70026C227C229C22AC22C121B66FF700D30DB
:101BF7002B057F00121BABAF3EAE3D22B4255FC263
:101C0700D5C228121B66FF24D0B40A00501A75F0FB
:101C17000A783B30D50508B6FF0106C6A426F6208C
:101C2700D5047002D22780D924CFB41A00EF50040C
:101C3700C2E5D228021E9DD22580C6D22480C0D2FA
:101C47002680BCD2D580BAD22980B47F20121B9AB5
:101C57002026077401B53B0040F1121B57FF121BEA
:101C67009A021BD4D22CD22A8095121B57FB121B27
:101C770057FA121B57F94A4B7006799B7A1F7BFF5D
:101C870020262EE53B602A7E008E82758300120790
:101C97009060060EEE653C70F0C2D5EBC0E0EAC07E
:101CA700E0E9C0E0EE121EFED0E0F9D0E0FAD0E0A5
:101CB700FB120777FF60AAEBC0E0EAC0E0E9C0E0EB
:101CC700121B9AD0E02401F9D0E03400FAD0E0FBEF
:101CD700E53C0460DCD53CD98087D22680A2121E61
:101CE700E060F7E53C7001041204ADA93C600DE526
:101CF7003C600914F53C121F88EF60F3EA30E702F5
:101D0700F404C3995079EAF4253C0430E701E4046C
:101D1700F53C800D121EE060C1EA053C253C12042B
:101D2700ADEA900433F030E701E4253C04D53C04E8
:101D370020290114121EFEE4C0E0121F889004330C
:101D4700E0601320E70714F0121B82802204F0D012
:101D5700E014C0E07F00121B82E53C6007121B798C
:101D6700153C800B302903121B79D0E0021BD4D01D
:101D7700E00480C4121EE0609EE53C041204AD90AE
:101D87000433EAF0E53C2029026001042404121E12
:011D9700FE4D
:101D980074FF04C0E0121F88121B82E53C20290250
:101DA8006003121B79D0E0B53CE87F45121B8C908C
:101DB8000433E07F2B30E7047F2DF404C0E0121BCE
:101DC8009AD0E075F00A84C0F0121B83D0E0121B91
:101DD80083021BD4791080027908C22AC22C800899
:101DE800D2D5790A8004790AC2D5E53C047002F597
:101DF8003CE4FAFDFEFF121B57FC7B08202513125A
:101E08001B57FD7B1030240A121B57FE121B57FF6D
:101E18007B20EC3382D592D55013C3E43024069F3F
:101E2800FFE49EFEE42025039DFDE49CFCE4CBF842
:101E3800C225EC700CCFCECDCCE824F8F870F38036
:101E480017C3EF33FFEE33FEED33FDEC33FCEB331A
:101E5800FB994002FB0FD8E9EB302505F8D0E0C428
:101E680048B225C0E00AEC4D4E4F78207B0070C286
:101E7800EAB53C0040BCC0E0121F00D0F0D0E02022
:101E88002504C4C0E0C4B225C0F0121B83D0F0D52D
:101E9800F0EB021BD4120B5A1C71531DDC581C4268
:101EA8004C1C3E421DE04F1DE8441DE8491C5743A9
:101EB8001DEE551D1B461D7B451CE5471FBB501CD1
:101EC800462D1C4A2E1C6D2B1C4E231C6B201FA458
:101ED8002A1C064800001C65E53CB4FF03753C0657
:101EE800121B57FC121B57FD121B57FE121B57FFE4
:101EF80090042C0204EA790AA2D520271430290973
:101F0800B910020404B9080104A2D5202A0250011C
:101F1800042026689226B53B005034C0E07F20306C
:101F280027197F30A226722A7229500F121F57C212
:101F380026C22AC229C22C7F30800F302903E9C06B
:101F4800E0121B9A302903D0E0F9D0E0B53BCC3041
:101F580029177F30B9100C121B9A7F583028077F39
:101F6800788003B90803121B9A3026057F2D021BBF
:101F78009A7F20202CF87F2B202AF322922680CFCC
:101F88007F00B40700500B242CF582E43404F58359
:101F9800E0FF22286E756C6C2900D225121B573081
:101FA80025F8C225783B30D50108F6021C062D50CD
:101FB800434958121B572403B405004001E4901FFD
:101FC800B693121B8B743A121B8BD227753B0402F3
:021FD8001DDC0E
:10046300E9D2E7C933E833F892D5EDD2E7CD33ECDF
:0704730033FC5002B2D52258
:10047A00EC30E7100FBF000C0EBE00080DBD0004E3
:10048A000BEB6014A2D5EB13FCED92E7FD2274FF8F
:10049A00FCFDFEFF22E480F8A2D574FF13FC7D80E8
:0304AA00E480EFFC
:1004AD00F920E73624F950037907E4F42402FBE53B
:1004BD0082158270021583DBF6E024FB501BE96088
:1004CD0014E4F0E582158270021583E004F0B40A9D
:0D04DD0008E4F0D9EE7401F00A22C2D52225
:1004EA00ED33EC3392D5FA602AB4FF33EDC2E77BE1
:1004FA00FF60067A05790FE4227A05791820D50477
:10050A007A057913224E614E002B494E46002D4939
:10051A004E4600E47A08F0A3DAFC7B00740722C096
