:105E2F006B657920256420646F776E0A00436C6F71
:105E3F0073653A2025640A004F70656E3A20256419
:0D5E4F000A006B65792025642075700A003B
:0A383D00420496FFFF4204980000C9
:104F9400900498E0FDA3E0900496CDF0A3EDF0EF2B
:104FA4003395E0FE900499E02FF0900498E03EF0F1
:104FB400C3E06480948050129003D5E0FF9004997C
:104FC400E02FF0900498E03400F0900498E0FEA301
:104FD400E0FF9003D5E0FD7C00120858900498ECA3
:0A4FE400F0A3EDF01265AE02658B3C
:1035F500900347EFF07BFF7A5E792F90036CE4F040
:10360500A3EFF0121CBB900347E06003B401047FF5
:10361500FF800F900347E0FF64026004EFB40305E9
:103625007F01124F94900496E0FEA3E0FFEE7056E2
:10363500EFB407005050903642F8282873023657E9
:1036450002365E02366502366C02367302367F023A
:103655003686E4FF12000E802DE4FF1265C9802630
:10366500E4FF12624C801FE4FF1265D580187F01CC
:103675001265CFE4FF126518800CE4FF1265DB804C
:1036850005E4FF1265E7900498E0FEA3E0FFEE7005
:1036950056EFB4070050509036A3F8282873023629
:1036A500B80236BF0236C60236CD0236D40236E03F
:1036B5000236E77F0112000E802D7F011265C98059
:1036C500267F0112624C801F7F011265D58018E4A8
:1036D500FF1265CF7F01126518800C7F011265DB33
:1036E50080057F011265E77BFF7A5E793C90049641
:1036F500E0FFA3E090036CCFF0A3EFF0121CBB7BBF
:10370500FF7A5E7947900498E0FFA3E090036CCFC1
:07371500F0A3EFF0021CBB62
:10646D007BFF7A5E795190036CE4F0A3EFF0021C90
:01647D00BB63
:03008E000265B553
:030096000240F035
:08000300434E543A202564002D
:083847004104A4004104A500A6
:1053DB009003487420F09003477403F07B017A0329
:1053EB0079477F04122D549003487430F090034793
:1053FB007403F07B017A0379477F01122D549003DC
:10540B004874CFF09003477403F07B017A0379471C
:05541B007F02022D5488
:0665C3001253DBD2C522D9
:0D000E009004A4EFF07003D2C522C2C522F9
:104E03009004A4E06060A3E0FF7004C2A78048EFB1
:104E1300B40104C2A68040EFB40204C2958038EF07
:104E2300B40304C2948030EFB40404C2A38028EF17
:104E3300B40504C2A28020EFB40604C2A18018EF17
:104E4300B40704C2A08010D2A0D2A1D2A2D2A3D20E
:104E530094D295D2A6D2A79004A5E004F0D364809F
:074E630094884002E4F022F4
:1057EE0090036C74FFF0A37400F0A37403F09004A4
:1057FE00A5E0FE3395E090036FF0A3CEF07B017A27
:10580E00037947121CB57B017A03794790036074C4
:09581E0010F07D02E4FF024D933D
:10002E0054656D703A20256420A1E60A00543A20EA
:05003E002564204300D1
:04384F004104A00090
:03009E000265ED0B
:0665C9009004A0EFF02297
:1060CE009004A0E0601C1244A690049EEEF0A3EF94
:1060DE00F07BFF7A00792E90036CEEF0A3EFF012B6
:0360EE001CBB22B6
:1058270090036C74FFF0A37400F0A3743BF0900432
:105837009EE0FFA3E090036FCFF0A3EFF07B017A28
:10584700037947121CB57B017A037947900360748B
:0958570010F07D02E4FF024D9304
:104D200038B8F64C4544C9C1CBB800C8C8C3F4B5BF
:104D3000E7D7E800B5E7CEBB2BC2EDB4EF00525485
:104D40004300CAFDC2EBB9DC00CEC2CAAAB6C80095
:104D5000BCFCC5CCB7E4C3F9C6F7004C4544004ED3
:104D6000544300504F542B4D6F746F720044696769
:104D70006974004448543131004B657942757A7A40
:104D80006572003E2532642E257300202532642E84
:034D900025730088
:103853005503C0FF4D20FF4D2BFF4D34FF4D3EFF61
:103863004D42FF4D49FF4D505503AAFF4D5BFF4DA0
:103873005FFF4D63FF4D3EFF4D6DFF4D73FF4D7970
:0C3883004103D5074103BF014103A90127
:100066005391FE5392FE5391FD5392FD5391F753D4
:1000760092F75391BF5392BF53B37F53B47F53C983
:05008600FE53CAFE223A
:10647E001200661247E0E4FF1200A6E4FF025FB5C9
:0765AE009003BF7401F0220D
:1043F700E4900347F09003BFE070030244A5E4F0A4
:10440700126009E4900347F0900347E0FFC3940468
:0544170040030244A572
:10441C00900499E02FFF900498E03400FE9003D5AF
:10442C00E0FD7C00120858900368EDF0900347E023
:10443C007BFF70067A4D798380047A4D798B9003DB
:10444C006CEBF0A3EAF0A3E9F0900368E0FD9003B5
:10445C006FE4F0A3EDF075F003A424C0F582E4340E
:10446C0003F583E0F9A3E0FAA3E0900371C9F0A38C
:10447C00EAF0A3E9F07B017A037948121CB59003AA
:10448C0047E025E0FD7B017A037948E4FF1224E53F
:09449C00900347E004F002440F14
:0144A50022F4
:0D6542001241BEE4FF1261FCE4FF025FDFC6
:09658B009003A97401F00253957C
:0665CF009003A9EFF02289
:104ED1009003A9E0605F900498E0FEA3E09003AA2C
:104EE10075F003120BC4EE75F003A42583F583E07E
:104EF100FBA3E0FAA3E0F99003607410F0E4FDFF76
:104F0100124D93900498E0FEA3E0FFEE7027EF149A
:104F1100601414601414601424FE601314601324CC
:104F21000670120257EE02582702573B02469E02B4
:064F31004BB0124AAE2253
:105E880041444331333A20256420647574795F7046
:105E9800657263656E743A20252E32660A00447571
:0C5EA80074793A2531302E326625250031
:0B388F004104130044040F000000007F
:105E5C009003487402F090034704F07B017A0379B5
:105E6C0047E4FF122D549003487420F090034774BC
:0C5E7C0001F0FB7A037947E4FF022D548B
:104FEE009003477460F0900409E0FFA3E090034A39
:104FFE00CFF0A3EFF090034D7404F07B017A0379A8
:10500E00477F061220D3900348745DF0A374BFF05F
:10501E00E490034CF090034F04F090034EF0FB7AB3
:10502E000379477F811220D3E4FBFD7F81124B3140
:09503E0090FEB6E054F34408F0C2
:015047002246
:105EB400900347741FF0E490034AF0A304F09003A6
:105EC40048740FF0A37401F0FB7A03794712504829
:0B5ED4007F01126568E4FDFF025678B4
:10648E00125E5CE4900409F0A3F0124FEE025EB4CB
:10474200900349120B87900355E0F8A3E0F9A3E028
:10475200FAA3E0FBA3E0FCA3E0FDA3E0FEA3E0FFDD
:104762001200C9C004C005C006C00790034DE0F89E
:10477200A3E0F9A3E0FAA3E0FB900349E0FCA3E085
:10478200FDA3E0FEA3E0FF1200C9D003D002D001D6
:10479200D0001201BEC004C005C006C00790034D80
:1047A200E0F8A3E0F9A3E0FAA3E0FBA3E0FCA3E0B6
:1047B200FDA3E0FEA3E0FF1200C9A804A905AA0612
:1047C200AB07D007D006D005D0041202C79003551C
:0E47D200E0F8A3E0F9A3E0FAA3E0FB0200CDBB
:10624C00900413EFF07011900409F0A3F07B017A25
:09625C000379FF7F061234A82229
:10428300900413E070030243467F0D124CA8900381
:1042930047EEF0A3EFF0FDAC06E41203F3C004C055
:1042A30005C006C00790034D120B93452280009072
:1042B3000351120B93457FF000900355120B9300AB
:1042C300000000900359120B9342C80000D007D09E
:1042D30006D005D00412474290040F120B877BFFD0
:1042E3007A5E7988900347E0FFA3E090036CCFF0F8
:1042F300A3EFF090040FE0FCA3E0FDA3E0FEA3E036
:10430300FF90036E120B87121CBB7F007E807DBB68
:104313007C4690040FE0F8A3E0F9A3E0FAA3E0FBE6
:104323001201BEE4FBFA79C878421202C712042CC8
:10433300900409EEF0A3EFF07B017A0379FF7F0687
:034343001234A889
:014346002254
:10573B0090036C74FFF0A3745EF0A374A6F0900456
:10574B000FE0FCA3E0FDA3E0FEA3E0FF90036F12CC
:10575B000B877B017A037947121CB57B017A03799E
:0E576B00479003607410F07D02E4FF024D933E
:10527400253032642D253032642D253032642000EF
:10528400253032643A253032643A253032642000C5
:105294007765656B2D3E2025640A00253032642D28
:1052A400253032642D2530326400253032643A25AD
:0952B4003032643A253032640006
:04389A004103D60010
:1054200012002A9003D77407F0A374E9F0A374095B
:10543000F0A3741CF0A37402F0A37417F0A3743BE0
:10544000F0A37437F078477C037D017B017A037900
:10545000D77E007F0812072F123955E4FF125465DA
:05546000E4FF0254A965
:10499B009003D6E07003024A257B017A0379D71284
:1049AB003A5D7BFF7A5279749003D7E0FFA3E090D6
:1049BB00036CCFF0A3EFF09003D9E0FF90036EE40C
:1049CB00F0A3EFF09003DAE0FF900370E4F0A3EFB5
:1049DB00F0121CBB7BFF7A5279849003DCE0FF90D2
:1049EB00036CE4F0A3EFF09003DDE0FF90036EE4C3
:1049FB00F0A3EFF09003DEE0FF900370E4F0A3EF81
:104A0B00F0121CBB7BFF7A5279949003DBE0FF9092
:0B4A1B00036CE4F0A3EFF0121CBB22C0
:0665D5009003D6EFF02256
:10469E0090036C74FFF0A37452F0A3749FF0900318
:1046AE00D7E0FFA3E090036FCFF0A3EFF09003D914
:1046BE00E0FF900371E4F0A3EFF09003DAE0FF90D7
:1046CE000373E4F0A3EFF07B017A0379DF121CB5DC
:1046DE007B017A0379DF9003607410F07D02E4FFB2
:1046EE00124D9390036C74FFF0A37452F0A374AE4A
:1046FE00F09003DCE0FF90036FE4F0A3EFF0900383
:10470E00DDE0FF900371E4F0A3EFF09003DEE0FF35
:10471E00900373E4F0A3EFF07B017A0379DF121CB0
:10472E00B57B017A0379DF9003607410F07D04E4A9
:04473E00FF024D9396
:10389E00410468004804600102030405060708415C
:0338AE00045F00B4
:0365F90002660E29
:10613700900468E0601B90045FE0FD2460F582E452
:106147003404F583E0FF1262AF90045FE004540764
:01615700F057
:016158002224
:0E651800900468EFF07006FD7FFF124E6A22BD
:105DD3004448543131B6C1C8A1CAA7B0DC2C20B4A1
:105DE300EDCEF3C2EB3A2025640A00543A20252E67
:0E5DF300326600483A20252E31662025250014
:1038B10041046D004404690000000044046E0000EE
:0238C100000005
:0365FC0002661123
:0665DB0090046DEFF022B8
:105C4C0090046DE0602D90034A7401F0A37404F08D
:105C5C00A3746EF07B017A047969123D62EF6013D4
:105C6C007BFF7A5D79D33395E090036CF0A3EFF072
:035C7C00121CBB3C
:015C7F002202
:104BB00090036C74FFF0A3745DF0A374EEF09004A6
:104BC0006EE0FCA3E0FDA3E0FEA3E0FF90036F1204
:104BD0000B877B017A037947121CB57B017A037935
:104BE000479003607410F07D02E4FF124D93900330
:104BF0006C74FFF0A3745DF0A374F6F0900469E0A8
:104C0000FCA3E0FDA3E0FEA3E0FF90036F120B877F
:104C10007B017A037947121CB57B017A03794790AF
:0C4C200003607410F07D04E4FF024D936B
:1000460042757A7A65723A2025326400526F773AA1
:0D0056002025642C20436F6C3A20256400A7
:0438C30041041600A6
:0665E10012660B0265F3D7
:0665E700900416EFF02203
:0C655C00900416E0700312634F023B64D1
:0860320090034AEFF0A3EDF02A
:10603A00EF25E025E02D2408FFE433FE125D1690DB
:0F604A00034AE0900415F090034BE0900414F02B
:016059002224
:0B65800090034AEFF0A3EDF002634F20
:104AAE00900415E025E025E0FF900414E02FFF9020
:104ABE00036C74FFF0A37400F0A37446F0A3E4F04B
:104ACE00A3EFF07B017A047917121CB57B017A04EF
:104ADE0079179003607410F07D02E4FF124D9390ED
:104AEE00036C74FFF0A37400F0A37452F0900415DD
:104AFE00E0FF90036FE4F0A3EFF0900414E0FF905A
:104B0E000371E4F0A3EFF07B017A047917121CB560
:104B1E007B017A0479179003607410F07D04E4FF32
:034B2E00024D93A2
:10649E00496E697420436F6D706C657465210A00D6
:1062C700900348740CF09003477402F07B017A0343
:0762D70079477F03022D54FB
:105CE5009003477440F0A37401F0A3120B930001D5
:105CF500C20090034E7401F0E4A3F07B017A0379AE
:105D0500477F011215FD7D017F011256B953A23F50
:015D1500226B
:105D46009003497401F0900348F0E490034AF09000
:105D56000347740DF07B017A037947124C2CE4FB60
:0E5D6600FD7F01124F37E5BA54CF4430F5BA35
:015D7400220C
:105F8B00E4900347F0A304F0E4A3F0A374A2F0A3FE
:105F9B007440F090034D7401F0FB7A037947E4FFF2
:0A5FAB00122AEDE4FD7F0102557497
:1060820043BA801262C7125D46125CE5125F8BD280
:10609200AF1260F17BFF7A64799E121CBB7FC8123B
:0760A20064AE12455280FBC1
:1038C7004402D400000000606E02D800000000002F
:1038D70000000AFF00960000000000000064FF4E91
:1038E7000300000000000000C8FF60CE00000000D9
:1038F70000000064FF43F70000000000000064FFC1
:103907004ED100000000000000C8FF428300000005
:1039170000000003E8FF499B0000000000000003CF
:10392700FF613700000000000003E8FF5C4C000067
:0D39370000000000000AFF655C4103460A25
:1060F10012008E1265C312009E12648E12647E120B
:1061010065421254201265F91265FC1265E17F01A6
:0361110002000E7B
:1061BF009002D4E0FCA3E0FDA3E0FEA3E02401FFE6
:0F61CF00E43EFEE43DFDE43CFC9002D4020B876D
:10455200E4900347F0F0900346E0FF900347E0C386
:064562009F40030245F832
:10456800E075F00BA424D8F9740235F0FA7B01A3A6
:10457800EBF0A3EAF0A3E9F0900004120AEDC004FE
:10458800C005C006900348E0FBA3E0FAA3E0F912D7
:104598000B379002D4E0FCA3E0FDA3E0FEA3E0C348
:1045A8009BFBEE9AFAED99F9EC98F8D006D005D075
:1045B80004C3120A9640309002D4E0FCA3E0FDA3A5
:1045C800E0FEA3E0FF900348E0FBA3E0FAA3E0F9D4
:1045D800120B1D900348E0FBA3E0FAA3E0F990005A
:0745E80008120BF0120C8019
:0945EF00900347E004F002455876
:0145F80022A0
:1015FD00900351EBF0A3EAF0A3E9F0900350EFF064
:10160D00640160030217DB900000F0A3F0A3F0A3C8
:10161D00F0A3F0900354F0A3F0900354E0FEA3E088
:10162D00FFC39480EE9400501C74542FF582740106
:10163D003EF583E4F0900355E004F070DC90035424
:10164D00E004F080D4E4900354F0A3F0900354E050
:10165D00FEA3E0FFC39480EE9400501C74142FF58C
:10166D008274003EF583E4F0900355E004F070DCE5
:10167D00900354E004F080D4900351E0FBA3E0FA12
:10168D00A3E0F9120777FFE598543F4FF598EF6403
:10169D00C06008EF64406003021786900002120BD1
:1016AD00577F807E8D7D5B7C001209E99003561279
:1016BD000B87E4FFFE7D01FC900356E0F8A3E0F9F3
:1016CD00A3E0FAA3E0FBC3120A9640037FFF22902A
:1016DD000356E0F8A3E0F9A3E0FAA3E0FBC3E49B13
:1016ED00FFE49AFE740199FDE498FC900356120BE9
:1016FD0087900351E0FBA3E0FAA3E0F990000112FB
:10170D000790FB64017038C28E538EFE5389BF5310
:10171D0089CF438E40900356E0FCA3E0FDA3E0FE8D
:10172D00A3E0FF7808120AA78F8D900356A3A3A3F9
:10173D00E0F58BC2AB5389BF538FFDD28E8073EB17
:10174D0064027032538EEF438E01538EF7438E0435
:10175D00900356E0FCA3E0FDA3E0FEA3E0FF7808B4
:10176D00120AA78FD6900356A3A3A3E0F5D753AFC4
:10177D00FB438E10803C7FFF22900351E0FBA3E0E2
:10178D00FAA3E0F9120777FF701390000812079083
:10179D00B40105438E20801A538EDF8015EFB4807F
:1017AD0011900008120790B4010543878080035300
:1017BD00877F900351E0FBA3E0FAA3E0F9900007C7
:1017CD001207907004C29C8002D29C7F002290036D
:1017DD0050E064026003021925900005F0A3F0A308
:1017ED00F0A3F0A3F0900354F0A3F0900354E0FEA7
:1017FD00A3E0FFC39480EE9400501C74F42FF58287
:10180D0074013EF583E4F0900355E004F070DC9034
:10181D000354E004F080D4E4900354F0A3F090035B
:10182D0054E0FEA3E0FFC39480EE9400501C74942A
:10183D002FF58274003EF583E4F0900355E004F03B
:10184D0070DC900354E004F080D4900351E0FBA3CE
:10185D00E0FAA3E0F9120777FF64C06008EF644077
:10186D006003021903EFB4C005439A808003539AB5
:10187D007F900002120B577F807E8D7D5B7C001266
:10188D0009E9900356120B87E4FFFE7D01FC9003DE
:10189D0056E0F8A3E0F9A3E0FAA3E0FBC3120A9621
:1018AD0040037FFF22900356E0F8A3E0F9A3E0FA8E
:1018BD00A3E0FBC3E49BFFE49AFE740199FDE49859
:1018CD00FC900356120B87538EEF538EF7438E0405
:1018DD00900356E0FCA3E0FDA3E0FEA3E0FF780833
:1018ED00120AA78FD6900356A3A3A3E0F5D753AF43
:1018FD00FB438E1080037FFF22900351E0FBA3E09A
:10190D00FAA3E0F9900007120790C454F0FFE59A8E
:10191D0054EF4FF59A7F0022900350E0640360036B
:10192D00021AB990000AF0A3F0A3F0A3F0A3F0906F
:10193D000354F0A3F0900354E0FEA3E0FFC39440E2
:10194D00EE9400501C74742FF58274023EF583E4FE
:10195D00F0900355E004F070DC900354E004F08047
:10196D00D4E4900354F0A3F0900354E0FEA3E0FF01
:10197D00C39440EE9400501C74142FF58274013EF4
:10198D00F583E4F0900355E004F070DC900354E02F
:10199D0004F080D4900351E0FBA3E0FAA3E0F91228
:1019AD000777FF64C06008EF64406003021A97EF89
:1019BD00B4C00543AC80800353AC7F900002120B82
:1019CD00577F807E8D7D5B7C001209E99003561256
:1019DD000B87E4FFFE7D01FC900356E0F8A3E0F9D0
:1019ED00A3E0FAA3E0FBC3120A9640037FFF229007
:1019FD000356E0F8A3E0F9A3E0FAA3E0FBC3E49BF0
:101A0D00FFE49AFE740199FDE498FC900356120BC5
:101A1D0087900351E0FBA3E0FAA3E0F990000112D7
:101A2D000790FB6403702943AC40900356E0FCA380
:101A3D00E0FDA3E0FEA3E0FF7808120AA78FD49083
:101A4D000356A3A3A3E0F5D553D1F043D10A803DAE
:101A5D00EB64027032538EEF53ACBF538EF7438E4F
:101A6D0004900356E0FCA3E0FDA3E0FEA3E0FF78A5
:101A7D0008120AA78FD6900356A3A3A3E0F5D75358
:101A8D00AFFB438E1080067FFF227FFF2290035114
:101A9D00E0FBA3E0FAA3E0F9900007120790C4540D
:101AAD00F0FFE5AC54EF4FF5AC7F0022900350E012
:101ABD0064046003021C4D90000FF0A3F0A3F0A38B
:101ACD00F0A3F0900354F0A3F0900354E0FEA3E0D4
:101ADD00FFC39420EE9400501C74B42FF582740251
:101AED003EF583E4F0900355E004F070DC90035470
:101AFD00E004F080D4E4900354F0A3F0900354E09C
:101B0D00FEA3E0FFC39420EE9400501C74D42FF577
:101B1D008274013EF583E4F0900355E004F070DC2F
:101B2D00900354E004F080D4900351E0FBA3E0FA5D
:101B3D00A3E0F9120777FF64C06008EF644060030B
:101B4D00021C2BEFB4C005438480800353847F9027
:101B5D000002120B577F807E8D7D5B7C001209E9A0
:101B6D00900356120B87E4FFFE7D01FC900356E0B7
:101B7D00F8A3E0F9A3E0FAA3E0FBC3120A96400331
:101B8D007FFF22900356E0F8A3E0F9A3E0FAA3E06B
:101B9D00FBC3E49BFFE49AFE740199FDE498FC906D
:101BAD000356120B87900351E0FBA3E0FAA3E0F973
:101BBD00900001120790FB64047029438440900348
:101BCD0056E0FCA3E0FDA3E0FEA3E0FF7808120AB7
:101BDD00A78FD2900356A3A3A3E0F5D353D10F4300
:101BED00D1A0803DEB64027032538EEF5384BF530E
:101BFD008EF7438E04900356E0FCA3E0FDA3E0FEB8
:101C0D00A3E0FF7808120AA78FD6900356A3A3A3CB
:101C1D00E0F5D753AFFB438E1080067FFF227FFF89
:101C2D0022900351E0FBA3E0FAA3E0F99000071224
:101C3D000790C454F0FFE58454EF4FF5847F0022E4
:021C4D007FFF17
:011C4F002272
:0F64BE008F999000027401F0900002E070FA22B2
:10640F00120777FF600C1264BE740129F9E43AFA9F
:03641F0080EE22EA
:0F64CD008F9B9000077401F0900007E070FA2297
:10642200120777FF600C1264CD740129F9E43AFA7D
:0364320080EE22D7
:0F64DC008FAD90000C7401F090000CE070FA226C
:10643500120777FF600C1264DC740129F9E43AFA5B
:0364450080EE22C4
:0F64EB008F859000117401F0900011E070FA227B
:10644800120777FF600C1264EB740129F9E43AFA39
:0364580080EE22B1
:05001E00AE070264BE04
:03002300025193F4
:10519300C0E0C083C082C0D075D000C0073098275C
:1051A300C298900003E0C394804002E4F0900003AF
:1051B300E0FF04F074142FF582E43400F583E599DD
:1051C300F09000047405F0309907C299900002E44E
:0C51D300F0D007D0D0D082D083D0E032E2
:0300430002509DCB
:10509D00C0E0C083C082C0D075D000C007E59A3093
:1050AD00E028539AFE900008E0C394804002E4F09B
:1050BD00900008E0FF04F074942FF582E43400F5BD
:1050CD0083E59BF09000097405F0E59A30E10853F3
:1050DD009AFD900007E4F0D007D0D0D082D083D0D5
:0250ED00E032AF
:03008B000250EF31
:1050EF00C0E0C083C082C0D075D000C007E5AC302F
:1050FF00E02853ACFE90000DE0C394404002E4F072
:10510F0090000DE0FF04F074142FF582E43401F5E4
:10511F0083E5ADF090000E7405F0E5AC30E1085377
:10512F00ACFD90000CE4F0D007D0D0D082D083D06B
:02513F00E0325C
:03009300025141D6
:10514100C0E0C083C082C0D075D000C007E5843004
:10515100E0285384FE900012E0C394204002E4F062
:10516100900012E0FF04F074D42FF582E43401F5CD
:1051710083E585F09000137405F0E58430E1085370
:1051810084FD900011E4F0D007D0D0D082D083D03C
:02519100E0320A
:102D5400EFD3940740037FFF22120777FED3940337
:102D640040037FFF22EF7041EE700B9000011207C9
:102D740090F452935294120777B4010B900001120D
:102D840007904293F45294120777FEB4020A90001B
:102D94000112079042934294EEB4030D9000011285
:102DA4000790FEF45293EE4294EF640170431207CD
:102DB40077FE700B900001120790F452915292EE3C
:102DC400B4010B9000011207904291F45292120741
:102DD40077B4020A900001120790429142921207BE
:102DE40077B4030D900001120790FEF45291EE4265
:102DF40092EF64027043120777FE700B9000011289
:102E04000790F452955296EEB4010B90000112070C
:102E1400904295F45296120777B4020A9000011278
:102E2400079042954296120777B4030D9000011261
:102E34000790FEF45295EE4296EF64037043120736
:102E440077FE700B900001120790F452B152B2EE6B
:102E5400B4010B90000112079042B1F452B2120770
:102E640077B4020A90000112079042B142B21207ED
:102E740077B4030D900001120790FEF452B1EE42B4
:102E8400B2EF64047043120777FE700B90000112D6
:102E94000790F452B352B4EEB4010B900001120740
:102EA4009042B3F452B4120777B4020A90000112AC
:102EB400079042B342B4120777B4030D9000011295
:102EC4000790FEF452B3EE42B4EF64057043120768
:102ED40077FE700B900001120790F452C952CAEEAB
:102EE400B4010B90000112079042C9F452CA1207B0
:102EF40077B4020A90000112079042C942CA12072D
:102F040077B4030D900001120790FEF452C9EE420B
:102F1400CAEF64067043120777FE700B900001122B
:102F24000790F452CB52CCEEB4010B90000112077F
:102F34009042CBF452CC120777B4020A90000112EB
:102F4400079042CB42CC120777B4030D90000112D4
:102F54000790FEF452CBEE42CCEF640770431207A5
:102F640077FF700B900001120790F452E152E2EFE8
:102F7400B4010B90000112079042E1F452E21207EF
:102F840077B4020A90000112079042E142E212076C
:102F940077B4030D900001120790FFF452E1EF4261
:042FA400E27F0022A6
:0F64AE007D607C09ED1D70011C144C70F7DFF14F
:0164BD0022BC
:10557400EFD3940140037FFF22EDD3940340037FD4
:10558400FF22EF7004C2A98002D2A9ED700553B7BF
:10559400FDC2B9EDB4010553B7FDD2B9EDB40205AE
:1055A40043B702C2B9EDB4030543B702D2B97F00D1
:0155B40022D4
:1055B500EFD3940140037FFF22EDD3940340037F93
:1055C500FF22EF7004C2AB8002D2ABED700553B77A
:1055D500F7C2BBEDB4010553B7F7D2BBEDB4020575
:1055E50043B708C2BBEDB4030543B708D2BB7F0080
:0155F5002293
:10615900EFD3940140037FFF22EDD3940340037FE3
:10616900FF22EF25E025E0FFE5AF54FB4FF5AFE453
:02617900FF2203
:10617B00EFD3940140037FFF22EDD3940340037FC1
:10618B00FF22EFC43354E0FFE5AF54DF4FF5AFE42C
:02619B00FF22E1
:10611400EFD3940140037FFF22EDD3940340037F28
:10612400FF22EFC4333354C0FFE5AF54BF4FF5AF84
:03613400E4FF2263
:1055F600EFD3940140037FFF22EDD3940340037F52
:10560600FF22EF7004C2A88002D2A8ED700553B73E
:10561600FEC2B8EDB4010553B7FED2B8EDB402052B
:1056260043B701C2B8EDB4030543B701D2B87F0052
:015636002251
:10563700EFD3940140037FFF22EDD3940340037F10
:10564700FF22EF7004C2AA8002D2AAED700553B7F9
:10565700FBC2BAEDB4010553B7FBD2BAEDB40205EC
:1056670043B704C2BAEDB4030543B704D2BA7F0007
:015677002210
:10629700EFD3940140037FFF22EFC454F0FFE58F53
:0862A70054EF4FF58FE4FF22D4
:10626500EFD3940140037FFF22EFC43354E0FFE5F1
:096275008F54DF4FF58FE4FF2286
:10621800EFD3940140037FFF22EFC4333354C0FF10
:0A622800E58F54BF4FF58FE4FF220D
:10567800EFD3940140037FFF22EDD3940340037FCF
:10568800FF22EF7004C2AD8002D2ADED700553B7B2
:10569800DFC2BDEDB4010553B7DFD2BDEDB40205DD
:1056A80043B720C2BDEDB4030543B720D2BD7F0088
:0156B80022CF
:1051DF00EDD3940340037FFF22EF30E10543E62038
:1051EF00800353E6DFEF30E00543E610800353E61C
:1051FF00EFED700653B6DF53B5DFEDB4010653B6CE
:10520F00DF43B520EDB4020643B62053B5DFEDB44E
:0B521F00030643B62043B5207F0022A9
:104F3700EFD3940140037FFF22EBD3940340037F19
:104F4700FF22EFB40112ED90FE817006E0547FF06E
:104F57008011E04480F0800BEF700890FE83E054EE
:104F6700874DF0EB700653B6DF53B5DFEBB40106A0
:104F770053B6DF43B520EBB4020643B62053B5DF83
:0D4F8700EBB4030643B62043B5207F0022A3
:1056B900EFD3940140037FFF22EDD3940340037F8E
:1056C900FF22EF7004C2AC8002D2ACED700553B773
:1056D900EFC2BCEDB4010553B7EFD2BCEDB402057E
:1056E90043B710C2BCEDB4030543B710D2BC7F0069
:0156F900228E
:10553100EFD3940140037FFF22EDD3940340037F17
:10554100FF22E5AF54FE4FF5AFED700653B6FE53A3
:10555100B5FEEDB4010653B6FE43B501EDB4020646
:1055610043B60153B5FEEDB4030643B60143B5019D
:035571007F002296
:10522A00EFD3940140037FFF22EDD3940340037F21
:10523A00FF22EF33333354F8FFE5AF54F74FF5AF9E
:10524A00ED700653EEFE53DFFEEDB4010653EEFE9B
:10525A0043DF01EDB4020643EE0153DFFEEDB40372
:0A526A000643EE0143DF017F00223E
:10530600EFD3940140037FFF22EDD3940340037F44
:10531600FF22EFC454F0FFE5AF54EF4FF5AFED7049
:105326000653EEFD53DFFDEDB4010653EEFD43DFFC
:1053360002EDB4020643EE0253DFFDEDB40306436D
:08534600EE0243DF027F0022AA
:10534E00EFD3940140037FFF22EDD3940340037FFC
:10535E00FF22EF25E0FFE5AF54FD4FF5AFED7006F0
:10536E0053B6FD53B5FDEDB4010653B6FD43B5027C
:10537E00EDB4020643B60253B5FDEDB4030643B6D3
:07538E000243B5027F00227B
:104B3100EFD3948140037FFF22EBD3940340037FA3
:104B4100FF22EF247F603204705D90FEC4EDF0EB34
:104B5100700653B6FB53B5FBEBB4010653B6FB43EA
:104B6100B504EBB4020643B60453B5FBEB64037022
:104B71003B43B60443B504803390FEE4EDF0EB70A3
:104B81000653B6F753B5F7EBB4010653B6F743B581
:104B910008EBB4020643B60853B5F7EBB4030D4373
:0F4BA100B60843B508800590FEE4EDF07F0022D2
:1057B400EDD394035029ED700653EEFB53DFFBED5C
:1057C400B4010653EEFB43DF04EDB4020643EE04DA
:1057D40053DFFBEDB4030B43EE0443DF0480037F8C
:0A57E400FF2290FE62EFF07F00222A
:1058990090FA10E054F0F0EDD39403500BE0FEEDD4
:1058A90025E025E0FDEE4DF0EBD39403500690FA88
:1058B90010E04BF0EF90FA10B40106E04480F0805C
:0858C90004E0547FF07F00228F
:1058D10090FA00E054F0F0EDD39403500BE0FEEDAC
:1058E10025E025E0FDEE4DF0EBD39403500690FA50
:1058F10000E04BF0EF90FA00B40106E04480F08044
:0859010004E0547FF07F002256
:1059090090FA20E054F0F0EDD39403500BE0FEED53
:1059190025E025E0FDEE4DF0EBD39403500690FA17
:1059290020E04BF0EF90FA20B40106E04480F080CB
:0859390004E0547FF07F00221E
:1059410090FA30E054F0F0EDD39403500BE0FEED0B
:1059510025E025E0FDEE4DF0EBD39403500690FADF
:1059610030E04BF0EF90FA30B40106E04480F08073
:0859710004E0547FF07F0022E6
:1059790090FA38E054F0F0EDD39403500BE0FEEDCB
:1059890025E025E0FDEE4DF0EBD39403500690FAA7
:1059990038E04BF0EF90FA38B40106E04480F0802B
:0859A90004E0547FF07F0022AE
:1059B10090FA40E054F0F0EDD39403500BE0FEED8B
:1059C10025E025E0FDEE4DF0EBD39403500690FA6F
:1059D10040E04BF0EF90FA40B40106E04480F080E3
:0859E10004E0547FF07F002276
:1059E90090FA48E054F0F0EDD39403500BE0FEED4B
:1059F90025E025E0FDEE4DF0EBD39403500690FA37
:105A090048E04BF0EF90FA48B40106E04480F0809A
:085A190004E0547FF07F00223D
:105A210090FA50E054F0F0EDD39403500BE0FEED0A
:105A310025E025E0FDEE4DF0EBD39403500690FAFE
:105A410050E04BF0EF90FA50B40106E04480F08052
:085A510004E0547FF07F002205
:105A590090FA58E054F0F0EDD39403500BE0FEEDCA
:105A690025E025E0FDEE4DF0EBD39403500690FAC6
:105A790058E04BF0EF90FA58B40106E04480F0800A
:085A890004E0547FF07F0022CD
:105A910090FA60E054F0F0EDD39403500BE0FEED8A
:105AA10025E025E0FDEE4DF0EBD39403500690FA8E
:105AB10060E04BF0EF90FA60B40106E04480F080C2
:085AC10004E0547FF07F002295
:105AC90090FA68E054F0F0EDD39403500BE0FEED4A
:105AD90025E025E0FDEE4DF0EBD39403500690FA56
:105AE90068E04BF0EF90FA68B40106E04480F0807A
:085AF90004E0547FF07F00225D
:105B010090FA70E054F0F0EDD39403500BE0FEED09
:105B110025E025E0FDEE4DF0EBD39403500690FA1D
:105B210070E04BF0EF90FA70B40106E04480F08031
:085B310004E0547FF07F002224
:105EDF0090FE50E054CFF0EDD39403500AE0FEED66
:105EEF00C454F0FDEE4DF0EF90FE50B40106E044C7
:0B5EFF0080F08004E0547FF07F002260
:1020D300AD07ED6401707A90FECCE054FEF0E0545D
:1020E300FBF090FEC8E054FCF0120777FF90FEC8A7
:1020F300E0548F4FF0900006120790FF90FECC3013
:10210300E00DE04401F090FEB1E04401F0800BE00B
:1021130054FEF090FEB1E054FEF0EF90FECC30E1BF
:102123000DE04404F090FEB1E04402F0800BE05473
:10213300FBF090FEB1E054FDF09000031208CFE5F0
:10214300F090FED5F09000031208CF90FED6022443
:102153008DED6402707A90FECCE054EFF0E054BF52
:10216300F090FEC9E054FCF0120777FF90FEC9E03F
:10217300548F4FF0900006120790FF90FECC30E290
:102183000DE04410F090FEB1E04404F0800BE05405
:10219300EFF090FEB1E054FBF0EF90FECC30E30D96
:1021A300E04440F090FEB1E04408F0800BE054BFFF
:1021B300F090FEB1E054F7F09000031208CFE5F081
:1021C30090FED7F09000031208CF90FED802248D22
:1021D300ED6403707A90FECDE054FEF0E054FBF022
:1021E30090FECAE054FCF0120777FF90FECAE05459
:1021F3008F4FF0900006120790FF90FECD30E40D54
:10220300E04401F090FEB1E04410F0800BE054FE96
:10221300F090FEB1E054EFF0EF90FECD30E50DE02D
:102223004404F090FEB1E04420F0800BE054FBF056
:1022330090FEB1E054DFF09000031208CFE5F09078
:10224300FED9F09000031208CF90FEDA02248DED40
:102253006404707A90FECDE054EFF0E054BFF09048
:10226300FECBE054FCF0120777FF90FECBE0548FD7
:102273004FF0900006120790FF90FECD30E60DE080
:102283004410F090FEB1E04440F0800BE054EFF0D6
:1022930090FEB1E054BFF0EF90FECD30E70DE04487
:1022A30040F090FEB1E04480F0800BE054BFF0902A
:1022B300FEB1E0547FF09000031208CFE5F090FEEA
:1022C300DBF09000031208CF90FEDC02248DED6456
:1022D30080704F90000512079090FEDEF090000191
:1022E3001208CFE5F090FED2F09000011208CF90D3
:1022F300FED3F090000812079090FEDDB40106E0D3
:102303004480F08004E0547FF0900007120790901F
:10231300FEC0B40106E04401F08004E054FEF07F07
:102323000022ED6405705690FEECE054FEF090FE42
:10233300E8E054FCF0120777FF90FEE8E0548F4F7B
:10234300F090000612079090FEEC30E00DE044019F
:10235300F090FEB5E04401F0800BE054FEF090FEF7
:10236300B5E054FEF09000031208CFE5F090FEF5BF
:10237300F09000031208CF90FEF602248DED640660
:10238300705690FEECE054EFF090FEE9E054FCF060
:10239300120777FF90FEE9E0548F4FF0900006128A
:1023A300079090FEEC30E20DE04410F090FEB5E0B3
:1023B3004404F0800BE054EFF090FEB5E054FBF0E2
:1023C3009000031208CFE5F090FEF7F0900003129F
:1023D30008CF90FEF802248DED6407705590FEED52
:1023E300E054FEF090FEEAE054FCF0120777FF9011
:1023F300FEEAE0548F4FF090000612079090FEED36
:1024030030E40DE04401F090FEB5E04410F0800BA1
:10241300E054FEF090FEB5E054EFF0900003120894
:10242300CFE5F090FEF9F09000031208CF90FEFA8A
:102433008058ED6408705790FEEDE054EFF090FE85
:10244300EBE054FCF0120777FF90FEEBE0548F4F64
:10245300F090000612079090FEED30E60DE0441078
:10246300F090FEB5E04440F0800BE054EFF090FEB6
:10247300B5E054BFF09000031208CFE5F090FEFBE7
:10248300F09000031208CF90FEFCF07F0022ED6471
:1024930081704C90000512079090FEFEF0900001B1
:1024A3001208CFFDACF0EC90FEF2F0AF05A3EFF015
:1024B30090000812079090FEFDB40106E04480F0FE
:1024C3008004E0547FF090000712079090FEE0B480
:1024D3000106E04401F08004E054FEF07F00227F17
:0224E300FF22D6
:1034A800EF248070030235631470030235A824806A
:1034B800B4080040030235F49034CE75F003A4C577
:1034C8008325F0C583730234E60234F30235030220
:1034D80035130235230235330235430235531208BA
:1034E800A4FDACF0EC90FED50235EE900002120877
:1034F800CFFDACF0EC90FED70235EE900004120838
:10350800CFFDACF0EC90FED90235EE900006120823
:10351800CFFDACF0EC90FEDB0235EE90000812080F
:10352800CFFDACF0EC90FEF50235EE90000A1208E3
:10353800CFFDACF0EC90FEF70235EE90000C1208CF
:10354800CFFDACF0EC90FEF90235EE90000E1208BB
:10355800CFFDACF0EC90FEFB0235EE1208A4FDACFA
:10356800F0EC90FED5F0AF05A3EFF0900002120842
:10357800CFFDACF0EC90FED7F0AF05A3EFF09000D4
:10358800041208CFFDACF0EC90FED9F0AF05A3EF24
:10359800F09000061208CFFDACF0EC90FEDB804600
:1035A8009000081208CFFDACF0EC90FEF5F0AF05E6
:1035B800A3EFF090000A1208CFFDACF0EC90FEF7F4
:1035C800F0AF05A3EFF090000C1208CFFDACF0ECC3
:1035D80090FEF9F0AF05A3EFF090000E1208CFFDB2
:0D35E800ACF0EC90FEFBF0AF05A3EFF0227D
:102AED00AD07ED7079C28C120777FED394034003C6
:102AFD007FFF22E58954FC4EF58990000112079065
:102B0D00FED3940240037FFF22EE7006538E7F5357
:102B1D0089FB900001120790B40106438E80538902
:102B2D00FB900001120790B4020343890490000248
:102B3D00120790FFE58F54FE4FF58F90000312089A
:102B4D00CFE5F0F58C9000031208CFF58A900006C2
:102B5D001207907004C28C8002D28C7F0022ED642B
:102B6D00016003022BF3C28E120777FED39403404C
:102B7D00037FFF22EEC454F0FFE58954CF4FF58952
:102B8D00900001120790FED3940240037FFF22EEC6
:102B9D007006538EBF5389BF900001120790B40188
:102BAD0006438E405389BF900001120790B4020373
:102BBD0043894090000212079025E0FFE58F54FDF8
:102BCD004FF58F9000031208CFE5F0F58D900003BF
:102BDD001208CFF58B9000061207907004C28E80FC
:102BED0002D28E7F0022ED64027065538EEF90004D
:102BFD0001120790FF7006538EFB538EF7EFB40151
:102C0D0006438E04538EF7EFB40203438E089000F3
:102C1D000212079025E025E0FFE58F54FB4FF58F5D
:102C2D009000031208CFE5F0F5D69000031208CFFF
:102C3D00F5D790000512079090FEA2F090000612B5
:102C4D000790C454F0FFE58E54EF4FF58E7F0022B0
:102C5D00ED6403707253D1F7900001120790FED30B
:102C6D00940240037FFF22EE700653D1FD53D1FB3A
:102C7D00900001120790B4010643D10253D1FB908D
:102C8D000001120790B4020343D104900002120711
:102C9D0090FFE5D154FE4FF5D19000031208CFE51A
:102CAD00F0F5D49000031208CFF5D590000512076A
:102CBD009090FEA3F090000612079033333354F832
:102CCD00FFE5D154F78077ED6404707853D17F9090
:102CDD000001120790FED3940240037FFF22EE7095
:102CED000653D1DF53D1BF900001120790B40106F6
:102CFD0043D12053D1BF900001120790B40203437A
:102D0D00D140900002120790C454F0FFE5D154EF6A
:102D1D004FF5D19000031208CFFDACF0ECF5D2AF1A
:102D2D00058FD390000512079090FEA4F090000639
:102D3D00120790C43333335480FFE5D1547F4FF5E0
:072D4D00D17F00227FFF226D
:03000B0002577920
:10577900C0E0C0F0C083C082C0D075D000C000C0F6
:1057890001C002C003C004C005C006C0071261BF42
:10579900D007D006D005D004D003D002D001D00064
:0B57A900D0D0D082D083D0F0D0E0320E
:03001B000265FF7C
:0365FF00B2EE32C7
:0300630002660230
:03660200B2ED32C4
:03009B00026605F5
:03660500B2EC32C2
:0300A300026608EA
:03660800B2EB32C0
:10504800900001120790FFE5DE54F04FF5DE900066
:1050580002120790C43354E0FFE5DE54DF4FF5DE5B
:10506800120777FFD3941F502B900003120790FE6E
:10507800D39401501F900004120790FDD39403505D
:1050880013EDC43354E0FDEEC433333354804D4F35
:0550980090FEA8F022CB
:0C656800EFB4010443BC802253BC7F222E
:104CA800EFD3940F4002806BE4F5BDF5BEE5BC542C
:104CB800F044404FF5BC0000000000000000000078
:104CC800E4FDE5BC30E54753BCDFE5DEAFBD30E5CC
:104CD8000DEFFEACBEECFBEBFF90034F8022900380
:104CE8004FE4F0A3EFF0E5BEC4540FFBE0C4F85462
:104CF8000FC868FF90034FE0C454F048FEEF4BFF25
:104D0800EEF0A3EFF090034FE0FEA3E0FF220DEDDD
:074D1800B4FAAF7E107F002A
:014D1F002271
:03002B00020026AA
:0400260053BCDF32B6
:104C2C009000021207906401702A90FE80E04440CC
:104C3C00F090FE82E4F0120777543FFF90FE80E084
:104C4C0054C04FF090000312079090FE88B40102FC
:104C5C008031802990FE80E054BFF090FE84E4F017
:104C6C0090000412079025E0FF90FE85E054014F60
:104C7C00F090000512079090FE85B40106E054FEFA
:104C8C00F08004E04401F090000112079090FE8047
:0C4C9C007005E0547FF022E04480F0221C
:0865A60090FE82E05480FF2208
:0C65740090FE82E030E6F9E054BFF02217
:0965940090FE817401F0026574AF
:0E65260090FE86EFF090FE817402F002657424
:0E62DE001265941265261262ECAF0512652659
:0962EC0090FE817403F002657458
:0F64FA0090FE817404F012657490FE87E0FF221B
:0E65340090FE82E4F090FE817405F002657422
:0F65090090FE827401F090FE817405F0026574BB
:09659D0090FE817406F0026574A1
:0D654F0090FE86EDF090FE81EFF002657485
:105C8000900370EBF0A3EAF0A3E9F01262DE900358
:105C900070E0FBA3E475F00112088EA9F0FA120778
:105CA00077FF1265261262EC900373E014F070DE49
:035CB00002659DED
:10586000AE071262DE126594EE4401FF1265261245
:1058700062EC1264FAEF1207BD740129F9E43AFAF6
:10588000900357E064016003126534900357E014FD
:09589000F070DF12650902659D4C
:0300C300024347AE
:10434700C0E0C083C082C0D075D000C006C007904F
:10435700FE84E030E607E054BFF00243EA90FE84B3
:10436700E030E53BE054DFF09004A2E06004E4F0C5
:1043770080719004A1E0600DE4F090FE87E0900466
:10438700A3F0E0803790FE87E0FF9004A3E0FE04EF
:10439700F074722EF582E43404F583EFF0804490D4
:1043A700FE84E030E426E054EFF0E030E10890FED0
:1043B7008674FFF0802D9004A3E004F02472F58248
:1043C700E43404F583E090FE86F0801790FE84E0E5
:1043D70030E310E054F7F09004A27401F09004A1C8
:1043E700F0D209D007D006D0D0D082D083D0E03227
:053944004204A6FFFF94
:10605A00EF7003C38001D392B4EFB40103C380018C
:10606A00D392B5EFB40203C38001D392C0EFB40355
:08607A0003C38001D392C1228F
:1060A900EF7005A28333FF22EFB40104A286800EAC
:1060B900EFB40204A2878006EFB40306A297E43383
:0560C900FF227F01220F
:10627E0053933753943753917F53927F53B1CF53E8
:09628E00B2CF53B3FC53B4FC225F
:03660B0002627EAA
:103B6400E4900347F0A3F0A3F0900347F0900347D9
:103B7400E0FFC394044003023C6512605A00E4A3CE
:103B8400F0900348E0FDC394044003023C5C9003BE
:103B940047E025E025E0FEED2E900349F0AF051245
:103BA40060A9EF70517F01FEFDFCE0F9F8120ABA3A
:103BB400A804A905AA06AB079004A6E0FEA3E0FFAB
:103BC400E4FCFDEB5FFFEA5EFEEE4F6029900347E5
:103BD400E0FFA3E0FD126032E47F01FEFDFC9003F0
:103BE40049E0F9F8120ABA120A7B9004A6E05EF0E2
:103BF400A3E05FF08059900348E0FF1260A9EF64EE
:103C040001704C7F01FEFDFCA3E0F9F8120ABAA88A
:103C140004A905AA06AB079004A6E0FEA3E0FFE40E
:103C2400FCEB5FFFEA5EFEEE4F7024900347E0FF7B
:103C3400A3E0FD126580E47F01FEFDFC900349E0F2
:103C4400F9F8120ABA9004A6E04EF0A3E04FF090FF
:103C54000348E004F0023B85900347E004F0023B94
:013C640071EE
:013C6500223C
:10333E00E3F2D8A8CDDAC380B99BB029A7259E8D1C
:10334E00965C8E9087258017796373046CF8673BC3
:10335E0061CA5CA157BC53194EB44A8B469B42E0DE
:10336E003F583C0138D735D9330530582DD02B6A0C
:10337E002927270224FC231121411F8B1DEC1C63DE
:10338E001AF019911844170A15E114C713BD12C18A
:10339E0011D210F0101A0F500E900DDA0D2E0C8B5C
:1033AE000BF10B5E0AD30A4F09D3095C08EC0881B6
:1033BE00081C07BA0761070A06B8066A062005D96F
:1033CE0005960556051A04E004A904750444041470
:1033DE0003E803BD0394036D03480325030302E3CF
:1033EE0002C502A7028C0271025802400228021284
:1033FE0001FD01E901D601C401B201A101910182D1
:10340E00017301660158014B013E01320127011C77
:10341E000112010800FE00F500EC00E400DC00D40F
:10342E0000CD00C600BF00B800B200AC00A600A0E0
:10343E00009B00960091008C00870083007E007A2E
:10344E0000760073006F006B006800650061005E1F
:10345E00005B0059005600530051004E004C004ACC
:10346E000047004500430041003F003D003C003A4C
:10347E00003800370035003400320031002F002EA6
:10348E00002D002B002A00290028002700260025E9
:0A349E00002400230022002100207A
:106323009003487410F09003477401F0FB7A0379EB
:0663330047E4FF022D54B7
:105F0A00900347741FF0E490034AF0A304F090034F
:105F1A0048740FF0A37401F0FB7A037947125048D2
:0B5F2A007F01126568E4FDFF0256785D
:0665ED00126323025F0AA5
:062FA80090034F120B879D
:102FAE00E4900355F0A3F090333E93FC740193FD2F
:102FBE00E41203F3A804A905AA06AB0790034FE099
:102FCE00FCA3E0FDA3E0FEA3E0FF1200C9E4FBFAC0
:102FDE00F9F8120364502990333EE493FC74019384
:102FEE00FDE41203F3A804A905AA06AB0790034F4C
:102FFE00E0FCA3E0FDA3E0FEA3E0FF1200C9802ADF
:10300E0090333EE493FC740193FDE41203F3A804A1
:10301E00A905AA06AB0790034FE0FCA3E0FDA3E0D1
:10302E00FEA3E0FF1200C91203DD900357120B87B7
:10303E0090035BE4F0A374B5F0900353E4F0A304A3
:10304E00F090035BE0FEA3E0FF900353E0FCA3E0EF
:10305E00FDC39FEE6480F8EC6480984003023181DA
:10306E00ED25E0FFEC33FE743E2FF58274333EF512
:10307E0083E493FC740193FDE41203F3A804A90501
:10308E00AA06AB0790034FE0FCA3E0FDA3E0FEA36E
:10309E00E0FF1200C9E4FBFAF9F8120364503D9008
:1030AE000354E025E0FF900353E033FE743E2FF50A
:1030BE008274333EF583E493FC740193FDE41203B2
:1030CE00F3A804A905AA06AB0790034FE0FCA3E002
:1030DE00FDA3E0FEA3E0FF1200C9803E900354E082
:1030EE0025E0FF900353E033FE743E2FF5827433D8
:1030FE003EF583E493FC740193FDE41203F3A804FC
:10310E00A905AA06AB0790034FE0FCA3E0FDA3E0E0
:10311E00FEA3E0FF1200C91203DD90035D120B87C0
:10312E00900357E0FCA3E0FDA3E0FEA3E0FF9003B5
:10313E005DE0F8A3E0F9A3E0FAA3E0FB120364500C
:10314E002190035DE0FCA3E0FDA3E0FEA3E0FF9071
:10315E000357120B87900353E0FFA3E0A3CFF0A316
:02316E00EFF080
:10317000900354E004F07006900353E004F0023032
:093180004F900355E0FEA3E0FFAF
:013189002223
:1044A600E4FFFE900347120B930000000090034BBD
:1044B600120B93000000007F0C124CA8AD07AC064F
:1044C600E41203F3E4FBFA792078401201BEE4FB20
:1044D600FA798078451202C7900347120B8790033A
:1044E60047E0F8A3E0F9A3E0FAA3E0FB7F337E33CD
:1044F6007D537C401200C9C004C005C006C007E455
:10450600FFFE7D207C41900347E0F8A3E0F9A3E09D
:10451600FAA3E0FB1201BED003D002D001D00012F4
:1045260002C790034B120B87E4FFFE7DC87C4290C6
:10453600034BE0F8A3E0F9A3E0FAA3E0FB1201BE07
:0B454600122FA8EF24C9FFEE34FFFE87
:014551002247
:043949004104AC0F7A
:0765B50053C9E153CAE122C2
:1040F0009004ACE020E01130C90EE4FF12646D9032
:1041000004ACE04401F080169004ACE030E00F20F5
:10411000C90CE4FF1235F59004ACE054FEF09004B5
:10412000ACE0C31320E01130CA0E7F0112646D9021
:1041300004ACE04402F080189004ACE0C31330E01B
:104140000F20CA0C7F011235F59004ACE054FDF04D
:104150009004ACE01313543F20E01130CB0E7F02EB
:1041600012646D9004ACE04404F0801A9004ACE05A
:104170001313543F30E00F20CB0C7F021235F59023
:1041800004ACE054FBF09004ACE0131313541F2074
:10419000E01030CC0D7F0312646D9004ACE0440855
:1041A000F0229004ACE0131313541F30E00F20CC26
:0E41B0000C7F031235F59004ACE054F7F022BA
:106339002E003000310032003300340035003600C1
:06634900370038003900A6
:07394D0044049A0000000091
:1000A600900347EFF07006FD7FA6125D7B90034735
:0C00B600E0B40107E4FD7FA7125D7B228F
:105FB500900347EFF0700DFD7FC8125D7BE4FD7F18
:105FC500A1125D7B900347E0B4010EE4FD7FC01292
:0A5FD5005D7BE4FD7FA0125D7B22DE
:10639100E4FD7F8D125D7BE4FD7F14125D7BE4FDE6
:0563A1007FAF025D7BEF
:1063A600E4FD7F8D125D7BE4FD7F10125D7BE4FDD5
:0563B6007FAE025D7BDB
:065D7500120777FF7D011B
:105D7B00ED6004D2968002C296C2C7E4FEC2C8EFA1
:105D8B0030E704D2938002C293D2C8EF25E0FF0E16
:085D9B00EEB408E9D2C7D2966C
:015DA30022DD
:10600900E4FCEC24B0FFE4FD125D7B7F10125D7BA4
:10601900E4FF125D7BE4FB7D01E4FF125D7B0BEB8A
:08602900B480F40CECB408DAB9
:01603100224C
:1061DE00AC07ED24B0FFE4FD125D7BEC54F0C4542B
:0E61EE000F4410FF125D7BEC540FFF025D7B2F
:105E0100E49004ADF09004ADE0FDC39408501EE4AD
:105E1100FF1261DEE4FC125D75740129F9E43AFABE
:0D5E21000CECB480F19004ADE004F080D8EA
:015E2E002251
:085B39009003A2EFF0A3EDF0D0
:105B4100E4A3F09003A2E0FFA3E0FD1261DEE4FC18
:105B5100125D75740129F9E43AFA0CECB410F19074
:0F5B610003A3E004F0A3E004F0E0C3940240D4F7
:015B70002212
:085B71009003A2EFF0A3EDF098
:105B7900E4A3F09003A2E0FFA3E0FD1261DEE4FCE0
:105B8900125D75740129F9E43AFA0CECB408F19044
:0F5B990003A3E004F0A3E004F0E0C3940240D4BF
:015BA80022DA
:1063BB001261DEE4FC125D75740129F9E43AFA0C02
:0463CB00ECB406F137
:0163CF0022AB
:10623200E4FEC2C8EF30E704D2938002C293EF2596
:09624200E0FFD2C80EEEB408E939
:01624B002230
:1063D000E4FFFEC2C8EF25E0FF3091010FD2C80EE6
:0463E000EEB408EF20
:0163E4002296
:0256FA00AC07FB
:1056FC00C2907F03126232AF04126232AF051262A3
:10570C0032AF03126232E4FD9003A8E0FFEDC39FB9
:10571C00501A1263D09003A5E0FBA3E0FAA3E0F9C2
:0E572C008D82758300EF1207CF0D80DCD290C6
:01573A00224C
:1024E500900369EFF0A3EDF0A3EBF0A3EAF0A3E905
:0124F500F0F6
:1024F600E4A3F090036BE0FBA3E0FAA3E0F9A3E00A
:10250600F582758300120790FFD3940050030228CA
:1025160021EF94B050030225C2EFD394F740030293
:1025260025C290036EE02401FFE433FE8F828E8382
:10253600120790C394A150030225C290036BA3A374
:10254600A3E0F5827583001207902450FFE434FF60
:10255600FE7C007D5E1207F1EE3395E0FDFC9004F3
:102566009A120B8790049AE0F8A3E0F9A3E0FAA385
:10257600E0FBC000C001C002C00390036EE024016E
:10258600FFE433FE90036BE0FBA3E0FAA3E0F98FD0
:10259600828E83120790245FFFE434FFCF244ECF50
:1025A6003403FEE4FCFDD003D002D001D000EB2FB3
:1025B600FFEA3EFEED39FDEC3802267C90036BE027
:1025C600FBA3E0FAA3E0F9A3E0F582758300120706
:1025D60090FFC394A1500302271DEFD394A3400399
:1025E60002271D90036EE02401FFE433FE8F828EE6
:1025F60083120790C394A1500302271D90036BA377
:10260600A3A3E0F582758300120790245FFFE434EC
:10261600FFFE7C007D5E1207F1EE3395E0FDFC9037
:10262600049A120B8790049AE0F8A3E0F9A3E0FA63
:10263600A3E0FBC000C001C002C00390036EE0240B
:1026460001FFE433FE90036BE0FBA3E0FAA3E0F99D
:102656008F828E83120790245FFFE434FFFE33954A
:10266600E0FDFCD003D002D001D000EB2FFFEA3E04
:10267600FEE93DFDE83CFC90049A120B8790049A13
:10268600E0FCA3E0FDA3E0FEA3E0FFE47B20FAF973
:10269600F812095E90049A120B8790049AA3E0FD43
:1026A600A3A3E4FFFEE4FC7810120AA790036FEFE1
:1026B600F0FA90049AA3A3E0FEA3E4FFE4FDFC78FD
:1026C60008120AA7900370EFF0F990049AE0FCA3B1
:1026D600A3E0FEA3E0FF900371EFF0FBAF02AD01B4
:1026E6009003A57401F0A37403F0A37472F0A374AD
:1026F60020F01256FA900369E0FFA3E0FD7B017A11
:10270600037972125B39900369E02410F090036E2E
:10271600E02402F00224F990036BE0FBA3E0FAA3A5
:10272600E0F9A3E0F582758300120790FFC39420B9
:0E2736005003022818EFD3947E4003022818A7
:1027440090036BA3A3A3E0F5827583001207902482
:10275400E0FFE434FFFE3395E0FDFC90049A120B95
:102764008790049AE0FCA3E0FDA3E0FEA3E0FFE46D
:102774007B10FAF9F812095E90049A120B87900400
:102784009AE0FCA3E0FDA3E0FEA3E02480FFEE3486
:10279400CFFEED3403FDE43CFC90049A120B8790C9
:1027A400049AA3E0FDA3A3E4FFFEE4FC7810120A5C
:1027B400A790036FEFF0FA90049AA3A3E0FEA3E4BA
:1027C400FFE4FDFC7808120AA7900370EFF0F9907B
:1027D400049AE0FCA3A3E0FEA3E0FF900371EFF0F2
:1027E400FBAF02AD019003A57401F0A37403F0A341
:1027F4007492F0A37410F01256FA900369E0FFA3E8
:10280400E0FD7B017A037992125B71900369E02405
:0228140008F0CA
:0B281600800090036EE004F00224F943
:012821002294
:10371C00900427EFF0A3EDF0A3EBF0A3EAF0A3E9FC
:01372C00F0AC
:10372D00E4A3F0900429E0FBA3E0FAA3E0F9A3E001
:10373D00F582758300120790FFD394005003023871
:10374D003CEF94205003023833EFD3947E400302B4
:02375D003833FF
:10375F00900429A3A3A3E0F5827583001207902498
:10376F00E0FFE434FFFE3395E0FDFC90049A120B6A
:10377F008790049AE0FCA3E0FDA3E0FEA3E0FFE442
:10378F007B08FAF9F812095E90049A120B879004DD
:10379F009AE0FCA3E0FDA3E0FEA3E024C0FFEE341B
:1037AF00BFFEED3403FDE43CFC90049A120B8790AE
:1037BF00049AA3E0FDA3A3E4FFFEE4FC7810120A31
:1037CF00A790042DEFF0FA90049AA3A3E0FEA3E4D0
:1037DF00FFE4FDFC7808120AA790042EEFF0F99091
:1037EF00049AE0FCA3A3E0FEA3E0FF90042FEFF008
:1037FF00FBAF02AD019003A57401F0A37404F0A315
:10380F007430F0A37408F01256FA900427E0FFA367
:10381F00E0FD7B017A0479301263BB900427E0242A
:02382F0006F0A1
:0B383100800090042CE004F00237300F
:01383C002269
:0A318A00900439EDF0900438EFF0E6
:1031940090043EE075F008A42F2408900438F0E46D
:1031A400FFFE7DC87C4290043AE0F8A3E0F9A3E076
:1031B400FAA3E0FB1201BE12042C900444120B8704
:1031C400900438E024E8FFA3E0FD7BFF7A637939BB
:1031D4001224E5E490043FF090043EE0FFA3E0C332
:1031E4009F400302333DE47B0AFAF9F8900444E07B
:1031F400FCA3E0FDA3E0FEA3E0FF1209E9AC00ADEF
:1032040001AE02AF03900440120B87900444E0FC2B
:10321400A3E0FDA3E0FEA3E0FFE47B0AFAF9F812C1
:1032240009E9900444120B87900438E024F8F090E4
:10323400043FE0B40207900438E024F8F09004401E
:10324400E0FCA3E0FDA3E0FEA3E0FF120C463292F3
:103254000000000032A30000000132B300000002AD
:1032640032C30000000332D30000000432E3000044
:10327400000532F300000006330300000007331397
:1032840000000008332300000009000033349004D8
:1032940038E0FFA3E0FD7BFF7A63793B0233319092
:1032A4000438E0FFA3E0FD7BFF7A63793D807E90E4
:1032B4000438E0FFA3E0FD7BFF7A63793F806E90E2
:1032C4000438E0FFA3E0FD7BFF7A637941805E90E0
:1032D4000438E0FFA3E0FD7BFF7A637943804E90DE
:1032E4000438E0FFA3E0FD7BFF7A637945803E90DC
:1032F4000438E0FFA3E0FD7BFF7A637947802E90DA
:103304000438E0FFA3E0FD7BFF7A637949801E90D7
:103314000438E0FFA3E0FD7BFF7A63794B800E90D5
:103324000438E0FFA3E0FD7BFF7A63794D1224E5C6
:0933340090043FE004F00231DCDA
:01333D00226D
:1047E000D2C7D2907FC81264AEE4FD7FAE125D7B6B
:1047F000E4FF125D7B7F10125D7B7F40125D7B7F4B
:1048000081125D7B7FCF125D7B7FA1125D7B7FC8B4
:10481000125D7B7FA6125D7B7FA8125D7B7F3F12BE
:104820005D7B7FD3125D7BE4FF125D7B7FD5125DE4
:104830007B7F80125D7B7FD9125D7B7FF1125D7B78
:104840007FDA125D7B7F12125D7B7FDB125D7B7FE7
:1048500040125D7B7F20125D7B7F02125D7B7F8D2E
:10486000125D7B7F14125D7B7FA4125D7B7FA6129D
:0C4870005D7B126009E4FD7FAF025D7B00
:100D45000000000000000000002F00000000070068
:100D5500070000147F147F1400242A7F2A120062E2
:100D6500640813230036495522500000050300008E
:100D750000001C224100000041221C000014083E16
:100D850008140008083E0808000000A060000008DC
:100D95000808080800006060000000201008040230
:100DA500003E5149453E0000427F400000426151EE
:100DB5004946002141454B31001814127F10002788
:100DC50045454539003C4A4949300001710905034B
:100DD50000364949493600064949291E000036367C
:100DE50000000000563600000008142241000014DF
:100DF50014141414000041221408000201510906BC
:100E050000324959513E007C1211127C007F49493C
:100E15004936003E41414122007F4141221C007F6D
:100E250049494941007F09090901003E4149497A7B
:100E3500007F0808087F0000417F410000204041F5
:100E45003F01007F08142241007F40404040007F61
:100E5500020C027F007F0408107F003E4141413EA5
:100E6500007F09090906003E4151215E007F0919ED
:100E750029460046494949310001017F0101003FEA
:100E85004040403F001F2040201F003F4038403F6A
:100E950000631408146300070870080700615149CE
:100EA500454300007F41410000552A552A55000061
:100EB50041417F00000402010204004040404040DF
:100EC500000001020400002054545478007F484477
:100ED500443800384444442000384444487F0038AE
:100EE5005454541800087E0901020018A4A4A47CD7
:100EF500007F080404780000447D400000408084A1
:100F05007D00007F102844000000417F4000007CE8
:100F150004180478007C08040478003844444438F4
:100F250000FC242424180018242418FC007C080440
:100F3500040800485454542000043F444020003C19
:100F45004040207C001C2040201C003C4030403CA0
:100F5500004428102844001CA0A0A07C0044645430
:100F65004C44141414141414000000000000000074
:100F75000000000000000000000000F80000000074
:100F8500000000333000000000100C06100C0600B5
:100F9500000000000000000040C07840C07840001C
:100FA500043F04043F040400007088FC083000007E
:100FB500001820FF211E0000F008F000E0180000D6
:100FC50000211C031E211E0000F00888700000008F
:100FD5001E2123241927211010160E0000000000E1
:100FE5000000000000000000000000E018040200FE
:100FF500000000071820400000020418E00000006F
:101005000040201807000000404080F0804040006C
:101015000202010F01020200000000F000000000C2
:101025000101011F01010100000000000000000096
:1010350080B070000000000000000000000000000B
:101045000001010101010101000000000000000094
:10105500003030000000000000000000806018042F
:10106500006018060100000000E010080810E0000C
:10107500000F102020100F00001010F800000000D5
:101085000020203F2020000000700808088870001C
:10109500003028242221300000300888884830009C
:1010A5000018202020110E000000C02010F80000BC
:1010B50000070424243F240000F808888808080055
:1010C5000019212020110E0000E01088881800006A
:1010D500000F112020110E0000380808C83808003C
:1010E5000000003F000000000070880808887000BC
:1010F500001C222121221C0000E010080810E0003D
:101105000000312222110F00000000C0C0000000C5
:1011150000000030300000000000008000000000EA
:1011250000008060000000000000804020100800E2
:1011350000010204081020004040404040404000AB
:101145000404040404040400000810204080000086
:101155000020100804020100007048080808F0008B
:101165000000003036010000C030C828E810E0005B
:101175000718272423140B000000C038E0000000E6
:10118500203C23020227382008F888888870000050
:10119500203F202020110E00C03008080808380024
:1011A500071820202010080008F808080810E0009B
:1011B500203F202020100F0008F88888E80810003C
:1011C500203F20202320180008F88888E808100010
:1011D500203F200003000000C03008080838000048
:1011E50007182020221E020008F808000008F80849
:1011F500203F210101213F20000808F808080000D0
:101205000020203F2020000000000808F808080002
:10121500C08080807F00000008F888C0281808007A
:10122500203F20012638200008F8080000000000B3
:10123500203F20202020300008F8F800F8F80800AA
:10124500203F003F003F200008F830C00008F808A4
:10125500203F200007183F00E01008080810E000B4
:101265000F10202020100F0008F808080808F000CB
:10127500203F210101010000E01008080810E000EE
:101285000F18242438504F0008F888888888700083
:10129500203F2000030C3020007088080808380023
:1012A5000038202121221C00180808F80808180019
:1012B5000000203F2000000008F808000008F8089A
:1012C500001F202020201F000878880000C838084B
:1012D500000007380E010000F80800F80008F800C3
:1012E500033C0700073C030008186880806818085D
:1012F50020302C03032C30200838C800C8380800DB
:101305000000203F2000000010080808C838080029
:101315002038262120201800000000FE02020200CD
:101325000000007F40404000000C30C0000000007D
:10133500000000010638C00000020202FE000000A5
:10134500004040407F00000000000402020204004B
:101355000000000000000000000000000000000088
:101365008080808080808080000202040000000070
:101375000000000000000000000080808080000068
:101385000019242222223F2008F800808000000056
:10139500003F112020110E00000000808080000019
:1013A500000E112020201100000000808088F80028
:1013B500000E112020103F2000008080808000005A
:1013C500001F222222221300008080F088888818BE
:1013D5000020203F202000000000808080808000C9
:1013E500006B94949493600008F80080808000005E
:1013F500203F210000203F20008098980000000039
:101405000020203F20200000000000809898000068
:1014150000C08080807F000008F800008080800088
:10142500203F24022D302000000808F800000000AD
:101435000020203F20200000808080808080800068
:10144500203F20003F20003F8080008080800000FA
:10145500203F210000203F20000080808080000088
:10146500001F202020201F008080008080000000B9
:1014750080FFA12020110E000000008080808000E8
:10148500000E112020A0FF808080800080808000D9
:1014950020203F2120000100000080808080800006
:1014A5000033242424241900008080E0808000007B
:1014B5000000001F202000008080000000808000C8
:1014C500001F202020103F20808080000080808029
:1014D50000010E30080601008080008000808080B9
:1014E5000F300C030C300F000080800080808000DE
:1014F5000020312E0E312000808080000080808009
:1015050080818E70180601000080808080808000B8
:101515000021302C2221300000000000807C0202D6
:1015250000000000003F404000000000FF000000F8
:1015350000000000FF0000000002027C80000000A7
:101545000040403F000000000006010102020404C3
:10155500000000000000000000003E222A3222FEAA
:1015650022322A223E0000008868090929C9090F8C
:1015750029C9090929C80800000202F2828282826B
:101585008282FE8080800000080808080808080894
:1015950008084880403F00002424A4FE2322003E82
:1015A50022222222223E0000080601FF01064049B0
:1015B50049497F49494941000000FC0404041415C8
:1015C500569454341404040040300F0001010141C5
:1015D500817F0101010503000000C05E5252525295
:1015E5005252525EC000000080808F404020100E95
:0815F500101020204F800000BF
:1061FC00900347EFF07006FD7FA6125C28900347D2
:0C620C00E0B40107E4FD7FA7125C28222B
:105FDF00900347EFF0700DFD7FC8125C28E4FD7F42
:105FEF00A1125C28900347E0B4010EE4FD7FC012BC
:0A5FFF005C28E4FD7FA0125C28225C
:105C1700F583E5822FF582E5833EF583E493FF7DE7
:015C2700017B
:105C280090036DEFF0ED7B017A03796D900373B407
:105C380001077401F07D4080057401F0E4FD7F7870
:045C4800125C802248
:075CB300E0FFA3E0FD04F097
:105CBA0090036CEFF0ED24B0FFE4FD125C28900332
:105CCA006CE054F0C4540F4410FFE4FD125C2890B9
:0B5CDA00036CE0540FFFE4FD025C28A7
:1063E500E4FD7F8D125C28E4FD7F14125C28E4FD3A
:0563F5007FAF025C28EF
:1063FA00E4FD7F8D125C28E4FD7F10125C28E4FD29
:05640A007FAE025C28DA
:10539500E4900348F0900348E0FFC394085036EFCB
:1053A50024B0FFE4FD125C28E4FDFF125C28E4FD57
:1053B5007F10125C28E4900349F07D01E4FF125C44
:1053C50028900349E004F0E0C3948040ED90034841
:0553D500E004F080C0BF
:0153DA0022B0
:083C6600900362EFF0A3EDF002
:103C6E00E4900366F0900365E0FFC313FD900367D5
:103C7E00F0E4A3F0A3F0EFB40809A3E4F0A37406F4
:103C8E00F08031900365E0FF131313541FF5827516
:103C9E008300EF54077E0060047F0180027F00EFF7
:103CAE002582FFEE3583FE7C001207F190036AEE4B
:103CBE00F0A3EFF0EB24E0900366F0900362E0FFD8
:103CCE00A3E0FD125CBAE4900368F0A3F090036ADF
:103CDE00E0FCA3E0FD900368E0FEA3E0FFC39DEED1
:103CEE009C5070900367E0FD7C00120803ED4C7051
:103CFE000E900365E064086006900362125CB39058
:103D0E000365E0B4081A900368E0FEA3E0FF900399
:103D1E0066E075F006A42445F582E5F0340D801FAB
:103D2E00900365E0B4102C900368E0FEA3E0FF90D2
:103D3E000366E075F010A4246DF582E5F0340F12E1
:103D4E005C17900369E004F07006900368E004F0DD
:033D5E00023CDB49
:013D6100223F
:0852BD0090048AEFF0A3EDF06C
:1052C500A3120B930000000190048BE0FF14F0EF94
:1052D5006020A3E0F8A3E0F9A3E0FAA3E0FB9004C3
:1052E5008AE0FFE4FCFDFE12095E90048C120B8738
:1052F50080D690048CE0FCA3E0FDA3E0FEA3E0FFD4
:015305002285
:083F4200900448EFF0A3EDF03C
:103F4A00E4900452F0A3F090044FE0B40806900401
:103F5A00527402F0E4900450F090044EE0FF900492
:103F6A0050E0FEC39F4003024020C3EF9E14FD7F32
:103F7A000A1252BDA804A905AA06AB0790044AE092
:103F8A00FCA3E0FDA3E0FEA3E0FF1209E9E47B0A3B
:103F9A00FAF9F81209E9900451EBF0900453E07031
:103FAA003C90044EE014FF900450E0FEC39F502D55
:103FBA00A3E0702390044FE0FCC313FF900452E087
:103FCA002F8EF0A4FF900448E02FFFA3E0FD90039A
:103FDA0065ECF07B2080339004537401F090044F19
:103FEA00E0FEC313FF900452E02FFF900450E0FD5F
:103FFA00EF8DF0A4FF900448E02FFFA3E0FD9004AA
:10400A0051E02430FB900365EEF0123C66900450B8
:06401A00E004F0023F6328
:01402000227D
:104D930090035BEFF0A3EDF0A3EBF0A3EAF0A3E93C
:014DA300F01F
:104DA400E4900361F090035DE0FBA3E0FAA3E0F973
:104DB400900361E0F58275830012079060409003D0
:104DC4005BE0FFA3E0FD900361E0FE04F08E8275DA
:104DD4008300120790FB900360E0900365F0123C9F
:104DE40066900360E0FFB4080990035BE02406F0DA
:0E4DF40080B3EFC313FF90035BE02FF080A7A6
:014E0200228D
:0B45F90090047AEFF0A3EDF0A3EBF0CC
:10460400E490047EF0A3F090047DE0FF13131354B0
:104614001FFD7C00EF54077E0060047F0180027F51
:1046240000EF2DFFEE3CFE90047DE0FD7C001207C0
:10463400F1900480EEF0A3EFF0E490047EF0A3F098
:10464400900480E0FCA3E0FD90047EE0FEA3E0FF84
:10465400C39DEE9C504390047DE0FD7C0012080352
:10466400ED4C700690047A125CB390047DE0B410B3
:1046740028A3E0FEA3E0FF90047CE0C43354E024CC
:104684005DF582E43415125C1790047FE004F07049
:09469400AF90047EE004F080A761
:01469D0022FA
:0B487C00900454EFF0A3EDF0A3EBF06C
:10488700E490045BF0A3F0900457E0FF1313135474
:104897001FFEEF540760047F0180027F00EE2F9018
:1048A7000457F0E490045DF0900457E0FF90045D36
:1048B700E0FEC39F5051900454E0FFA3E0FDEE2DAE
:1048C700FD125CBAE490045EF0900456E0FF900499
:1048D7005EE0C39F5029900458E0FBA3E0FAA3E0F1
:1048E700F9A3E475F00112088E85F082F5831207AB
:1048F70090FF7D01125C2890045EE004F080CA906E
:07490700045DE004F080A153
:01490E002286
:1041BE00E4FD7FAE125C28E4FDFF125C28E4FD7F77
:1041CE0010125C28E4FD7F40125C28E4FD7F811212
:1041DE005C28E4FD7FCF125C28E4FD7FA1125C28F1
:1041EE00E4FD7FC8125C28E4FD7FA6125C28E4FD86
:1041FE007FA8125C28E4FD7F3F125C28E4FD7FD38C
:10420E00125C28E4FDFF125C28E4FD7FD5125C28C9
:10421E00E4FD7F80125C28E4FD7FD9125C28E4FD6A
:10422E007FF1125C28E4FD7FDA125C28E4FD7F1238
:10423E00125C28E4FD7FDB125C28E4FD7F40125CFB
:10424E0028E4FD7F20125C28E4FD7F02125C28E446
:10425E00FD7F8D125C28E4FD7F14125C28E4FD7F47
:10426E00A4125C28E4FD7FA6125C28125395E4FD8F
:05427E007FAF025C2887
:10645B000000000000000000000000000000000031
:02646B0000002F
:1062F5009004A9740CF09004A87402F07B017A0450
:0763050079A87F03022D546B
:105DA4009004927401F0900491F0E4900493F090C4
:105DB4000490740DF07B017A047990124C2CE4FB6E
:0E5DC400FD7F01124F37E5BA54CF4430F5BAD7
:015DD20022AE
:01002A0022B3
:10395500E490034FF078507C037D017BFF7A647916
:103965005BFE7F0712072F90034EE0FF75F00A8478
:10397500C454F0FEEF75F00A84E5F04E900350F064
:1039850090034DE0FF75F00A84C454F0FEEF75F026
:103995000A84E5F04E900351F090034CE0FF75F07A
:1039A5000A84C454F0FEEF75F00A84E5F04E9003E6
:1039B50052F090034AE0FF75F00A84C454F0FEEF1C
:1039C50075F00A84E5F04E900353F090034BE090B8
:1039D5000354F0900347E0FAA3E0FBC39434EA9460
:1039E5000840047F0180027F0090034FEFF09003B1
:1039F50049E0FF75F00A84C454F0FE90034FE0C41B
:103A050033333354804EFEEF75F00A84E5F04E9063
:103A15000355F07C007D64AF03AE021208037E00FF
:103A25007F0ACFCDCFCECCCE120803EFC454F0FB26
:103A3500900347E0FEA3E0FF7C007D0A120803EB3C
:103A45004D900356F07B017A037950900373740708
:083A5500F07D027FA2025C80FB
:0B3A5D00900347EBF0A3EAF0A3E9F0B0
:103A6800784B7C037D017BFF7A6479627E007F0757
:103A780012072F7B017A03794B9003577407F07D67
:103A8800027FA212586090034BE0FFC4540775F000
:103A98000AA4FEEF540F2EFF900347E0FBA3E0FAC1
:103AA800A3E0F9900007EF1207CF90034CE0FFC4A2
:103AB800540775F00AA4FEEF540F2E900006120763
:103AC800CF90034DE0FFC4540375F00AA4FEEF54F1
:103AD8000F2E9000051207CF90034EE0FFC4540349
:103AE80075F00AA4FEEF540F2E9000031207CF9032
:103AF800034FE054079000041207CF900350E0FFF3
:103B0800C4540175F00AA4FEEF540F2E900002125F
:103B180007CF900350E0C4131313540190034AF0E5
:103B2800900351E0C4540F75F00AA4FFE0540F7CD1
:103B3800002FFFEC35F08FF012093F90034AE07038
:103B4800067E077FD080047E087F34900347E0FB21
:0C3B5800A3E0FAA3E0F9EE8FF0020907E9
:1040210078867C047D017BFF7A6479697E007F0458
:1040310012072F900482E0C364809480500890049A
:10404100867480F0801E900482E0FF75F00A1207EA
:1040510055C454F0FEEF75F00A120755AFF0EF2E7C
:10406100900486F0900483E0C364809480500890AB
:1040710004877480F0801E900483E0FF75F00A12BB
:104081000755C454F0FEEF75F00A120755AFF0EF73
:104091002E900487F0900484E0C3648094805008DB
:1040A1009004887480F0801E900484E0FF75F00A0B
:1040B100120755C454F0FEEF75F00A120755AFF020
:1040C100EF2E900488F0900485E0FFC36480948013
:1040D10090048950057480F08002EFF07B017A042E
:0F40E10079869003737404F07D097FA2025C80DE
:05546500900347EFF089
:10546A007B017A0379489003577401F0FD7FA212F9
:10547A005860900348E054F7F0900347E06007A3B0
:10548A00E04402F08007900348E054FDF07B017A83
:0F549A000379489003737401F0FD7FA2025C80D8
:105F35007B017A0479AE9003577401F0FD7FA212BC
:105F450058609004AEE054F7F07B017A0479AE9086
:0B5F550003737401F0FD7FA2025C806A
:055BE1009004AAEDF0A4
:105BE600EF2480A3F07B017A0479AB9003737401F0
:105BF600F07D0E7FA2125C809004AAE0A3F07B01E8
:105C06007A0479AB9003737401F07D0F7FA2025C76
:015C1600800D
:0554A900900347EFF045
:1054AE007B017A0379489003577401F0FD7FA212B5
:1054BE005860900348E054FBF0900347E06007A368
:1054CE00E04401F08007900348E054FEF07B017A3F
:0F54DE000379489003737401F0FD7FA2025C8094
:105F60007B017A0479AF9003577401F0FD7FA21290
:105F700058609004AFE054FBF07B017A0479AF9055
:0B5F800003737401F0FD7FA2025C803F
:01009100224C
:105BA900020B024B029302BA0310037003DC0416C2
:105BB900049605260574062006E007B8082C092C6A
:105BC9000A4C0AE80C400DC00F701058125814986E
:085BD90015D018801B801EE0AE
:10630C009003487401F09003477403F07B017A0307
:07631C007947E4FF022D5454
:0665F30043BA8002630CB4
:104A2600AB07AA06E4F9F8FF7E367D6E7C011254C8
:104A3600ED90034EEEF0A3EFF0A37460F0AD07AC7B
:104A460006E41203F37BCD7ACC794C783E1201BE94
:104A560012042C900353EEF0A3EFF090035674016A
:104A6600F0FB7A0379507F051220D390034FE024A0
:104A7600FFFE90034EE034FF900351F0A3CEF0E426
:104A8600900355F090035804F0900357F0FB7A0317
:104A960079507F811220D390FEB6E054FC4402F098
:084AA600E4FBFD7F81024B31AE
:105D160090034CEEF0A3EFF04E700302634F900336
:105D26004DE025E0FF90034CE033FE74A72FF5828B
:105D3600745B3EF583E493FE740193FF124A2622B8
:10634F0090034E7460F0E4900354F07B017A03796C
:06635F004E7F050220D371
:10619D00C0F9A4B0999282F88090407924301912F8
:1061AD00027800107FBF8883C6A1868E89F1C78CC7
:0261BD0098C187
:10636500900348741CF0E4900347F07B017A0379AD
:06637500477F04022D54D5
:03660E00026365BF
:024E6A00A90796
:104E6C007B077E007401A803088005C333CE33CEC4
:104E7C00D8F9FFE9F582EF558224FF92C4C2C20033
:104E8C0000D2C200001BC3EB6480948050D47B071B
:104E9C007E007401A803088005C333CE33CED8F945
:104EAC00FFEDF582EF558224FF92C4C2C20000D2FE
:104EBC00C200001BC3EB6480948050D4C2C30000BA
:044ECC00D2C300004D
:014ED00022BF
:1062AF00EF90619D93FFAE05A8067401088002C3AD
:0862BF0033D8FCFEFD024E6A1B
:103E5E00726561640A006572723A20CAB1BCE45B95
:103E6E00256475735D2C20B2BBC2FAD7E3D6F7BBBF
:103E7E00FACACDB7C5D7DCCFDFCAB1BCE45B2564C7
:103E8E0075732C20256475735D0A006572723A2075
:103E9E00CAB1BCE45B256475735D2C20B2BBC2FA5B
:103EAE00D7E325735B256475732C20256475735DCC
:103EBE000A00CFECD3A6B5CDB5E7C6BDCAB1BCE4FA
:103ECE0000CFECD3A6B8DFB5E7C6BDCAB1BCE400DF
:103EDE0044617461D0C5BAC53A20B5CDB5E7C6BD4B
:103EEE00CAB1BCE40044617461D0C5BAC53A20B809
:103EFE00DFB5E7C6BDCAB1BCE4006C6173745F6325
:103F0E006E743A2025640A006461742D3E002564A7
:103F1E0020000A00636865636B206661696C7572C8
:103F2E0065210A00727374202D3E2025640A00005C
:043F3E00000000007F
:10637B009003487440F0E4900347F07B017A037973
:06638B00477F04022D54BF
:0366110002637BA6
:0665BC00750D03D50DFD75
:0165C20022B6
:0366140000002261
:0B282200900353EBF0A3EAF0A3E9F0F1
:10282D00E4A3F0A3F0A3F07BFF7A3E795E121CBB0C
:10283D00C2C67F141264AED2C6E4900358F030C6FF
:10284D0011900358E0C394285008126614E004F068
:10285D0080EC900358E0FFC394064006EFD3942319
:10286D00401F7BFF7A3E796490036CE4F0A3EFF098
:10287D00A3E4F0A37406F0A3E4F0A37423F0022AFA
:10288D00E4E4900358F020C611900358E0C394641B
:10289D005008126614E004F080EC900358E0FFC37A
:1028AD00944C4006EFD39458402B90036CE4F0A366
:1028BD00EFF0A374FFF0A3743EF0A374C0F0A3E493
:1028CD00F0A3744CF0A3E4F0A37458F07BFF7A3EB0
:1028DD007999022AE4E4900358F030C61190035818
:1028ED00E0C394645008126614E004F080EC900389
:1028FD0058E0FFC394504006EFD3945C402B9003F7
:10290D006CE4F0A3EFF0A374FFF0A3743EF0A37496
:10291D00CFF0A3E4F0A37450F0A3E4F0A3745CF043
:10292D007BFF7A3E7999022AE4E4900356F09003F6
:10293D00577407F0E4900358F020C611900358E047
:10294D00C394645008126614E004F080EC900358B0
:10295D00E0FFC394284006EFD3943A402B90036CCC
:10296D00E4F0A3EFF0A374FFF0A3743EF0A374DEC4
:10297D00F0A3E4F0A37428F0A3E4F0A3743AF07B81
:10298D00FF7A3E7999022AE4E4900358F030C6119B
:10299D00900358E0C394645008126614E004F0806C
:1029AD00EC900358E0FFC394124006EFD3944B40D4
:1029BD002B90036CE4F0A3EFF0A374FFF0A3743E2F
:1029CD00F0A374F3F0A3E4F0A37412F0A3E4F0A366
:1029DD00744BF07BFF7A3E7999022AE4900358E01C
:1029ED00D39432402F900353E0FBA3E0FAA3E0F918
:1029FD00A3E0FF3395E0FEE92FF9EA3EFA120777DF
:102A0D00FF900357E0FEF87401088002C333D8FC31
:102A1D004F1207BD900357E014F0E0C3648094801B
:102A2D004003022941900356E004F0E0C364809412
:102A3D0085500302293BD2C67BFF7A3F790890036C
:102A4D0058E0FF90036CE4F0A3EFF0121CBB7BFF8A
:102A5D007A3F7916121CBBE4900356F0900356E0B2
:102A6D00FFC3648094855030900353E0FBA3E0FADC
:102A7D00A3E0F9EF3395E08F82F583120790FF9075
:102A8D00036CE4F0A3EFF07BFF7A3F791C121CBBC3
:102A9D00900356E004F080C47BFF7A3F7920121C2E
:102AAD00BB900353E0FBA3E0FAA3E0F99000011201
:102ABD000790FF1207772FFF9000021207902FFF4C
:102ACD009000031207902FFF9000041207906F6083
:0F2ADD000C7BFF7A3F7922121CBB7FFF227F0008
:012AEC0022C7
:0B3D6200900347EBF0A3EAF0A3E9F0A8
:103D6D00784D7C037D017BFF7A3F793D7E007F0599
:103D7D0012072F7B017A03794D122822900352EFFF
:103D8D00F07BFF7A3F79323395E090036CF0A3EF2F
:103D9D00F0121CBB900352E0FF60012290034EE035
:103DAD00FCE41203F87BCD7ACC79CC783D1201BEC0
:103DBD00C004C005C006C00790034DE0FCE412032B
:103DCD00F8D003D002D001D0001200CD900347E00F
:103DDD00FBA3E0FAA3E0F9120B1D900350E0547F12
:103DED00FCE41203F87BCD7ACC79CC783D1201BE80
:103DFD00C004C005C006C00790034FE0FCE41203E9
:103E0D00F8D003D002D001D0001200CD90034AE0CB
:103E1D00FBA3E0FAA3E0F9120B1D900350E0FFC4E1
:103E2D001313135401602790034AE0FBA3E0FAA398
:103E3D00E0F9C003C002C001120ACDE4FBFA79809B
:103E4D0078BF1201BED001D002D003120B1D7F002E
:013E5D002242
:1000C600020498E86480F8E933E83360110460F0CC
:1000D600ED33EC337009E8FCE9FDEAFEEBFF2204A0
:1000E60060DED3EB9FEA9EE99DE8C2E78CF0C2F79B
:1000F60095F0400CE8CCF8E9CDF9EACEFAEBCFFB67
:1001060012046385D0F05804700320D5B3E8047058
:10011600075002B2D50204A292D5EC0460F7E4CCF3
:10012600C0E0C398F8603B94186008400DD0E0FB2F
:1001360002047AE4FBFAC9FC8028E830E406E4C944
:10014600FBE4CAFCE830E305E4C9CACBFCE8540783
:100156006010F8C3E913F9EA13FAEB13FBEC13FC8E
:10016600D8F130F52FC3E49CFCEF9BFFEE9AFEED31
:1001760099FDD0E0FBEF4E4D4C701222DB030204DA
:100186009FEC2CFCEF33FFEE33FEED33FDED30E755
:10019600EB02047AEF2BFFEE3AFEED39FDD0E0FBE1
:1001A60050130BBB00030204A2ED13FDEE13FEEF8A
:0801B60013FFEC13FC02047AB4
:1001BE00EC4D6011E8497017ED33EC3304600DE43B
:1001CE00FCFFFEFD22E933E8330470F802049812B6
:1001DE00046358046009E4CC2481500628500902B7
:1001EE0004A228400302049FC0E0EB4A7044B98089
:1001FE0006D0E0FB02048EEF4E701CBD8008EBFFB4
:10020E00EAFEE9FD80EBE98DF0A4FEE5F00202A71F
:10021E00E9CDF9EAFEEBFFEF89F0A4FCE5F0CE891B
:10022E00F0A42EFFE435F0CD89F0A42DFEE435F0D8
:10023E008067EF4E7005BD80D780C3EF8BF0A4AC06
:10024E00F0EE8BF0A42CFCE435F0F8EF8AF0A42C41
:10025E00E5F038FCE433CB8DF0A42CFCE5F03BF854
:10026E00EE8AF0A42CFCE5F038F8E433CF89F0A444
:10027E002CFCE5F038CF3400CE89F0A42FFFE5F04A
:10028E003EFEE433C98DF0A42EFEE5F039CD8AF0A2
:10029E00A42FFFE5F03EFEE43DFD33D0E0FB50071A
:1002AE000BBB000F0204A2EC2CFCEF33FFEE33FE6F
:0602BE00ED33FD02047A9D
:1002C4000204A2EC5D046005E8590470030204987A
:1002D400120463580460F6EC4860F2EC7004FDFE0E
:1002E400FF22C860DB2481C85009C398600250060D
:1002F40002049F9850CAF582E9294B4A7005AB82E3
:1003040002048E75F0007C1A7880C3EF9BEE9AEDA0
:1003140099400DC3EF9BFFEE9AFEED99FDE842F084
:10032400DC23ACF0D0E0FFD0E0FED0E0FDAB8220D7
:10033400E7101BEB60BAEC2CFCEF33FFEE33FEED61
:1003440033FD02047AE803F830E705C0F075F000E5
:10035400EF2FFFEE33FEED33FD40B830E7C280AA45
:1003640074F8CC6480CCC86480C8F58204604FC340
:10037400EB9FF5F0EA9E42F0E99D42F0E89C45F0DF
:10038400603C501DE5825FFFE582D313CB5BCBF469
:100394002B5582FB50280ABA002409B90020088092
:1003A4001DE5825BFBE582D313CF5FCFF4C3132F2C
:1003B4005582FF50090EBE00050DBD00010CC3EBB4
:1003C4009FF5F0EA9E42F0E99D42F0E89C45F0601A
:0903D40007CC4820E701B3EC223C
:1003DD00ED33EC33600A047003BD8004ECB2E7FC2E
:0103ED0022ED
:1003EE0075F020800E75F010800575F0087D007E8A
:1003FE00007F003392D530D503120A88EC334010BB
:10040E00EF33FFEE33FEED33FDEC33FCD5F0ED2292
:0E041E00E5F0247EA2D513CC92E7CDCEFF22CE
:10042C00EDD2E7CD33EC3392D524814006E4FFFEC8
:10043C00FDFC22FCE4CFCECDCC24E0501174FF8027
